{
  "contractName": "BankContract",
  "abi": [
    {
      "inputs": [
        {
          "internalType": "address",
          "name": "PawnAddress",
          "type": "address"
        },
        {
          "internalType": "address",
          "name": "BoardAddress",
          "type": "address"
        },
        {
          "internalType": "address",
          "name": "PropAddress",
          "type": "address"
        },
        {
          "internalType": "address",
          "name": "MonoAddress",
          "type": "address"
        },
        {
          "internalType": "address",
          "name": "LinkAddress",
          "type": "address"
        },
        {
          "internalType": "address",
          "name": "StakingAddress",
          "type": "address"
        }
      ],
      "stateMutability": "nonpayable",
      "type": "constructor"
    },
    {
      "anonymous": false,
      "inputs": [
        {
          "indexed": true,
          "internalType": "address",
          "name": "player",
          "type": "address"
        },
        {
          "indexed": false,
          "internalType": "uint8",
          "name": "quantity",
          "type": "uint8"
        }
      ],
      "name": "DicesRollsPrepaid",
      "type": "event"
    },
    {
      "anonymous": false,
      "inputs": [
        {
          "indexed": true,
          "internalType": "address",
          "name": "player",
          "type": "address"
        },
        {
          "indexed": false,
          "internalType": "uint256",
          "name": "amount",
          "type": "uint256"
        }
      ],
      "name": "MonoBought",
      "type": "event"
    },
    {
      "anonymous": false,
      "inputs": [
        {
          "indexed": true,
          "internalType": "address",
          "name": "to",
          "type": "address"
        },
        {
          "indexed": true,
          "internalType": "uint256",
          "name": "pawn_id",
          "type": "uint256"
        }
      ],
      "name": "PawnBought",
      "type": "event"
    },
    {
      "anonymous": false,
      "inputs": [
        {
          "indexed": false,
          "internalType": "uint16",
          "name": "_edition",
          "type": "uint16"
        },
        {
          "indexed": true,
          "internalType": "address",
          "name": "player",
          "type": "address"
        }
      ],
      "name": "PlayerEnrolled",
      "type": "event"
    },
    {
      "anonymous": false,
      "inputs": [
        {
          "indexed": true,
          "internalType": "address",
          "name": "to",
          "type": "address"
        },
        {
          "indexed": true,
          "internalType": "uint256",
          "name": "prop_id",
          "type": "uint256"
        }
      ],
      "name": "PropertyBought",
      "type": "event"
    },
    {
      "anonymous": false,
      "inputs": [
        {
          "indexed": true,
          "internalType": "address",
          "name": "player",
          "type": "address"
        },
        {
          "indexed": false,
          "internalType": "uint256",
          "name": "amount",
          "type": "uint256"
        }
      ],
      "name": "PropertyRentPaid",
      "type": "event"
    },
    {
      "anonymous": false,
      "inputs": [
        {
          "indexed": true,
          "internalType": "bytes32",
          "name": "role",
          "type": "bytes32"
        },
        {
          "indexed": true,
          "internalType": "bytes32",
          "name": "previousAdminRole",
          "type": "bytes32"
        },
        {
          "indexed": true,
          "internalType": "bytes32",
          "name": "newAdminRole",
          "type": "bytes32"
        }
      ],
      "name": "RoleAdminChanged",
      "type": "event"
    },
    {
      "anonymous": false,
      "inputs": [
        {
          "indexed": true,
          "internalType": "bytes32",
          "name": "role",
          "type": "bytes32"
        },
        {
          "indexed": true,
          "internalType": "address",
          "name": "account",
          "type": "address"
        },
        {
          "indexed": true,
          "internalType": "address",
          "name": "sender",
          "type": "address"
        }
      ],
      "name": "RoleGranted",
      "type": "event"
    },
    {
      "anonymous": false,
      "inputs": [
        {
          "indexed": true,
          "internalType": "bytes32",
          "name": "role",
          "type": "bytes32"
        },
        {
          "indexed": true,
          "internalType": "address",
          "name": "account",
          "type": "address"
        },
        {
          "indexed": true,
          "internalType": "address",
          "name": "sender",
          "type": "address"
        }
      ],
      "name": "RoleRevoked",
      "type": "event"
    },
    {
      "anonymous": false,
      "inputs": [
        {
          "indexed": false,
          "internalType": "address",
          "name": "player",
          "type": "address"
        },
        {
          "indexed": false,
          "internalType": "uint16",
          "name": "_edition",
          "type": "uint16"
        },
        {
          "indexed": false,
          "internalType": "bytes32",
          "name": "requestID",
          "type": "bytes32"
        }
      ],
      "name": "RollingDices",
      "type": "event"
    },
    {
      "anonymous": false,
      "inputs": [
        {
          "indexed": true,
          "internalType": "address",
          "name": "to",
          "type": "address"
        },
        {
          "indexed": false,
          "internalType": "uint256",
          "name": "value",
          "type": "uint256"
        }
      ],
      "name": "eWithdraw",
      "type": "event"
    },
    {
      "inputs": [],
      "name": "ADMIN_ROLE",
      "outputs": [
        {
          "internalType": "bytes32",
          "name": "",
          "type": "bytes32"
        }
      ],
      "stateMutability": "view",
      "type": "function",
      "constant": true
    },
    {
      "inputs": [],
      "name": "BANKER_ROLE",
      "outputs": [
        {
          "internalType": "bytes32",
          "name": "",
          "type": "bytes32"
        }
      ],
      "stateMutability": "view",
      "type": "function",
      "constant": true
    },
    {
      "inputs": [],
      "name": "DEFAULT_ADMIN_ROLE",
      "outputs": [
        {
          "internalType": "bytes32",
          "name": "",
          "type": "bytes32"
        }
      ],
      "stateMutability": "view",
      "type": "function",
      "constant": true
    },
    {
      "inputs": [],
      "name": "enroll_fee",
      "outputs": [
        {
          "internalType": "uint256",
          "name": "",
          "type": "uint256"
        }
      ],
      "stateMutability": "view",
      "type": "function",
      "constant": true
    },
    {
      "inputs": [
        {
          "internalType": "bytes32",
          "name": "role",
          "type": "bytes32"
        }
      ],
      "name": "getRoleAdmin",
      "outputs": [
        {
          "internalType": "bytes32",
          "name": "",
          "type": "bytes32"
        }
      ],
      "stateMutability": "view",
      "type": "function",
      "constant": true
    },
    {
      "inputs": [
        {
          "internalType": "bytes32",
          "name": "role",
          "type": "bytes32"
        },
        {
          "internalType": "address",
          "name": "account",
          "type": "address"
        }
      ],
      "name": "grantRole",
      "outputs": [],
      "stateMutability": "nonpayable",
      "type": "function"
    },
    {
      "inputs": [
        {
          "internalType": "bytes32",
          "name": "role",
          "type": "bytes32"
        },
        {
          "internalType": "address",
          "name": "account",
          "type": "address"
        }
      ],
      "name": "hasRole",
      "outputs": [
        {
          "internalType": "bool",
          "name": "",
          "type": "bool"
        }
      ],
      "stateMutability": "view",
      "type": "function",
      "constant": true
    },
    {
      "inputs": [
        {
          "internalType": "bytes32",
          "name": "role",
          "type": "bytes32"
        },
        {
          "internalType": "address",
          "name": "account",
          "type": "address"
        }
      ],
      "name": "renounceRole",
      "outputs": [],
      "stateMutability": "nonpayable",
      "type": "function"
    },
    {
      "inputs": [
        {
          "internalType": "bytes32",
          "name": "role",
          "type": "bytes32"
        },
        {
          "internalType": "address",
          "name": "account",
          "type": "address"
        }
      ],
      "name": "revokeRole",
      "outputs": [],
      "stateMutability": "nonpayable",
      "type": "function"
    },
    {
      "inputs": [
        {
          "internalType": "bytes4",
          "name": "interfaceId",
          "type": "bytes4"
        }
      ],
      "name": "supportsInterface",
      "outputs": [
        {
          "internalType": "bool",
          "name": "",
          "type": "bool"
        }
      ],
      "stateMutability": "view",
      "type": "function",
      "constant": true
    },
    {
      "inputs": [],
      "name": "buyPawn",
      "outputs": [],
      "stateMutability": "nonpayable",
      "type": "function"
    },
    {
      "inputs": [
        {
          "internalType": "uint16",
          "name": "_edition",
          "type": "uint16"
        }
      ],
      "name": "locatePlayer",
      "outputs": [
        {
          "components": [
            {
              "internalType": "uint256",
              "name": "random",
              "type": "uint256"
            },
            {
              "internalType": "uint8",
              "name": "position",
              "type": "uint8"
            },
            {
              "internalType": "bool",
              "name": "isOnBoard",
              "type": "bool"
            },
            {
              "internalType": "bool",
              "name": "isPropertyBought",
              "type": "bool"
            },
            {
              "internalType": "bool",
              "name": "isRentPaid",
              "type": "bool"
            },
            {
              "internalType": "bool",
              "name": "isRoundCompleted",
              "type": "bool"
            }
          ],
          "internalType": "struct BoardContract.PawnInfo",
          "name": "p_",
          "type": "tuple"
        }
      ],
      "stateMutability": "view",
      "type": "function",
      "constant": true
    },
    {
      "inputs": [
        {
          "internalType": "uint16",
          "name": "_edition",
          "type": "uint16"
        }
      ],
      "name": "enrollPlayer",
      "outputs": [],
      "stateMutability": "nonpayable",
      "type": "function"
    },
    {
      "inputs": [
        {
          "internalType": "uint16",
          "name": "_edition",
          "type": "uint16"
        }
      ],
      "name": "rollDices",
      "outputs": [],
      "stateMutability": "nonpayable",
      "type": "function"
    },
    {
      "inputs": [],
      "name": "buyMono",
      "outputs": [],
      "stateMutability": "payable",
      "type": "function",
      "payable": true
    },
    {
      "inputs": [
        {
          "internalType": "uint16",
          "name": "_edition",
          "type": "uint16"
        }
      ],
      "name": "buyProp",
      "outputs": [],
      "stateMutability": "nonpayable",
      "type": "function"
    },
    {
      "inputs": [
        {
          "internalType": "uint16",
          "name": "_edition",
          "type": "uint16"
        }
      ],
      "name": "payRent",
      "outputs": [],
      "stateMutability": "nonpayable",
      "type": "function"
    },
    {
      "inputs": [
        {
          "internalType": "uint16",
          "name": "_edition",
          "type": "uint16"
        },
        {
          "internalType": "uint8",
          "name": "_land",
          "type": "uint8"
        },
        {
          "internalType": "uint8",
          "name": "_rarity",
          "type": "uint8"
        }
      ],
      "name": "getPriceOfProp",
      "outputs": [
        {
          "internalType": "uint256",
          "name": "price",
          "type": "uint256"
        }
      ],
      "stateMutability": "view",
      "type": "function",
      "constant": true
    },
    {
      "inputs": [
        {
          "internalType": "uint16",
          "name": "_edition",
          "type": "uint16"
        },
        {
          "internalType": "uint8",
          "name": "_land",
          "type": "uint8"
        },
        {
          "internalType": "uint8",
          "name": "_rarity",
          "type": "uint8"
        },
        {
          "internalType": "uint256",
          "name": "_price",
          "type": "uint256"
        }
      ],
      "name": "setPriceOfProp",
      "outputs": [],
      "stateMutability": "nonpayable",
      "type": "function"
    },
    {
      "inputs": [
        {
          "internalType": "address",
          "name": "_to",
          "type": "address"
        },
        {
          "internalType": "uint256",
          "name": "_value",
          "type": "uint256"
        }
      ],
      "name": "withdraw",
      "outputs": [],
      "stateMutability": "nonpayable",
      "type": "function"
    },
    {
      "inputs": [
        {
          "internalType": "address",
          "name": "operator",
          "type": "address"
        },
        {
          "internalType": "address",
          "name": "from",
          "type": "address"
        },
        {
          "internalType": "uint256",
          "name": "tokenId",
          "type": "uint256"
        },
        {
          "internalType": "bytes",
          "name": "data",
          "type": "bytes"
        }
      ],
      "name": "onERC721Received",
      "outputs": [
        {
          "internalType": "bytes4",
          "name": "",
          "type": "bytes4"
        }
      ],
      "stateMutability": "pure",
      "type": "function",
      "constant": true
    },
    {
      "inputs": [
        {
          "internalType": "uint16",
          "name": "_editionId",
          "type": "uint16"
        },
        {
          "internalType": "uint8",
          "name": "_maxLands",
          "type": "uint8"
        },
        {
          "internalType": "uint8",
          "name": "_maxLandRarities",
          "type": "uint8"
        },
        {
          "internalType": "uint16",
          "name": "_rarityMultiplier",
          "type": "uint16"
        },
        {
          "internalType": "uint256[]",
          "name": "_commonLandPrices",
          "type": "uint256[]"
        }
      ],
      "name": "setPrices",
      "outputs": [],
      "stateMutability": "nonpayable",
      "type": "function"
    },
    {
      "inputs": [
        {
          "internalType": "address",
          "name": "_from",
          "type": "address"
        },
        {
          "internalType": "address",
          "name": "_to",
          "type": "address"
        },
        {
          "internalType": "uint256",
          "name": "_tokenId",
          "type": "uint256"
        },
        {
          "internalType": "uint256",
          "name": "_salePrice",
          "type": "uint256"
        }
      ],
      "name": "propertyTransfer",
      "outputs": [],
      "stateMutability": "nonpayable",
      "type": "function"
    }
  ],
  "bytecode": "0x6101406040526802b5e3af16b18800006001553480156200001f57600080fd5b5060405162005f5738038062005f5783398181016040528101906200004591906200078a565b600073ffffffffffffffffffffffffffffffffffffffff168673ffffffffffffffffffffffffffffffffffffffff161415620000b8576040517f08c379a0000000000000000000000000000000000000000000000000000000008152600401620000af90620008ad565b60405180910390fd5b600073ffffffffffffffffffffffffffffffffffffffff168573ffffffffffffffffffffffffffffffffffffffff1614156200012b576040517f08c379a0000000000000000000000000000000000000000000000000000000008152600401620001229062000945565b60405180910390fd5b600073ffffffffffffffffffffffffffffffffffffffff168473ffffffffffffffffffffffffffffffffffffffff1614156200019e576040517f08c379a00000000000000000000000000000000000000000000000000000000081526004016200019590620009dd565b60405180910390fd5b600073ffffffffffffffffffffffffffffffffffffffff168373ffffffffffffffffffffffffffffffffffffffff16141562000211576040517f08c379a0000000000000000000000000000000000000000000000000000000008152600401620002089062000a75565b60405180910390fd5b600073ffffffffffffffffffffffffffffffffffffffff168273ffffffffffffffffffffffffffffffffffffffff16141562000284576040517f08c379a00000000000000000000000000000000000000000000000000000000081526004016200027b9062000b0d565b60405180910390fd5b600073ffffffffffffffffffffffffffffffffffffffff168173ffffffffffffffffffffffffffffffffffffffff161415620002f7576040517f08c379a0000000000000000000000000000000000000000000000000000000008152600401620002ee9062000b0d565b60405180910390fd5b8573ffffffffffffffffffffffffffffffffffffffff1660808173ffffffffffffffffffffffffffffffffffffffff16815250508473ffffffffffffffffffffffffffffffffffffffff1660a08173ffffffffffffffffffffffffffffffffffffffff16815250508373ffffffffffffffffffffffffffffffffffffffff1660c08173ffffffffffffffffffffffffffffffffffffffff16815250508273ffffffffffffffffffffffffffffffffffffffff1660e08173ffffffffffffffffffffffffffffffffffffffff16815250508173ffffffffffffffffffffffffffffffffffffffff166101008173ffffffffffffffffffffffffffffffffffffffff16815250508073ffffffffffffffffffffffffffffffffffffffff166101208173ffffffffffffffffffffffffffffffffffffffff1681525050620004637fa49807205ce4d355092ef5a8a18f56e8913cf4a201fbe287825b095693c21775336200052560201b60201c565b620004957fa49807205ce4d355092ef5a8a18f56e8913cf4a201fbe287825b095693c21775806200053b60201b60201c565b620004c77fbfbecdc826a2a8977600bab194106c63f4beafa56075c85f72a5cfa11d9d0ec4336200052560201b60201c565b620005197fbfbecdc826a2a8977600bab194106c63f4beafa56075c85f72a5cfa11d9d0ec47fa49807205ce4d355092ef5a8a18f56e8913cf4a201fbe287825b095693c217756200053b60201b60201c565b50505050505062000b2f565b6200053782826200059e60201b60201c565b5050565b60006200054e836200068f60201b60201c565b905081600080858152602001908152602001600020600101819055508181847fbd79b86ffe0ab8e8776151514217cd7cacd52c909f66475c3af44e129f0b00ff60405160405180910390a4505050565b620005b08282620006ae60201b60201c565b6200068b57600160008084815260200190815260200160002060000160008373ffffffffffffffffffffffffffffffffffffffff1673ffffffffffffffffffffffffffffffffffffffff16815260200190815260200160002060006101000a81548160ff021916908315150217905550620006306200071860201b60201c565b73ffffffffffffffffffffffffffffffffffffffff168173ffffffffffffffffffffffffffffffffffffffff16837f2f8788117e7eff1d82e926ec794901d17c78024a50270940304540a733656f0d60405160405180910390a45b5050565b6000806000838152602001908152602001600020600101549050919050565b600080600084815260200190815260200160002060000160008373ffffffffffffffffffffffffffffffffffffffff1673ffffffffffffffffffffffffffffffffffffffff16815260200190815260200160002060009054906101000a900460ff16905092915050565b600033905090565b600080fd5b600073ffffffffffffffffffffffffffffffffffffffff82169050919050565b6000620007528262000725565b9050919050565b620007648162000745565b81146200077057600080fd5b50565b600081519050620007848162000759565b92915050565b60008060008060008060c08789031215620007aa57620007a962000720565b5b6000620007ba89828a0162000773565b9650506020620007cd89828a0162000773565b9550506040620007e089828a0162000773565b9450506060620007f389828a0162000773565b93505060806200080689828a0162000773565b92505060a06200081989828a0162000773565b9150509295509295509295565b600082825260208201905092915050565b7f5041574e20746f6b656e20736d61727420636f6e74726163742061646472657360008201527f73206d7573742062652070726f76696465640000000000000000000000000000602082015250565b60006200089560328362000826565b9150620008a28262000837565b604082019050919050565b60006020820190508181036000830152620008c88162000886565b9050919050565b7f424f41524420736d61727420636f6e74726163742061646472657373206d757360008201527f742062652070726f766964656400000000000000000000000000000000000000602082015250565b60006200092d602d8362000826565b91506200093a82620008cf565b604082019050919050565b6000602082019050818103600083015262000960816200091e565b9050919050565b7f50524f5020746f6b656e20736d61727420636f6e74726163742061646472657360008201527f73206d7573742062652070726f76696465640000000000000000000000000000602082015250565b6000620009c560328362000826565b9150620009d28262000967565b604082019050919050565b60006020820190508181036000830152620009f881620009b6565b9050919050565b7f4d4f4e4f20746f6b656e20736d61727420636f6e74726163742061646472657360008201527f73206d7573742062652070726f76696465640000000000000000000000000000602082015250565b600062000a5d60328362000826565b915062000a6a82620009ff565b604082019050919050565b6000602082019050818103600083015262000a908162000a4e565b9050919050565b7f4c494e4b20746f6b656e20736d61727420636f6e74726163742061646472657360008201527f73206d7573742062652070726f76696465640000000000000000000000000000602082015250565b600062000af560328362000826565b915062000b028262000a97565b604082019050919050565b6000602082019050818103600083015262000b288162000ae6565b9050919050565b60805160a05160c05160e05161010051610120516152b262000ca560003960008181611a1501528181611ad301528181611b6601528181612b7e0152612c3c015260008181612a820152612c780152600081816105bf01528181610c5a015281816111f2015281816112cc01528181611483015281816116c80152818161197701528181611a5101528181611ca301528181611f9e01528181612bba01528181612cf80152612eda0152600081816107d40152818161092701528181610b66015281816110700152818161114e015281816113b70152818161152601528181611e6b015261207f015260008181610dfc01528181611846015281816121ea015281816122f1015281816125470152818161262201528181612913015281816129f001528181612abe0152612dc40152600081816106a801528181610d5d015281816115ea015281816117a70152818161214b015281816123cc015281816124a801528181612797015261287401526152b26000f3fe6080604052600436106101405760003560e01c806369230a27116100b6578063b3c18e791161006f578063b3c18e7914610437578063b6b0f59214610460578063cc5a2d081461048b578063d547741f146104c8578063f31c1381146104f1578063f3fef3a31461051a57610140565b806369230a271461034657806375b238fc14610371578063803aa6d81461039c5780638256e1a8146103c557806391d14854146103cf578063a217fddf1461040c57610140565b806327a69f481161010857806327a69f481461023c5780632f2ff15d1461027957806336568abe146102a25780633aba94c0146102cb5780633d2f85f3146102f457806367549f801461031d57610140565b806301ffc9a714610145578063143750ad14610182578063150b7a02146101995780631b1a70e2146101d6578063248a9ca3146101ff575b600080fd5b34801561015157600080fd5b5061016c60048036038101906101679190613770565b610543565b60405161017991906137b8565b60405180910390f35b34801561018e57600080fd5b506101976105bd565b005b3480156101a557600080fd5b506101c060048036038101906101bb91906138cc565b61078b565b6040516101cd9190613963565b60405180910390f35b3480156101e257600080fd5b506101fd60048036038101906101f891906139f1565b6107a0565b005b34801561020b57600080fd5b5061022660048036038101906102219190613a8e565b610904565b6040516102339190613aca565b60405180910390f35b34801561024857600080fd5b50610263600480360381019061025e9190613ae5565b610923565b6040516102709190613b47565b60405180910390f35b34801561028557600080fd5b506102a0600480360381019061029b9190613b62565b610a55565b005b3480156102ae57600080fd5b506102c960048036038101906102c49190613b62565b610a7e565b005b3480156102d757600080fd5b506102f260048036038101906102ed9190613ba2565b610b01565b005b34801561030057600080fd5b5061031b60048036038101906103169190613c25565b610ede565b005b34801561032957600080fd5b50610344600480360381019061033f9190613cbf565b61103c565b005b34801561035257600080fd5b5061035b6115bc565b6040516103689190613b47565b60405180910390f35b34801561037d57600080fd5b506103866115c2565b6040516103939190613aca565b60405180910390f35b3480156103a857600080fd5b506103c360048036038101906103be9190613ba2565b6115e6565b005b6103cd611973565b005b3480156103db57600080fd5b506103f660048036038101906103f19190613b62565b611d95565b60405161040391906137b8565b60405180910390f35b34801561041857600080fd5b50610421611dff565b60405161042e9190613aca565b60405180910390f35b34801561044357600080fd5b5061045e60048036038101906104599190613ba2565b611e06565b005b34801561046c57600080fd5b506104756122c3565b6040516104829190613aca565b60405180910390f35b34801561049757600080fd5b506104b260048036038101906104ad9190613ba2565b6122e7565b6040516104bf9190613dce565b60405180910390f35b3480156104d457600080fd5b506104ef60048036038101906104ea9190613b62565b6126c4565b005b3480156104fd57600080fd5b5061051860048036038101906105139190613ba2565b6126ed565b005b34801561052657600080fd5b50610541600480360381019061053c9190613de9565b612ea6565b005b60007f7965db0b000000000000000000000000000000000000000000000000000000007bffffffffffffffffffffffffffffffffffffffffffffffffffffffff1916827bffffffffffffffffffffffffffffffffffffffffffffffffffffffff191614806105b657506105b582613008565b5b9050919050565b7f000000000000000000000000000000000000000000000000000000000000000073ffffffffffffffffffffffffffffffffffffffff166323b872dd3330670de0b6b3a76400006040518463ffffffff1660e01b815260040161062293929190613e7d565b6020604051808303816000875af1158015610641573d6000803e3d6000fd5b505050506040513d601f19601f820116820180604052508101906106659190613ee0565b6106a4576040517f08c379a000000000000000000000000000000000000000000000000000000000815260040161069b90613f6a565b60405180910390fd5b60007f000000000000000000000000000000000000000000000000000000000000000073ffffffffffffffffffffffffffffffffffffffff16636a627842336040518263ffffffff1660e01b81526004016106ff9190613f8a565b6020604051808303816000875af115801561071e573d6000803e3d6000fd5b505050506040513d601f19601f820116820180604052508101906107429190613fba565b9050803373ffffffffffffffffffffffffffffffffffffffff167fab3c53a63ccd5807157d9a9a4a0da2319cbc14997e17dd509ebf6071c71eb76160405160405180910390a350565b600063150b7a0260e01b905095945050505050565b7fbfbecdc826a2a8977600bab194106c63f4beafa56075c85f72a5cfa11d9d0ec46107d2816107cd613072565b61307a565b7f000000000000000000000000000000000000000000000000000000000000000073ffffffffffffffffffffffffffffffffffffffff1663228dace58686866040518463ffffffff1660e01b815260040161082f93929190614005565b602060405180830381865afa15801561084c573d6000803e3d6000fd5b505050506040513d601f19601f820116820180604052508101906108709190613ee0565b6108af576040517f08c379a00000000000000000000000000000000000000000000000000000000081526004016108a690614088565b60405180910390fd5b81600260008761ffff1661ffff16815260200190815260200160002060008660ff1660ff16815260200190815260200160002060008560ff1660ff168152602001908152602001600020819055505050505050565b6000806000838152602001908152602001600020600101549050919050565b60007f000000000000000000000000000000000000000000000000000000000000000073ffffffffffffffffffffffffffffffffffffffff1663228dace58585856040518463ffffffff1660e01b815260040161098293929190614005565b602060405180830381865afa15801561099f573d6000803e3d6000fd5b505050506040513d601f19601f820116820180604052508101906109c39190613ee0565b610a02576040517f08c379a00000000000000000000000000000000000000000000000000000000081526004016109f990614088565b60405180910390fd5b600260008561ffff1661ffff16815260200190815260200160002060008460ff1660ff16815260200190815260200160002060008360ff1660ff1681526020019081526020016000205490509392505050565b610a5e82610904565b610a6f81610a6a613072565b61307a565b610a798383613117565b505050565b610a86613072565b73ffffffffffffffffffffffffffffffffffffffff168173ffffffffffffffffffffffffffffffffffffffff1614610af3576040517f08c379a0000000000000000000000000000000000000000000000000000000008152600401610aea9061411a565b60405180910390fd5b610afd82826131f7565b5050565b6000610b0c826122e7565b90508060a0015115610b53576040517f08c379a0000000000000000000000000000000000000000000000000000000008152600401610b4a90614186565b60405180910390fd5b6000610b6282600001516132d8565b90507f000000000000000000000000000000000000000000000000000000000000000073ffffffffffffffffffffffffffffffffffffffff1663228dace5848460200151846040518463ffffffff1660e01b8152600401610bc593929190614005565b602060405180830381865afa158015610be2573d6000803e3d6000fd5b505050506040513d601f19601f82011682018060405250810190610c069190613ee0565b610c45576040517f08c379a0000000000000000000000000000000000000000000000000000000008152600401610c3c90614088565b60405180910390fd5b6000610c568484602001518461334f565b90507f000000000000000000000000000000000000000000000000000000000000000073ffffffffffffffffffffffffffffffffffffffff166323b872dd3330846040518463ffffffff1660e01b8152600401610cb5939291906141a6565b6020604051808303816000875af1158015610cd4573d6000803e3d6000fd5b505050506040513d601f19601f82011682018060405250810190610cf89190613ee0565b610d37576040517f08c379a0000000000000000000000000000000000000000000000000000000008152600401610d2e90614229565b60405180910390fd5b600183608001901515908115158152505060018360a001901515908115158152505060007f000000000000000000000000000000000000000000000000000000000000000073ffffffffffffffffffffffffffffffffffffffff16632f745c593360006040518363ffffffff1660e01b8152600401610db7929190614284565b602060405180830381865afa158015610dd4573d6000803e3d6000fd5b505050506040513d601f19601f82011682018060405250810190610df89190613fba565b90507f000000000000000000000000000000000000000000000000000000000000000073ffffffffffffffffffffffffffffffffffffffff1663713887678683876040518463ffffffff1660e01b8152600401610e57939291906142ad565b600060405180830381600087803b158015610e7157600080fd5b505af1158015610e85573d6000803e3d6000fd5b505050503373ffffffffffffffffffffffffffffffffffffffff167f697180498b16bf98bdc1bf328b02a815eee612427bb3499d14cadb28c9621eb283604051610ecf9190613b47565b60405180910390a25050505050565b7fa49807205ce4d355092ef5a8a18f56e8913cf4a201fbe287825b095693c21775610f1081610f0b613072565b61307a565b60005b8660ff168160ff16101561103257600084848360ff16818110610f3957610f386142e5565b5b905060200201351415610f4b5761101f565b60005b8660ff168160ff16101561101d57670de0b6b3a764000060018289610f739190614343565b610f7d9190614343565b87610f8891906144aa565b61ffff1686868560ff16818110610fa257610fa16142e5565b5b90506020020135610fb391906144d7565b610fbd91906144d7565b600260008b61ffff1661ffff16815260200190815260200160002060008460ff1660ff16815260200190815260200160002060008360ff1660ff16815260200190815260200160002081905550808061101590614531565b915050610f4e565b505b808061102a90614531565b915050610f13565b5050505050505050565b7fbfbecdc826a2a8977600bab194106c63f4beafa56075c85f72a5cfa11d9d0ec461106e81611069613072565b61307a565b7f000000000000000000000000000000000000000000000000000000000000000073ffffffffffffffffffffffffffffffffffffffff1663e985e9c586306040518363ffffffff1660e01b81526004016110c992919061455b565b602060405180830381865afa1580156110e6573d6000803e3d6000fd5b505050506040513d601f19601f8201168201806040525081019061110a9190613ee0565b611149576040517f08c379a0000000000000000000000000000000000000000000000000000000008152600401611140906145d0565b60405180910390fd5b6000807f000000000000000000000000000000000000000000000000000000000000000073ffffffffffffffffffffffffffffffffffffffff16632a55205a86866040518363ffffffff1660e01b81526004016111a79291906145f0565b6040805180830381865afa1580156111c3573d6000803e3d6000fd5b505050506040513d601f19601f820116820180604052508101906111e7919061462e565b8092508193505050837f000000000000000000000000000000000000000000000000000000000000000073ffffffffffffffffffffffffffffffffffffffff166370a08231886040518263ffffffff1660e01b81526004016112499190613f8a565b602060405180830381865afa158015611266573d6000803e3d6000fd5b505050506040513d601f19601f8201168201806040525081019061128a9190613fba565b116112ca576040517f08c379a00000000000000000000000000000000000000000000000000000000081526004016112c1906146ba565b60405180910390fd5b7f000000000000000000000000000000000000000000000000000000000000000073ffffffffffffffffffffffffffffffffffffffff166323b872dd8789876040518463ffffffff1660e01b8152600401611327939291906141a6565b6020604051808303816000875af1158015611346573d6000803e3d6000fd5b505050506040513d601f19601f8201168201806040525081019061136a9190613ee0565b61137357600080fd5b600073ffffffffffffffffffffffffffffffffffffffff168273ffffffffffffffffffffffffffffffffffffffff16141580156113b05750600081115b15611524577f000000000000000000000000000000000000000000000000000000000000000073ffffffffffffffffffffffffffffffffffffffff16636352211e866040518263ffffffff1660e01b815260040161140e9190613b47565b602060405180830381865afa15801561142b573d6000803e3d6000fd5b505050506040513d601f19601f8201168201806040525081019061144f91906146da565b73ffffffffffffffffffffffffffffffffffffffff168273ffffffffffffffffffffffffffffffffffffffff1614611523577f000000000000000000000000000000000000000000000000000000000000000073ffffffffffffffffffffffffffffffffffffffff166323b872dd8884846040518463ffffffff1660e01b81526004016114de939291906141a6565b6020604051808303816000875af11580156114fd573d6000803e3d6000fd5b505050506040513d601f19601f820116820180604052508101906115219190613ee0565b505b5b7f000000000000000000000000000000000000000000000000000000000000000073ffffffffffffffffffffffffffffffffffffffff166342842e0e8888886040518463ffffffff1660e01b8152600401611581939291906141a6565b600060405180830381600087803b15801561159b57600080fd5b505af11580156115af573d6000803e3d6000fd5b5050505050505050505050565b60015481565b7fa49807205ce4d355092ef5a8a18f56e8913cf4a201fbe287825b095693c2177581565b60007f000000000000000000000000000000000000000000000000000000000000000073ffffffffffffffffffffffffffffffffffffffff166370a08231336040518263ffffffff1660e01b81526004016116419190613f8a565b602060405180830381865afa15801561165e573d6000803e3d6000fd5b505050506040513d601f19601f820116820180604052508101906116829190613fba565b14156116c3576040517f08c379a00000000000000000000000000000000000000000000000000000000081526004016116ba90614753565b60405180910390fd5b6001547f000000000000000000000000000000000000000000000000000000000000000073ffffffffffffffffffffffffffffffffffffffff1663dd62ed3e33306040518363ffffffff1660e01b815260040161172192919061455b565b602060405180830381865afa15801561173e573d6000803e3d6000fd5b505050506040513d601f19601f820116820180604052508101906117629190613fba565b10156117a3576040517f08c379a000000000000000000000000000000000000000000000000000000000815260040161179a906147e5565b60405180910390fd5b60007f000000000000000000000000000000000000000000000000000000000000000073ffffffffffffffffffffffffffffffffffffffff16632f745c593360006040518363ffffffff1660e01b8152600401611801929190614284565b602060405180830381865afa15801561181e573d6000803e3d6000fd5b505050506040513d601f19601f820116820180604052508101906118429190613fba565b90507f000000000000000000000000000000000000000000000000000000000000000073ffffffffffffffffffffffffffffffffffffffff166326e0fc1f83836040518363ffffffff1660e01b815260040161189f929190614805565b6020604051808303816000875af11580156118be573d6000803e3d6000fd5b505050506040513d601f19601f820116820180604052508101906118e29190613ee0565b611921576040517f08c379a00000000000000000000000000000000000000000000000000000000081526004016119189061487a565b60405180910390fd5b3373ffffffffffffffffffffffffffffffffffffffff167f1c6eaf572ec9c491233a60c60f5fb4d7da592d9c854ed6219cb9b95a4c34c91283604051611967919061489a565b60405180910390a25050565b60007f000000000000000000000000000000000000000000000000000000000000000073ffffffffffffffffffffffffffffffffffffffff166370a08231306040518263ffffffff1660e01b81526004016119ce9190613f8a565b602060405180830381865afa1580156119eb573d6000803e3d6000fd5b505050506040513d601f19601f82011682018060405250810190611a0f9190613fba565b905060007f000000000000000000000000000000000000000000000000000000000000000073ffffffffffffffffffffffffffffffffffffffff1663c692fc747f00000000000000000000000000000000000000000000000000000000000000006040518263ffffffff1660e01b8152600401611a8c9190613f8a565b602060405180830381865afa158015611aa9573d6000803e3d6000fd5b505050506040513d601f19601f82011682018060405250810190611acd91906148eb565b905060007f000000000000000000000000000000000000000000000000000000000000000073ffffffffffffffffffffffffffffffffffffffff16638aa26d276040518163ffffffff1660e01b8152600401602060405180830381865afa158015611b3c573d6000803e3d6000fd5b505050506040513d601f19601f82011682018060405250810190611b6091906146da565b905060007f000000000000000000000000000000000000000000000000000000000000000073ffffffffffffffffffffffffffffffffffffffff1663c692fc74836040518263ffffffff1660e01b8152600401611bbd9190613f8a565b602060405180830381865afa158015611bda573d6000803e3d6000fd5b505050506040513d601f19601f82011682018060405250810190611bfe91906148eb565b90506000838234611c0f91906144d7565b611c199190614947565b905060008111611c5e576040517f08c379a0000000000000000000000000000000000000000000000000000000008152600401611c55906149ea565b60405180910390fd5b84811115611ca1576040517f08c379a0000000000000000000000000000000000000000000000000000000008152600401611c9890614a56565b60405180910390fd5b7f000000000000000000000000000000000000000000000000000000000000000073ffffffffffffffffffffffffffffffffffffffff1663a9059cbb33836040518363ffffffff1660e01b8152600401611cfc929190614a76565b6020604051808303816000875af1158015611d1b573d6000803e3d6000fd5b505050506040513d601f19601f82011682018060405250810190611d3f9190613ee0565b503373ffffffffffffffffffffffffffffffffffffffff167fe24e47dfb49c7f120dcbc158336ed322412f92b42dfa098615b155ee65a5eac382604051611d869190613b47565b60405180910390a25050505050565b600080600084815260200190815260200160002060000160008373ffffffffffffffffffffffffffffffffffffffff1673ffffffffffffffffffffffffffffffffffffffff16815260200190815260200160002060009054906101000a900460ff16905092915050565b6000801b81565b6000611e11826122e7565b90508060a0015115611e58576040517f08c379a0000000000000000000000000000000000000000000000000000000008152600401611e4f90614186565b60405180910390fd5b6000611e6782600001516132d8565b90507f000000000000000000000000000000000000000000000000000000000000000073ffffffffffffffffffffffffffffffffffffffff1663228dace5848460200151846040518463ffffffff1660e01b8152600401611eca93929190614005565b602060405180830381865afa158015611ee7573d6000803e3d6000fd5b505050506040513d601f19601f82011682018060405250810190611f0b9190613ee0565b611f4a576040517f08c379a0000000000000000000000000000000000000000000000000000000008152600401611f4190614088565b60405180910390fd5b6000600260008561ffff1661ffff1681526020019081526020016000206000846020015160ff1660ff16815260200190815260200160002060008360ff1660ff1681526020019081526020016000205490507f000000000000000000000000000000000000000000000000000000000000000073ffffffffffffffffffffffffffffffffffffffff166323b872dd3330846040518463ffffffff1660e01b8152600401611ff9939291906141a6565b6020604051808303816000875af1158015612018573d6000803e3d6000fd5b505050506040513d601f19601f8201168201806040525081019061203c9190613ee0565b61207b576040517f08c379a000000000000000000000000000000000000000000000000000000000815260040161207290613f6a565b60405180910390fd5b60007f000000000000000000000000000000000000000000000000000000000000000073ffffffffffffffffffffffffffffffffffffffff16635252d9a033878760200151876040518563ffffffff1660e01b81526004016120e09493929190614a9f565b6020604051808303816000875af11580156120ff573d6000803e3d6000fd5b505050506040513d601f19601f820116820180604052508101906121239190613fba565b9050600184606001901515908115158152505060018460a001901515908115158152505060007f000000000000000000000000000000000000000000000000000000000000000073ffffffffffffffffffffffffffffffffffffffff16632f745c593360006040518363ffffffff1660e01b81526004016121a5929190614284565b602060405180830381865afa1580156121c2573d6000803e3d6000fd5b505050506040513d601f19601f820116820180604052508101906121e69190613fba565b90507f000000000000000000000000000000000000000000000000000000000000000073ffffffffffffffffffffffffffffffffffffffff1663713887678783886040518463ffffffff1660e01b8152600401612245939291906142ad565b600060405180830381600087803b15801561225f57600080fd5b505af1158015612273573d6000803e3d6000fd5b50505050813373ffffffffffffffffffffffffffffffffffffffff167f3e6ff52283bdd248825a504a52d8aaea681e3345a3e0a39e9244e2e01021004e60405160405180910390a3505050505050565b7fbfbecdc826a2a8977600bab194106c63f4beafa56075c85f72a5cfa11d9d0ec481565b6122ef6136c3565b7f000000000000000000000000000000000000000000000000000000000000000073ffffffffffffffffffffffffffffffffffffffff16631372526f6040518163ffffffff1660e01b8152600401602060405180830381865afa15801561235a573d6000803e3d6000fd5b505050506040513d601f19601f8201168201806040525081019061237e9190614af9565b61ffff168261ffff1611156123c8576040517f08c379a00000000000000000000000000000000000000000000000000000000081526004016123bf90614b72565b60405180910390fd5b60017f000000000000000000000000000000000000000000000000000000000000000073ffffffffffffffffffffffffffffffffffffffff166370a08231336040518263ffffffff1660e01b81526004016124239190613f8a565b602060405180830381865afa158015612440573d6000803e3d6000fd5b505050506040513d601f19601f820116820180604052508101906124649190613fba565b146124a4576040517f08c379a000000000000000000000000000000000000000000000000000000000815260040161249b90614753565b60405180910390fd5b60007f000000000000000000000000000000000000000000000000000000000000000073ffffffffffffffffffffffffffffffffffffffff16632f745c593360006040518363ffffffff1660e01b8152600401612502929190614284565b602060405180830381865afa15801561251f573d6000803e3d6000fd5b505050506040513d601f19601f820116820180604052508101906125439190613fba565b90507f000000000000000000000000000000000000000000000000000000000000000073ffffffffffffffffffffffffffffffffffffffff1663155f205884836040518363ffffffff1660e01b81526004016125a0929190614805565b602060405180830381865afa1580156125bd573d6000803e3d6000fd5b505050506040513d601f19601f820116820180604052508101906125e19190613ee0565b612620576040517f08c379a000000000000000000000000000000000000000000000000000000000815260040161261790614bde565b60405180910390fd5b7f000000000000000000000000000000000000000000000000000000000000000073ffffffffffffffffffffffffffffffffffffffff16636ae620c184836040518363ffffffff1660e01b815260040161267b929190614805565b60c060405180830381865afa158015612698573d6000803e3d6000fd5b505050506040513d601f19601f820116820180604052508101906126bc9190614d44565b915050919050565b6126cd82610904565b6126de816126d9613072565b61307a565b6126e883836131f7565b505050565b60006126f8826122e7565b90506000600260008461ffff1661ffff1681526020019081526020016000206000836020015160ff1660ff16815260200190815260200160002060008060ff16815260200190815260200160002054148061275457508060a001515b612793576040517f08c379a000000000000000000000000000000000000000000000000000000000815260040161278a90614dbd565b60405180910390fd5b60007f000000000000000000000000000000000000000000000000000000000000000073ffffffffffffffffffffffffffffffffffffffff166370a08231336040518263ffffffff1660e01b81526004016127ee9190613f8a565b602060405180830381865afa15801561280b573d6000803e3d6000fd5b505050506040513d601f19601f8201168201806040525081019061282f9190613fba565b1415612870576040517f08c379a000000000000000000000000000000000000000000000000000000000815260040161286790614753565b60405180910390fd5b60007f000000000000000000000000000000000000000000000000000000000000000073ffffffffffffffffffffffffffffffffffffffff16632f745c593360006040518363ffffffff1660e01b81526004016128ce929190614284565b602060405180830381865afa1580156128eb573d6000803e3d6000fd5b505050506040513d601f19601f8201168201806040525081019061290f9190613fba565b90507f000000000000000000000000000000000000000000000000000000000000000073ffffffffffffffffffffffffffffffffffffffff1663155f205884836040518363ffffffff1660e01b815260040161296c929190614805565b602060405180830381865afa158015612989573d6000803e3d6000fd5b505050506040513d601f19601f820116820180604052508101906129ad9190613ee0565b6129ec576040517f08c379a00000000000000000000000000000000000000000000000000000000081526004016129e390614bde565b60405180910390fd5b60007f000000000000000000000000000000000000000000000000000000000000000073ffffffffffffffffffffffffffffffffffffffff1663ddca3f436040518163ffffffff1660e01b8152600401602060405180830381865afa158015612a59573d6000803e3d6000fd5b505050506040513d601f19601f82011682018060405250810190612a7d9190613fba565b9050807f000000000000000000000000000000000000000000000000000000000000000073ffffffffffffffffffffffffffffffffffffffff166370a082317f00000000000000000000000000000000000000000000000000000000000000006040518263ffffffff1660e01b8152600401612af99190613f8a565b602060405180830381865afa158015612b16573d6000803e3d6000fd5b505050506040513d601f19601f82011682018060405250810190612b3a9190613fba565b11612b7a576040517f08c379a0000000000000000000000000000000000000000000000000000000008152600401612b7190614e4f565b60405180910390fd5b60007f000000000000000000000000000000000000000000000000000000000000000073ffffffffffffffffffffffffffffffffffffffff1663c692fc747f00000000000000000000000000000000000000000000000000000000000000006040518263ffffffff1660e01b8152600401612bf59190613f8a565b602060405180830381865afa158015612c12573d6000803e3d6000fd5b505050506040513d601f19601f82011682018060405250810190612c3691906148eb565b905060007f000000000000000000000000000000000000000000000000000000000000000073ffffffffffffffffffffffffffffffffffffffff1663c692fc747f00000000000000000000000000000000000000000000000000000000000000006040518263ffffffff1660e01b8152600401612cb39190613f8a565b602060405180830381865afa158015612cd0573d6000803e3d6000fd5b505050506040513d601f19601f82011682018060405250810190612cf491906148eb565b90507f000000000000000000000000000000000000000000000000000000000000000073ffffffffffffffffffffffffffffffffffffffff166323b872dd3330670de0b6b3a7640000868689612d4a91906144d7565b612d549190614947565b612d5e9190614e6f565b6040518463ffffffff1660e01b8152600401612d7c939291906141a6565b6020604051808303816000875af1158015612d9b573d6000803e3d6000fd5b505050506040513d601f19601f82011682018060405250810190612dbf9190613ee0565b5060007f000000000000000000000000000000000000000000000000000000000000000073ffffffffffffffffffffffffffffffffffffffff166358f05b3a88876040518363ffffffff1660e01b8152600401612e1d929190614805565b6020604051808303816000875af1158015612e3c573d6000803e3d6000fd5b505050506040513d601f19601f82011682018060405250810190612e609190614eda565b90507f7dd76f85bbac191f5abe20810db0b1aab2871971e43e3222f17357285f4e4dbe338883604051612e9593929190614f07565b60405180910390a150505050505050565b7fbfbecdc826a2a8977600bab194106c63f4beafa56075c85f72a5cfa11d9d0ec4612ed881612ed3613072565b61307a565b7f000000000000000000000000000000000000000000000000000000000000000073ffffffffffffffffffffffffffffffffffffffff1663a9059cbb84846040518363ffffffff1660e01b8152600401612f33929190614a76565b6020604051808303816000875af1158015612f52573d6000803e3d6000fd5b505050506040513d601f19601f82011682018060405250810190612f769190613ee0565b612fb5576040517f08c379a0000000000000000000000000000000000000000000000000000000008152600401612fac90614f8a565b60405180910390fd5b8273ffffffffffffffffffffffffffffffffffffffff167fc41d5a44c210a492a165e5ef40799c5eac130e8f403bef52c452b8708a77e39283604051612ffb9190613b47565b60405180910390a2505050565b60007f01ffc9a7000000000000000000000000000000000000000000000000000000007bffffffffffffffffffffffffffffffffffffffffffffffffffffffff1916827bffffffffffffffffffffffffffffffffffffffffffffffffffffffff1916149050919050565b600033905090565b6130848282611d95565b613113576130a98173ffffffffffffffffffffffffffffffffffffffff166014613417565b6130b78360001c6020613417565b6040516020016130c89291906150bc565b6040516020818303038152906040526040517f08c379a000000000000000000000000000000000000000000000000000000000815260040161310a919061512f565b60405180910390fd5b5050565b6131218282611d95565b6131f357600160008084815260200190815260200160002060000160008373ffffffffffffffffffffffffffffffffffffffff1673ffffffffffffffffffffffffffffffffffffffff16815260200190815260200160002060006101000a81548160ff021916908315150217905550613198613072565b73ffffffffffffffffffffffffffffffffffffffff168173ffffffffffffffffffffffffffffffffffffffff16837f2f8788117e7eff1d82e926ec794901d17c78024a50270940304540a733656f0d60405160405180910390a45b5050565b6132018282611d95565b156132d457600080600084815260200190815260200160002060000160008373ffffffffffffffffffffffffffffffffffffffff1673ffffffffffffffffffffffffffffffffffffffff16815260200190815260200160002060006101000a81548160ff021916908315150217905550613279613072565b73ffffffffffffffffffffffffffffffffffffffff168173ffffffffffffffffffffffffffffffffffffffff16837ff6391f5c32d9c69d2a47ea670b442974b53935d1edc7fd64eb21e047a839171b60405160405180910390a45b5050565b60008061331e6040518060400160405280600681526020017f72617269747900000000000000000000000000000000000000000000000000008152506001606f86613653565b90506064811161333257600291505061334a565b606e811161334457600191505061334a565b60009150505b919050565b6000670de0b6b3a76400006064600260008761ffff1661ffff16815260200190815260200160002060008660ff1660ff16815260200190815260200160002060008560ff1660ff168152602001908152602001600020546133b09190614947565b116133c357670de0b6b3a764000061340e565b600260008561ffff1661ffff16815260200190815260200160002060008460ff1660ff16815260200190815260200160002060008360ff1660ff168152602001908152602001600020545b90509392505050565b60606000600283600261342a91906144d7565b6134349190614e6f565b67ffffffffffffffff81111561344d5761344c614c14565b5b6040519080825280601f01601f19166020018201604052801561347f5781602001600182028036833780820191505090505b5090507f3000000000000000000000000000000000000000000000000000000000000000816000815181106134b7576134b66142e5565b5b60200101907effffffffffffffffffffffffffffffffffffffffffffffffffffffffffffff1916908160001a9053507f78000000000000000000000000000000000000000000000000000000000000008160018151811061351b5761351a6142e5565b5b60200101907effffffffffffffffffffffffffffffffffffffffffffffffffffffffffffff1916908160001a9053506000600184600261355b91906144d7565b6135659190614e6f565b90505b6001811115613605577f3031323334353637383961626364656600000000000000000000000000000000600f8616601081106135a7576135a66142e5565b5b1a60f81b8282815181106135be576135bd6142e5565b5b60200101907effffffffffffffffffffffffffffffffffffffffffffffffffffffffffffff1916908160001a905350600485901c9450806135fe90615151565b9050613568565b5060008414613649576040517f08c379a0000000000000000000000000000000000000000000000000000000008152600401613640906151c7565b60405180910390fd5b8091505092915050565b6000806001858561366491906151e7565b61366e9190614e6f565b90506000838760405160200161368592919061521b565b6040516020818303038152906040528051906020012060001c90508582826136ad919061524b565b6136b79190614e6f565b92505050949350505050565b6040518060c0016040528060008152602001600060ff1681526020016000151581526020016000151581526020016000151581526020016000151581525090565b6000604051905090565b600080fd5b600080fd5b60007fffffffff0000000000000000000000000000000000000000000000000000000082169050919050565b61374d81613718565b811461375857600080fd5b50565b60008135905061376a81613744565b92915050565b6000602082840312156137865761378561370e565b5b60006137948482850161375b565b91505092915050565b60008115159050919050565b6137b28161379d565b82525050565b60006020820190506137cd60008301846137a9565b92915050565b600073ffffffffffffffffffffffffffffffffffffffff82169050919050565b60006137fe826137d3565b9050919050565b61380e816137f3565b811461381957600080fd5b50565b60008135905061382b81613805565b92915050565b6000819050919050565b61384481613831565b811461384f57600080fd5b50565b6000813590506138618161383b565b92915050565b600080fd5b600080fd5b600080fd5b60008083601f84011261388c5761388b613867565b5b8235905067ffffffffffffffff8111156138a9576138a861386c565b5b6020830191508360018202830111156138c5576138c4613871565b5b9250929050565b6000806000806000608086880312156138e8576138e761370e565b5b60006138f68882890161381c565b95505060206139078882890161381c565b945050604061391888828901613852565b935050606086013567ffffffffffffffff81111561393957613938613713565b5b61394588828901613876565b92509250509295509295909350565b61395d81613718565b82525050565b60006020820190506139786000830184613954565b92915050565b600061ffff82169050919050565b6139958161397e565b81146139a057600080fd5b50565b6000813590506139b28161398c565b92915050565b600060ff82169050919050565b6139ce816139b8565b81146139d957600080fd5b50565b6000813590506139eb816139c5565b92915050565b60008060008060808587031215613a0b57613a0a61370e565b5b6000613a19878288016139a3565b9450506020613a2a878288016139dc565b9350506040613a3b878288016139dc565b9250506060613a4c87828801613852565b91505092959194509250565b6000819050919050565b613a6b81613a58565b8114613a7657600080fd5b50565b600081359050613a8881613a62565b92915050565b600060208284031215613aa457613aa361370e565b5b6000613ab284828501613a79565b91505092915050565b613ac481613a58565b82525050565b6000602082019050613adf6000830184613abb565b92915050565b600080600060608486031215613afe57613afd61370e565b5b6000613b0c868287016139a3565b9350506020613b1d868287016139dc565b9250506040613b2e868287016139dc565b9150509250925092565b613b4181613831565b82525050565b6000602082019050613b5c6000830184613b38565b92915050565b60008060408385031215613b7957613b7861370e565b5b6000613b8785828601613a79565b9250506020613b988582860161381c565b9150509250929050565b600060208284031215613bb857613bb761370e565b5b6000613bc6848285016139a3565b91505092915050565b60008083601f840112613be557613be4613867565b5b8235905067ffffffffffffffff811115613c0257613c0161386c565b5b602083019150836020820283011115613c1e57613c1d613871565b5b9250929050565b60008060008060008060a08789031215613c4257613c4161370e565b5b6000613c5089828a016139a3565b9650506020613c6189828a016139dc565b9550506040613c7289828a016139dc565b9450506060613c8389828a016139a3565b935050608087013567ffffffffffffffff811115613ca457613ca3613713565b5b613cb089828a01613bcf565b92509250509295509295509295565b60008060008060808587031215613cd957613cd861370e565b5b6000613ce78782880161381c565b9450506020613cf88782880161381c565b9350506040613d0987828801613852565b9250506060613d1a87828801613852565b91505092959194509250565b613d2f81613831565b82525050565b613d3e816139b8565b82525050565b613d4d8161379d565b82525050565b60c082016000820151613d696000850182613d26565b506020820151613d7c6020850182613d35565b506040820151613d8f6040850182613d44565b506060820151613da26060850182613d44565b506080820151613db56080850182613d44565b5060a0820151613dc860a0850182613d44565b50505050565b600060c082019050613de36000830184613d53565b92915050565b60008060408385031215613e0057613dff61370e565b5b6000613e0e8582860161381c565b9250506020613e1f85828601613852565b9150509250929050565b613e32816137f3565b82525050565b6000819050919050565b6000819050919050565b6000613e67613e62613e5d84613e38565b613e42565b613831565b9050919050565b613e7781613e4c565b82525050565b6000606082019050613e926000830186613e29565b613e9f6020830185613e29565b613eac6040830184613e6e565b949350505050565b613ebd8161379d565b8114613ec857600080fd5b50565b600081519050613eda81613eb4565b92915050565b600060208284031215613ef657613ef561370e565b5b6000613f0484828501613ecb565b91505092915050565b600082825260208201905092915050565b7f244d4f4e4f207472616e73666572206661696c65640000000000000000000000600082015250565b6000613f54601583613f0d565b9150613f5f82613f1e565b602082019050919050565b60006020820190508181036000830152613f8381613f47565b9050919050565b6000602082019050613f9f6000830184613e29565b92915050565b600081519050613fb48161383b565b92915050565b600060208284031215613fd057613fcf61370e565b5b6000613fde84828501613fa5565b91505092915050565b613ff08161397e565b82525050565b613fff816139b8565b82525050565b600060608201905061401a6000830186613fe7565b6140276020830185613ff6565b6140346040830184613ff6565b949350505050565b7f50524f5020646f6573206e6f7420657869737400000000000000000000000000600082015250565b6000614072601383613f0d565b915061407d8261403c565b602082019050919050565b600060208201905081810360008301526140a181614065565b9050919050565b7f416363657373436f6e74726f6c3a2063616e206f6e6c792072656e6f756e636560008201527f20726f6c657320666f722073656c660000000000000000000000000000000000602082015250565b6000614104602f83613f0d565b915061410f826140a8565b604082019050919050565b60006020820190508181036000830152614133816140f7565b9050919050565b7f526f756e6420636f6d706c657465640000000000000000000000000000000000600082015250565b6000614170600f83613f0d565b915061417b8261413a565b602082019050919050565b6000602082019050818103600083015261419f81614163565b9050919050565b60006060820190506141bb6000830186613e29565b6141c86020830185613e29565b6141d56040830184613b38565b949350505050565b7f546178207061796d656e74206661696c65640000000000000000000000000000600082015250565b6000614213601283613f0d565b915061421e826141dd565b602082019050919050565b6000602082019050818103600083015261424281614206565b9050919050565b6000819050919050565b600061426e61426961426484614249565b613e42565b613831565b9050919050565b61427e81614253565b82525050565b60006040820190506142996000830185613e29565b6142a66020830184614275565b9392505050565b6000610100820190506142c36000830186613fe7565b6142d06020830185613b38565b6142dd6040830184613d53565b949350505050565b7f4e487b7100000000000000000000000000000000000000000000000000000000600052603260045260246000fd5b7f4e487b7100000000000000000000000000000000000000000000000000000000600052601160045260246000fd5b600061434e826139b8565b9150614359836139b8565b92508282101561436c5761436b614314565b5b828203905092915050565b60008160011c9050919050565b6000808291508390505b60018511156143ce578086048111156143aa576143a9614314565b5b60018516156143b95780820291505b80810290506143c785614377565b945061438e565b94509492505050565b6000826143e757600190506144a3565b816143f557600090506144a3565b816001811461440b576002811461441557614444565b60019150506144a3565b60ff84111561442757614426614314565b5b8360020a91508482111561443e5761443d614314565b5b506144a3565b5060208310610133831016604e8410600b84101617156144795782820a90508381111561447457614473614314565b5b6144a3565b6144868484846001614384565b9250905081840481111561449d5761449c614314565b5b81810290505b9392505050565b60006144b58261397e565b91506144c0836139b8565b92506144cf61ffff84846143d7565b905092915050565b60006144e282613831565b91506144ed83613831565b9250817fffffffffffffffffffffffffffffffffffffffffffffffffffffffffffffffff048311821515161561452657614525614314565b5b828202905092915050565b600061453c826139b8565b915060ff8214156145505761454f614314565b5b600182019050919050565b60006040820190506145706000830185613e29565b61457d6020830184613e29565b9392505050565b7f436f6e7472616374206973206e6f7420616c6c6f776564000000000000000000600082015250565b60006145ba601783613f0d565b91506145c582614584565b602082019050919050565b600060208201905081810360008301526145e9816145ad565b9050919050565b60006040820190506146056000830185613b38565b6146126020830184613b38565b9392505050565b60008151905061462881613805565b92915050565b600080604083850312156146455761464461370e565b5b600061465385828601614619565b925050602061466485828601613fa5565b9150509250929050565b7f4e6f742073756666696369656e7420746f6b656e2062616c616e636500000000600082015250565b60006146a4601c83613f0d565b91506146af8261466e565b602082019050919050565b600060208201905081810360008301526146d381614697565b9050919050565b6000602082840312156146f0576146ef61370e565b5b60006146fe84828501614619565b91505092915050565b7f706c6179657220646f6573206e6f74206f776e2061207061776e000000000000600082015250565b600061473d601a83613f0d565b915061474882614707565b602082019050919050565b6000602082019050818103600083015261476c81614730565b9050919050565b7f706c617965722068617320746f20617070726f76652042616e6b20666f72203560008201527f3020244d4f4e4f00000000000000000000000000000000000000000000000000602082015250565b60006147cf602783613f0d565b91506147da82614773565b604082019050919050565b600060208201905081810360008301526147fe816147c2565b9050919050565b600060408201905061481a6000830185613fe7565b6148276020830184613b38565b9392505050565b7f6572726f72207768656e20656e726f6c6c696e67000000000000000000000000600082015250565b6000614864601483613f0d565b915061486f8261482e565b602082019050919050565b6000602082019050818103600083015261489381614857565b9050919050565b60006020820190506148af6000830184613fe7565b92915050565b6000819050919050565b6148c8816148b5565b81146148d357600080fd5b50565b6000815190506148e5816148bf565b92915050565b6000602082840312156149015761490061370e565b5b600061490f848285016148d6565b91505092915050565b7f4e487b7100000000000000000000000000000000000000000000000000000000600052601260045260246000fd5b600061495282613831565b915061495d83613831565b92508261496d5761496c614918565b5b828204905092915050565b7f596f75206e65656420746f2073656e6420736f6d65206e6574776f726b20746f60008201527f6b656e0000000000000000000000000000000000000000000000000000000000602082015250565b60006149d4602383613f0d565b91506149df82614978565b604082019050919050565b60006020820190508181036000830152614a03816149c7565b9050919050565b7f4e6f7420656e6f75676820746f6b656e7320696e207468652072657365727665600082015250565b6000614a40602083613f0d565b9150614a4b82614a0a565b602082019050919050565b60006020820190508181036000830152614a6f81614a33565b9050919050565b6000604082019050614a8b6000830185613e29565b614a986020830184613b38565b9392505050565b6000608082019050614ab46000830187613e29565b614ac16020830186613fe7565b614ace6040830185613ff6565b614adb6060830184613ff6565b95945050505050565b600081519050614af38161398c565b92915050565b600060208284031215614b0f57614b0e61370e565b5b6000614b1d84828501614ae4565b91505092915050565b7f756e6b6e6f776e2065646974696f6e0000000000000000000000000000000000600082015250565b6000614b5c600f83613f0d565b9150614b6782614b26565b602082019050919050565b60006020820190508181036000830152614b8b81614b4f565b9050919050565b7f706c6179657220646f6573206e6f7420656e726f6c6c00000000000000000000600082015250565b6000614bc8601683613f0d565b9150614bd382614b92565b602082019050919050565b60006020820190508181036000830152614bf781614bbb565b9050919050565b600080fd5b6000601f19601f8301169050919050565b7f4e487b7100000000000000000000000000000000000000000000000000000000600052604160045260246000fd5b614c4c82614c03565b810181811067ffffffffffffffff82111715614c6b57614c6a614c14565b5b80604052505050565b6000614c7e613704565b9050614c8a8282614c43565b919050565b600081519050614c9e816139c5565b92915050565b600060c08284031215614cba57614cb9614bfe565b5b614cc460c0614c74565b90506000614cd484828501613fa5565b6000830152506020614ce884828501614c8f565b6020830152506040614cfc84828501613ecb565b6040830152506060614d1084828501613ecb565b6060830152506080614d2484828501613ecb565b60808301525060a0614d3884828501613ecb565b60a08301525092915050565b600060c08284031215614d5a57614d5961370e565b5b6000614d6884828501614ca4565b91505092915050565b7f556e636f6d706c6574656420726f756e64000000000000000000000000000000600082015250565b6000614da7601183613f0d565b9150614db282614d71565b602082019050919050565b60006020820190508181036000830152614dd681614d9a565b9050919050565b7f6e6f7420656e6f756768204c494e4b20696e20426f61726420636f6e7472616360008201527f7400000000000000000000000000000000000000000000000000000000000000602082015250565b6000614e39602183613f0d565b9150614e4482614ddd565b604082019050919050565b60006020820190508181036000830152614e6881614e2c565b9050919050565b6000614e7a82613831565b9150614e8583613831565b9250827fffffffffffffffffffffffffffffffffffffffffffffffffffffffffffffffff03821115614eba57614eb9614314565b5b828201905092915050565b600081519050614ed481613a62565b92915050565b600060208284031215614ef057614eef61370e565b5b6000614efe84828501614ec5565b91505092915050565b6000606082019050614f1c6000830186613e29565b614f296020830185613fe7565b614f366040830184613abb565b949350505050565b7f7769746864726177206661696c75726500000000000000000000000000000000600082015250565b6000614f74601083613f0d565b9150614f7f82614f3e565b602082019050919050565b60006020820190508181036000830152614fa381614f67565b9050919050565b600081905092915050565b7f416363657373436f6e74726f6c3a206163636f756e7420000000000000000000600082015250565b6000614feb601783614faa565b9150614ff682614fb5565b601782019050919050565b600081519050919050565b60005b8381101561502a57808201518184015260208101905061500f565b83811115615039576000848401525b50505050565b600061504a82615001565b6150548185614faa565b935061506481856020860161500c565b80840191505092915050565b7f206973206d697373696e6720726f6c6520000000000000000000000000000000600082015250565b60006150a6601183614faa565b91506150b182615070565b601182019050919050565b60006150c782614fde565b91506150d3828561503f565b91506150de82615099565b91506150ea828461503f565b91508190509392505050565b600061510182615001565b61510b8185613f0d565b935061511b81856020860161500c565b61512481614c03565b840191505092915050565b6000602082019050818103600083015261514981846150f6565b905092915050565b600061515c82613831565b915060008214156151705761516f614314565b5b600182039050919050565b7f537472696e67733a20686578206c656e67746820696e73756666696369656e74600082015250565b60006151b1602083613f0d565b91506151bc8261517b565b602082019050919050565b600060208201905081810360008301526151e0816151a4565b9050919050565b60006151f282613831565b91506151fd83613831565b9250828210156152105761520f614314565b5b828203905092915050565b60006040820190506152306000830185613b38565b818103602083015261524281846150f6565b90509392505050565b600061525682613831565b915061526183613831565b92508261527157615270614918565b5b82820690509291505056fea2646970667358221220ddfd4bf0cb4d1686079db23cf1d9ebf5f9ebb4a70dbad395795fc427f3654c7c64736f6c634300080a0033",
  "immutableReferences": {
    "3671": [
      {
        "length": 32,
        "start": 1704
      },
      {
        "length": 32,
        "start": 3421
      },
      {
        "length": 32,
        "start": 5610
      },
      {
        "length": 32,
        "start": 6055
      },
      {
        "length": 32,
        "start": 8523
      },
      {
        "length": 32,
        "start": 9164
      },
      {
        "length": 32,
        "start": 9384
      },
      {
        "length": 32,
        "start": 10135
      },
      {
        "length": 32,
        "start": 10356
      }
    ],
    "3674": [
      {
        "length": 32,
        "start": 3580
      },
      {
        "length": 32,
        "start": 6214
      },
      {
        "length": 32,
        "start": 8682
      },
      {
        "length": 32,
        "start": 8945
      },
      {
        "length": 32,
        "start": 9543
      },
      {
        "length": 32,
        "start": 9762
      },
      {
        "length": 32,
        "start": 10515
      },
      {
        "length": 32,
        "start": 10736
      },
      {
        "length": 32,
        "start": 10942
      },
      {
        "length": 32,
        "start": 11716
      }
    ],
    "3677": [
      {
        "length": 32,
        "start": 2004
      },
      {
        "length": 32,
        "start": 2343
      },
      {
        "length": 32,
        "start": 2918
      },
      {
        "length": 32,
        "start": 4208
      },
      {
        "length": 32,
        "start": 4430
      },
      {
        "length": 32,
        "start": 5047
      },
      {
        "length": 32,
        "start": 5414
      },
      {
        "length": 32,
        "start": 7787
      },
      {
        "length": 32,
        "start": 8319
      }
    ],
    "3680": [
      {
        "length": 32,
        "start": 1471
      },
      {
        "length": 32,
        "start": 3162
      },
      {
        "length": 32,
        "start": 4594
      },
      {
        "length": 32,
        "start": 4812
      },
      {
        "length": 32,
        "start": 5251
      },
      {
        "length": 32,
        "start": 5832
      },
      {
        "length": 32,
        "start": 6519
      },
      {
        "length": 32,
        "start": 6737
      },
      {
        "length": 32,
        "start": 7331
      },
      {
        "length": 32,
        "start": 8094
      },
      {
        "length": 32,
        "start": 11194
      },
      {
        "length": 32,
        "start": 11512
      },
      {
        "length": 32,
        "start": 11994
      }
    ],
    "3683": [
      {
        "length": 32,
        "start": 10882
      },
      {
        "length": 32,
        "start": 11384
      }
    ],
    "3686": [
      {
        "length": 32,
        "start": 6677
      },
      {
        "length": 32,
        "start": 6867
      },
      {
        "length": 32,
        "start": 7014
      },
      {
        "length": 32,
        "start": 11134
      },
      {
        "length": 32,
        "start": 11324
      }
    ]
  },
  "source": "// Bank.sol\r\n// SPDX-License-Identifier: MIT\r\npragma solidity 0.8.10;\r\n\r\nimport \"@openzeppelin/contracts/access/AccessControl.sol\";\r\nimport \"@openzeppelin/contracts/token/ERC721/IERC721Receiver.sol\";\r\nimport \"@openzeppelin/contracts/token/ERC20/IERC20.sol\";\r\n\r\nimport \"./Pawn.sol\";\r\nimport \"./Board.sol\";\r\nimport \"./Mono.sol\";\r\nimport \"./Prop.sol\";\r\nimport \"./Staking.sol\";\r\n\r\ncontract BankContract is AccessControl, IERC721Receiver {\r\n\tbytes32 public constant ADMIN_ROLE = keccak256(\"ADMIN_ROLE\");\r\n\tbytes32 public constant BANKER_ROLE = keccak256(\"BANKER_ROLE\");\r\n\r\n\tPawnContract private immutable Pawn;\r\n\tBoardContract private immutable Board;\r\n\tPropContract private immutable Prop;\r\n\tMonoContract private immutable Mono;\r\n\tIERC20 private immutable Link;\r\n\tStakingContract private immutable Staking;\r\n\r\n\t/// @dev fee to be paid when player enrolls (in $MONO)\r\n\tuint256 public enroll_fee = 50 * 1 ether;\r\n\r\n\t/// @dev price of PROP by rarity by land by edition\r\n\tmapping(uint16 => mapping(uint8 => mapping(uint8 => uint256))) private propPrices;\r\n\r\n\tevent PropertyBought(address indexed to, uint256 indexed prop_id);\r\n\tevent PawnBought(address indexed to, uint256 indexed pawn_id);\r\n\tevent eWithdraw(address indexed to, uint256 value);\r\n\r\n\tevent PlayerEnrolled(uint16 _edition, address indexed player);\r\n\tevent RollingDices(address player, uint16 _edition, bytes32 requestID);\r\n\tevent DicesRollsPrepaid(address indexed player, uint8 quantity);\r\n\tevent MonoBought(address indexed player, uint256 amount);\r\n\tevent PropertyRentPaid(address indexed player, uint256 amount);\r\n\r\n\tconstructor(\r\n\t\taddress PawnAddress,\r\n\t\taddress BoardAddress,\r\n\t\taddress PropAddress,\r\n\t\taddress MonoAddress,\r\n\t\taddress LinkAddress,\r\n\t\taddress StakingAddress\r\n\t) {\r\n\t\trequire(PawnAddress != address(0), \"PAWN token smart contract address must be provided\");\r\n\t\trequire(BoardAddress != address(0), \"BOARD smart contract address must be provided\");\r\n\t\trequire(PropAddress != address(0), \"PROP token smart contract address must be provided\");\r\n\t\trequire(MonoAddress != address(0), \"MONO token smart contract address must be provided\");\r\n\t\trequire(LinkAddress != address(0), \"LINK token smart contract address must be provided\");\r\n\t\trequire(StakingAddress != address(0), \"LINK token smart contract address must be provided\");\r\n\r\n\t\tPawn = PawnContract(PawnAddress);\r\n\t\tBoard = BoardContract(BoardAddress);\r\n\t\tProp = PropContract(PropAddress);\r\n\t\tMono = MonoContract(MonoAddress);\r\n\t\tLink = IERC20(LinkAddress);\r\n\t\tStaking = StakingContract(StakingAddress);\r\n\r\n\t\t// Set roles\r\n\t\t_setupRole(ADMIN_ROLE, msg.sender);\r\n\t\t_setRoleAdmin(ADMIN_ROLE, ADMIN_ROLE);\r\n\t\t_setupRole(BANKER_ROLE, msg.sender);\r\n\t\t_setRoleAdmin(BANKER_ROLE, ADMIN_ROLE);\r\n\t}\r\n\r\n\t/// @notice buy a pawn (mandatory to play)\r\n\tfunction buyPawn() external {\r\n\t\trequire(Mono.transferFrom(msg.sender, address(this), 1 ether), \"$MONO transfer failed\");\r\n\r\n\t\tuint256 pawn_id = Pawn.mint(msg.sender);\r\n\r\n\t\temit PawnBought(msg.sender, pawn_id);\r\n\t}\r\n\r\n\t/// @notice locate pawn on game's board\r\n\t/// @param _edition edition number\r\n\t/// @return p_ Pawn information\r\n\tfunction locatePlayer(uint16 _edition) public view returns (BoardContract.PawnInfo memory p_) {\r\n\t\trequire(_edition <= Board.getMaxEdition(), \"unknown edition\");\r\n\t\trequire(Pawn.balanceOf(msg.sender) == 1, \"player does not own a pawn\");\r\n\r\n\t\tuint256 pawnID = Pawn.tokenOfOwnerByIndex(msg.sender, 0);\r\n\r\n\t\trequire(Board.isRegistered(_edition, pawnID), \"player does not enroll\");\r\n\r\n\t\tp_ = Board.getPawnInfo(_edition, pawnID);\r\n\t}\r\n\r\n\t/**\r\n\t * @notice To enroll a player, this player must have a pawn and register it in Board contract and give allowance to this contract to spent 50 $MONO\r\n\t * @param _edition board edition\r\n\t */\r\n\tfunction enrollPlayer(uint16 _edition) public {\r\n\t\trequire(Pawn.balanceOf(msg.sender) != 0, \"player does not own a pawn\");\r\n\t\trequire(Mono.allowance(msg.sender, address(this)) >= enroll_fee, \"player has to approve Bank for 50 $MONO\");\r\n\r\n\t\tuint256 pawnID = Pawn.tokenOfOwnerByIndex(msg.sender, 0);\r\n\r\n\t\trequire(Board.register(_edition, pawnID), \"error when enrolling\");\r\n\r\n\t\temit PlayerEnrolled(_edition, msg.sender);\r\n\t}\r\n\r\n\tfunction rollDices(uint16 _edition) external {\r\n\t\t// todo\r\n\t\t// For not purchasable lands (i.e. price is nul) nothing is implemented.\r\n\t\t// The player can ONLY roll de dices even if round is not completed.\r\n\t\tBoardContract.PawnInfo memory p = locatePlayer(_edition);\r\n\t\trequire(propPrices[_edition][p.position][0] == 0 || p.isRoundCompleted, \"Uncompleted round\");\r\n\r\n\t\trequire(Pawn.balanceOf(msg.sender) != 0, \"player does not own a pawn\");\r\n\t\tuint256 pawnID = Pawn.tokenOfOwnerByIndex(msg.sender, 0);\r\n\t\trequire(Board.isRegistered(_edition, pawnID), \"player does not enroll\");\r\n\t\tuint256 chainlinkFee = Board.fee();\r\n\t\trequire(Link.balanceOf(address(Board)) > chainlinkFee, \"not enough LINK in Board contract\");\r\n\r\n\t\t// Bank must be paid here for a roll\r\n\t\tuint256 monoLastPrice = uint256(Staking.getLastPrice(address(Mono)));\r\n\t\tuint256 linkLastPrice = uint256(Staking.getLastPrice(address(Link)));\r\n\t\tMono.transferFrom(msg.sender, address(this), (chainlinkFee * linkLastPrice) / monoLastPrice + 10**18);\r\n\r\n\t\t// Bank must provide LINK to Board\r\n\t\tbytes32 rollDicesID = Board.play(_edition, pawnID);\r\n\r\n\t\temit RollingDices(msg.sender, _edition, rollDicesID);\r\n\t}\r\n\r\n\t/**\r\n\t * @notice To buy Mono from Token network\r\n\t */\r\n\tfunction buyMono() public payable {\r\n\t\tuint256 MonoBalance = Mono.balanceOf(address(this));\r\n\t\tuint256 MonoUsdLastPrice = uint256(Staking.getLastPrice(address(Mono)));\r\n\t\t//address _address = Staking.poolAddressBySymbol(\"MATIC\");\r\n\t\taddress _address = Staking.NETWORK_TOKEN_VIRTUAL_ADDRESS();\r\n\t\tuint256 TokenNetworkUsdLastPrice = uint256(Staking.getLastPrice(_address));\r\n\t\tuint256 amountToBuy = (msg.value * TokenNetworkUsdLastPrice) / MonoUsdLastPrice;\r\n\t\trequire(amountToBuy > 0, \"You need to send some network token\");\r\n\t\trequire(amountToBuy <= MonoBalance, \"Not enough tokens in the reserve\");\r\n\t\tMono.transfer(msg.sender, amountToBuy);\r\n\t\temit MonoBought(msg.sender, amountToBuy);\r\n\t}\r\n\r\n\t/**\r\n\t * @notice buy PROP\r\n\t * @notice requirements :\r\n\t * @notice - Round must be uncompleted\r\n\t * @notice - MONO transfer ok\r\n\t * @param _edition board edition\r\n\t * @dev requirements :\r\n\t * @dev - PROP is valid\r\n\t */\r\n\tfunction buyProp(uint16 _edition) public {\r\n\t\tBoardContract.PawnInfo memory p = locatePlayer(_edition);\r\n\t\trequire(!p.isRoundCompleted, \"Round completed\");\r\n\t\tuint8 _rarity = retrievePropertyRarity(p.random);\r\n\t\trequire(Prop.isValidProp(_edition, p.position, _rarity), \"PROP does not exist\");\r\n\t\tuint256 price = propPrices[_edition][p.position][_rarity];\r\n\t\trequire(Mono.transferFrom(msg.sender, address(this), price), \"$MONO transfer failed\");\r\n\t\tuint256 prop_id = Prop.mint(msg.sender, _edition, p.position, _rarity);\r\n\r\n\t\tp.isPropertyBought = true;\r\n\t\tp.isRoundCompleted = true;\r\n\r\n\t\tuint256 _pawnID = Pawn.tokenOfOwnerByIndex(msg.sender, 0); // todo player can have several pawns\r\n\t\tBoard.setPawnInfo(_edition, _pawnID, p);\r\n\r\n\t\temit PropertyBought(msg.sender, prop_id);\r\n\t}\r\n\r\n\t/**\r\n\t * @notice pay property rent\r\n\t * @notice requirements :\r\n\t * @notice - Round must be uncompleted\r\n\t * @notice - MONO transfer ok\r\n\t * @param _edition board edition\r\n\t * @dev requirements :\r\n\t * @dev - PROP is valid\r\n\t */\r\n\tfunction payRent(uint16 _edition) public {\r\n\t\tBoardContract.PawnInfo memory p = locatePlayer(_edition);\r\n\t\trequire(!p.isRoundCompleted, \"Round completed\");\r\n\t\tuint8 _rarity = retrievePropertyRarity(p.random);\r\n\r\n\t\trequire(Prop.isValidProp(_edition, p.position, _rarity), \"PROP does not exist\");\r\n\r\n\t\tuint256 amount = retrievePropertyRent(_edition, p.position, _rarity);\r\n\t\trequire(Mono.transferFrom(msg.sender, address(this), amount), \"Tax payment failed\");\r\n\r\n\t\tp.isRentPaid = true;\r\n\t\tp.isRoundCompleted = true;\r\n\r\n\t\tuint256 _pawnID = Pawn.tokenOfOwnerByIndex(msg.sender, 0); // todo player can have several pawns\r\n\t\tBoard.setPawnInfo(_edition, _pawnID, p);\r\n\r\n\t\temit PropertyRentPaid(msg.sender, amount);\r\n\t}\r\n\r\n\tfunction retrievePropertyRent(uint16 _edition, uint8 _land, uint8 _rarity) internal view returns(uint256){\r\n\t\treturn propPrices[_edition][_land][_rarity] / 100 > 10**18 ? propPrices[_edition][_land][_rarity] : 10**18;\r\n\t}\r\n\r\n\tfunction retrievePropertyRarity(uint256 randomness) internal pure returns(uint8){\r\n\t\tuint256 number = calculateRandomInteger(\"rarity\", 1, 111, randomness);\r\n\r\n\t\tif (number <= 100) return 2;\r\n\t\tif (number <= 110) return 1;\r\n\t\treturn 0;\r\n\t}\r\n\r\n\tfunction calculateRandomInteger(string memory _type, uint256 min, uint256 max, uint256 randomness) internal pure returns(uint256) {\r\n\t\tuint256 modulo = max - min + 1;\r\n\t\tuint256 number = uint256(keccak256(abi.encode(randomness, _type)));\r\n\r\n\t\treturn number % modulo + min;\r\n\t}\r\n\r\n\tfunction getPriceOfProp(\r\n\t\tuint16 _edition,\r\n\t\tuint8 _land,\r\n\t\tuint8 _rarity\r\n\t) external view returns (uint256 price) {\r\n\t\trequire(Prop.isValidProp(_edition, _land, _rarity), \"PROP does not exist\");\r\n\t\tprice = propPrices[_edition][_land][_rarity];\r\n\t}\r\n\r\n\tfunction setPriceOfProp(\r\n\t\tuint16 _edition,\r\n\t\tuint8 _land,\r\n\t\tuint8 _rarity,\r\n\t\tuint256 _price\r\n\t) public onlyRole(BANKER_ROLE) {\r\n\t\trequire(Prop.isValidProp(_edition, _land, _rarity), \"PROP does not exist\");\r\n\t\tpropPrices[_edition][_land][_rarity] = _price;\r\n\t}\r\n\r\n\tfunction withdraw(address _to, uint256 _value) external onlyRole(BANKER_ROLE) {\r\n\t\trequire(Mono.transfer(_to, _value), \"withdraw failure\");\r\n\r\n\t\temit eWithdraw(_to, _value);\r\n\t}\r\n\r\n\tfunction onERC721Received(\r\n\t\taddress operator,\r\n\t\taddress from,\r\n\t\tuint256 tokenId,\r\n\t\tbytes calldata data\r\n\t) external pure override returns (bytes4) {\r\n\t\t// silent warning\r\n\t\toperator;\r\n\t\tfrom;\r\n\t\ttokenId;\r\n\t\tdata;\r\n\t\treturn this.onERC721Received.selector;\r\n\t}\r\n\r\n\tfunction setPrices(\r\n\t\tuint16 _editionId,\r\n\t\tuint8 _maxLands,\r\n\t\tuint8 _maxLandRarities,\r\n\t\tuint16 _rarityMultiplier,\r\n\t\tuint256[] calldata _commonLandPrices\r\n\t) external onlyRole(ADMIN_ROLE) {\r\n\t\tfor (uint8 landId = 0; landId < _maxLands; landId++) {\r\n\t\t\tif (_commonLandPrices[landId] == 0) {\r\n\t\t\t\tcontinue;\r\n\t\t\t}\r\n\r\n\t\t\tfor (uint8 rarity = 0; rarity < _maxLandRarities; rarity++) {\r\n\t\t\t\tpropPrices[_editionId][landId][rarity] =\r\n\t\t\t\t\t_commonLandPrices[landId] *\r\n\t\t\t\t\t_rarityMultiplier**(_maxLandRarities - rarity - 1) *\r\n\t\t\t\t\t(1 ether);\r\n\t\t\t}\r\n\t\t}\r\n\t}\r\n\r\n\t/**\r\n\t * @notice Transfer property ERC721 and royalties to receiver. Useful for our Marketplace\r\n\t * @dev\r\n\t * @param _from the seller\r\n\t * @param _to the buyer\r\n\t * @param _tokenId the Property token id\r\n\t * @param _salePrice the sale price\r\n\t */\r\n\tfunction propertyTransfer(\r\n\t\taddress _from,\r\n\t\taddress _to,\r\n\t\tuint256 _tokenId,\r\n\t\tuint256 _salePrice\r\n\t) external onlyRole(BANKER_ROLE) {\r\n\t\trequire(Prop.isApprovedForAll(_from, address(this)), \"Contract is not allowed\");\r\n\t\taddress receiver;\r\n\t\tuint256 royaltyAmount;\r\n\t\t(receiver, royaltyAmount) = Prop.royaltyInfo(_tokenId, _salePrice);\r\n\r\n\t\t// todo Ajout du prix de la transaction en gas => oracle ? ou estimation large ?\r\n\t\trequire(Mono.balanceOf(_to) > _salePrice, \"Not sufficient token balance\");\r\n\r\n\t\trequire(Mono.transferFrom(_to, _from, _salePrice));\r\n\r\n\t\tif (receiver != address(0) && royaltyAmount > 0) {\r\n\t\t\tif (receiver != Prop.ownerOf(_tokenId)) {\r\n\t\t\t\t// royalties receiver pay nothing\r\n\t\t\t\tMono.transferFrom(_from, receiver, royaltyAmount); // pay royalties\r\n\t\t\t}\r\n\t\t}\r\n\r\n\t\tProp.safeTransferFrom(_from, _to, _tokenId);\r\n\t}\r\n}\r\n",
  "sourcePath": "C:\\Users\\aaast\\Alyra\\mnp-trufflebox\\contracts\\Bank.sol",
  "compiler": {
    "name": "solc",
    "version": "0.8.10+commit.fc410830.Emscripten.clang"
  },
  "schemaVersion": "3.4.3",
  "updatedAt": "2022-01-18T11:31:02.146Z",
  "networkType": "ethereum",
  "devdoc": {
    "kind": "dev",
    "methods": {
      "buyProp(uint16)": {
        "details": "requirements :- PROP is valid",
        "params": {
          "_edition": "board edition"
        }
      },
      "enrollPlayer(uint16)": {
        "params": {
          "_edition": "board edition"
        }
      },
      "getRoleAdmin(bytes32)": {
        "details": "Returns the admin role that controls `role`. See {grantRole} and {revokeRole}. To change a role's admin, use {_setRoleAdmin}."
      },
      "grantRole(bytes32,address)": {
        "details": "Grants `role` to `account`. If `account` had not been already granted `role`, emits a {RoleGranted} event. Requirements: - the caller must have ``role``'s admin role."
      },
      "hasRole(bytes32,address)": {
        "details": "Returns `true` if `account` has been granted `role`."
      },
      "locatePlayer(uint16)": {
        "params": {
          "_edition": "edition number"
        },
        "returns": {
          "p_": "Pawn information"
        }
      },
      "onERC721Received(address,address,uint256,bytes)": {
        "details": "Whenever an {IERC721} `tokenId` token is transferred to this contract via {IERC721-safeTransferFrom} by `operator` from `from`, this function is called. It must return its Solidity selector to confirm the token transfer. If any other value is returned or the interface is not implemented by the recipient, the transfer will be reverted. The selector can be obtained in Solidity with `IERC721.onERC721Received.selector`."
      },
      "payRent(uint16)": {
        "details": "requirements :- PROP is valid",
        "params": {
          "_edition": "board edition"
        }
      },
      "propertyTransfer(address,address,uint256,uint256)": {
        "details": "@param _from the seller",
        "params": {
          "_salePrice": "the sale price",
          "_to": "the buyer",
          "_tokenId": "the Property token id"
        }
      },
      "renounceRole(bytes32,address)": {
        "details": "Revokes `role` from the calling account. Roles are often managed via {grantRole} and {revokeRole}: this function's purpose is to provide a mechanism for accounts to lose their privileges if they are compromised (such as when a trusted device is misplaced). If the calling account had been revoked `role`, emits a {RoleRevoked} event. Requirements: - the caller must be `account`."
      },
      "revokeRole(bytes32,address)": {
        "details": "Revokes `role` from `account`. If `account` had been granted `role`, emits a {RoleRevoked} event. Requirements: - the caller must have ``role``'s admin role."
      },
      "supportsInterface(bytes4)": {
        "details": "See {IERC165-supportsInterface}."
      }
    },
    "stateVariables": {
      "enroll_fee": {
        "details": "fee to be paid when player enrolls (in $MONO)"
      },
      "propPrices": {
        "details": "price of PROP by rarity by land by edition"
      }
    },
    "version": 1
  },
  "userdoc": {
    "kind": "user",
    "methods": {
      "buyMono()": {
        "notice": "To buy Mono from Token network"
      },
      "buyPawn()": {
        "notice": "buy a pawn (mandatory to play)"
      },
      "buyProp(uint16)": {
        "notice": "buy PROPrequirements :- Round must be uncompleted- MONO transfer ok"
      },
      "enrollPlayer(uint16)": {
        "notice": "To enroll a player, this player must have a pawn and register it in Board contract and give allowance to this contract to spent 50 $MONO"
      },
      "locatePlayer(uint16)": {
        "notice": "locate pawn on game's board"
      },
      "payRent(uint16)": {
        "notice": "pay property rentrequirements :- Round must be uncompleted- MONO transfer ok"
      },
      "propertyTransfer(address,address,uint256,uint256)": {
        "notice": "Transfer property ERC721 and royalties to receiver. Useful for our Marketplace"
      }
    },
    "version": 1
  }
}