{
  "contractName": "BankContract",
  "abi": [
    {
      "inputs": [
        {
          "internalType": "address",
          "name": "PawnAddress",
          "type": "address"
        },
        {
          "internalType": "address",
          "name": "BoardAddress",
          "type": "address"
        },
        {
          "internalType": "address",
          "name": "PropAddress",
          "type": "address"
        },
        {
          "internalType": "address",
          "name": "MonoAddress",
          "type": "address"
        },
        {
          "internalType": "address",
          "name": "LinkAddress",
          "type": "address"
        },
        {
          "internalType": "address",
          "name": "StakingAddress",
          "type": "address"
        }
      ],
      "stateMutability": "nonpayable",
      "type": "constructor"
    },
    {
      "anonymous": false,
      "inputs": [
        {
          "indexed": true,
          "internalType": "address",
          "name": "player",
          "type": "address"
        },
        {
          "indexed": false,
          "internalType": "uint256",
          "name": "amount",
          "type": "uint256"
        }
      ],
      "name": "ChanceProfitReceived",
      "type": "event"
    },
    {
      "anonymous": false,
      "inputs": [
        {
          "indexed": true,
          "internalType": "address",
          "name": "player",
          "type": "address"
        },
        {
          "indexed": false,
          "internalType": "uint256",
          "name": "amount",
          "type": "uint256"
        }
      ],
      "name": "CommunityTaxPaid",
      "type": "event"
    },
    {
      "anonymous": false,
      "inputs": [
        {
          "indexed": true,
          "internalType": "address",
          "name": "player",
          "type": "address"
        },
        {
          "indexed": false,
          "internalType": "uint8",
          "name": "quantity",
          "type": "uint8"
        }
      ],
      "name": "DicesRollsPrepaid",
      "type": "event"
    },
    {
      "anonymous": false,
      "inputs": [
        {
          "indexed": true,
          "internalType": "address",
          "name": "player",
          "type": "address"
        },
        {
          "indexed": false,
          "internalType": "uint256",
          "name": "amount",
          "type": "uint256"
        }
      ],
      "name": "MonoBought",
      "type": "event"
    },
    {
      "anonymous": false,
      "inputs": [
        {
          "indexed": true,
          "internalType": "address",
          "name": "to",
          "type": "address"
        },
        {
          "indexed": true,
          "internalType": "uint256",
          "name": "pawn_id",
          "type": "uint256"
        }
      ],
      "name": "PawnBought",
      "type": "event"
    },
    {
      "anonymous": false,
      "inputs": [
        {
          "indexed": false,
          "internalType": "uint16",
          "name": "_edition",
          "type": "uint16"
        },
        {
          "indexed": true,
          "internalType": "address",
          "name": "player",
          "type": "address"
        }
      ],
      "name": "PlayerEnrolled",
      "type": "event"
    },
    {
      "anonymous": false,
      "inputs": [
        {
          "indexed": true,
          "internalType": "address",
          "name": "to",
          "type": "address"
        },
        {
          "indexed": true,
          "internalType": "uint256",
          "name": "prop_id",
          "type": "uint256"
        }
      ],
      "name": "PropertyBought",
      "type": "event"
    },
    {
      "anonymous": false,
      "inputs": [
        {
          "indexed": true,
          "internalType": "address",
          "name": "player",
          "type": "address"
        },
        {
          "indexed": false,
          "internalType": "uint256",
          "name": "amount",
          "type": "uint256"
        }
      ],
      "name": "PropertyRentPaid",
      "type": "event"
    },
    {
      "anonymous": false,
      "inputs": [
        {
          "indexed": true,
          "internalType": "bytes32",
          "name": "role",
          "type": "bytes32"
        },
        {
          "indexed": true,
          "internalType": "bytes32",
          "name": "previousAdminRole",
          "type": "bytes32"
        },
        {
          "indexed": true,
          "internalType": "bytes32",
          "name": "newAdminRole",
          "type": "bytes32"
        }
      ],
      "name": "RoleAdminChanged",
      "type": "event"
    },
    {
      "anonymous": false,
      "inputs": [
        {
          "indexed": true,
          "internalType": "bytes32",
          "name": "role",
          "type": "bytes32"
        },
        {
          "indexed": true,
          "internalType": "address",
          "name": "account",
          "type": "address"
        },
        {
          "indexed": true,
          "internalType": "address",
          "name": "sender",
          "type": "address"
        }
      ],
      "name": "RoleGranted",
      "type": "event"
    },
    {
      "anonymous": false,
      "inputs": [
        {
          "indexed": true,
          "internalType": "bytes32",
          "name": "role",
          "type": "bytes32"
        },
        {
          "indexed": true,
          "internalType": "address",
          "name": "account",
          "type": "address"
        },
        {
          "indexed": true,
          "internalType": "address",
          "name": "sender",
          "type": "address"
        }
      ],
      "name": "RoleRevoked",
      "type": "event"
    },
    {
      "anonymous": false,
      "inputs": [
        {
          "indexed": false,
          "internalType": "address",
          "name": "player",
          "type": "address"
        },
        {
          "indexed": false,
          "internalType": "uint16",
          "name": "_edition",
          "type": "uint16"
        },
        {
          "indexed": false,
          "internalType": "bytes32",
          "name": "requestID",
          "type": "bytes32"
        }
      ],
      "name": "RollingDices",
      "type": "event"
    },
    {
      "anonymous": false,
      "inputs": [
        {
          "indexed": true,
          "internalType": "address",
          "name": "to",
          "type": "address"
        },
        {
          "indexed": false,
          "internalType": "uint256",
          "name": "value",
          "type": "uint256"
        }
      ],
      "name": "eWithdraw",
      "type": "event"
    },
    {
      "inputs": [],
      "name": "ADMIN_ROLE",
      "outputs": [
        {
          "internalType": "bytes32",
          "name": "",
          "type": "bytes32"
        }
      ],
      "stateMutability": "view",
      "type": "function"
    },
    {
      "inputs": [],
      "name": "BANKER_ROLE",
      "outputs": [
        {
          "internalType": "bytes32",
          "name": "",
          "type": "bytes32"
        }
      ],
      "stateMutability": "view",
      "type": "function"
    },
    {
      "inputs": [],
      "name": "DEFAULT_ADMIN_ROLE",
      "outputs": [
        {
          "internalType": "bytes32",
          "name": "",
          "type": "bytes32"
        }
      ],
      "stateMutability": "view",
      "type": "function"
    },
    {
      "inputs": [],
      "name": "enroll_fee",
      "outputs": [
        {
          "internalType": "uint256",
          "name": "",
          "type": "uint256"
        }
      ],
      "stateMutability": "view",
      "type": "function"
    },
    {
      "inputs": [
        {
          "internalType": "bytes32",
          "name": "role",
          "type": "bytes32"
        }
      ],
      "name": "getRoleAdmin",
      "outputs": [
        {
          "internalType": "bytes32",
          "name": "",
          "type": "bytes32"
        }
      ],
      "stateMutability": "view",
      "type": "function"
    },
    {
      "inputs": [
        {
          "internalType": "bytes32",
          "name": "role",
          "type": "bytes32"
        },
        {
          "internalType": "address",
          "name": "account",
          "type": "address"
        }
      ],
      "name": "grantRole",
      "outputs": [],
      "stateMutability": "nonpayable",
      "type": "function"
    },
    {
      "inputs": [
        {
          "internalType": "bytes32",
          "name": "role",
          "type": "bytes32"
        },
        {
          "internalType": "address",
          "name": "account",
          "type": "address"
        }
      ],
      "name": "hasRole",
      "outputs": [
        {
          "internalType": "bool",
          "name": "",
          "type": "bool"
        }
      ],
      "stateMutability": "view",
      "type": "function"
    },
    {
      "inputs": [
        {
          "internalType": "bytes32",
          "name": "role",
          "type": "bytes32"
        },
        {
          "internalType": "address",
          "name": "account",
          "type": "address"
        }
      ],
      "name": "renounceRole",
      "outputs": [],
      "stateMutability": "nonpayable",
      "type": "function"
    },
    {
      "inputs": [
        {
          "internalType": "bytes32",
          "name": "role",
          "type": "bytes32"
        },
        {
          "internalType": "address",
          "name": "account",
          "type": "address"
        }
      ],
      "name": "revokeRole",
      "outputs": [],
      "stateMutability": "nonpayable",
      "type": "function"
    },
    {
      "inputs": [
        {
          "internalType": "bytes4",
          "name": "interfaceId",
          "type": "bytes4"
        }
      ],
      "name": "supportsInterface",
      "outputs": [
        {
          "internalType": "bool",
          "name": "",
          "type": "bool"
        }
      ],
      "stateMutability": "view",
      "type": "function"
    },
    {
      "inputs": [],
      "name": "buyPawn",
      "outputs": [],
      "stateMutability": "nonpayable",
      "type": "function"
    },
    {
      "inputs": [
        {
          "internalType": "uint16",
          "name": "_edition",
          "type": "uint16"
        }
      ],
      "name": "locatePlayer",
      "outputs": [
        {
          "components": [
            {
              "internalType": "uint256",
              "name": "random",
              "type": "uint256"
            },
            {
              "internalType": "uint8",
              "name": "position",
              "type": "uint8"
            },
            {
              "internalType": "bool",
              "name": "isOnBoard",
              "type": "bool"
            },
            {
              "internalType": "bool",
              "name": "isPropertyBought",
              "type": "bool"
            },
            {
              "internalType": "bool",
              "name": "isRentPaid",
              "type": "bool"
            },
            {
              "internalType": "bool",
              "name": "isRoundCompleted",
              "type": "bool"
            },
            {
              "internalType": "bool",
              "name": "isInJail",
              "type": "bool"
            },
            {
              "internalType": "bool",
              "name": "isChanceCard",
              "type": "bool"
            },
            {
              "internalType": "bool",
              "name": "isCommunityCard",
              "type": "bool"
            }
          ],
          "internalType": "struct BoardContract.PawnInfo",
          "name": "p_",
          "type": "tuple"
        }
      ],
      "stateMutability": "view",
      "type": "function"
    },
    {
      "inputs": [
        {
          "internalType": "uint16",
          "name": "_edition",
          "type": "uint16"
        }
      ],
      "name": "enrollPlayer",
      "outputs": [],
      "stateMutability": "nonpayable",
      "type": "function"
    },
    {
      "inputs": [
        {
          "internalType": "uint16",
          "name": "_edition",
          "type": "uint16"
        }
      ],
      "name": "rollDices",
      "outputs": [],
      "stateMutability": "nonpayable",
      "type": "function"
    },
    {
      "inputs": [],
      "name": "buyMono",
      "outputs": [],
      "stateMutability": "payable",
      "type": "function"
    },
    {
      "inputs": [
        {
          "internalType": "uint16",
          "name": "_edition",
          "type": "uint16"
        }
      ],
      "name": "buyProp",
      "outputs": [],
      "stateMutability": "nonpayable",
      "type": "function"
    },
    {
      "inputs": [
        {
          "internalType": "uint16",
          "name": "_edition",
          "type": "uint16"
        }
      ],
      "name": "payRent",
      "outputs": [],
      "stateMutability": "nonpayable",
      "type": "function"
    },
    {
      "inputs": [
        {
          "internalType": "uint16",
          "name": "_edition",
          "type": "uint16"
        }
      ],
      "name": "payCommunityTax",
      "outputs": [],
      "stateMutability": "nonpayable",
      "type": "function"
    },
    {
      "inputs": [
        {
          "internalType": "uint16",
          "name": "_edition",
          "type": "uint16"
        }
      ],
      "name": "receiveChanceProfit",
      "outputs": [],
      "stateMutability": "nonpayable",
      "type": "function"
    },
    {
      "inputs": [
        {
          "internalType": "uint16",
          "name": "_edition",
          "type": "uint16"
        },
        {
          "internalType": "uint8",
          "name": "_land",
          "type": "uint8"
        },
        {
          "internalType": "uint8",
          "name": "_rarity",
          "type": "uint8"
        }
      ],
      "name": "getPriceOfProp",
      "outputs": [
        {
          "internalType": "uint256",
          "name": "price",
          "type": "uint256"
        }
      ],
      "stateMutability": "view",
      "type": "function"
    },
    {
      "inputs": [
        {
          "internalType": "uint16",
          "name": "_edition",
          "type": "uint16"
        },
        {
          "internalType": "uint8",
          "name": "_land",
          "type": "uint8"
        },
        {
          "internalType": "uint8",
          "name": "_rarity",
          "type": "uint8"
        },
        {
          "internalType": "uint256",
          "name": "_price",
          "type": "uint256"
        }
      ],
      "name": "setPriceOfProp",
      "outputs": [],
      "stateMutability": "nonpayable",
      "type": "function"
    },
    {
      "inputs": [
        {
          "internalType": "address",
          "name": "_to",
          "type": "address"
        },
        {
          "internalType": "uint256",
          "name": "_value",
          "type": "uint256"
        }
      ],
      "name": "withdraw",
      "outputs": [],
      "stateMutability": "nonpayable",
      "type": "function"
    },
    {
      "inputs": [
        {
          "internalType": "address",
          "name": "operator",
          "type": "address"
        },
        {
          "internalType": "address",
          "name": "from",
          "type": "address"
        },
        {
          "internalType": "uint256",
          "name": "tokenId",
          "type": "uint256"
        },
        {
          "internalType": "bytes",
          "name": "data",
          "type": "bytes"
        }
      ],
      "name": "onERC721Received",
      "outputs": [
        {
          "internalType": "bytes4",
          "name": "",
          "type": "bytes4"
        }
      ],
      "stateMutability": "pure",
      "type": "function"
    },
    {
      "inputs": [
        {
          "internalType": "uint16",
          "name": "_editionId",
          "type": "uint16"
        },
        {
          "internalType": "uint8",
          "name": "_maxLands",
          "type": "uint8"
        },
        {
          "internalType": "uint8",
          "name": "_maxLandRarities",
          "type": "uint8"
        },
        {
          "internalType": "uint16",
          "name": "_rarityMultiplier",
          "type": "uint16"
        },
        {
          "internalType": "uint256[]",
          "name": "_commonLandPrices",
          "type": "uint256[]"
        }
      ],
      "name": "setPrices",
      "outputs": [],
      "stateMutability": "nonpayable",
      "type": "function"
    },
    {
      "inputs": [
        {
          "internalType": "address",
          "name": "_from",
          "type": "address"
        },
        {
          "internalType": "address",
          "name": "_to",
          "type": "address"
        },
        {
          "internalType": "uint256",
          "name": "_tokenId",
          "type": "uint256"
        },
        {
          "internalType": "uint256",
          "name": "_salePrice",
          "type": "uint256"
        }
      ],
      "name": "propertyTransfer",
      "outputs": [],
      "stateMutability": "nonpayable",
      "type": "function"
    }
  ],
  "bytecode": "0x6101406040526802b5e3af16b18800006001553480156200001f57600080fd5b506040516200680b3803806200680b83398181016040528101906200004591906200078a565b600073ffffffffffffffffffffffffffffffffffffffff168673ffffffffffffffffffffffffffffffffffffffff161415620000b8576040517f08c379a0000000000000000000000000000000000000000000000000000000008152600401620000af90620008ad565b60405180910390fd5b600073ffffffffffffffffffffffffffffffffffffffff168573ffffffffffffffffffffffffffffffffffffffff1614156200012b576040517f08c379a0000000000000000000000000000000000000000000000000000000008152600401620001229062000945565b60405180910390fd5b600073ffffffffffffffffffffffffffffffffffffffff168473ffffffffffffffffffffffffffffffffffffffff1614156200019e576040517f08c379a00000000000000000000000000000000000000000000000000000000081526004016200019590620009dd565b60405180910390fd5b600073ffffffffffffffffffffffffffffffffffffffff168373ffffffffffffffffffffffffffffffffffffffff16141562000211576040517f08c379a0000000000000000000000000000000000000000000000000000000008152600401620002089062000a75565b60405180910390fd5b600073ffffffffffffffffffffffffffffffffffffffff168273ffffffffffffffffffffffffffffffffffffffff16141562000284576040517f08c379a00000000000000000000000000000000000000000000000000000000081526004016200027b9062000b0d565b60405180910390fd5b600073ffffffffffffffffffffffffffffffffffffffff168173ffffffffffffffffffffffffffffffffffffffff161415620002f7576040517f08c379a0000000000000000000000000000000000000000000000000000000008152600401620002ee9062000b0d565b60405180910390fd5b8573ffffffffffffffffffffffffffffffffffffffff1660808173ffffffffffffffffffffffffffffffffffffffff16815250508473ffffffffffffffffffffffffffffffffffffffff1660a08173ffffffffffffffffffffffffffffffffffffffff16815250508373ffffffffffffffffffffffffffffffffffffffff1660c08173ffffffffffffffffffffffffffffffffffffffff16815250508273ffffffffffffffffffffffffffffffffffffffff1660e08173ffffffffffffffffffffffffffffffffffffffff16815250508173ffffffffffffffffffffffffffffffffffffffff166101008173ffffffffffffffffffffffffffffffffffffffff16815250508073ffffffffffffffffffffffffffffffffffffffff166101208173ffffffffffffffffffffffffffffffffffffffff1681525050620004637fa49807205ce4d355092ef5a8a18f56e8913cf4a201fbe287825b095693c21775336200052560201b60201c565b620004957fa49807205ce4d355092ef5a8a18f56e8913cf4a201fbe287825b095693c21775806200053b60201b60201c565b620004c77fbfbecdc826a2a8977600bab194106c63f4beafa56075c85f72a5cfa11d9d0ec4336200052560201b60201c565b620005197fbfbecdc826a2a8977600bab194106c63f4beafa56075c85f72a5cfa11d9d0ec47fa49807205ce4d355092ef5a8a18f56e8913cf4a201fbe287825b095693c217756200053b60201b60201c565b50505050505062000b2f565b6200053782826200059e60201b60201c565b5050565b60006200054e836200068f60201b60201c565b905081600080858152602001908152602001600020600101819055508181847fbd79b86ffe0ab8e8776151514217cd7cacd52c909f66475c3af44e129f0b00ff60405160405180910390a4505050565b620005b08282620006ae60201b60201c565b6200068b57600160008084815260200190815260200160002060000160008373ffffffffffffffffffffffffffffffffffffffff1673ffffffffffffffffffffffffffffffffffffffff16815260200190815260200160002060006101000a81548160ff021916908315150217905550620006306200071860201b60201c565b73ffffffffffffffffffffffffffffffffffffffff168173ffffffffffffffffffffffffffffffffffffffff16837f2f8788117e7eff1d82e926ec794901d17c78024a50270940304540a733656f0d60405160405180910390a45b5050565b6000806000838152602001908152602001600020600101549050919050565b600080600084815260200190815260200160002060000160008373ffffffffffffffffffffffffffffffffffffffff1673ffffffffffffffffffffffffffffffffffffffff16815260200190815260200160002060009054906101000a900460ff16905092915050565b600033905090565b600080fd5b600073ffffffffffffffffffffffffffffffffffffffff82169050919050565b6000620007528262000725565b9050919050565b620007648162000745565b81146200077057600080fd5b50565b600081519050620007848162000759565b92915050565b60008060008060008060c08789031215620007aa57620007a962000720565b5b6000620007ba89828a0162000773565b9650506020620007cd89828a0162000773565b9550506040620007e089828a0162000773565b9450506060620007f389828a0162000773565b93505060806200080689828a0162000773565b92505060a06200081989828a0162000773565b9150509295509295509295565b600082825260208201905092915050565b7f5041574e20746f6b656e20736d61727420636f6e74726163742061646472657360008201527f73206d7573742062652070726f76696465640000000000000000000000000000602082015250565b60006200089560328362000826565b9150620008a28262000837565b604082019050919050565b60006020820190508181036000830152620008c88162000886565b9050919050565b7f424f41524420736d61727420636f6e74726163742061646472657373206d757360008201527f742062652070726f766964656400000000000000000000000000000000000000602082015250565b60006200092d602d8362000826565b91506200093a82620008cf565b604082019050919050565b6000602082019050818103600083015262000960816200091e565b9050919050565b7f50524f5020746f6b656e20736d61727420636f6e74726163742061646472657360008201527f73206d7573742062652070726f76696465640000000000000000000000000000602082015250565b6000620009c560328362000826565b9150620009d28262000967565b604082019050919050565b60006020820190508181036000830152620009f881620009b6565b9050919050565b7f4d4f4e4f20746f6b656e20736d61727420636f6e74726163742061646472657360008201527f73206d7573742062652070726f76696465640000000000000000000000000000602082015250565b600062000a5d60328362000826565b915062000a6a82620009ff565b604082019050919050565b6000602082019050818103600083015262000a908162000a4e565b9050919050565b7f4c494e4b20746f6b656e20736d61727420636f6e74726163742061646472657360008201527f73206d7573742062652070726f76696465640000000000000000000000000000602082015250565b600062000af560328362000826565b915062000b028262000a97565b604082019050919050565b6000602082019050818103600083015262000b288162000ae6565b9050919050565b60805160a05160c05160e0516101005161012051615b3c62000ccf60003960008181611da901528181611e6701528181611efa015281816131d801526132960152600081816130dc01526132d201526000818161063701528181610cd20152818161126a01528181611344015281816114fb0152818161171901528181611a5c01528181611d0b01528181611de50152818161203701528181612332015281816127350152818161321401528181613352015261353401526000818161084c0152818161099f01528181610bde015281816110e8015281816111c60152818161142f0152818161159e015281816121ff0152612413015260008181610e740152818161189901528181611bda0152818161257e015281816128b30152818161299e01528181612bf501528181612cd001528181612f6d0152818161304a01528181613118015261341e01526000818161072001528181610dd5015281816117fa0152818161197e01528181611b3b015281816124df0152818161281401528181612a7901528181612b5601528181612df10152612ece0152615b3c6000f3fe6080604052600436106101665760003560e01c806375b238fc116100d1578063b3c18e791161008a578063cc5a2d0811610064578063cc5a2d0814610503578063d547741f14610540578063f31c138114610569578063f3fef3a31461059257610166565b8063b3c18e7914610486578063b6b0f592146104af578063bf9b37b8146104da57610166565b806375b238fc146103975780637a37c3c5146103c2578063803aa6d8146103eb5780638256e1a81461041457806391d148541461041e578063a217fddf1461045b57610166565b80632f2ff15d116101235780632f2ff15d1461029f57806336568abe146102c85780633aba94c0146102f15780633d2f85f31461031a57806367549f801461034357806369230a271461036c57610166565b806301ffc9a71461016b578063143750ad146101a8578063150b7a02146101bf5780631b1a70e2146101fc578063248a9ca31461022557806327a69f4814610262575b600080fd5b34801561017757600080fd5b50610192600480360381019061018d9190613ea4565b6105bb565b60405161019f9190613eec565b60405180910390f35b3480156101b457600080fd5b506101bd610635565b005b3480156101cb57600080fd5b506101e660048036038101906101e19190614000565b610803565b6040516101f39190614097565b60405180910390f35b34801561020857600080fd5b50610223600480360381019061021e9190614125565b610818565b005b34801561023157600080fd5b5061024c600480360381019061024791906141c2565b61097c565b60405161025991906141fe565b60405180910390f35b34801561026e57600080fd5b5061028960048036038101906102849190614219565b61099b565b604051610296919061427b565b60405180910390f35b3480156102ab57600080fd5b506102c660048036038101906102c19190614296565b610acd565b005b3480156102d457600080fd5b506102ef60048036038101906102ea9190614296565b610af6565b005b3480156102fd57600080fd5b50610318600480360381019061031391906142d6565b610b79565b005b34801561032657600080fd5b50610341600480360381019061033c9190614359565b610f56565b005b34801561034f57600080fd5b5061036a600480360381019061036591906143f3565b6110b4565b005b34801561037857600080fd5b50610381611634565b60405161038e919061427b565b60405180910390f35b3480156103a357600080fd5b506103ac61163a565b6040516103b991906141fe565b60405180910390f35b3480156103ce57600080fd5b506103e960048036038101906103e491906142d6565b61165e565b005b3480156103f757600080fd5b50610412600480360381019061040d91906142d6565b61197a565b005b61041c611d07565b005b34801561042a57600080fd5b5061044560048036038101906104409190614296565b612129565b6040516104529190613eec565b60405180910390f35b34801561046757600080fd5b50610470612193565b60405161047d91906141fe565b60405180910390f35b34801561049257600080fd5b506104ad60048036038101906104a891906142d6565b61219a565b005b3480156104bb57600080fd5b506104c4612657565b6040516104d191906141fe565b60405180910390f35b3480156104e657600080fd5b5061050160048036038101906104fc91906142d6565b61267b565b005b34801561050f57600080fd5b5061052a600480360381019061052591906142d6565b612994565b604051610537919061453e565b60405180910390f35b34801561054c57600080fd5b5061056760048036038101906105629190614296565b612d73565b005b34801561057557600080fd5b50610590600480360381019061058b91906142d6565b612d9c565b005b34801561059e57600080fd5b506105b960048036038101906105b4919061455a565b613500565b005b60007f7965db0b000000000000000000000000000000000000000000000000000000007bffffffffffffffffffffffffffffffffffffffffffffffffffffffff1916827bffffffffffffffffffffffffffffffffffffffffffffffffffffffff1916148061062e575061062d82613662565b5b9050919050565b7f000000000000000000000000000000000000000000000000000000000000000073ffffffffffffffffffffffffffffffffffffffff166323b872dd3330670de0b6b3a76400006040518463ffffffff1660e01b815260040161069a939291906145ee565b6020604051808303816000875af11580156106b9573d6000803e3d6000fd5b505050506040513d601f19601f820116820180604052508101906106dd9190614651565b61071c576040517f08c379a0000000000000000000000000000000000000000000000000000000008152600401610713906146db565b60405180910390fd5b60007f000000000000000000000000000000000000000000000000000000000000000073ffffffffffffffffffffffffffffffffffffffff16636a627842336040518263ffffffff1660e01b815260040161077791906146fb565b6020604051808303816000875af1158015610796573d6000803e3d6000fd5b505050506040513d601f19601f820116820180604052508101906107ba919061472b565b9050803373ffffffffffffffffffffffffffffffffffffffff167fab3c53a63ccd5807157d9a9a4a0da2319cbc14997e17dd509ebf6071c71eb76160405160405180910390a350565b600063150b7a0260e01b905095945050505050565b7fbfbecdc826a2a8977600bab194106c63f4beafa56075c85f72a5cfa11d9d0ec461084a816108456136cc565b6136d4565b7f000000000000000000000000000000000000000000000000000000000000000073ffffffffffffffffffffffffffffffffffffffff1663228dace58686866040518463ffffffff1660e01b81526004016108a793929190614776565b602060405180830381865afa1580156108c4573d6000803e3d6000fd5b505050506040513d601f19601f820116820180604052508101906108e89190614651565b610927576040517f08c379a000000000000000000000000000000000000000000000000000000000815260040161091e906147f9565b60405180910390fd5b81600260008761ffff1661ffff16815260200190815260200160002060008660ff1660ff16815260200190815260200160002060008560ff1660ff168152602001908152602001600020819055505050505050565b6000806000838152602001908152602001600020600101549050919050565b60007f000000000000000000000000000000000000000000000000000000000000000073ffffffffffffffffffffffffffffffffffffffff1663228dace58585856040518463ffffffff1660e01b81526004016109fa93929190614776565b602060405180830381865afa158015610a17573d6000803e3d6000fd5b505050506040513d601f19601f82011682018060405250810190610a3b9190614651565b610a7a576040517f08c379a0000000000000000000000000000000000000000000000000000000008152600401610a71906147f9565b60405180910390fd5b600260008561ffff1661ffff16815260200190815260200160002060008460ff1660ff16815260200190815260200160002060008360ff1660ff1681526020019081526020016000205490509392505050565b610ad68261097c565b610ae781610ae26136cc565b6136d4565b610af18383613771565b505050565b610afe6136cc565b73ffffffffffffffffffffffffffffffffffffffff168173ffffffffffffffffffffffffffffffffffffffff1614610b6b576040517f08c379a0000000000000000000000000000000000000000000000000000000008152600401610b629061488b565b60405180910390fd5b610b758282613851565b5050565b6000610b8482612994565b90508060a0015115610bcb576040517f08c379a0000000000000000000000000000000000000000000000000000000008152600401610bc2906148f7565b60405180910390fd5b6000610bda8260000151613932565b90507f000000000000000000000000000000000000000000000000000000000000000073ffffffffffffffffffffffffffffffffffffffff1663228dace5848460200151846040518463ffffffff1660e01b8152600401610c3d93929190614776565b602060405180830381865afa158015610c5a573d6000803e3d6000fd5b505050506040513d601f19601f82011682018060405250810190610c7e9190614651565b610cbd576040517f08c379a0000000000000000000000000000000000000000000000000000000008152600401610cb4906147f9565b60405180910390fd5b6000610cce848460200151846139a9565b90507f000000000000000000000000000000000000000000000000000000000000000073ffffffffffffffffffffffffffffffffffffffff166323b872dd3330846040518463ffffffff1660e01b8152600401610d2d93929190614917565b6020604051808303816000875af1158015610d4c573d6000803e3d6000fd5b505050506040513d601f19601f82011682018060405250810190610d709190614651565b610daf576040517f08c379a0000000000000000000000000000000000000000000000000000000008152600401610da69061499a565b60405180910390fd5b600183608001901515908115158152505060018360a001901515908115158152505060007f000000000000000000000000000000000000000000000000000000000000000073ffffffffffffffffffffffffffffffffffffffff16632f745c593360006040518363ffffffff1660e01b8152600401610e2f9291906149f5565b602060405180830381865afa158015610e4c573d6000803e3d6000fd5b505050506040513d601f19601f82011682018060405250810190610e70919061472b565b90507f000000000000000000000000000000000000000000000000000000000000000073ffffffffffffffffffffffffffffffffffffffff16639c3793458683876040518463ffffffff1660e01b8152600401610ecf93929190614a1e565b600060405180830381600087803b158015610ee957600080fd5b505af1158015610efd573d6000803e3d6000fd5b505050503373ffffffffffffffffffffffffffffffffffffffff167f697180498b16bf98bdc1bf328b02a815eee612427bb3499d14cadb28c9621eb283604051610f47919061427b565b60405180910390a25050505050565b7fa49807205ce4d355092ef5a8a18f56e8913cf4a201fbe287825b095693c21775610f8881610f836136cc565b6136d4565b60005b8660ff168160ff1610156110aa57600084848360ff16818110610fb157610fb0614a56565b5b905060200201351415610fc357611097565b60005b8660ff168160ff16101561109557670de0b6b3a764000060018289610feb9190614ab4565b610ff59190614ab4565b876110009190614c1b565b61ffff1686868560ff1681811061101a57611019614a56565b5b9050602002013561102b9190614c48565b6110359190614c48565b600260008b61ffff1661ffff16815260200190815260200160002060008460ff1660ff16815260200190815260200160002060008360ff1660ff16815260200190815260200160002081905550808061108d90614ca2565b915050610fc6565b505b80806110a290614ca2565b915050610f8b565b5050505050505050565b7fbfbecdc826a2a8977600bab194106c63f4beafa56075c85f72a5cfa11d9d0ec46110e6816110e16136cc565b6136d4565b7f000000000000000000000000000000000000000000000000000000000000000073ffffffffffffffffffffffffffffffffffffffff1663e985e9c586306040518363ffffffff1660e01b8152600401611141929190614ccc565b602060405180830381865afa15801561115e573d6000803e3d6000fd5b505050506040513d601f19601f820116820180604052508101906111829190614651565b6111c1576040517f08c379a00000000000000000000000000000000000000000000000000000000081526004016111b890614d41565b60405180910390fd5b6000807f000000000000000000000000000000000000000000000000000000000000000073ffffffffffffffffffffffffffffffffffffffff16632a55205a86866040518363ffffffff1660e01b815260040161121f929190614d61565b6040805180830381865afa15801561123b573d6000803e3d6000fd5b505050506040513d601f19601f8201168201806040525081019061125f9190614d9f565b8092508193505050837f000000000000000000000000000000000000000000000000000000000000000073ffffffffffffffffffffffffffffffffffffffff166370a08231886040518263ffffffff1660e01b81526004016112c191906146fb565b602060405180830381865afa1580156112de573d6000803e3d6000fd5b505050506040513d601f19601f82011682018060405250810190611302919061472b565b11611342576040517f08c379a000000000000000000000000000000000000000000000000000000000815260040161133990614e2b565b60405180910390fd5b7f000000000000000000000000000000000000000000000000000000000000000073ffffffffffffffffffffffffffffffffffffffff166323b872dd8789876040518463ffffffff1660e01b815260040161139f93929190614917565b6020604051808303816000875af11580156113be573d6000803e3d6000fd5b505050506040513d601f19601f820116820180604052508101906113e29190614651565b6113eb57600080fd5b600073ffffffffffffffffffffffffffffffffffffffff168273ffffffffffffffffffffffffffffffffffffffff16141580156114285750600081115b1561159c577f000000000000000000000000000000000000000000000000000000000000000073ffffffffffffffffffffffffffffffffffffffff16636352211e866040518263ffffffff1660e01b8152600401611486919061427b565b602060405180830381865afa1580156114a3573d6000803e3d6000fd5b505050506040513d601f19601f820116820180604052508101906114c79190614e4b565b73ffffffffffffffffffffffffffffffffffffffff168273ffffffffffffffffffffffffffffffffffffffff161461159b577f000000000000000000000000000000000000000000000000000000000000000073ffffffffffffffffffffffffffffffffffffffff166323b872dd8884846040518463ffffffff1660e01b815260040161155693929190614917565b6020604051808303816000875af1158015611575573d6000803e3d6000fd5b505050506040513d601f19601f820116820180604052508101906115999190614651565b505b5b7f000000000000000000000000000000000000000000000000000000000000000073ffffffffffffffffffffffffffffffffffffffff166342842e0e8888886040518463ffffffff1660e01b81526004016115f993929190614917565b600060405180830381600087803b15801561161357600080fd5b505af1158015611627573d6000803e3d6000fd5b5050505050505050505050565b60015481565b7fa49807205ce4d355092ef5a8a18f56e8913cf4a201fbe287825b095693c2177581565b600061166982612994565b90508061010001516116b0576040517f08c379a00000000000000000000000000000000000000000000000000000000081526004016116a790614ec4565b60405180910390fd5b8060a00151156116f5576040517f08c379a00000000000000000000000000000000000000000000000000000000081526004016116ec906148f7565b60405180910390fd5b60006117048260000151613a71565b905060018260a00190151590811515815250507f000000000000000000000000000000000000000000000000000000000000000073ffffffffffffffffffffffffffffffffffffffff166323b872dd3330846040518463ffffffff1660e01b815260040161177493929190614917565b6020604051808303816000875af1158015611793573d6000803e3d6000fd5b505050506040513d601f19601f820116820180604052508101906117b79190614651565b6117f6576040517f08c379a00000000000000000000000000000000000000000000000000000000081526004016117ed9061499a565b60405180910390fd5b60007f000000000000000000000000000000000000000000000000000000000000000073ffffffffffffffffffffffffffffffffffffffff16632f745c593360006040518363ffffffff1660e01b81526004016118549291906149f5565b602060405180830381865afa158015611871573d6000803e3d6000fd5b505050506040513d601f19601f82011682018060405250810190611895919061472b565b90507f000000000000000000000000000000000000000000000000000000000000000073ffffffffffffffffffffffffffffffffffffffff16639c3793458583866040518463ffffffff1660e01b81526004016118f493929190614a1e565b600060405180830381600087803b15801561190e57600080fd5b505af1158015611922573d6000803e3d6000fd5b505050503373ffffffffffffffffffffffffffffffffffffffff167f51cabc7312ed6003567f7d1e7dc3b9b7cd0e68d12f57f5fc03f80a47f2d62cfa8360405161196c919061427b565b60405180910390a250505050565b60007f000000000000000000000000000000000000000000000000000000000000000073ffffffffffffffffffffffffffffffffffffffff166370a08231336040518263ffffffff1660e01b81526004016119d591906146fb565b602060405180830381865afa1580156119f2573d6000803e3d6000fd5b505050506040513d601f19601f82011682018060405250810190611a16919061472b565b1415611a57576040517f08c379a0000000000000000000000000000000000000000000000000000000008152600401611a4e90614f30565b60405180910390fd5b6001547f000000000000000000000000000000000000000000000000000000000000000073ffffffffffffffffffffffffffffffffffffffff1663dd62ed3e33306040518363ffffffff1660e01b8152600401611ab5929190614ccc565b602060405180830381865afa158015611ad2573d6000803e3d6000fd5b505050506040513d601f19601f82011682018060405250810190611af6919061472b565b1015611b37576040517f08c379a0000000000000000000000000000000000000000000000000000000008152600401611b2e90614fc2565b60405180910390fd5b60007f000000000000000000000000000000000000000000000000000000000000000073ffffffffffffffffffffffffffffffffffffffff16632f745c593360006040518363ffffffff1660e01b8152600401611b959291906149f5565b602060405180830381865afa158015611bb2573d6000803e3d6000fd5b505050506040513d601f19601f82011682018060405250810190611bd6919061472b565b90507f000000000000000000000000000000000000000000000000000000000000000073ffffffffffffffffffffffffffffffffffffffff166326e0fc1f83836040518363ffffffff1660e01b8152600401611c33929190614fe2565b6020604051808303816000875af1158015611c52573d6000803e3d6000fd5b505050506040513d601f19601f82011682018060405250810190611c769190614651565b611cb5576040517f08c379a0000000000000000000000000000000000000000000000000000000008152600401611cac90615057565b60405180910390fd5b3373ffffffffffffffffffffffffffffffffffffffff167f1c6eaf572ec9c491233a60c60f5fb4d7da592d9c854ed6219cb9b95a4c34c91283604051611cfb9190615077565b60405180910390a25050565b60007f000000000000000000000000000000000000000000000000000000000000000073ffffffffffffffffffffffffffffffffffffffff166370a08231306040518263ffffffff1660e01b8152600401611d6291906146fb565b602060405180830381865afa158015611d7f573d6000803e3d6000fd5b505050506040513d601f19601f82011682018060405250810190611da3919061472b565b905060007f000000000000000000000000000000000000000000000000000000000000000073ffffffffffffffffffffffffffffffffffffffff1663c692fc747f00000000000000000000000000000000000000000000000000000000000000006040518263ffffffff1660e01b8152600401611e2091906146fb565b602060405180830381865afa158015611e3d573d6000803e3d6000fd5b505050506040513d601f19601f82011682018060405250810190611e6191906150c8565b905060007f000000000000000000000000000000000000000000000000000000000000000073ffffffffffffffffffffffffffffffffffffffff16638aa26d276040518163ffffffff1660e01b8152600401602060405180830381865afa158015611ed0573d6000803e3d6000fd5b505050506040513d601f19601f82011682018060405250810190611ef49190614e4b565b905060007f000000000000000000000000000000000000000000000000000000000000000073ffffffffffffffffffffffffffffffffffffffff1663c692fc74836040518263ffffffff1660e01b8152600401611f5191906146fb565b602060405180830381865afa158015611f6e573d6000803e3d6000fd5b505050506040513d601f19601f82011682018060405250810190611f9291906150c8565b90506000838234611fa39190614c48565b611fad9190615124565b905060008111611ff2576040517f08c379a0000000000000000000000000000000000000000000000000000000008152600401611fe9906151c7565b60405180910390fd5b84811115612035576040517f08c379a000000000000000000000000000000000000000000000000000000000815260040161202c90615233565b60405180910390fd5b7f000000000000000000000000000000000000000000000000000000000000000073ffffffffffffffffffffffffffffffffffffffff1663a9059cbb33836040518363ffffffff1660e01b8152600401612090929190615253565b6020604051808303816000875af11580156120af573d6000803e3d6000fd5b505050506040513d601f19601f820116820180604052508101906120d39190614651565b503373ffffffffffffffffffffffffffffffffffffffff167fe24e47dfb49c7f120dcbc158336ed322412f92b42dfa098615b155ee65a5eac38260405161211a919061427b565b60405180910390a25050505050565b600080600084815260200190815260200160002060000160008373ffffffffffffffffffffffffffffffffffffffff1673ffffffffffffffffffffffffffffffffffffffff16815260200190815260200160002060009054906101000a900460ff16905092915050565b6000801b81565b60006121a582612994565b90508060a00151156121ec576040517f08c379a00000000000000000000000000000000000000000000000000000000081526004016121e3906148f7565b60405180910390fd5b60006121fb8260000151613932565b90507f000000000000000000000000000000000000000000000000000000000000000073ffffffffffffffffffffffffffffffffffffffff1663228dace5848460200151846040518463ffffffff1660e01b815260040161225e93929190614776565b602060405180830381865afa15801561227b573d6000803e3d6000fd5b505050506040513d601f19601f8201168201806040525081019061229f9190614651565b6122de576040517f08c379a00000000000000000000000000000000000000000000000000000000081526004016122d5906147f9565b60405180910390fd5b6000600260008561ffff1661ffff1681526020019081526020016000206000846020015160ff1660ff16815260200190815260200160002060008360ff1660ff1681526020019081526020016000205490507f000000000000000000000000000000000000000000000000000000000000000073ffffffffffffffffffffffffffffffffffffffff166323b872dd3330846040518463ffffffff1660e01b815260040161238d93929190614917565b6020604051808303816000875af11580156123ac573d6000803e3d6000fd5b505050506040513d601f19601f820116820180604052508101906123d09190614651565b61240f576040517f08c379a0000000000000000000000000000000000000000000000000000000008152600401612406906146db565b60405180910390fd5b60007f000000000000000000000000000000000000000000000000000000000000000073ffffffffffffffffffffffffffffffffffffffff16635252d9a033878760200151876040518563ffffffff1660e01b8152600401612474949392919061527c565b6020604051808303816000875af1158015612493573d6000803e3d6000fd5b505050506040513d601f19601f820116820180604052508101906124b7919061472b565b9050600184606001901515908115158152505060018460a001901515908115158152505060007f000000000000000000000000000000000000000000000000000000000000000073ffffffffffffffffffffffffffffffffffffffff16632f745c593360006040518363ffffffff1660e01b81526004016125399291906149f5565b602060405180830381865afa158015612556573d6000803e3d6000fd5b505050506040513d601f19601f8201168201806040525081019061257a919061472b565b90507f000000000000000000000000000000000000000000000000000000000000000073ffffffffffffffffffffffffffffffffffffffff16639c3793458783886040518463ffffffff1660e01b81526004016125d993929190614a1e565b600060405180830381600087803b1580156125f357600080fd5b505af1158015612607573d6000803e3d6000fd5b50505050813373ffffffffffffffffffffffffffffffffffffffff167f3e6ff52283bdd248825a504a52d8aaea681e3345a3e0a39e9244e2e01021004e60405160405180910390a3505050505050565b7fbfbecdc826a2a8977600bab194106c63f4beafa56075c85f72a5cfa11d9d0ec481565b600061268682612994565b90508060e001516126cc576040517f08c379a00000000000000000000000000000000000000000000000000000000081526004016126c39061530d565b60405180910390fd5b8060a0015115612711576040517f08c379a0000000000000000000000000000000000000000000000000000000008152600401612708906148f7565b60405180910390fd5b60006127208260000151613ad0565b905060018260a00190151590811515815250507f000000000000000000000000000000000000000000000000000000000000000073ffffffffffffffffffffffffffffffffffffffff1663a9059cbb33836040518363ffffffff1660e01b815260040161278e929190615253565b6020604051808303816000875af11580156127ad573d6000803e3d6000fd5b505050506040513d601f19601f820116820180604052508101906127d19190614651565b612810576040517f08c379a00000000000000000000000000000000000000000000000000000000081526004016128079061499a565b60405180910390fd5b60007f000000000000000000000000000000000000000000000000000000000000000073ffffffffffffffffffffffffffffffffffffffff16632f745c593360006040518363ffffffff1660e01b815260040161286e9291906149f5565b602060405180830381865afa15801561288b573d6000803e3d6000fd5b505050506040513d601f19601f820116820180604052508101906128af919061472b565b90507f000000000000000000000000000000000000000000000000000000000000000073ffffffffffffffffffffffffffffffffffffffff16639c3793458583866040518463ffffffff1660e01b815260040161290e93929190614a1e565b600060405180830381600087803b15801561292857600080fd5b505af115801561293c573d6000803e3d6000fd5b505050503373ffffffffffffffffffffffffffffffffffffffff167fdf774d3dc4d6edde493c3c0c460e4343f6648e6686a55303f522fef28d1fcbac83604051612986919061427b565b60405180910390a250505050565b61299c613ddb565b7f000000000000000000000000000000000000000000000000000000000000000073ffffffffffffffffffffffffffffffffffffffff16631372526f6040518163ffffffff1660e01b8152600401602060405180830381865afa158015612a07573d6000803e3d6000fd5b505050506040513d601f19601f82011682018060405250810190612a2b9190615342565b61ffff168261ffff161115612a75576040517f08c379a0000000000000000000000000000000000000000000000000000000008152600401612a6c906153bb565b60405180910390fd5b60007f000000000000000000000000000000000000000000000000000000000000000073ffffffffffffffffffffffffffffffffffffffff166370a08231336040518263ffffffff1660e01b8152600401612ad091906146fb565b602060405180830381865afa158015612aed573d6000803e3d6000fd5b505050506040513d601f19601f82011682018060405250810190612b11919061472b565b1415612b52576040517f08c379a0000000000000000000000000000000000000000000000000000000008152600401612b4990614f30565b60405180910390fd5b60007f000000000000000000000000000000000000000000000000000000000000000073ffffffffffffffffffffffffffffffffffffffff16632f745c593360006040518363ffffffff1660e01b8152600401612bb09291906149f5565b602060405180830381865afa158015612bcd573d6000803e3d6000fd5b505050506040513d601f19601f82011682018060405250810190612bf1919061472b565b90507f000000000000000000000000000000000000000000000000000000000000000073ffffffffffffffffffffffffffffffffffffffff1663155f205884836040518363ffffffff1660e01b8152600401612c4e929190614fe2565b602060405180830381865afa158015612c6b573d6000803e3d6000fd5b505050506040513d601f19601f82011682018060405250810190612c8f9190614651565b612cce576040517f08c379a0000000000000000000000000000000000000000000000000000000008152600401612cc590615427565b60405180910390fd5b7f000000000000000000000000000000000000000000000000000000000000000073ffffffffffffffffffffffffffffffffffffffff16636ae620c184836040518363ffffffff1660e01b8152600401612d29929190614fe2565b61012060405180830381865afa158015612d47573d6000803e3d6000fd5b505050506040513d601f19601f82011682018060405250810190612d6b91906155cd565b915050919050565b612d7c8261097c565b612d8d81612d886136cc565b6136d4565b612d978383613851565b505050565b6000612da782612994565b90508060a00151612ded576040517f08c379a0000000000000000000000000000000000000000000000000000000008152600401612de490615647565b60405180910390fd5b60007f000000000000000000000000000000000000000000000000000000000000000073ffffffffffffffffffffffffffffffffffffffff166370a08231336040518263ffffffff1660e01b8152600401612e4891906146fb565b602060405180830381865afa158015612e65573d6000803e3d6000fd5b505050506040513d601f19601f82011682018060405250810190612e89919061472b565b1415612eca576040517f08c379a0000000000000000000000000000000000000000000000000000000008152600401612ec190614f30565b60405180910390fd5b60007f000000000000000000000000000000000000000000000000000000000000000073ffffffffffffffffffffffffffffffffffffffff16632f745c593360006040518363ffffffff1660e01b8152600401612f289291906149f5565b602060405180830381865afa158015612f45573d6000803e3d6000fd5b505050506040513d601f19601f82011682018060405250810190612f69919061472b565b90507f000000000000000000000000000000000000000000000000000000000000000073ffffffffffffffffffffffffffffffffffffffff1663155f205884836040518363ffffffff1660e01b8152600401612fc6929190614fe2565b602060405180830381865afa158015612fe3573d6000803e3d6000fd5b505050506040513d601f19601f820116820180604052508101906130079190614651565b613046576040517f08c379a000000000000000000000000000000000000000000000000000000000815260040161303d90615427565b60405180910390fd5b60007f000000000000000000000000000000000000000000000000000000000000000073ffffffffffffffffffffffffffffffffffffffff1663ddca3f436040518163ffffffff1660e01b8152600401602060405180830381865afa1580156130b3573d6000803e3d6000fd5b505050506040513d601f19601f820116820180604052508101906130d7919061472b565b9050807f000000000000000000000000000000000000000000000000000000000000000073ffffffffffffffffffffffffffffffffffffffff166370a082317f00000000000000000000000000000000000000000000000000000000000000006040518263ffffffff1660e01b815260040161315391906146fb565b602060405180830381865afa158015613170573d6000803e3d6000fd5b505050506040513d601f19601f82011682018060405250810190613194919061472b565b116131d4576040517f08c379a00000000000000000000000000000000000000000000000000000000081526004016131cb906156d9565b60405180910390fd5b60007f000000000000000000000000000000000000000000000000000000000000000073ffffffffffffffffffffffffffffffffffffffff1663c692fc747f00000000000000000000000000000000000000000000000000000000000000006040518263ffffffff1660e01b815260040161324f91906146fb565b602060405180830381865afa15801561326c573d6000803e3d6000fd5b505050506040513d601f19601f8201168201806040525081019061329091906150c8565b905060007f000000000000000000000000000000000000000000000000000000000000000073ffffffffffffffffffffffffffffffffffffffff1663c692fc747f00000000000000000000000000000000000000000000000000000000000000006040518263ffffffff1660e01b815260040161330d91906146fb565b602060405180830381865afa15801561332a573d6000803e3d6000fd5b505050506040513d601f19601f8201168201806040525081019061334e91906150c8565b90507f000000000000000000000000000000000000000000000000000000000000000073ffffffffffffffffffffffffffffffffffffffff166323b872dd3330670de0b6b3a76400008686896133a49190614c48565b6133ae9190615124565b6133b891906156f9565b6040518463ffffffff1660e01b81526004016133d693929190614917565b6020604051808303816000875af11580156133f5573d6000803e3d6000fd5b505050506040513d601f19601f820116820180604052508101906134199190614651565b5060007f000000000000000000000000000000000000000000000000000000000000000073ffffffffffffffffffffffffffffffffffffffff166358f05b3a88876040518363ffffffff1660e01b8152600401613477929190614fe2565b6020604051808303816000875af1158015613496573d6000803e3d6000fd5b505050506040513d601f19601f820116820180604052508101906134ba9190615764565b90507f7dd76f85bbac191f5abe20810db0b1aab2871971e43e3222f17357285f4e4dbe3388836040516134ef93929190615791565b60405180910390a150505050505050565b7fbfbecdc826a2a8977600bab194106c63f4beafa56075c85f72a5cfa11d9d0ec46135328161352d6136cc565b6136d4565b7f000000000000000000000000000000000000000000000000000000000000000073ffffffffffffffffffffffffffffffffffffffff1663a9059cbb84846040518363ffffffff1660e01b815260040161358d929190615253565b6020604051808303816000875af11580156135ac573d6000803e3d6000fd5b505050506040513d601f19601f820116820180604052508101906135d09190614651565b61360f576040517f08c379a000000000000000000000000000000000000000000000000000000000815260040161360690615814565b60405180910390fd5b8273ffffffffffffffffffffffffffffffffffffffff167fc41d5a44c210a492a165e5ef40799c5eac130e8f403bef52c452b8708a77e39283604051613655919061427b565b60405180910390a2505050565b60007f01ffc9a7000000000000000000000000000000000000000000000000000000007bffffffffffffffffffffffffffffffffffffffffffffffffffffffff1916827bffffffffffffffffffffffffffffffffffffffffffffffffffffffff1916149050919050565b600033905090565b6136de8282612129565b61376d576137038173ffffffffffffffffffffffffffffffffffffffff166014613b2f565b6137118360001c6020613b2f565b604051602001613722929190615946565b6040516020818303038152906040526040517f08c379a000000000000000000000000000000000000000000000000000000000815260040161376491906159b9565b60405180910390fd5b5050565b61377b8282612129565b61384d57600160008084815260200190815260200160002060000160008373ffffffffffffffffffffffffffffffffffffffff1673ffffffffffffffffffffffffffffffffffffffff16815260200190815260200160002060006101000a81548160ff0219169083151502179055506137f26136cc565b73ffffffffffffffffffffffffffffffffffffffff168173ffffffffffffffffffffffffffffffffffffffff16837f2f8788117e7eff1d82e926ec794901d17c78024a50270940304540a733656f0d60405160405180910390a45b5050565b61385b8282612129565b1561392e57600080600084815260200190815260200160002060000160008373ffffffffffffffffffffffffffffffffffffffff1673ffffffffffffffffffffffffffffffffffffffff16815260200190815260200160002060006101000a81548160ff0219169083151502179055506138d36136cc565b73ffffffffffffffffffffffffffffffffffffffff168173ffffffffffffffffffffffffffffffffffffffff16837ff6391f5c32d9c69d2a47ea670b442974b53935d1edc7fd64eb21e047a839171b60405160405180910390a45b5050565b6000806139786040518060400160405280600681526020017f72617269747900000000000000000000000000000000000000000000000000008152506001606f86613d6b565b90506064811161398c5760029150506139a4565b606e811161399e5760019150506139a4565b60009150505b919050565b6000670de0b6b3a76400006064600260008761ffff1661ffff16815260200190815260200160002060008660ff1660ff16815260200190815260200160002060008560ff1660ff16815260200190815260200160002054613a0a9190615124565b11613a1d57670de0b6b3a7640000613a68565b600260008561ffff1661ffff16815260200190815260200160002060008460ff1660ff16815260200190815260200160002060008360ff1660ff168152602001908152602001600020545b90509392505050565b6000670de0b6b3a7640000613abf6040518060400160405280600981526020017f636f6d6d756e69747900000000000000000000000000000000000000000000008152506001603286613d6b565b613ac99190614c48565b9050919050565b6000670de0b6b3a7640000613b1e6040518060400160405280600681526020017f6368616e636500000000000000000000000000000000000000000000000000008152506001603286613d6b565b613b289190614c48565b9050919050565b606060006002836002613b429190614c48565b613b4c91906156f9565b67ffffffffffffffff811115613b6557613b6461545d565b5b6040519080825280601f01601f191660200182016040528015613b975781602001600182028036833780820191505090505b5090507f300000000000000000000000000000000000000000000000000000000000000081600081518110613bcf57613bce614a56565b5b60200101907effffffffffffffffffffffffffffffffffffffffffffffffffffffffffffff1916908160001a9053507f780000000000000000000000000000000000000000000000000000000000000081600181518110613c3357613c32614a56565b5b60200101907effffffffffffffffffffffffffffffffffffffffffffffffffffffffffffff1916908160001a90535060006001846002613c739190614c48565b613c7d91906156f9565b90505b6001811115613d1d577f3031323334353637383961626364656600000000000000000000000000000000600f861660108110613cbf57613cbe614a56565b5b1a60f81b828281518110613cd657613cd5614a56565b5b60200101907effffffffffffffffffffffffffffffffffffffffffffffffffffffffffffff1916908160001a905350600485901c945080613d16906159db565b9050613c80565b5060008414613d61576040517f08c379a0000000000000000000000000000000000000000000000000000000008152600401613d5890615a51565b60405180910390fd5b8091505092915050565b60008060018585613d7c9190615a71565b613d8691906156f9565b905060008387604051602001613d9d929190615aa5565b6040516020818303038152906040528051906020012060001c9050858282613dc59190615ad5565b613dcf91906156f9565b92505050949350505050565b60405180610120016040528060008152602001600060ff1681526020016000151581526020016000151581526020016000151581526020016000151581526020016000151581526020016000151581526020016000151581525090565b6000604051905090565b600080fd5b600080fd5b60007fffffffff0000000000000000000000000000000000000000000000000000000082169050919050565b613e8181613e4c565b8114613e8c57600080fd5b50565b600081359050613e9e81613e78565b92915050565b600060208284031215613eba57613eb9613e42565b5b6000613ec884828501613e8f565b91505092915050565b60008115159050919050565b613ee681613ed1565b82525050565b6000602082019050613f016000830184613edd565b92915050565b600073ffffffffffffffffffffffffffffffffffffffff82169050919050565b6000613f3282613f07565b9050919050565b613f4281613f27565b8114613f4d57600080fd5b50565b600081359050613f5f81613f39565b92915050565b6000819050919050565b613f7881613f65565b8114613f8357600080fd5b50565b600081359050613f9581613f6f565b92915050565b600080fd5b600080fd5b600080fd5b60008083601f840112613fc057613fbf613f9b565b5b8235905067ffffffffffffffff811115613fdd57613fdc613fa0565b5b602083019150836001820283011115613ff957613ff8613fa5565b5b9250929050565b60008060008060006080868803121561401c5761401b613e42565b5b600061402a88828901613f50565b955050602061403b88828901613f50565b945050604061404c88828901613f86565b935050606086013567ffffffffffffffff81111561406d5761406c613e47565b5b61407988828901613faa565b92509250509295509295909350565b61409181613e4c565b82525050565b60006020820190506140ac6000830184614088565b92915050565b600061ffff82169050919050565b6140c9816140b2565b81146140d457600080fd5b50565b6000813590506140e6816140c0565b92915050565b600060ff82169050919050565b614102816140ec565b811461410d57600080fd5b50565b60008135905061411f816140f9565b92915050565b6000806000806080858703121561413f5761413e613e42565b5b600061414d878288016140d7565b945050602061415e87828801614110565b935050604061416f87828801614110565b925050606061418087828801613f86565b91505092959194509250565b6000819050919050565b61419f8161418c565b81146141aa57600080fd5b50565b6000813590506141bc81614196565b92915050565b6000602082840312156141d8576141d7613e42565b5b60006141e6848285016141ad565b91505092915050565b6141f88161418c565b82525050565b600060208201905061421360008301846141ef565b92915050565b60008060006060848603121561423257614231613e42565b5b6000614240868287016140d7565b935050602061425186828701614110565b925050604061426286828701614110565b9150509250925092565b61427581613f65565b82525050565b6000602082019050614290600083018461426c565b92915050565b600080604083850312156142ad576142ac613e42565b5b60006142bb858286016141ad565b92505060206142cc85828601613f50565b9150509250929050565b6000602082840312156142ec576142eb613e42565b5b60006142fa848285016140d7565b91505092915050565b60008083601f84011261431957614318613f9b565b5b8235905067ffffffffffffffff81111561433657614335613fa0565b5b60208301915083602082028301111561435257614351613fa5565b5b9250929050565b60008060008060008060a0878903121561437657614375613e42565b5b600061438489828a016140d7565b965050602061439589828a01614110565b95505060406143a689828a01614110565b94505060606143b789828a016140d7565b935050608087013567ffffffffffffffff8111156143d8576143d7613e47565b5b6143e489828a01614303565b92509250509295509295509295565b6000806000806080858703121561440d5761440c613e42565b5b600061441b87828801613f50565b945050602061442c87828801613f50565b935050604061443d87828801613f86565b925050606061444e87828801613f86565b91505092959194509250565b61446381613f65565b82525050565b614472816140ec565b82525050565b61448181613ed1565b82525050565b6101208201600082015161449e600085018261445a565b5060208201516144b16020850182614469565b5060408201516144c46040850182614478565b5060608201516144d76060850182614478565b5060808201516144ea6080850182614478565b5060a08201516144fd60a0850182614478565b5060c082015161451060c0850182614478565b5060e082015161452360e0850182614478565b50610100820151614538610100850182614478565b50505050565b6000610120820190506145546000830184614487565b92915050565b6000806040838503121561457157614570613e42565b5b600061457f85828601613f50565b925050602061459085828601613f86565b9150509250929050565b6145a381613f27565b82525050565b6000819050919050565b6000819050919050565b60006145d86145d36145ce846145a9565b6145b3565b613f65565b9050919050565b6145e8816145bd565b82525050565b6000606082019050614603600083018661459a565b614610602083018561459a565b61461d60408301846145df565b949350505050565b61462e81613ed1565b811461463957600080fd5b50565b60008151905061464b81614625565b92915050565b60006020828403121561466757614666613e42565b5b60006146758482850161463c565b91505092915050565b600082825260208201905092915050565b7f244d4f4e4f207472616e73666572206661696c65640000000000000000000000600082015250565b60006146c560158361467e565b91506146d08261468f565b602082019050919050565b600060208201905081810360008301526146f4816146b8565b9050919050565b6000602082019050614710600083018461459a565b92915050565b60008151905061472581613f6f565b92915050565b60006020828403121561474157614740613e42565b5b600061474f84828501614716565b91505092915050565b614761816140b2565b82525050565b614770816140ec565b82525050565b600060608201905061478b6000830186614758565b6147986020830185614767565b6147a56040830184614767565b949350505050565b7f50524f5020646f6573206e6f7420657869737400000000000000000000000000600082015250565b60006147e360138361467e565b91506147ee826147ad565b602082019050919050565b60006020820190508181036000830152614812816147d6565b9050919050565b7f416363657373436f6e74726f6c3a2063616e206f6e6c792072656e6f756e636560008201527f20726f6c657320666f722073656c660000000000000000000000000000000000602082015250565b6000614875602f8361467e565b915061488082614819565b604082019050919050565b600060208201905081810360008301526148a481614868565b9050919050565b7f526f756e6420636f6d706c657465640000000000000000000000000000000000600082015250565b60006148e1600f8361467e565b91506148ec826148ab565b602082019050919050565b60006020820190508181036000830152614910816148d4565b9050919050565b600060608201905061492c600083018661459a565b614939602083018561459a565b614946604083018461426c565b949350505050565b7f546178207061796d656e74206661696c65640000000000000000000000000000600082015250565b600061498460128361467e565b915061498f8261494e565b602082019050919050565b600060208201905081810360008301526149b381614977565b9050919050565b6000819050919050565b60006149df6149da6149d5846149ba565b6145b3565b613f65565b9050919050565b6149ef816149c4565b82525050565b6000604082019050614a0a600083018561459a565b614a1760208301846149e6565b9392505050565b600061016082019050614a346000830186614758565b614a41602083018561426c565b614a4e6040830184614487565b949350505050565b7f4e487b7100000000000000000000000000000000000000000000000000000000600052603260045260246000fd5b7f4e487b7100000000000000000000000000000000000000000000000000000000600052601160045260246000fd5b6000614abf826140ec565b9150614aca836140ec565b925082821015614add57614adc614a85565b5b828203905092915050565b60008160011c9050919050565b6000808291508390505b6001851115614b3f57808604811115614b1b57614b1a614a85565b5b6001851615614b2a5780820291505b8081029050614b3885614ae8565b9450614aff565b94509492505050565b600082614b585760019050614c14565b81614b665760009050614c14565b8160018114614b7c5760028114614b8657614bb5565b6001915050614c14565b60ff841115614b9857614b97614a85565b5b8360020a915084821115614baf57614bae614a85565b5b50614c14565b5060208310610133831016604e8410600b8410161715614bea5782820a905083811115614be557614be4614a85565b5b614c14565b614bf78484846001614af5565b92509050818404811115614c0e57614c0d614a85565b5b81810290505b9392505050565b6000614c26826140b2565b9150614c31836140ec565b9250614c4061ffff8484614b48565b905092915050565b6000614c5382613f65565b9150614c5e83613f65565b9250817fffffffffffffffffffffffffffffffffffffffffffffffffffffffffffffffff0483118215151615614c9757614c96614a85565b5b828202905092915050565b6000614cad826140ec565b915060ff821415614cc157614cc0614a85565b5b600182019050919050565b6000604082019050614ce1600083018561459a565b614cee602083018461459a565b9392505050565b7f436f6e7472616374206973206e6f7420616c6c6f776564000000000000000000600082015250565b6000614d2b60178361467e565b9150614d3682614cf5565b602082019050919050565b60006020820190508181036000830152614d5a81614d1e565b9050919050565b6000604082019050614d76600083018561426c565b614d83602083018461426c565b9392505050565b600081519050614d9981613f39565b92915050565b60008060408385031215614db657614db5613e42565b5b6000614dc485828601614d8a565b9250506020614dd585828601614716565b9150509250929050565b7f4e6f742073756666696369656e7420746f6b656e2062616c616e636500000000600082015250565b6000614e15601c8361467e565b9150614e2082614ddf565b602082019050919050565b60006020820190508181036000830152614e4481614e08565b9050919050565b600060208284031215614e6157614e60613e42565b5b6000614e6f84828501614d8a565b91505092915050565b7f4e6f7420636f6d6d756e69747920636172640000000000000000000000000000600082015250565b6000614eae60128361467e565b9150614eb982614e78565b602082019050919050565b60006020820190508181036000830152614edd81614ea1565b9050919050565b7f706c6179657220646f6573206e6f74206f776e2061207061776e000000000000600082015250565b6000614f1a601a8361467e565b9150614f2582614ee4565b602082019050919050565b60006020820190508181036000830152614f4981614f0d565b9050919050565b7f706c61796572206861736e277420617070726f76652042616e6b20746f20737060008201527f656e6420244d4f4e4f0000000000000000000000000000000000000000000000602082015250565b6000614fac60298361467e565b9150614fb782614f50565b604082019050919050565b60006020820190508181036000830152614fdb81614f9f565b9050919050565b6000604082019050614ff76000830185614758565b615004602083018461426c565b9392505050565b7f6572726f72207768656e20656e726f6c6c696e67000000000000000000000000600082015250565b600061504160148361467e565b915061504c8261500b565b602082019050919050565b6000602082019050818103600083015261507081615034565b9050919050565b600060208201905061508c6000830184614758565b92915050565b6000819050919050565b6150a581615092565b81146150b057600080fd5b50565b6000815190506150c28161509c565b92915050565b6000602082840312156150de576150dd613e42565b5b60006150ec848285016150b3565b91505092915050565b7f4e487b7100000000000000000000000000000000000000000000000000000000600052601260045260246000fd5b600061512f82613f65565b915061513a83613f65565b92508261514a576151496150f5565b5b828204905092915050565b7f596f75206e65656420746f2073656e6420736f6d65206e6574776f726b20746f60008201527f6b656e0000000000000000000000000000000000000000000000000000000000602082015250565b60006151b160238361467e565b91506151bc82615155565b604082019050919050565b600060208201905081810360008301526151e0816151a4565b9050919050565b7f4e6f7420656e6f75676820746f6b656e7320696e207468652072657365727665600082015250565b600061521d60208361467e565b9150615228826151e7565b602082019050919050565b6000602082019050818103600083015261524c81615210565b9050919050565b6000604082019050615268600083018561459a565b615275602083018461426c565b9392505050565b6000608082019050615291600083018761459a565b61529e6020830186614758565b6152ab6040830185614767565b6152b86060830184614767565b95945050505050565b7f4e6f74206368616e636520636172640000000000000000000000000000000000600082015250565b60006152f7600f8361467e565b9150615302826152c1565b602082019050919050565b60006020820190508181036000830152615326816152ea565b9050919050565b60008151905061533c816140c0565b92915050565b60006020828403121561535857615357613e42565b5b60006153668482850161532d565b91505092915050565b7f756e6b6e6f776e2065646974696f6e0000000000000000000000000000000000600082015250565b60006153a5600f8361467e565b91506153b08261536f565b602082019050919050565b600060208201905081810360008301526153d481615398565b9050919050565b7f706c6179657220646f6573206e6f7420656e726f6c6c00000000000000000000600082015250565b600061541160168361467e565b915061541c826153db565b602082019050919050565b6000602082019050818103600083015261544081615404565b9050919050565b600080fd5b6000601f19601f8301169050919050565b7f4e487b7100000000000000000000000000000000000000000000000000000000600052604160045260246000fd5b6154958261544c565b810181811067ffffffffffffffff821117156154b4576154b361545d565b5b80604052505050565b60006154c7613e38565b90506154d3828261548c565b919050565b6000815190506154e7816140f9565b92915050565b6000610120828403121561550457615503615447565b5b61550f6101206154bd565b9050600061551f84828501614716565b6000830152506020615533848285016154d8565b60208301525060406155478482850161463c565b604083015250606061555b8482850161463c565b606083015250608061556f8482850161463c565b60808301525060a06155838482850161463c565b60a08301525060c06155978482850161463c565b60c08301525060e06155ab8482850161463c565b60e0830152506101006155c08482850161463c565b6101008301525092915050565b600061012082840312156155e4576155e3613e42565b5b60006155f2848285016154ed565b91505092915050565b7f556e636f6d706c6574656420726f756e64000000000000000000000000000000600082015250565b600061563160118361467e565b915061563c826155fb565b602082019050919050565b6000602082019050818103600083015261566081615624565b9050919050565b7f6e6f7420656e6f756768204c494e4b20696e20426f61726420636f6e7472616360008201527f7400000000000000000000000000000000000000000000000000000000000000602082015250565b60006156c360218361467e565b91506156ce82615667565b604082019050919050565b600060208201905081810360008301526156f2816156b6565b9050919050565b600061570482613f65565b915061570f83613f65565b9250827fffffffffffffffffffffffffffffffffffffffffffffffffffffffffffffffff0382111561574457615743614a85565b5b828201905092915050565b60008151905061575e81614196565b92915050565b60006020828403121561577a57615779613e42565b5b60006157888482850161574f565b91505092915050565b60006060820190506157a6600083018661459a565b6157b36020830185614758565b6157c060408301846141ef565b949350505050565b7f7769746864726177206661696c75726500000000000000000000000000000000600082015250565b60006157fe60108361467e565b9150615809826157c8565b602082019050919050565b6000602082019050818103600083015261582d816157f1565b9050919050565b600081905092915050565b7f416363657373436f6e74726f6c3a206163636f756e7420000000000000000000600082015250565b6000615875601783615834565b91506158808261583f565b601782019050919050565b600081519050919050565b60005b838110156158b4578082015181840152602081019050615899565b838111156158c3576000848401525b50505050565b60006158d48261588b565b6158de8185615834565b93506158ee818560208601615896565b80840191505092915050565b7f206973206d697373696e6720726f6c6520000000000000000000000000000000600082015250565b6000615930601183615834565b915061593b826158fa565b601182019050919050565b600061595182615868565b915061595d82856158c9565b915061596882615923565b915061597482846158c9565b91508190509392505050565b600061598b8261588b565b615995818561467e565b93506159a5818560208601615896565b6159ae8161544c565b840191505092915050565b600060208201905081810360008301526159d38184615980565b905092915050565b60006159e682613f65565b915060008214156159fa576159f9614a85565b5b600182039050919050565b7f537472696e67733a20686578206c656e67746820696e73756666696369656e74600082015250565b6000615a3b60208361467e565b9150615a4682615a05565b602082019050919050565b60006020820190508181036000830152615a6a81615a2e565b9050919050565b6000615a7c82613f65565b9150615a8783613f65565b925082821015615a9a57615a99614a85565b5b828203905092915050565b6000604082019050615aba600083018561426c565b8181036020830152615acc8184615980565b90509392505050565b6000615ae082613f65565b9150615aeb83613f65565b925082615afb57615afa6150f5565b5b82820690509291505056fea26469706673582212204af5f6f8a83243ff2c81b688231fac968c0d096b61f5515927f07179dac1ac6764736f6c634300080a0033",
  "immutableReferences": {
    "3672": [
      {
        "length": 32,
        "start": 1824
      },
      {
        "length": 32,
        "start": 3541
      },
      {
        "length": 32,
        "start": 6138
      },
      {
        "length": 32,
        "start": 6526
      },
      {
        "length": 32,
        "start": 6971
      },
      {
        "length": 32,
        "start": 9439
      },
      {
        "length": 32,
        "start": 10260
      },
      {
        "length": 32,
        "start": 10873
      },
      {
        "length": 32,
        "start": 11094
      },
      {
        "length": 32,
        "start": 11761
      },
      {
        "length": 32,
        "start": 11982
      }
    ],
    "3675": [
      {
        "length": 32,
        "start": 3700
      },
      {
        "length": 32,
        "start": 6297
      },
      {
        "length": 32,
        "start": 7130
      },
      {
        "length": 32,
        "start": 9598
      },
      {
        "length": 32,
        "start": 10419
      },
      {
        "length": 32,
        "start": 10654
      },
      {
        "length": 32,
        "start": 11253
      },
      {
        "length": 32,
        "start": 11472
      },
      {
        "length": 32,
        "start": 12141
      },
      {
        "length": 32,
        "start": 12362
      },
      {
        "length": 32,
        "start": 12568
      },
      {
        "length": 32,
        "start": 13342
      }
    ],
    "3678": [
      {
        "length": 32,
        "start": 2124
      },
      {
        "length": 32,
        "start": 2463
      },
      {
        "length": 32,
        "start": 3038
      },
      {
        "length": 32,
        "start": 4328
      },
      {
        "length": 32,
        "start": 4550
      },
      {
        "length": 32,
        "start": 5167
      },
      {
        "length": 32,
        "start": 5534
      },
      {
        "length": 32,
        "start": 8703
      },
      {
        "length": 32,
        "start": 9235
      }
    ],
    "3681": [
      {
        "length": 32,
        "start": 1591
      },
      {
        "length": 32,
        "start": 3282
      },
      {
        "length": 32,
        "start": 4714
      },
      {
        "length": 32,
        "start": 4932
      },
      {
        "length": 32,
        "start": 5371
      },
      {
        "length": 32,
        "start": 5913
      },
      {
        "length": 32,
        "start": 6748
      },
      {
        "length": 32,
        "start": 7435
      },
      {
        "length": 32,
        "start": 7653
      },
      {
        "length": 32,
        "start": 8247
      },
      {
        "length": 32,
        "start": 9010
      },
      {
        "length": 32,
        "start": 10037
      },
      {
        "length": 32,
        "start": 12820
      },
      {
        "length": 32,
        "start": 13138
      },
      {
        "length": 32,
        "start": 13620
      }
    ],
    "3684": [
      {
        "length": 32,
        "start": 12508
      },
      {
        "length": 32,
        "start": 13010
      }
    ],
    "3687": [
      {
        "length": 32,
        "start": 7593
      },
      {
        "length": 32,
        "start": 7783
      },
      {
        "length": 32,
        "start": 7930
      },
      {
        "length": 32,
        "start": 12760
      },
      {
        "length": 32,
        "start": 12950
      }
    ]
  },
  "source": "// Bank.sol\r\n// SPDX-License-Identifier: MIT\r\npragma solidity 0.8.10;\r\n\r\nimport \"@openzeppelin/contracts/access/AccessControl.sol\";\r\nimport \"@openzeppelin/contracts/token/ERC721/IERC721Receiver.sol\";\r\nimport \"@openzeppelin/contracts/token/ERC20/IERC20.sol\";\r\n\r\nimport \"./Pawn.sol\";\r\nimport \"./Board.sol\";\r\nimport \"./Mono.sol\";\r\nimport \"./Prop.sol\";\r\nimport \"./Staking.sol\";\r\n\r\n/** @title Bank contract\r\n * @notice Is the contract handler\r\n * @author Jerome Caporossi, Stphane Chaunard, Alexandre Gautier\r\n */\r\ncontract BankContract is AccessControl, IERC721Receiver {\r\n\tbytes32 public constant ADMIN_ROLE = keccak256(\"ADMIN_ROLE\");\r\n\tbytes32 public constant BANKER_ROLE = keccak256(\"BANKER_ROLE\");\r\n\r\n\tPawnContract private immutable Pawn;\r\n\tBoardContract private immutable Board;\r\n\tPropContract private immutable Prop;\r\n\tMonoContract private immutable Mono;\r\n\tIERC20 private immutable Link;\r\n\tStakingContract private immutable Staking;\r\n\r\n\t/// @dev fee to be paid when player enrolls (in $MONO)\r\n\tuint256 public enroll_fee = 50 * 1 ether;\r\n\r\n\t/// @dev price of PROP by rarity by land by edition\r\n\tmapping(uint16 => mapping(uint8 => mapping(uint8 => uint256))) private propPrices;\r\n\r\n\t/** Event emitted when a property is bought\r\n\t * @param to address\r\n\t * @param prop_id Prop id */\r\n\tevent PropertyBought(address indexed to, uint256 indexed prop_id);\r\n\t/** Event emitted when a pawn is bought\r\n\t * @param to address\r\n\t * @param pawn_id pawn ID */\r\n\tevent PawnBought(address indexed to, uint256 indexed pawn_id);\r\n\t/** Event emitted after a withdraw\r\n\t * @param to address\r\n\t * @param value amount */\r\n\tevent eWithdraw(address indexed to, uint256 value);\r\n\t/** Event emitted when a player is enrolled in the game\r\n\t * @param _edition edition ID\r\n\t * @param player address */\r\n\tevent PlayerEnrolled(uint16 _edition, address indexed player);\r\n\t/** Event emitted when player throw dices and random number is requested.\r\n\t * @param player address\r\n\t * @param _edition edition ID\r\n\t * @param requestID random request ID */\r\n\tevent RollingDices(address player, uint16 _edition, bytes32 requestID);\r\n\t/** Event emitted when player prepaid MONO amount in 'inGame'\r\n\t * @param player address\r\n\t * @param quantity MONO amount */\r\n\tevent DicesRollsPrepaid(address indexed player, uint8 quantity);\r\n\t/** Event emitted when a player buy MONO\r\n\t * @param player address\r\n\t * @param amount amount */\r\n\tevent MonoBought(address indexed player, uint256 amount);\r\n\t/** Event emitted when a property rent is paid by player\r\n\t * @param player address\r\n\t * @param amount amount */\r\n\tevent PropertyRentPaid(address indexed player, uint256 amount);\r\n\t/** Event emitted when a community tax is paid by player\r\n\t * @param player address\r\n\t * @param amount amount */\r\n\tevent CommunityTaxPaid(address indexed player, uint256 amount);\r\n\t/** Event emitted when a chance profit is received by player\r\n\t * @param player address\r\n\t * @param amount amount */\r\n\tevent ChanceProfitReceived(address indexed player, uint256 amount);\r\n\r\n\t/** @dev Constructor\r\n\t * @param PawnAddress address\r\n\t * @param BoardAddress address\r\n\t * @param PropAddress address\r\n\t * @param MonoAddress address\r\n\t * @param LinkAddress address\r\n\t * @param StakingAddress address\r\n\t * @dev ADMIN_ROLE, BANKER_ROLE are given to deployer\r\n\t * @dev #### requirements :<br />\r\n\t * @dev - all parameters addresses must not be address(0)*/\r\n\tconstructor(\r\n\t\taddress PawnAddress,\r\n\t\taddress BoardAddress,\r\n\t\taddress PropAddress,\r\n\t\taddress MonoAddress,\r\n\t\taddress LinkAddress,\r\n\t\taddress StakingAddress\r\n\t) {\r\n\t\trequire(PawnAddress != address(0), \"PAWN token smart contract address must be provided\");\r\n\t\trequire(BoardAddress != address(0), \"BOARD smart contract address must be provided\");\r\n\t\trequire(PropAddress != address(0), \"PROP token smart contract address must be provided\");\r\n\t\trequire(MonoAddress != address(0), \"MONO token smart contract address must be provided\");\r\n\t\trequire(LinkAddress != address(0), \"LINK token smart contract address must be provided\");\r\n\t\trequire(StakingAddress != address(0), \"LINK token smart contract address must be provided\");\r\n\r\n\t\tPawn = PawnContract(PawnAddress);\r\n\t\tBoard = BoardContract(BoardAddress);\r\n\t\tProp = PropContract(PropAddress);\r\n\t\tMono = MonoContract(MonoAddress);\r\n\t\tLink = IERC20(LinkAddress);\r\n\t\tStaking = StakingContract(StakingAddress);\r\n\r\n\t\t// Set roles\r\n\t\t_setupRole(ADMIN_ROLE, msg.sender);\r\n\t\t_setRoleAdmin(ADMIN_ROLE, ADMIN_ROLE);\r\n\t\t_setupRole(BANKER_ROLE, msg.sender);\r\n\t\t_setRoleAdmin(BANKER_ROLE, ADMIN_ROLE);\r\n\t}\r\n\r\n\t/** Buy a pawn (mandatory to play)\r\n\t * @dev #### requirements :<br />\r\n\t * @dev - MONO transfer*/\r\n\tfunction buyPawn() external {\r\n\t\trequire(Mono.transferFrom(msg.sender, address(this), 1 ether), \"$MONO transfer failed\");\r\n\r\n\t\tuint256 pawn_id = Pawn.mint(msg.sender);\r\n\r\n\t\temit PawnBought(msg.sender, pawn_id);\r\n\t}\r\n\r\n\t/** Locate pawn on game's board\r\n\t * @notice #### requirements :<br />\r\n\t * @notice - edition is valid\r\n\t * @notice - player has a pawn\r\n\t * @notice - pawn is registered at this edition\r\n\t * @param _edition edition number\r\n\t * @return p_ Board contract pawn information struct */\r\n\tfunction locatePlayer(uint16 _edition) public view returns (BoardContract.PawnInfo memory p_) {\r\n\t\trequire(_edition <= Board.getMaxEdition(), \"unknown edition\");\r\n\t\trequire(Pawn.balanceOf(msg.sender) != 0, \"player does not own a pawn\");\r\n\r\n\t\tuint256 pawnID = Pawn.tokenOfOwnerByIndex(msg.sender, 0);\r\n\r\n\t\trequire(Board.isRegistered(_edition, pawnID), \"player does not enroll\");\r\n\r\n\t\tp_ = Board.getPawnInfo(_edition, pawnID);\r\n\t}\r\n\r\n\t/** To enroll a player to a board, required to play.\r\n\t * @notice #### requirements :<br />\r\n\t * @notice - contract has allowance to spend enroll fee\r\n\t * @notice - player has a pawn\r\n\t * @notice - pawn is registered at this edition\r\n\t * @param _edition board edition*/\r\n\tfunction enrollPlayer(uint16 _edition) public {\r\n\t\trequire(Pawn.balanceOf(msg.sender) != 0, \"player does not own a pawn\");\r\n\t\trequire(Mono.allowance(msg.sender, address(this)) >= enroll_fee, \"player hasn't approve Bank to spend $MONO\");\r\n\r\n\t\tuint256 pawnID = Pawn.tokenOfOwnerByIndex(msg.sender, 0);\r\n\r\n\t\trequire(Board.register(_edition, pawnID), \"error when enrolling\");\r\n\r\n\t\temit PlayerEnrolled(_edition, msg.sender);\r\n\t}\r\n\r\n\t/** To throw the dices and request a random number.\r\n\t * @notice #### requirements :<br />\r\n\t * @notice - round is completed\r\n\t * @notice - player has a pawn\r\n\t * @notice - pawn is registered at this edition\r\n\t * @notice - Board contract has enough LINK to pay ChainLink fee to request VRF\r\n\t * @param _edition board edition*/\r\n\tfunction rollDices(uint16 _edition) external {\r\n\t\tBoardContract.PawnInfo memory p = locatePlayer(_edition);\r\n\t\trequire(p.isRoundCompleted, \"Uncompleted round\");\r\n\r\n\t\trequire(Pawn.balanceOf(msg.sender) != 0, \"player does not own a pawn\");\r\n\t\tuint256 pawnID = Pawn.tokenOfOwnerByIndex(msg.sender, 0);\r\n\t\trequire(Board.isRegistered(_edition, pawnID), \"player does not enroll\");\r\n\t\tuint256 chainlinkFee = Board.fee();\r\n\t\trequire(Link.balanceOf(address(Board)) > chainlinkFee, \"not enough LINK in Board contract\");\r\n\r\n\t\t// Bank must be paid here for a roll\r\n\t\tuint256 monoLastPrice = uint256(Staking.getLastPrice(address(Mono)));\r\n\t\tuint256 linkLastPrice = uint256(Staking.getLastPrice(address(Link)));\r\n\t\tMono.transferFrom(msg.sender, address(this), (chainlinkFee * linkLastPrice) / monoLastPrice + 10**18);\r\n\r\n\t\t// Bank must provide LINK to Board\r\n\t\tbytes32 rollDicesID = Board.play(_edition, pawnID);\r\n\r\n\t\temit RollingDices(msg.sender, _edition, rollDicesID);\r\n\t}\r\n\r\n\t/** To buy Mono with the Token network.*/\r\n\tfunction buyMono() public payable {\r\n\t\tuint256 MonoBalance = Mono.balanceOf(address(this));\r\n\t\tuint256 MonoUsdLastPrice = uint256(Staking.getLastPrice(address(Mono)));\r\n\t\taddress _address = Staking.NETWORK_TOKEN_VIRTUAL_ADDRESS();\r\n\t\tuint256 TokenNetworkUsdLastPrice = uint256(Staking.getLastPrice(_address));\r\n\t\tuint256 amountToBuy = (msg.value * TokenNetworkUsdLastPrice) / MonoUsdLastPrice;\r\n\r\n\t\trequire(amountToBuy > 0, \"You need to send some network token\");\r\n\t\trequire(amountToBuy <= MonoBalance, \"Not enough tokens in the reserve\");\r\n\r\n\t\tMono.transfer(msg.sender, amountToBuy);\r\n\r\n\t\temit MonoBought(msg.sender, amountToBuy);\r\n\t}\r\n\r\n\t/** buy PROP\r\n\t * @notice #### requirements :<br />\r\n\t * @notice - Round must be uncompleted\r\n\t * @notice - MONO transfer ok\r\n\t * @dev - PROP is valid\r\n\t * @param _edition board edition*/\r\n\tfunction buyProp(uint16 _edition) public {\r\n\t\tBoardContract.PawnInfo memory p = locatePlayer(_edition);\r\n\t\trequire(!p.isRoundCompleted, \"Round completed\");\r\n\t\tuint8 _rarity = retrievePropertyRarity(p.random);\r\n\t\trequire(Prop.isValidProp(_edition, p.position, _rarity), \"PROP does not exist\");\r\n\t\tuint256 price = propPrices[_edition][p.position][_rarity];\r\n\t\trequire(Mono.transferFrom(msg.sender, address(this), price), \"$MONO transfer failed\");\r\n\t\tuint256 prop_id = Prop.mint(msg.sender, _edition, p.position, _rarity);\r\n\r\n\t\tp.isPropertyBought = true;\r\n\t\tp.isRoundCompleted = true;\r\n\r\n\t\tuint256 _pawnID = Pawn.tokenOfOwnerByIndex(msg.sender, 0); // todo player can have several pawns\r\n\t\tBoard.setPawnInfo(_edition, _pawnID, p);\r\n\r\n\t\temit PropertyBought(msg.sender, prop_id);\r\n\t}\r\n\r\n\t/** pay property rent\r\n\t * @notice #### requirements :<br />\r\n\t * @notice - Round must be uncompleted\r\n\t * @notice - MONO transfer ok\r\n\t * @dev - PROP is valid\r\n\t * @param _edition board edition*/\r\n\tfunction payRent(uint16 _edition) public {\r\n\t\tBoardContract.PawnInfo memory p = locatePlayer(_edition);\r\n\t\trequire(!p.isRoundCompleted, \"Round completed\");\r\n\t\tuint8 _rarity = retrievePropertyRarity(p.random);\r\n\r\n\t\trequire(Prop.isValidProp(_edition, p.position, _rarity), \"PROP does not exist\");\r\n\r\n\t\tuint256 amount = retrievePropertyRent(_edition, p.position, _rarity);\r\n\t\trequire(Mono.transferFrom(msg.sender, address(this), amount), \"Tax payment failed\");\r\n\r\n\t\tp.isRentPaid = true;\r\n\t\tp.isRoundCompleted = true;\r\n\r\n\t\tuint256 _pawnID = Pawn.tokenOfOwnerByIndex(msg.sender, 0); // todo player can have several pawns\r\n\t\tBoard.setPawnInfo(_edition, _pawnID, p);\r\n\r\n\t\temit PropertyRentPaid(msg.sender, amount);\r\n\t}\r\n\r\n\t/** pay community tax\r\n\t * @notice #### requirements :<br />\r\n\t * @notice - Round must be uncompleted\r\n\t * @notice - must be community card\r\n\t * @notice - MONO transfer ok\r\n\t * @param _edition board edition*/\r\n\tfunction payCommunityTax(uint16 _edition) public {\r\n\t\tBoardContract.PawnInfo memory p = locatePlayer(_edition);\r\n\t\trequire(p.isCommunityCard, \"Not community card\");\r\n\t\trequire(!p.isRoundCompleted, \"Round completed\");\r\n\r\n\t\tuint256 amount = retrieveCommunityTax(p.random);\r\n\t\tp.isRoundCompleted = true;\r\n\r\n\t\trequire(Mono.transferFrom(msg.sender, address(this), amount), \"Tax payment failed\");\r\n\r\n\t\tuint256 _pawnID = Pawn.tokenOfOwnerByIndex(msg.sender, 0); // todo player can have several pawns\r\n\t\tBoard.setPawnInfo(_edition, _pawnID, p);\r\n\r\n\t\temit CommunityTaxPaid(msg.sender, amount);\r\n\t}\r\n\r\n\t/** receive chance profit\r\n\t * @notice #### requirements :<br />\r\n\t * @notice - Round must be uncompleted\r\n\t * @notice - must be a chance card\r\n\t * @notice - MONO transfer ok\r\n\t * @param _edition board edition*/\r\n\tfunction receiveChanceProfit(uint16 _edition) public {\r\n\t\tBoardContract.PawnInfo memory p = locatePlayer(_edition);\r\n\t\trequire(p.isChanceCard, \"Not chance card\");\r\n\t\trequire(!p.isRoundCompleted, \"Round completed\");\r\n\r\n\t\tuint256 amount = retrieveChanceProfit(p.random);\r\n\t\tp.isRoundCompleted = true;\r\n\r\n\t\trequire(Mono.transfer(msg.sender, amount), \"Tax payment failed\");\r\n\r\n\t\tuint256 _pawnID = Pawn.tokenOfOwnerByIndex(msg.sender, 0); // todo player can have several pawns\r\n\t\tBoard.setPawnInfo(_edition, _pawnID, p);\r\n\r\n\t\temit ChanceProfitReceived(msg.sender, amount);\r\n\t}\r\n\r\n\t/** @dev Retrieve property rent\r\n\t * @param _edition edition ID\r\n\t * @param _land land ID\r\n\t * @param _rarity rarity\r\n\t * @return amount*/\r\n\tfunction retrievePropertyRent(uint16 _edition, uint8 _land, uint8 _rarity) internal view returns(uint256){\r\n\t\treturn propPrices[_edition][_land][_rarity] / 100 > 10**18 ? propPrices[_edition][_land][_rarity] : 10**18;\r\n\t}\r\n\r\n\t/** @dev Retrieve chance profit\r\n\t * @param randomness ChainLink VRF random number\r\n\t * @return amount*/\r\n\tfunction retrieveChanceProfit(uint256 randomness) internal pure returns(uint256){\r\n\t\treturn calculateRandomInteger(\"chance\", 1, 50, randomness) * 10**18;\r\n\t}\r\n\r\n\t/** @dev Retrieve community tax\r\n\t * @param randomness ChainLink VRF random number\r\n\t * @return amount*/\r\n\tfunction retrieveCommunityTax(uint256 randomness) internal pure returns(uint256){\r\n\t\treturn calculateRandomInteger(\"community\", 1, 50, randomness) * 10**18;\r\n\t}\r\n\r\n\t/** @dev Retrieve property rarity from randomness\r\n\t * @dev use calculateRandomInteger() with type = 'rarity'\r\n\t * @param randomness ChainLink VRF random number\r\n\t * @return number*/\r\n\tfunction retrievePropertyRarity(uint256 randomness) internal pure returns(uint8){\r\n\t\tuint256 number = calculateRandomInteger(\"rarity\", 1, 111, randomness);\r\n\r\n\t\tif (number <= 100) return 2;\r\n\t\tif (number <= 110) return 1;\r\n\t\treturn 0;\r\n\t}\r\n\r\n\t/** @dev Calculate a new random integer in [min, max] from random ChainLink VRF.\r\n\t * @param _type used to calculate new number\r\n\t * @param min minimum integer\r\n\t * @param max maximum integer\r\n\t * @param randomness ChainLink VRF random number\r\n\t * @return number*/\r\n\tfunction calculateRandomInteger(string memory _type, uint256 min, uint256 max, uint256 randomness) internal pure returns(uint256) {\r\n\t\tuint256 modulo = max - min + 1;\r\n\t\tuint256 number = uint256(keccak256(abi.encode(randomness, _type)));\r\n\r\n\t\treturn number % modulo + min;\r\n\t}\r\n\r\n\t/** get a property price\r\n\t * @notice #### requirements :<br />\r\n\t * @notice - property mus be valid\r\n\t * @param _edition edition ID\r\n\t * @param _land land ID\r\n\t * @param _rarity rarity\r\n\t * @return price*/\r\n\tfunction getPriceOfProp(\r\n\t\tuint16 _edition,\r\n\t\tuint8 _land,\r\n\t\tuint8 _rarity\r\n\t) external view returns (uint256 price) {\r\n\t\trequire(Prop.isValidProp(_edition, _land, _rarity), \"PROP does not exist\");\r\n\t\tprice = propPrices[_edition][_land][_rarity];\r\n\t}\r\n\r\n\t/** set a property price\r\n\t * @notice #### requirements :<br />\r\n\t * @notice - must have BANKER role\r\n\t * @notice - property mus be valid\r\n\t * @param _edition edition ID\r\n\t * @param _land land ID\r\n\t * @param _rarity rarity\r\n\t * @param _price amount*/\r\n\tfunction setPriceOfProp(\r\n\t\tuint16 _edition,\r\n\t\tuint8 _land,\r\n\t\tuint8 _rarity,\r\n\t\tuint256 _price\r\n\t) public onlyRole(BANKER_ROLE) {\r\n\t\trequire(Prop.isValidProp(_edition, _land, _rarity), \"PROP does not exist\");\r\n\t\tpropPrices[_edition][_land][_rarity] = _price;\r\n\t}\r\n\r\n\t/** withdraw\r\n\t * @notice #### requirements :<br />\r\n\t * @notice - must have BANKER role\r\n\t * @notice - MONO transfer\r\n\t * @param _to address\r\n\t * @param _value amount*/\r\n\tfunction withdraw(address _to, uint256 _value) external onlyRole(BANKER_ROLE) {\r\n\t\trequire(Mono.transfer(_to, _value), \"withdraw failure\");\r\n\r\n\t\temit eWithdraw(_to, _value);\r\n\t}\r\n\r\n\tfunction onERC721Received(\r\n\t\taddress operator,\r\n\t\taddress from,\r\n\t\tuint256 tokenId,\r\n\t\tbytes calldata data\r\n\t) external pure override returns (bytes4) {\r\n\t\t// silent warning\r\n\t\toperator;\r\n\t\tfrom;\r\n\t\ttokenId;\r\n\t\tdata;\r\n\t\treturn this.onERC721Received.selector;\r\n\t}\r\n\r\n\t/** set properties prices, useful to add an edition from admin\r\n\t * @param _editionId edition ID\r\n\t * @param _maxLands max lands\r\n\t * @param _maxLandRarities max land rarity\r\n\t * @param _rarityMultiplier rarity multiplier\r\n\t * @param _commonLandPrices common land rarity price*/\r\n\tfunction setPrices(\r\n\t\tuint16 _editionId,\r\n\t\tuint8 _maxLands,\r\n\t\tuint8 _maxLandRarities,\r\n\t\tuint16 _rarityMultiplier,\r\n\t\tuint256[] calldata _commonLandPrices\r\n\t) external onlyRole(ADMIN_ROLE) {\r\n\t\tfor (uint8 landId = 0; landId < _maxLands; landId++) {\r\n\t\t\tif (_commonLandPrices[landId] == 0) {\r\n\t\t\t\tcontinue;\r\n\t\t\t}\r\n\r\n\t\t\tfor (uint8 rarity = 0; rarity < _maxLandRarities; rarity++) {\r\n\t\t\t\tpropPrices[_editionId][landId][rarity] =\r\n\t\t\t\t\t_commonLandPrices[landId] *\r\n\t\t\t\t\t_rarityMultiplier**(_maxLandRarities - rarity - 1) *\r\n\t\t\t\t\t(1 ether);\r\n\t\t\t}\r\n\t\t}\r\n\t}\r\n\r\n\t/** Transfer property ERC721 and royalties to receiver. Useful for our Marketplace<br />\r\n\t * @notice #### requirements :<br />\r\n\t * @notice - only BANKER role\r\n\t * @notice - buyer MONO balance must be greater than sell price\r\n\t * @dev - This contract must be allowed contract for transfer\r\n\t * @dev - MONO transfer sell price\r\n\t * @param _from the seller\r\n\t * @param _to the buyer\r\n\t * @param _tokenId the Property token id\r\n\t * @param _salePrice the sale price */\r\n\tfunction propertyTransfer(\r\n\t\taddress _from,\r\n\t\taddress _to,\r\n\t\tuint256 _tokenId,\r\n\t\tuint256 _salePrice\r\n\t) external onlyRole(BANKER_ROLE) {\r\n\t\trequire(Prop.isApprovedForAll(_from, address(this)), \"Contract is not allowed\");\r\n\t\taddress receiver;\r\n\t\tuint256 royaltyAmount;\r\n\t\t(receiver, royaltyAmount) = Prop.royaltyInfo(_tokenId, _salePrice);\r\n\r\n\t\t// todo Ajout du prix de la transaction en gas => oracle ? ou estimation large ?\r\n\t\trequire(Mono.balanceOf(_to) > _salePrice, \"Not sufficient token balance\");\r\n\r\n\t\trequire(Mono.transferFrom(_to, _from, _salePrice));\r\n\r\n\t\tif (receiver != address(0) && royaltyAmount > 0) {\r\n\t\t\tif (receiver != Prop.ownerOf(_tokenId)) {\r\n\t\t\t\t// royalties receiver pay nothing\r\n\t\t\t\tMono.transferFrom(_from, receiver, royaltyAmount); // pay royalties\r\n\t\t\t}\r\n\t\t}\r\n\r\n\t\tProp.safeTransferFrom(_from, _to, _tokenId);\r\n\t}\r\n}\r\n",
  "sourcePath": "C:\\Users\\aaast\\Alyra\\mnp-trufflebox\\contracts\\Bank.sol",
  "compiler": {
    "name": "solc",
    "version": "0.8.10+commit.fc410830.Emscripten.clang"
  },
  "schemaVersion": "3.4.3",
  "updatedAt": "2022-01-24T14:23:03.567Z",
  "devdoc": {
    "author": "Jerome Caporossi, Stphane Chaunard, Alexandre Gautier",
    "events": {
      "ChanceProfitReceived(address,uint256)": {
        "params": {
          "amount": "amount ",
          "player": "address"
        }
      },
      "CommunityTaxPaid(address,uint256)": {
        "params": {
          "amount": "amount ",
          "player": "address"
        }
      },
      "DicesRollsPrepaid(address,uint8)": {
        "params": {
          "player": "address",
          "quantity": "MONO amount "
        }
      },
      "MonoBought(address,uint256)": {
        "params": {
          "amount": "amount ",
          "player": "address"
        }
      },
      "PawnBought(address,uint256)": {
        "params": {
          "pawn_id": "pawn ID ",
          "to": "address"
        }
      },
      "PlayerEnrolled(uint16,address)": {
        "params": {
          "_edition": "edition ID",
          "player": "address "
        }
      },
      "PropertyBought(address,uint256)": {
        "params": {
          "prop_id": "Prop id ",
          "to": "address"
        }
      },
      "PropertyRentPaid(address,uint256)": {
        "params": {
          "amount": "amount ",
          "player": "address"
        }
      },
      "RollingDices(address,uint16,bytes32)": {
        "params": {
          "_edition": "edition ID",
          "player": "address",
          "requestID": "random request ID "
        }
      },
      "eWithdraw(address,uint256)": {
        "params": {
          "to": "address",
          "value": "amount "
        }
      }
    },
    "kind": "dev",
    "methods": {
      "buyPawn()": {
        "details": "#### requirements :<br />- MONO transfer"
      },
      "buyProp(uint16)": {
        "details": "- PROP is valid",
        "params": {
          "_edition": "board edition"
        }
      },
      "constructor": {
        "details": "ConstructorADMIN_ROLE, BANKER_ROLE are given to deployer#### requirements :<br />- all parameters addresses must not be address(0)",
        "params": {
          "BoardAddress": "address",
          "LinkAddress": "address",
          "MonoAddress": "address",
          "PawnAddress": "address",
          "PropAddress": "address",
          "StakingAddress": "address"
        }
      },
      "enrollPlayer(uint16)": {
        "params": {
          "_edition": "board edition"
        }
      },
      "getPriceOfProp(uint16,uint8,uint8)": {
        "params": {
          "_edition": "edition ID",
          "_land": "land ID",
          "_rarity": "rarity"
        },
        "returns": {
          "price": "price"
        }
      },
      "getRoleAdmin(bytes32)": {
        "details": "Returns the admin role that controls `role`. See {grantRole} and {revokeRole}. To change a role's admin, use {_setRoleAdmin}."
      },
      "grantRole(bytes32,address)": {
        "details": "Grants `role` to `account`. If `account` had not been already granted `role`, emits a {RoleGranted} event. Requirements: - the caller must have ``role``'s admin role."
      },
      "hasRole(bytes32,address)": {
        "details": "Returns `true` if `account` has been granted `role`."
      },
      "locatePlayer(uint16)": {
        "params": {
          "_edition": "edition number"
        },
        "returns": {
          "p_": "Board contract pawn information struct "
        }
      },
      "onERC721Received(address,address,uint256,bytes)": {
        "details": "Whenever an {IERC721} `tokenId` token is transferred to this contract via {IERC721-safeTransferFrom} by `operator` from `from`, this function is called. It must return its Solidity selector to confirm the token transfer. If any other value is returned or the interface is not implemented by the recipient, the transfer will be reverted. The selector can be obtained in Solidity with `IERC721.onERC721Received.selector`."
      },
      "payCommunityTax(uint16)": {
        "params": {
          "_edition": "board edition"
        }
      },
      "payRent(uint16)": {
        "details": "- PROP is valid",
        "params": {
          "_edition": "board edition"
        }
      },
      "propertyTransfer(address,address,uint256,uint256)": {
        "details": "- This contract must be allowed contract for transfer- MONO transfer sell price",
        "params": {
          "_from": "the seller",
          "_salePrice": "the sale price ",
          "_to": "the buyer",
          "_tokenId": "the Property token id"
        }
      },
      "receiveChanceProfit(uint16)": {
        "params": {
          "_edition": "board edition"
        }
      },
      "renounceRole(bytes32,address)": {
        "details": "Revokes `role` from the calling account. Roles are often managed via {grantRole} and {revokeRole}: this function's purpose is to provide a mechanism for accounts to lose their privileges if they are compromised (such as when a trusted device is misplaced). If the calling account had been revoked `role`, emits a {RoleRevoked} event. Requirements: - the caller must be `account`."
      },
      "revokeRole(bytes32,address)": {
        "details": "Revokes `role` from `account`. If `account` had been granted `role`, emits a {RoleRevoked} event. Requirements: - the caller must have ``role``'s admin role."
      },
      "rollDices(uint16)": {
        "params": {
          "_edition": "board edition"
        }
      },
      "setPriceOfProp(uint16,uint8,uint8,uint256)": {
        "params": {
          "_edition": "edition ID",
          "_land": "land ID",
          "_price": "amount",
          "_rarity": "rarity"
        }
      },
      "setPrices(uint16,uint8,uint8,uint16,uint256[])": {
        "params": {
          "_commonLandPrices": "common land rarity price",
          "_editionId": "edition ID",
          "_maxLandRarities": "max land rarity",
          "_maxLands": "max lands",
          "_rarityMultiplier": "rarity multiplier"
        }
      },
      "supportsInterface(bytes4)": {
        "details": "See {IERC165-supportsInterface}."
      },
      "withdraw(address,uint256)": {
        "params": {
          "_to": "address",
          "_value": "amount"
        }
      }
    },
    "stateVariables": {
      "enroll_fee": {
        "details": "fee to be paid when player enrolls (in $MONO)"
      },
      "propPrices": {
        "details": "price of PROP by rarity by land by edition"
      }
    },
    "title": "Bank contract",
    "version": 1
  },
  "userdoc": {
    "events": {
      "ChanceProfitReceived(address,uint256)": {
        "notice": "Event emitted when a chance profit is received by player"
      },
      "CommunityTaxPaid(address,uint256)": {
        "notice": "Event emitted when a community tax is paid by player"
      },
      "DicesRollsPrepaid(address,uint8)": {
        "notice": "Event emitted when player prepaid MONO amount in 'inGame'"
      },
      "MonoBought(address,uint256)": {
        "notice": "Event emitted when a player buy MONO"
      },
      "PawnBought(address,uint256)": {
        "notice": "Event emitted when a pawn is bought"
      },
      "PlayerEnrolled(uint16,address)": {
        "notice": "Event emitted when a player is enrolled in the game"
      },
      "PropertyBought(address,uint256)": {
        "notice": "Event emitted when a property is bought"
      },
      "PropertyRentPaid(address,uint256)": {
        "notice": "Event emitted when a property rent is paid by player"
      },
      "RollingDices(address,uint16,bytes32)": {
        "notice": "Event emitted when player throw dices and random number is requested."
      },
      "eWithdraw(address,uint256)": {
        "notice": "Event emitted after a withdraw"
      }
    },
    "kind": "user",
    "methods": {
      "buyMono()": {
        "notice": "To buy Mono with the Token network."
      },
      "buyPawn()": {
        "notice": "Buy a pawn (mandatory to play)"
      },
      "buyProp(uint16)": {
        "notice": "buy PROP#### requirements :<br />- Round must be uncompleted- MONO transfer ok"
      },
      "enrollPlayer(uint16)": {
        "notice": "To enroll a player to a board, required to play.#### requirements :<br />- contract has allowance to spend enroll fee- player has a pawn- pawn is registered at this edition"
      },
      "getPriceOfProp(uint16,uint8,uint8)": {
        "notice": "get a property price#### requirements :<br />- property mus be valid"
      },
      "locatePlayer(uint16)": {
        "notice": "Locate pawn on game's board#### requirements :<br />- edition is valid- player has a pawn- pawn is registered at this edition"
      },
      "payCommunityTax(uint16)": {
        "notice": "pay community tax#### requirements :<br />- Round must be uncompleted- must be community card- MONO transfer ok"
      },
      "payRent(uint16)": {
        "notice": "pay property rent#### requirements :<br />- Round must be uncompleted- MONO transfer ok"
      },
      "propertyTransfer(address,address,uint256,uint256)": {
        "notice": "Transfer property ERC721 and royalties to receiver. Useful for our Marketplace<br />#### requirements :<br />- only BANKER role- buyer MONO balance must be greater than sell price"
      },
      "receiveChanceProfit(uint16)": {
        "notice": "receive chance profit#### requirements :<br />- Round must be uncompleted- must be a chance card- MONO transfer ok"
      },
      "rollDices(uint16)": {
        "notice": "To throw the dices and request a random number.#### requirements :<br />- round is completed- player has a pawn- pawn is registered at this edition- Board contract has enough LINK to pay ChainLink fee to request VRF"
      },
      "setPriceOfProp(uint16,uint8,uint8,uint256)": {
        "notice": "set a property price#### requirements :<br />- must have BANKER role- property mus be valid"
      },
      "setPrices(uint16,uint8,uint8,uint16,uint256[])": {
        "notice": "set properties prices, useful to add an edition from admin"
      },
      "withdraw(address,uint256)": {
        "notice": "withdraw#### requirements :<br />- must have BANKER role- MONO transfer"
      }
    },
    "notice": "Is the contract handler",
    "version": 1
  }
}