{
  "contractName": "BoardContract",
  "abi": [
    {
      "inputs": [
        {
          "internalType": "address",
          "name": "_VRFCoordinator",
          "type": "address"
        },
        {
          "internalType": "address",
          "name": "_LinkToken",
          "type": "address"
        },
        {
          "internalType": "bytes32",
          "name": "_keyHash",
          "type": "bytes32"
        },
        {
          "internalType": "uint256",
          "name": "_Chainlinkfee",
          "type": "uint256"
        }
      ],
      "stateMutability": "nonpayable",
      "type": "constructor"
    },
    {
      "anonymous": false,
      "inputs": [
        {
          "indexed": true,
          "internalType": "uint16",
          "name": "new_edition_nb",
          "type": "uint16"
        }
      ],
      "name": "BoardCreated",
      "type": "event"
    },
    {
      "anonymous": false,
      "inputs": [
        {
          "indexed": false,
          "internalType": "bytes32",
          "name": "requestId",
          "type": "bytes32"
        }
      ],
      "name": "RandomReady",
      "type": "event"
    },
    {
      "anonymous": false,
      "inputs": [
        {
          "indexed": true,
          "internalType": "bytes32",
          "name": "role",
          "type": "bytes32"
        },
        {
          "indexed": true,
          "internalType": "bytes32",
          "name": "previousAdminRole",
          "type": "bytes32"
        },
        {
          "indexed": true,
          "internalType": "bytes32",
          "name": "newAdminRole",
          "type": "bytes32"
        }
      ],
      "name": "RoleAdminChanged",
      "type": "event"
    },
    {
      "anonymous": false,
      "inputs": [
        {
          "indexed": true,
          "internalType": "bytes32",
          "name": "role",
          "type": "bytes32"
        },
        {
          "indexed": true,
          "internalType": "address",
          "name": "account",
          "type": "address"
        },
        {
          "indexed": true,
          "internalType": "address",
          "name": "sender",
          "type": "address"
        }
      ],
      "name": "RoleGranted",
      "type": "event"
    },
    {
      "anonymous": false,
      "inputs": [
        {
          "indexed": true,
          "internalType": "bytes32",
          "name": "role",
          "type": "bytes32"
        },
        {
          "indexed": true,
          "internalType": "address",
          "name": "account",
          "type": "address"
        },
        {
          "indexed": true,
          "internalType": "address",
          "name": "sender",
          "type": "address"
        }
      ],
      "name": "RoleRevoked",
      "type": "event"
    },
    {
      "anonymous": false,
      "inputs": [
        {
          "indexed": true,
          "internalType": "uint16",
          "name": "_edition",
          "type": "uint16"
        },
        {
          "indexed": true,
          "internalType": "uint256",
          "name": "_pawnID",
          "type": "uint256"
        }
      ],
      "name": "ePawn",
      "type": "event"
    },
    {
      "inputs": [],
      "name": "ADMIN_ROLE",
      "outputs": [
        {
          "internalType": "bytes32",
          "name": "",
          "type": "bytes32"
        }
      ],
      "stateMutability": "view",
      "type": "function",
      "constant": true
    },
    {
      "inputs": [],
      "name": "DEFAULT_ADMIN_ROLE",
      "outputs": [
        {
          "internalType": "bytes32",
          "name": "",
          "type": "bytes32"
        }
      ],
      "stateMutability": "view",
      "type": "function",
      "constant": true
    },
    {
      "inputs": [],
      "name": "MANAGER_ROLE",
      "outputs": [
        {
          "internalType": "bytes32",
          "name": "",
          "type": "bytes32"
        }
      ],
      "stateMutability": "view",
      "type": "function",
      "constant": true
    },
    {
      "inputs": [],
      "name": "fee",
      "outputs": [
        {
          "internalType": "uint256",
          "name": "",
          "type": "uint256"
        }
      ],
      "stateMutability": "view",
      "type": "function",
      "constant": true
    },
    {
      "inputs": [
        {
          "internalType": "bytes32",
          "name": "role",
          "type": "bytes32"
        }
      ],
      "name": "getRoleAdmin",
      "outputs": [
        {
          "internalType": "bytes32",
          "name": "",
          "type": "bytes32"
        }
      ],
      "stateMutability": "view",
      "type": "function",
      "constant": true
    },
    {
      "inputs": [
        {
          "internalType": "bytes32",
          "name": "role",
          "type": "bytes32"
        },
        {
          "internalType": "address",
          "name": "account",
          "type": "address"
        }
      ],
      "name": "grantRole",
      "outputs": [],
      "stateMutability": "nonpayable",
      "type": "function"
    },
    {
      "inputs": [
        {
          "internalType": "bytes32",
          "name": "role",
          "type": "bytes32"
        },
        {
          "internalType": "address",
          "name": "account",
          "type": "address"
        }
      ],
      "name": "hasRole",
      "outputs": [
        {
          "internalType": "bool",
          "name": "",
          "type": "bool"
        }
      ],
      "stateMutability": "view",
      "type": "function",
      "constant": true
    },
    {
      "inputs": [],
      "name": "randomResult",
      "outputs": [
        {
          "internalType": "uint256",
          "name": "",
          "type": "uint256"
        }
      ],
      "stateMutability": "view",
      "type": "function",
      "constant": true
    },
    {
      "inputs": [
        {
          "internalType": "bytes32",
          "name": "requestId",
          "type": "bytes32"
        },
        {
          "internalType": "uint256",
          "name": "randomness",
          "type": "uint256"
        }
      ],
      "name": "rawFulfillRandomness",
      "outputs": [],
      "stateMutability": "nonpayable",
      "type": "function"
    },
    {
      "inputs": [
        {
          "internalType": "bytes32",
          "name": "role",
          "type": "bytes32"
        },
        {
          "internalType": "address",
          "name": "account",
          "type": "address"
        }
      ],
      "name": "renounceRole",
      "outputs": [],
      "stateMutability": "nonpayable",
      "type": "function"
    },
    {
      "inputs": [
        {
          "internalType": "bytes32",
          "name": "role",
          "type": "bytes32"
        },
        {
          "internalType": "address",
          "name": "account",
          "type": "address"
        }
      ],
      "name": "revokeRole",
      "outputs": [],
      "stateMutability": "nonpayable",
      "type": "function"
    },
    {
      "inputs": [
        {
          "internalType": "bytes4",
          "name": "interfaceId",
          "type": "bytes4"
        }
      ],
      "name": "supportsInterface",
      "outputs": [
        {
          "internalType": "bool",
          "name": "",
          "type": "bool"
        }
      ],
      "stateMutability": "view",
      "type": "function",
      "constant": true
    },
    {
      "inputs": [
        {
          "internalType": "uint16",
          "name": "edition",
          "type": "uint16"
        },
        {
          "internalType": "uint8",
          "name": "land",
          "type": "uint8"
        }
      ],
      "name": "isPurchasable",
      "outputs": [
        {
          "internalType": "bool",
          "name": "",
          "type": "bool"
        }
      ],
      "stateMutability": "view",
      "type": "function",
      "constant": true
    },
    {
      "inputs": [],
      "name": "getMaxEdition",
      "outputs": [
        {
          "internalType": "uint16",
          "name": "",
          "type": "uint16"
        }
      ],
      "stateMutability": "view",
      "type": "function",
      "constant": true
    },
    {
      "inputs": [
        {
          "internalType": "uint16",
          "name": "edition",
          "type": "uint16"
        }
      ],
      "name": "getNbLands",
      "outputs": [
        {
          "internalType": "uint8",
          "name": "",
          "type": "uint8"
        }
      ],
      "stateMutability": "view",
      "type": "function",
      "constant": true
    },
    {
      "inputs": [
        {
          "internalType": "uint16",
          "name": "edition",
          "type": "uint16"
        }
      ],
      "name": "getRarityLevel",
      "outputs": [
        {
          "internalType": "uint8",
          "name": "",
          "type": "uint8"
        }
      ],
      "stateMutability": "view",
      "type": "function",
      "constant": true
    },
    {
      "inputs": [
        {
          "internalType": "uint8",
          "name": "_nbOfLands",
          "type": "uint8"
        },
        {
          "internalType": "uint8",
          "name": "_rarityLevel",
          "type": "uint8"
        },
        {
          "internalType": "uint8[]",
          "name": "_purchasableLands",
          "type": "uint8[]"
        },
        {
          "internalType": "uint16",
          "name": "_maxPawns",
          "type": "uint16"
        }
      ],
      "name": "newBoard",
      "outputs": [],
      "stateMutability": "nonpayable",
      "type": "function"
    },
    {
      "inputs": [
        {
          "internalType": "uint16",
          "name": "_edition",
          "type": "uint16"
        },
        {
          "internalType": "uint256",
          "name": "_pawnID",
          "type": "uint256"
        }
      ],
      "name": "register",
      "outputs": [
        {
          "internalType": "bool",
          "name": "isOnBoarded",
          "type": "bool"
        }
      ],
      "stateMutability": "nonpayable",
      "type": "function"
    },
    {
      "inputs": [
        {
          "internalType": "uint16",
          "name": "_edition",
          "type": "uint16"
        },
        {
          "internalType": "uint256",
          "name": "_pawnID",
          "type": "uint256"
        }
      ],
      "name": "isRegistered",
      "outputs": [
        {
          "internalType": "bool",
          "name": "",
          "type": "bool"
        }
      ],
      "stateMutability": "view",
      "type": "function",
      "constant": true
    },
    {
      "inputs": [
        {
          "internalType": "uint16",
          "name": "_edition",
          "type": "uint16"
        },
        {
          "internalType": "uint256",
          "name": "_pawnID",
          "type": "uint256"
        }
      ],
      "name": "play",
      "outputs": [
        {
          "internalType": "bytes32",
          "name": "requestId",
          "type": "bytes32"
        }
      ],
      "stateMutability": "nonpayable",
      "type": "function"
    },
    {
      "inputs": [
        {
          "internalType": "uint16",
          "name": "_edition",
          "type": "uint16"
        },
        {
          "internalType": "uint256",
          "name": "_pawnID",
          "type": "uint256"
        }
      ],
      "name": "getPawnInfo",
      "outputs": [
        {
          "components": [
            {
              "internalType": "uint256",
              "name": "random",
              "type": "uint256"
            },
            {
              "internalType": "uint8",
              "name": "position",
              "type": "uint8"
            },
            {
              "internalType": "bool",
              "name": "isOnBoard",
              "type": "bool"
            },
            {
              "internalType": "bool",
              "name": "isPropertyBought",
              "type": "bool"
            },
            {
              "internalType": "bool",
              "name": "isRentPaid",
              "type": "bool"
            },
            {
              "internalType": "bool",
              "name": "isRoundCompleted",
              "type": "bool"
            },
            {
              "internalType": "bool",
              "name": "isInJail",
              "type": "bool"
            },
            {
              "internalType": "bool",
              "name": "isChanceCard",
              "type": "bool"
            },
            {
              "internalType": "bool",
              "name": "isCommunityCard",
              "type": "bool"
            }
          ],
          "internalType": "struct BoardContract.PawnInfo",
          "name": "p",
          "type": "tuple"
        }
      ],
      "stateMutability": "view",
      "type": "function",
      "constant": true
    },
    {
      "inputs": [
        {
          "internalType": "uint16",
          "name": "_edition",
          "type": "uint16"
        },
        {
          "internalType": "uint256",
          "name": "_pawnID",
          "type": "uint256"
        },
        {
          "components": [
            {
              "internalType": "uint256",
              "name": "random",
              "type": "uint256"
            },
            {
              "internalType": "uint8",
              "name": "position",
              "type": "uint8"
            },
            {
              "internalType": "bool",
              "name": "isOnBoard",
              "type": "bool"
            },
            {
              "internalType": "bool",
              "name": "isPropertyBought",
              "type": "bool"
            },
            {
              "internalType": "bool",
              "name": "isRentPaid",
              "type": "bool"
            },
            {
              "internalType": "bool",
              "name": "isRoundCompleted",
              "type": "bool"
            },
            {
              "internalType": "bool",
              "name": "isInJail",
              "type": "bool"
            },
            {
              "internalType": "bool",
              "name": "isChanceCard",
              "type": "bool"
            },
            {
              "internalType": "bool",
              "name": "isCommunityCard",
              "type": "bool"
            }
          ],
          "internalType": "struct BoardContract.PawnInfo",
          "name": "_pawnInfo",
          "type": "tuple"
        }
      ],
      "name": "setPawnInfo",
      "outputs": [],
      "stateMutability": "nonpayable",
      "type": "function"
    }
  ],
  "bytecode": "0x60c06040523480156200001157600080fd5b5060405162003cee38038062003cee833981810160405281019062000037919062000683565b83838173ffffffffffffffffffffffffffffffffffffffff1660a08173ffffffffffffffffffffffffffffffffffffffff16815250508073ffffffffffffffffffffffffffffffffffffffff1660808173ffffffffffffffffffffffffffffffffffffffff168152505050508160028190555080600481905550620000e37fa49807205ce4d355092ef5a8a18f56e8913cf4a201fbe287825b095693c2177533620003a860201b60201c565b620001157fa49807205ce4d355092ef5a8a18f56e8913cf4a201fbe287825b095693c2177580620003be60201b60201c565b620001477f241ecf16d79d0f8dbfb92cbc07fe17840425976cf0667f022fe9877caa831b0833620003a860201b60201c565b620001997f241ecf16d79d0f8dbfb92cbc07fe17840425976cf0667f022fe9877caa831b087fa49807205ce4d355092ef5a8a18f56e8913cf4a201fbe287825b095693c21775620003be60201b60201c565b6000600360006101000a81548161ffff021916908361ffff1602179055506000600660008061ffff168152602001908152602001600020905060288160000160006101000a81548160ff021916908360ff1602179055506103e88160030160006101000a81548161ffff021916908361ffff16021790555060028160000160016101000a81548160ff021916908360ff1602179055506000604051806101400160405280600060ff168152602001600260ff168152602001600760ff168152602001600a60ff168152602001601160ff168152602001601460ff168152602001601660ff168152602001601e60ff168152602001602160ff168152602001602460ff16815250905060005b8260000160009054906101000a900460ff1660ff168160ff1610156200039b5760018360010160008360ff1660ff16815260200190815260200160002060006101000a81548160ff02191690831515021790555060005b600a8160ff1610156200038457828160ff16600a8110620003215762000320620006f5565b5b602002015160ff168260ff1614156200036e5760008460010160008460ff1660ff16815260200190815260200160002060006101000a81548160ff02191690831515021790555062000384565b80806200037b9062000760565b915050620002fb565b508080620003929062000760565b915050620002a4565b505050505050506200078f565b620003ba82826200042160201b60201c565b5050565b6000620003d1836200051260201b60201c565b905081600080858152602001908152602001600020600101819055508181847fbd79b86ffe0ab8e8776151514217cd7cacd52c909f66475c3af44e129f0b00ff60405160405180910390a4505050565b6200043382826200053160201b60201c565b6200050e57600160008084815260200190815260200160002060000160008373ffffffffffffffffffffffffffffffffffffffff1673ffffffffffffffffffffffffffffffffffffffff16815260200190815260200160002060006101000a81548160ff021916908315150217905550620004b36200059b60201b60201c565b73ffffffffffffffffffffffffffffffffffffffff168173ffffffffffffffffffffffffffffffffffffffff16837f2f8788117e7eff1d82e926ec794901d17c78024a50270940304540a733656f0d60405160405180910390a45b5050565b6000806000838152602001908152602001600020600101549050919050565b600080600084815260200190815260200160002060000160008373ffffffffffffffffffffffffffffffffffffffff1673ffffffffffffffffffffffffffffffffffffffff16815260200190815260200160002060009054906101000a900460ff16905092915050565b600033905090565b600080fd5b600073ffffffffffffffffffffffffffffffffffffffff82169050919050565b6000620005d582620005a8565b9050919050565b620005e781620005c8565b8114620005f357600080fd5b50565b6000815190506200060781620005dc565b92915050565b6000819050919050565b62000622816200060d565b81146200062e57600080fd5b50565b600081519050620006428162000617565b92915050565b6000819050919050565b6200065d8162000648565b81146200066957600080fd5b50565b6000815190506200067d8162000652565b92915050565b60008060008060808587031215620006a0576200069f620005a3565b5b6000620006b087828801620005f6565b9450506020620006c387828801620005f6565b9350506040620006d68782880162000631565b9250506060620006e9878288016200066c565b91505092959194509250565b7f4e487b7100000000000000000000000000000000000000000000000000000000600052603260045260246000fd5b7f4e487b7100000000000000000000000000000000000000000000000000000000600052601160045260246000fd5b600060ff82169050919050565b60006200076d8262000753565b915060ff82141562000784576200078362000724565b5b600182019050919050565b60805160a05161352b620007c360003960008181610d520152611ce90152600081816114d80152611cad015261352b6000f3fe608060405234801561001057600080fd5b50600436106101425760003560e01c80636ae620c1116100b85780639c3793451161007c5780639c379345146103d5578063a1b0a7e3146103f1578063a217fddf1461040d578063d547741f1461042b578063ddca3f4314610447578063ec87621c1461046557610142565b80636ae620c11461030b5780636f3480ac1461033b57806375b238fc1461036b57806391d148541461038957806394985ddd146103b957610142565b80632f2ff15d1161010a5780632f2ff15d1461022557806336568abe1461024157806342619f661461025d57806351cd797d1461027b57806358f05b3a146102ab5780635f91c06a146102db57610142565b806301ffc9a7146101475780631372526f14610177578063155f205814610195578063248a9ca3146101c557806326e0fc1f146101f5575b600080fd5b610161600480360381019061015c9190612221565b610483565b60405161016e9190612269565b60405180910390f35b61017f6104fd565b60405161018c91906122a1565b60405180910390f35b6101af60048036038101906101aa919061231e565b610515565b6040516101bc9190612269565b60405180910390f35b6101df60048036038101906101da9190612394565b61055f565b6040516101ec91906123d0565b60405180910390f35b61020f600480360381019061020a919061231e565b61057e565b60405161021c9190612269565b60405180910390f35b61023f600480360381019061023a9190612449565b61085e565b005b61025b60048036038101906102569190612449565b610887565b005b61026561090a565b6040516102729190612498565b60405180910390f35b610295600480360381019061029091906124b3565b610910565b6040516102a291906124fc565b60405180910390f35b6102c560048036038101906102c0919061231e565b610945565b6040516102d291906123d0565b60405180910390f35b6102f560048036038101906102f09190612543565b610ac8565b6040516103029190612269565b60405180910390f35b6103256004803603810190610320919061231e565b610b15565b6040516103329190612667565b60405180910390f35b610355600480360381019061035091906124b3565b610c8d565b60405161036291906124fc565b60405180910390f35b610373610cc2565b60405161038091906123d0565b60405180910390f35b6103a3600480360381019061039e9190612449565b610ce6565b6040516103b09190612269565b60405180910390f35b6103d360048036038101906103ce9190612683565b610d50565b005b6103ef60048036038101906103ea9190612860565b610dec565b005b61040b60048036038101906104069190612919565b610f63565b005b6104156111a7565b60405161042291906123d0565b60405180910390f35b61044560048036038101906104409190612449565b6111ae565b005b61044f6111d7565b60405161045c9190612498565b60405180910390f35b61046d6111dd565b60405161047a91906123d0565b60405180910390f35b60007f7965db0b000000000000000000000000000000000000000000000000000000007bffffffffffffffffffffffffffffffffffffffffffffffffffffffff1916827bffffffffffffffffffffffffffffffffffffffffffffffffffffffff191614806104f657506104f582611201565b5b9050919050565b6000600360009054906101000a900461ffff16905090565b6000600660008461ffff1661ffff168152602001908152602001600020600201600083815260200190815260200160002060010160019054906101000a900460ff16905092915050565b6000806000838152602001908152602001600020600101549050919050565b60007f241ecf16d79d0f8dbfb92cbc07fe17840425976cf0667f022fe9877caa831b086105b2816105ad61126b565b611273565b600360009054906101000a900461ffff1661ffff168461ffff16111561060d576040517f08c379a0000000000000000000000000000000000000000000000000000000008152600401610604906129fe565b60405180910390fd5b60001515600660008661ffff1661ffff168152602001908152602001600020600201600085815260200190815260200160002060010160019054906101000a900460ff16151514610693576040517f08c379a000000000000000000000000000000000000000000000000000000000815260040161068a90612a6a565b60405180910390fd5b600660008561ffff1661ffff16815260200190815260200160002060030160009054906101000a900461ffff1661ffff16600660008661ffff1661ffff16815260200190815260200160002060030160029054906101000a900461ffff1661ffff1610610735576040517f08c379a000000000000000000000000000000000000000000000000000000000815260040161072c90612ad6565b60405180910390fd5b6001600660008661ffff1661ffff168152602001908152602001600020600201600085815260200190815260200160002060010160016101000a81548160ff0219169083151502179055506001600660008661ffff1661ffff168152602001908152602001600020600201600085815260200190815260200160002060010160046101000a81548160ff0219169083151502179055506001600660008661ffff1661ffff16815260200190815260200160002060030160028282829054906101000a900461ffff166108079190612b25565b92506101000a81548161ffff021916908361ffff160217905550828461ffff167fe4e52554bc27cb4b0f5650e1dbabf0b9a745d65467f38831460f0db7fef2a13e60405160405180910390a3600191505092915050565b6108678261055f565b6108788161087361126b565b611273565b6108828383611310565b505050565b61088f61126b565b73ffffffffffffffffffffffffffffffffffffffff168173ffffffffffffffffffffffffffffffffffffffff16146108fc576040517f08c379a00000000000000000000000000000000000000000000000000000000081526004016108f390612bcf565b60405180910390fd5b61090682826113f0565b5050565b60055481565b6000600660008361ffff1661ffff16815260200190815260200160002060000160009054906101000a900460ff169050919050565b60007f241ecf16d79d0f8dbfb92cbc07fe17840425976cf0667f022fe9877caa831b086109798161097461126b565b611273565b600660008561ffff1661ffff168152602001908152602001600020600201600084815260200190815260200160002060010160019054906101000a900460ff166109f8576040517f08c379a00000000000000000000000000000000000000000000000000000000081526004016109ef90612c3b565b60405180910390fd5b600660008561ffff1661ffff168152602001908152602001600020600201600084815260200190815260200160002060010160049054906101000a900460ff16610a77576040517f08c379a0000000000000000000000000000000000000000000000000000000008152600401610a6e90612ca7565b60405180910390fd5b610a7f6114d1565b91506000600760008481526020019081526020016000209050848160010160006101000a81548161ffff021916908361ffff160217905550838160000181905550505092915050565b6000600660008461ffff1661ffff16815260200190815260200160002060010160008360ff1660ff16815260200190815260200160002060009054906101000a900460ff16905092915050565b610b1d612158565b610b278383610515565b610b66576040517f08c379a0000000000000000000000000000000000000000000000000000000008152600401610b5d90612d13565b60405180910390fd5b600660008461ffff1661ffff168152602001908152602001600020600201600083815260200190815260200160002060405180610120016040529081600082015481526020016001820160009054906101000a900460ff1660ff1660ff1681526020016001820160019054906101000a900460ff161515151581526020016001820160029054906101000a900460ff161515151581526020016001820160039054906101000a900460ff161515151581526020016001820160049054906101000a900460ff161515151581526020016001820160059054906101000a900460ff161515151581526020016001820160069054906101000a900460ff161515151581526020016001820160079054906101000a900460ff161515151581525050905092915050565b6000600660008361ffff1661ffff16815260200190815260200160002060000160019054906101000a900460ff169050919050565b7fa49807205ce4d355092ef5a8a18f56e8913cf4a201fbe287825b095693c2177581565b600080600084815260200190815260200160002060000160008373ffffffffffffffffffffffffffffffffffffffff1673ffffffffffffffffffffffffffffffffffffffff16815260200190815260200160002060009054906101000a900460ff16905092915050565b7f000000000000000000000000000000000000000000000000000000000000000073ffffffffffffffffffffffffffffffffffffffff163373ffffffffffffffffffffffffffffffffffffffff1614610dde576040517f08c379a0000000000000000000000000000000000000000000000000000000008152600401610dd590612d7f565b60405180910390fd5b610de882826115c4565b5050565b7f241ecf16d79d0f8dbfb92cbc07fe17840425976cf0667f022fe9877caa831b08610e1e81610e1961126b565b611273565b81600660008661ffff1661ffff16815260200190815260200160002060020160008581526020019081526020016000206000820151816000015560208201518160010160006101000a81548160ff021916908360ff16021790555060408201518160010160016101000a81548160ff02191690831515021790555060608201518160010160026101000a81548160ff02191690831515021790555060808201518160010160036101000a81548160ff02191690831515021790555060a08201518160010160046101000a81548160ff02191690831515021790555060c08201518160010160056101000a81548160ff02191690831515021790555060e08201518160010160066101000a81548160ff0219169083151502179055506101008201518160010160076101000a81548160ff02191690831515021790555090505050505050565b7f241ecf16d79d0f8dbfb92cbc07fe17840425976cf0667f022fe9877caa831b08610f9581610f9061126b565b611273565b6001600360008282829054906101000a900461ffff16610fb59190612b25565b92506101000a81548161ffff021916908361ffff160217905550600060066000600360009054906101000a900461ffff1661ffff1661ffff1681526020019081526020016000209050868160000160006101000a81548160ff021916908360ff160217905550858160000160016101000a81548160ff021916908360ff16021790555060005b858590508160ff16101561113d578160000160009054906101000a900460ff1660ff1686868360ff1681811061107457611073612d9f565b5b90506020020160208101906110899190612dce565b60ff16106110cc576040517f08c379a00000000000000000000000000000000000000000000000000000000081526004016110c390612e47565b60405180910390fd5b600182600101600088888560ff168181106110ea576110e9612d9f565b5b90506020020160208101906110ff9190612dce565b60ff1660ff16815260200190815260200160002060006101000a81548160ff021916908315150217905550808061113590612e67565b91505061103b565b50828160030160006101000a81548161ffff021916908361ffff160217905550600360009054906101000a900461ffff1661ffff167fb8fd28a374892893a747126e5d39b5e91f773bc968c40a5f1340ea21374e2eee60405160405180910390a250505050505050565b6000801b81565b6111b78261055f565b6111c8816111c361126b565b611273565b6111d283836113f0565b505050565b60045481565b7f241ecf16d79d0f8dbfb92cbc07fe17840425976cf0667f022fe9877caa831b0881565b60007f01ffc9a7000000000000000000000000000000000000000000000000000000007bffffffffffffffffffffffffffffffffffffffffffffffffffffffff1916827bffffffffffffffffffffffffffffffffffffffffffffffffffffffff1916149050919050565b600033905090565b61127d8282610ce6565b61130c576112a28173ffffffffffffffffffffffffffffffffffffffff166014611a6d565b6112b08360001c6020611a6d565b6040516020016112c1929190612fa3565b6040516020818303038152906040526040517f08c379a00000000000000000000000000000000000000000000000000000000081526004016113039190613016565b60405180910390fd5b5050565b61131a8282610ce6565b6113ec57600160008084815260200190815260200160002060000160008373ffffffffffffffffffffffffffffffffffffffff1673ffffffffffffffffffffffffffffffffffffffff16815260200190815260200160002060006101000a81548160ff02191690831515021790555061139161126b565b73ffffffffffffffffffffffffffffffffffffffff168173ffffffffffffffffffffffffffffffffffffffff16837f2f8788117e7eff1d82e926ec794901d17c78024a50270940304540a733656f0d60405160405180910390a45b5050565b6113fa8282610ce6565b156114cd57600080600084815260200190815260200160002060000160008373ffffffffffffffffffffffffffffffffffffffff1673ffffffffffffffffffffffffffffffffffffffff16815260200190815260200160002060006101000a81548160ff02191690831515021790555061147261126b565b73ffffffffffffffffffffffffffffffffffffffff168173ffffffffffffffffffffffffffffffffffffffff16837ff6391f5c32d9c69d2a47ea670b442974b53935d1edc7fd64eb21e047a839171b60405160405180910390a45b5050565b60006004547f000000000000000000000000000000000000000000000000000000000000000073ffffffffffffffffffffffffffffffffffffffff166370a08231306040518263ffffffff1660e01b815260040161152f9190613047565b602060405180830381865afa15801561154c573d6000803e3d6000fd5b505050506040513d601f19601f820116820180604052508101906115709190613077565b10156115b1576040517f08c379a00000000000000000000000000000000000000000000000000000000081526004016115a890613116565b60405180910390fd5b6115bf600254600454611ca9565b905090565b60006007600084815260200190815260200160002090506002600b836115ea9190613165565b6115f49190613196565b600660008360010160009054906101000a900461ffff1661ffff1661ffff16815260200190815260200160002060020160008360000154815260200190815260200160002060010160008282829054906101000a900460ff166116579190613196565b92506101000a81548160ff021916908360ff160217905550600660008260010160009054906101000a900461ffff1661ffff1661ffff16815260200190815260200160002060000160009054906101000a900460ff16600660008360010160009054906101000a900461ffff1661ffff1661ffff16815260200190815260200160002060020160008360000154815260200190815260200160002060010160008282829054906101000a900460ff1661171091906131cd565b92506101000a81548160ff021916908360ff16021790555081600660008360010160009054906101000a900461ffff1661ffff1661ffff168152602001908152602001600020600201600083600001548152602001908152602001600020600001819055506000600660008360010160009054906101000a900461ffff1661ffff1661ffff16815260200190815260200160002060020160008360000154815260200190815260200160002060010160026101000a81548160ff0219169083151502179055506000600660008360010160009054906101000a900461ffff1661ffff1661ffff16815260200190815260200160002060020160008360000154815260200190815260200160002060010160036101000a81548160ff0219169083151502179055506000600660008360010160009054906101000a900461ffff1661ffff1661ffff16815260200190815260200160002060020160008360000154815260200190815260200160002060010160056101000a81548160ff0219169083151502179055506000600660008360010160009054906101000a900461ffff1661ffff1661ffff16815260200190815260200160002060020160008360000154815260200190815260200160002060010160066101000a81548160ff0219169083151502179055506000600660008360010160009054906101000a900461ffff1661ffff1661ffff16815260200190815260200160002060020160008360000154815260200190815260200160002060010160076101000a81548160ff0219169083151502179055506001600660008360010160009054906101000a900461ffff1661ffff1661ffff16815260200190815260200160002060020160008360000154815260200190815260200160002060010160046101000a81548160ff021916908315150217905550611a318160010160009054906101000a900461ffff168260000154600660008560010160009054906101000a900461ffff1661ffff1661ffff16815260200190815260200160002060020160008560000154815260200190815260200160002060010160009054906101000a900460ff16611dfb565b7f1954c6845304788fb449c20d6a568c6672d0d11585f9d8f32673fba15c9cbf2283604051611a6091906123d0565b60405180910390a1505050565b606060006002836002611a8091906131fe565b611a8a9190613258565b67ffffffffffffffff811115611aa357611aa26126d9565b5b6040519080825280601f01601f191660200182016040528015611ad55781602001600182028036833780820191505090505b5090507f300000000000000000000000000000000000000000000000000000000000000081600081518110611b0d57611b0c612d9f565b5b60200101907effffffffffffffffffffffffffffffffffffffffffffffffffffffffffffff1916908160001a9053507f780000000000000000000000000000000000000000000000000000000000000081600181518110611b7157611b70612d9f565b5b60200101907effffffffffffffffffffffffffffffffffffffffffffffffffffffffffffff1916908160001a90535060006001846002611bb191906131fe565b611bbb9190613258565b90505b6001811115611c5b577f3031323334353637383961626364656600000000000000000000000000000000600f861660108110611bfd57611bfc612d9f565b5b1a60f81b828281518110611c1457611c13612d9f565b5b60200101907effffffffffffffffffffffffffffffffffffffffffffffffffffffffffffff1916908160001a905350600485901c945080611c54906132ae565b9050611bbe565b5060008414611c9f576040517f08c379a0000000000000000000000000000000000000000000000000000000008152600401611c9690613324565b60405180910390fd5b8091505092915050565b60007f000000000000000000000000000000000000000000000000000000000000000073ffffffffffffffffffffffffffffffffffffffff16634000aea07f000000000000000000000000000000000000000000000000000000000000000084866000604051602001611d1d929190613344565b6040516020818303038152906040526040518463ffffffff1660e01b8152600401611d4a939291906133c2565b6020604051808303816000875af1158015611d69573d6000803e3d6000fd5b505050506040513d601f19601f82011682018060405250810190611d8d9190613415565b506000611db08460003060016000898152602001908152602001600020546120e9565b9050600180600086815260200190815260200160002054611dd19190613258565b6001600086815260200190815260200160002081905550611df28482612125565b91505092915050565b600660008461ffff1661ffff16815260200190815260200160002060010160008260ff1660ff16815260200190815260200160002060009054906101000a900460ff1615611e93576000600660008561ffff1661ffff168152602001908152602001600020600201600084815260200190815260200160002060010160046101000a81548160ff0219169083151502179055506120e4565b601e8160ff161415611f3b576001600660008561ffff1661ffff168152602001908152602001600020600201600084815260200190815260200160002060010160056101000a81548160ff021916908315150217905550600a600660008561ffff1661ffff168152602001908152602001600020600201600084815260200190815260200160002060010160006101000a81548160ff021916908360ff1602179055506120e4565b60148160ff161415611f4c576120e4565b600a8160ff161415611f5d576120e4565b60078160ff161480611f72575060168160ff16145b80611f80575060248160ff16145b15612020576001600660008561ffff1661ffff168152602001908152602001600020600201600084815260200190815260200160002060010160066101000a81548160ff0219169083151502179055506000600660008561ffff1661ffff168152602001908152602001600020600201600084815260200190815260200160002060010160046101000a81548160ff0219169083151502179055506120e4565b60028160ff161480612035575060118160ff16145b80612043575060218160ff16145b156120e3576001600660008561ffff1661ffff168152602001908152602001600020600201600084815260200190815260200160002060010160076101000a81548160ff0219169083151502179055506000600660008561ffff1661ffff168152602001908152602001600020600201600084815260200190815260200160002060010160046101000a81548160ff0219169083151502179055506120e4565b5b505050565b6000848484846040516020016121029493929190613442565b6040516020818303038152906040528051906020012060001c9050949350505050565b6000828260405160200161213a9291906134c9565b60405160208183030381529060405280519060200120905092915050565b60405180610120016040528060008152602001600060ff1681526020016000151581526020016000151581526020016000151581526020016000151581526020016000151581526020016000151581526020016000151581525090565b6000604051905090565b600080fd5b600080fd5b60007fffffffff0000000000000000000000000000000000000000000000000000000082169050919050565b6121fe816121c9565b811461220957600080fd5b50565b60008135905061221b816121f5565b92915050565b600060208284031215612237576122366121bf565b5b60006122458482850161220c565b91505092915050565b60008115159050919050565b6122638161224e565b82525050565b600060208201905061227e600083018461225a565b92915050565b600061ffff82169050919050565b61229b81612284565b82525050565b60006020820190506122b66000830184612292565b92915050565b6122c581612284565b81146122d057600080fd5b50565b6000813590506122e2816122bc565b92915050565b6000819050919050565b6122fb816122e8565b811461230657600080fd5b50565b600081359050612318816122f2565b92915050565b60008060408385031215612335576123346121bf565b5b6000612343858286016122d3565b925050602061235485828601612309565b9150509250929050565b6000819050919050565b6123718161235e565b811461237c57600080fd5b50565b60008135905061238e81612368565b92915050565b6000602082840312156123aa576123a96121bf565b5b60006123b88482850161237f565b91505092915050565b6123ca8161235e565b82525050565b60006020820190506123e560008301846123c1565b92915050565b600073ffffffffffffffffffffffffffffffffffffffff82169050919050565b6000612416826123eb565b9050919050565b6124268161240b565b811461243157600080fd5b50565b6000813590506124438161241d565b92915050565b600080604083850312156124605761245f6121bf565b5b600061246e8582860161237f565b925050602061247f85828601612434565b9150509250929050565b612492816122e8565b82525050565b60006020820190506124ad6000830184612489565b92915050565b6000602082840312156124c9576124c86121bf565b5b60006124d7848285016122d3565b91505092915050565b600060ff82169050919050565b6124f6816124e0565b82525050565b600060208201905061251160008301846124ed565b92915050565b612520816124e0565b811461252b57600080fd5b50565b60008135905061253d81612517565b92915050565b6000806040838503121561255a576125596121bf565b5b6000612568858286016122d3565b92505060206125798582860161252e565b9150509250929050565b61258c816122e8565b82525050565b61259b816124e0565b82525050565b6125aa8161224e565b82525050565b610120820160008201516125c76000850182612583565b5060208201516125da6020850182612592565b5060408201516125ed60408501826125a1565b50606082015161260060608501826125a1565b50608082015161261360808501826125a1565b5060a082015161262660a08501826125a1565b5060c082015161263960c08501826125a1565b5060e082015161264c60e08501826125a1565b506101008201516126616101008501826125a1565b50505050565b60006101208201905061267d60008301846125b0565b92915050565b6000806040838503121561269a576126996121bf565b5b60006126a88582860161237f565b92505060206126b985828601612309565b9150509250929050565b600080fd5b6000601f19601f8301169050919050565b7f4e487b7100000000000000000000000000000000000000000000000000000000600052604160045260246000fd5b612711826126c8565b810181811067ffffffffffffffff821117156127305761272f6126d9565b5b80604052505050565b60006127436121b5565b905061274f8282612708565b919050565b61275d8161224e565b811461276857600080fd5b50565b60008135905061277a81612754565b92915050565b60006101208284031215612797576127966126c3565b5b6127a2610120612739565b905060006127b284828501612309565b60008301525060206127c68482850161252e565b60208301525060406127da8482850161276b565b60408301525060606127ee8482850161276b565b60608301525060806128028482850161276b565b60808301525060a06128168482850161276b565b60a08301525060c061282a8482850161276b565b60c08301525060e061283e8482850161276b565b60e0830152506101006128538482850161276b565b6101008301525092915050565b6000806000610160848603121561287a576128796121bf565b5b6000612888868287016122d3565b935050602061289986828701612309565b92505060406128aa86828701612780565b9150509250925092565b600080fd5b600080fd5b600080fd5b60008083601f8401126128d9576128d86128b4565b5b8235905067ffffffffffffffff8111156128f6576128f56128b9565b5b602083019150836020820283011115612912576129116128be565b5b9250929050565b600080600080600060808688031215612935576129346121bf565b5b60006129438882890161252e565b95505060206129548882890161252e565b945050604086013567ffffffffffffffff811115612975576129746121c4565b5b612981888289016128c3565b93509350506060612994888289016122d3565b9150509295509295909350565b600082825260208201905092915050565b7f556e6b6e6f776e2065646974696f6e0000000000000000000000000000000000600082015250565b60006129e8600f836129a1565b91506129f3826129b2565b602082019050919050565b60006020820190508181036000830152612a17816129db565b9050919050565b7f7061776e20616c72656164792072656769737465726564000000000000000000600082015250565b6000612a546017836129a1565b9150612a5f82612a1e565b602082019050919050565b60006020820190508181036000830152612a8381612a47565b9050919050565b7f67616d652069732066756c6c0000000000000000000000000000000000000000600082015250565b6000612ac0600c836129a1565b9150612acb82612a8a565b602082019050919050565b60006020820190508181036000830152612aef81612ab3565b9050919050565b7f4e487b7100000000000000000000000000000000000000000000000000000000600052601160045260246000fd5b6000612b3082612284565b9150612b3b83612284565b92508261ffff03821115612b5257612b51612af6565b5b828201905092915050565b7f416363657373436f6e74726f6c3a2063616e206f6e6c792072656e6f756e636560008201527f20726f6c657320666f722073656c660000000000000000000000000000000000602082015250565b6000612bb9602f836129a1565b9150612bc482612b5d565b604082019050919050565b60006020820190508181036000830152612be881612bac565b9050919050565b7f556e72656769737465726564207061776e000000000000000000000000000000600082015250565b6000612c256011836129a1565b9150612c3082612bef565b602082019050919050565b60006020820190508181036000830152612c5481612c18565b9050919050565b7f526f756e64206e6f7420636f6d706c6574656400000000000000000000000000600082015250565b6000612c916013836129a1565b9150612c9c82612c5b565b602082019050919050565b60006020820190508181036000830152612cc081612c84565b9050919050565b7f7061776e20686173206e6f74206265656e207265677369746572656400000000600082015250565b6000612cfd601c836129a1565b9150612d0882612cc7565b602082019050919050565b60006020820190508181036000830152612d2c81612cf0565b9050919050565b7f4f6e6c7920565246436f6f7264696e61746f722063616e2066756c66696c6c00600082015250565b6000612d69601f836129a1565b9150612d7482612d33565b602082019050919050565b60006020820190508181036000830152612d9881612d5c565b9050919050565b7f4e487b7100000000000000000000000000000000000000000000000000000000600052603260045260246000fd5b600060208284031215612de457612de36121bf565b5b6000612df28482850161252e565b91505092915050565b7f6c616e6420696e646578206f7574206f662072616e6765000000000000000000600082015250565b6000612e316017836129a1565b9150612e3c82612dfb565b602082019050919050565b60006020820190508181036000830152612e6081612e24565b9050919050565b6000612e72826124e0565b915060ff821415612e8657612e85612af6565b5b600182019050919050565b600081905092915050565b7f416363657373436f6e74726f6c3a206163636f756e7420000000000000000000600082015250565b6000612ed2601783612e91565b9150612edd82612e9c565b601782019050919050565b600081519050919050565b60005b83811015612f11578082015181840152602081019050612ef6565b83811115612f20576000848401525b50505050565b6000612f3182612ee8565b612f3b8185612e91565b9350612f4b818560208601612ef3565b80840191505092915050565b7f206973206d697373696e6720726f6c6520000000000000000000000000000000600082015250565b6000612f8d601183612e91565b9150612f9882612f57565b601182019050919050565b6000612fae82612ec5565b9150612fba8285612f26565b9150612fc582612f80565b9150612fd18284612f26565b91508190509392505050565b6000612fe882612ee8565b612ff281856129a1565b9350613002818560208601612ef3565b61300b816126c8565b840191505092915050565b600060208201905081810360008301526130308184612fdd565b905092915050565b6130418161240b565b82525050565b600060208201905061305c6000830184613038565b92915050565b600081519050613071816122f2565b92915050565b60006020828403121561308d5761308c6121bf565b5b600061309b84828501613062565b91505092915050565b7f4e6f7420656e6f756768204c494e4b202d2066696c6c20636f6e74726163742060008201527f7769746820666175636574000000000000000000000000000000000000000000602082015250565b6000613100602b836129a1565b915061310b826130a4565b604082019050919050565b6000602082019050818103600083015261312f816130f3565b9050919050565b7f4e487b7100000000000000000000000000000000000000000000000000000000600052601260045260246000fd5b6000613170826122e8565b915061317b836122e8565b92508261318b5761318a613136565b5b828206905092915050565b60006131a1826124e0565b91506131ac836124e0565b92508260ff038211156131c2576131c1612af6565b5b828201905092915050565b60006131d8826124e0565b91506131e3836124e0565b9250826131f3576131f2613136565b5b828206905092915050565b6000613209826122e8565b9150613214836122e8565b9250817fffffffffffffffffffffffffffffffffffffffffffffffffffffffffffffffff048311821515161561324d5761324c612af6565b5b828202905092915050565b6000613263826122e8565b915061326e836122e8565b9250827fffffffffffffffffffffffffffffffffffffffffffffffffffffffffffffffff038211156132a3576132a2612af6565b5b828201905092915050565b60006132b9826122e8565b915060008214156132cd576132cc612af6565b5b600182039050919050565b7f537472696e67733a20686578206c656e67746820696e73756666696369656e74600082015250565b600061330e6020836129a1565b9150613319826132d8565b602082019050919050565b6000602082019050818103600083015261333d81613301565b9050919050565b600060408201905061335960008301856123c1565b6133666020830184612489565b9392505050565b600081519050919050565b600082825260208201905092915050565b60006133948261336d565b61339e8185613378565b93506133ae818560208601612ef3565b6133b7816126c8565b840191505092915050565b60006060820190506133d76000830186613038565b6133e46020830185612489565b81810360408301526133f68184613389565b9050949350505050565b60008151905061340f81612754565b92915050565b60006020828403121561342b5761342a6121bf565b5b600061343984828501613400565b91505092915050565b600060808201905061345760008301876123c1565b6134646020830186612489565b6134716040830185613038565b61347e6060830184612489565b95945050505050565b6000819050919050565b6134a261349d8261235e565b613487565b82525050565b6000819050919050565b6134c36134be826122e8565b6134a8565b82525050565b60006134d58285613491565b6020820191506134e582846134b2565b602082019150819050939250505056fea26469706673582212201c33baa9c0c34df0a6441d9e7a1245a4e669565e3f283db1a1e5aecb3fc5c31064736f6c634300080a0033",
  "immutableReferences": {
    "73": [
      {
        "length": 32,
        "start": 5336
      },
      {
        "length": 32,
        "start": 7341
      }
    ],
    "75": [
      {
        "length": 32,
        "start": 3410
      },
      {
        "length": 32,
        "start": 7401
      }
    ]
  },
  "source": "// Board.sol\r\n// SPDX-License-Identifier: MIT\r\npragma solidity 0.8.10;\r\n\r\nimport \"@openzeppelin/contracts/access/AccessControl.sol\";\r\nimport \"@chainlink/contracts/src/v0.8/VRFConsumerBase.sol\";\r\n\r\n/**\r\n * @title Board contract\r\n * @notice Implements game logic and board's features\r\n * @author Jerome Caporossi, Stphane Chaunard, Alexandre Gautier\r\n */\r\ncontract BoardContract is AccessControl, VRFConsumerBase {\r\n\t/// @dev structure used to store pawn's attribute\r\n\tstruct PawnInfo {\r\n\t\tuint256 random;\r\n\t\tuint8 position;\r\n\t\tbool isOnBoard;\r\n\t\tbool isPropertyBought;\r\n\t\tbool isRentPaid;\r\n\t\tbool isRoundCompleted;\r\n\t\tbool isInJail;\r\n\t\tbool isChanceCard;\r\n\t\tbool isCommunityCard;\r\n\t}\r\n\r\n\t/// @dev structure used to store pawn's attribute\r\n\tstruct BoardInfo {\r\n\t\tuint8 nbOfLands;\r\n\t\tuint8 rarityLevel;\r\n\t\tmapping(uint8 => bool) isPurchasable;\r\n\t\tmapping(uint256 => PawnInfo) pawns;\r\n\t\tuint16 nb_pawns_max;\r\n\t\tuint16 nb_pawns;\r\n\t}\r\n\r\n\t/// @dev structure used to store play attributes\r\n\tstruct PlayInfo {\r\n\t\tuint256 pawnID;\r\n\t\tuint16 edition;\r\n\t}\r\n\r\n\tbytes32 public constant ADMIN_ROLE = keccak256(\"ADMIN_ROLE\");\r\n\tbytes32 public constant MANAGER_ROLE = keccak256(\"MANAGER_ROLE\");\r\n\tbytes32 internal keyHash;\r\n\t/// @dev number of board editions\r\n\tuint16 private editionMax;\r\n\tuint256 public fee;\r\n\tuint256 public randomResult;\r\n\r\n\t/// @dev store all boards by edition number\r\n\tmapping(uint16 => BoardInfo) private boards;\r\n\t/// @dev store play information by requestID. Use for randomness\r\n\tmapping(bytes32 => PlayInfo) private playInfoByRequestId;\r\n\r\n\t/** Event emitted when a new board is created\r\n\t * @param new_edition_nb new board edition number*/\r\n\tevent BoardCreated(uint16 indexed new_edition_nb);\r\n\t/** Event emitted when a new pawn is registered on a board\r\n\t * @param _edition board edition number\r\n\t * @param _pawnID pawn's ID*/\r\n\tevent ePawn(uint16 indexed _edition, uint256 indexed _pawnID);\r\n\t/**\r\n     * @notice Event emitted when a random number is received by contract\r\n\t * @param requestId request id\r\n\t * @dev see fulfillRandomness()*/\r\n\tevent RandomReady(bytes32 requestId);\r\n\r\n\t/**\r\n     * @dev Constructor\r\n\t * @param _VRFCoordinator ChainLink VRFCoordinator contract address\r\n\t * @param _LinkToken LINK token address\r\n\t * @param _keyHash ChainLink keyHash parameter for VRF\r\n\t * @param _Chainlinkfee ChainLink fee for VRF*/\r\n\tconstructor(\r\n\t\taddress _VRFCoordinator,\r\n\t\taddress _LinkToken,\r\n\t\tbytes32 _keyHash,\r\n\t\tuint256 _Chainlinkfee\r\n\t) VRFConsumerBase(_VRFCoordinator, _LinkToken) {\r\n\t\tkeyHash = _keyHash;\r\n\t\tfee = _Chainlinkfee;\r\n\r\n\t\t_setupRole(ADMIN_ROLE, msg.sender);\r\n\t\t_setRoleAdmin(ADMIN_ROLE, ADMIN_ROLE);\r\n\t\t_setupRole(MANAGER_ROLE, msg.sender);\r\n\t\t_setRoleAdmin(MANAGER_ROLE, ADMIN_ROLE);\r\n\r\n\t\teditionMax = 0;\r\n\r\n\t\t// Paris edition (0)\r\n\t\tBoardInfo storage b = boards[0];\r\n\t\tb.nbOfLands = 40;\r\n\t\tb.nb_pawns_max = 1000;\r\n\t\tb.rarityLevel = 2;\r\n\r\n\t\tuint8[10] memory notPurchasableLands = [0, 2, 7, 10, 17, 20, 22, 30, 33, 36];\r\n\t\tfor (uint8 landID; landID < b.nbOfLands; landID++) {\r\n\t\t\tb.isPurchasable[landID] = true;\r\n\t\t\tfor (uint8 n; n < notPurchasableLands.length; n++) {\r\n\t\t\t\tif (landID == notPurchasableLands[n]) {\r\n\t\t\t\t\tb.isPurchasable[landID] = false;\r\n\t\t\t\t\tbreak;\r\n\t\t\t\t}\r\n\t\t\t}\r\n\t\t}\r\n\t}\r\n\r\n\t/** @dev Request a random number\r\n\t * @return requestId the id of the request for the oracle*/\r\n\tfunction requestRandomNumber() internal returns (bytes32 requestId) {\r\n\t\trequire(LINK.balanceOf(address(this)) >= fee, \"Not enough LINK - fill contract with faucet\");\r\n\t\trequestId = requestRandomness(keyHash, fee);\r\n\t}\r\n\r\n\t/**\r\n\t * @param requestId the id of the request for the oracle\r\n\t * @param randomness randomness must be requested from an oracle, which generates a number and a cryptographic proof\r\n\t * @dev Callback function used by ChainLink VRF Coordinator\r\n\t * @dev /!\\ Maximum Gas for Callback : If your fulfillRandomness function uses more than 200k gas, the transaction will fail.*/\r\n\tfunction fulfillRandomness(bytes32 requestId, uint256 randomness) internal override {\r\n\t\tPlayInfo storage p = playInfoByRequestId[requestId];\r\n\r\n\t\tboards[p.edition].pawns[p.pawnID].position += uint8(randomness % 11) + 2;\r\n\t\tboards[p.edition].pawns[p.pawnID].position %= boards[p.edition].nbOfLands;\r\n\t\tboards[p.edition].pawns[p.pawnID].random = randomness;\r\n\r\n\t\tboards[p.edition].pawns[p.pawnID].isPropertyBought = false;\r\n\t\tboards[p.edition].pawns[p.pawnID].isRentPaid = false;\r\n\t\tboards[p.edition].pawns[p.pawnID].isInJail = false;\r\n\t\tboards[p.edition].pawns[p.pawnID].isChanceCard = false;\r\n\t\tboards[p.edition].pawns[p.pawnID].isCommunityCard = false;\r\n\t\tboards[p.edition].pawns[p.pawnID].isRoundCompleted = true;\r\n\r\n\t\tgameStrategist(p.edition, p.pawnID, boards[p.edition].pawns[p.pawnID].position);\r\n\r\n\t\temit RandomReady(requestId);\r\n\t}\r\n\r\n\t/** @dev Game strategist\r\n\t * @param _edition board edition\r\n\t * @param _pawnID pawn ID*/\r\n\tfunction gameStrategist(uint16 _edition, uint256 _pawnID, uint8 _position) internal {\r\n\t\t// Purchasable lands\r\n\t\tif (boards[_edition].isPurchasable[_position]) {\r\n\t\t\tboards[_edition].pawns[_pawnID].isRoundCompleted = false;\r\n\r\n\t\t\treturn;\r\n\t\t}\r\n\r\n\t\t// Go to jail\r\n\t\tif (_position == 30) {\r\n\t\t\tboards[_edition].pawns[_pawnID].isInJail = true;\r\n\t\t\tboards[_edition].pawns[_pawnID].position = 10;\r\n\t\t\treturn;\r\n\t\t}\r\n\r\n\t\t// Free park\r\n\t\tif (_position == 20) {\r\n\t\t\treturn;\r\n\t\t}\r\n\r\n\t\t// Jail simple visit\r\n\t\tif (_position == 10) {\r\n\t\t\treturn;\r\n\t\t}\r\n\r\n\t\t// Chance card\r\n\t\tif (_position == 7 ||\r\n\t\t\t_position == 22 ||\r\n\t\t\t_position == 36\r\n\t\t) {\r\n\t\t\tboards[_edition].pawns[_pawnID].isChanceCard = true;\r\n\t\t\tboards[_edition].pawns[_pawnID].isRoundCompleted = false;\r\n\t\t\treturn;\r\n\t\t}\r\n\r\n\t\t// Community chest card\r\n\t\tif (_position == 2 ||\r\n\t\t\t_position == 17 ||\r\n\t\t\t_position == 33\r\n\t\t) {\r\n\t\t\tboards[_edition].pawns[_pawnID].isCommunityCard = true;\r\n\t\t\tboards[_edition].pawns[_pawnID].isRoundCompleted = false;\r\n\t\t\treturn;\r\n\t\t}\r\n\r\n\t\t// Go case\r\n\t\t// Nothing is implemented when a player pass over Go.\r\n\t}\r\n\r\n\t/** check if a land can be bought (PROP tokens available)\r\n\t * @param edition board edition\r\n\t * @param land cell number\r\n\t * @return true or false*/\r\n\tfunction isPurchasable(uint16 edition, uint8 land) external view returns (bool) {\r\n\t\treturn boards[edition].isPurchasable[land];\r\n\t}\r\n\r\n\t/** get the number of board editions\r\n\t * @return number of board editions*/\r\n\tfunction getMaxEdition() external view returns (uint16) {\r\n\t\treturn editionMax;\r\n\t}\r\n\r\n\t/** get the number of lands for a board edition\r\n\t * @param edition board edition\r\n\t * @return number of lands*/\r\n\tfunction getNbLands(uint16 edition) external view returns (uint8) {\r\n\t\treturn boards[edition].nbOfLands;\r\n\t}\r\n\r\n\t/** get the number of rarity level for a board edition\r\n\t * @param edition board edition\r\n\t * @return number of rarity levels*/\r\n\tfunction getRarityLevel(uint16 edition) external view returns (uint8) {\r\n\t\treturn boards[edition].rarityLevel;\r\n\t}\r\n\r\n\t/** create a new board\r\n\t * @param _nbOfLands number of lands\r\n\t * @param _rarityLevel number of rarity levels\r\n\t * @param _maxPawns max number of pawns allowed*/\r\n\tfunction newBoard(\r\n\t\tuint8 _nbOfLands,\r\n\t\tuint8 _rarityLevel,\r\n\t\tuint8[] calldata _purchasableLands,\r\n\t\tuint16 _maxPawns\r\n\t) public onlyRole(MANAGER_ROLE) {\r\n\t\teditionMax += 1;\r\n\t\tBoardInfo storage b = boards[editionMax];\r\n\t\tb.nbOfLands = _nbOfLands;\r\n\t\tb.rarityLevel = _rarityLevel;\r\n\t\tfor (uint8 index = 0; index < _purchasableLands.length; index++) {\r\n\t\t\trequire(_purchasableLands[index] < b.nbOfLands, \"land index out of range\");\r\n\t\t\tb.isPurchasable[_purchasableLands[index]] = true;\r\n\t\t}\r\n\r\n\t\tb.nb_pawns_max = _maxPawns;\r\n\r\n\t\temit BoardCreated(editionMax);\r\n\t}\r\n\r\n\t/** register a pawn on a board\r\n\t * @param _edition board edition\r\n\t * @param _pawnID pawn ID*/\r\n\tfunction register(uint16 _edition, uint256 _pawnID) external onlyRole(MANAGER_ROLE) returns (bool isOnBoarded) {\r\n\t\trequire(_edition <= editionMax, \"Unknown edition\");\r\n\t\trequire(boards[_edition].pawns[_pawnID].isOnBoard == false, \"pawn already registered\");\r\n\t\trequire(boards[_edition].nb_pawns < boards[_edition].nb_pawns_max, \"game is full\");\r\n\r\n\t\tboards[_edition].pawns[_pawnID].isOnBoard = true;\r\n\t\tboards[_edition].pawns[_pawnID].isRoundCompleted = true; // require to throw dices at the beginning\r\n\t\tboards[_edition].nb_pawns += 1;\r\n\r\n\t\temit ePawn(_edition, _pawnID);\r\n\r\n\t\treturn true;\r\n\t}\r\n\r\n\t/** check if a pawn is registered\r\n\t * @param _edition board edition\r\n\t * @param _pawnID pawn ID\r\n\t * @return true or false*/\r\n\tfunction isRegistered(uint16 _edition, uint256 _pawnID) public view returns (bool) {\r\n\t\treturn boards[_edition].pawns[_pawnID].isOnBoard;\r\n\t}\r\n\r\n\t/** play with a pawn\r\n\t * @param _edition board edition\r\n\t * @param _pawnID pawn ID*/\r\n\tfunction play(uint16 _edition, uint256 _pawnID) external onlyRole(MANAGER_ROLE) returns (bytes32 requestId) {\r\n\t\trequire(boards[_edition].pawns[_pawnID].isOnBoard, \"Unregistered pawn\");\r\n\t\trequire(boards[_edition].pawns[_pawnID].isRoundCompleted, \"Round not completed\");\r\n\r\n\t\trequestId = requestRandomNumber();\r\n\r\n\t\tPlayInfo storage p = playInfoByRequestId[requestId];\r\n\r\n\t\tp.edition = _edition;\r\n\t\tp.pawnID = _pawnID;\r\n\t}\r\n\r\n\t/** get Pawn information on a board\r\n\t * @param _edition board edition\r\n\t * @param _pawnID pawn ID\r\n\t * @return p Pawn information*/\r\n\tfunction getPawnInfo(uint16 _edition, uint256 _pawnID) external view returns (PawnInfo memory p) {\r\n\t\trequire(isRegistered(_edition, _pawnID), \"pawn has not been regsitered\");\r\n\t\treturn boards[_edition].pawns[_pawnID];\r\n\t}\r\n\r\n\t/** set Pawn information on a board\r\n\t * @param _edition board edition\r\n\t * @param _pawnID pawn ID\r\n\t * @param _pawnInfo pawn information*/\r\n\tfunction setPawnInfo(\r\n\t\tuint16 _edition,\r\n\t\tuint256 _pawnID,\r\n\t\tPawnInfo memory _pawnInfo\r\n\t)  external onlyRole(MANAGER_ROLE)  {\r\n\t\tboards[_edition].pawns[_pawnID] = _pawnInfo;\r\n\t}\r\n}\r\n",
  "sourcePath": "C:\\Users\\aaast\\Alyra\\mnp-trufflebox\\contracts\\Board.sol",
  "compiler": {
    "name": "solc",
    "version": "0.8.10+commit.fc410830.Emscripten.clang"
  },
  "schemaVersion": "3.4.3",
  "updatedAt": "2022-01-26T13:19:14.754Z",
  "networkType": "ethereum",
  "devdoc": {
    "author": "Jerome Caporossi, Stphane Chaunard, Alexandre Gautier",
    "events": {
      "BoardCreated(uint16)": {
        "params": {
          "new_edition_nb": "new board edition number"
        }
      },
      "RandomReady(bytes32)": {
        "details": "see fulfillRandomness()",
        "params": {
          "requestId": "request id"
        }
      },
      "ePawn(uint16,uint256)": {
        "params": {
          "_edition": "board edition number",
          "_pawnID": "pawn's ID"
        }
      }
    },
    "kind": "dev",
    "methods": {
      "constructor": {
        "details": "Constructor",
        "params": {
          "_Chainlinkfee": "ChainLink fee for VRF",
          "_LinkToken": "LINK token address",
          "_VRFCoordinator": "ChainLink VRFCoordinator contract address",
          "_keyHash": "ChainLink keyHash parameter for VRF"
        }
      },
      "getMaxEdition()": {
        "returns": {
          "_0": "number of board editions"
        }
      },
      "getNbLands(uint16)": {
        "params": {
          "edition": "board edition"
        },
        "returns": {
          "_0": "number of lands"
        }
      },
      "getPawnInfo(uint16,uint256)": {
        "params": {
          "_edition": "board edition",
          "_pawnID": "pawn ID"
        },
        "returns": {
          "p": "Pawn information"
        }
      },
      "getRarityLevel(uint16)": {
        "params": {
          "edition": "board edition"
        },
        "returns": {
          "_0": "number of rarity levels"
        }
      },
      "getRoleAdmin(bytes32)": {
        "details": "Returns the admin role that controls `role`. See {grantRole} and {revokeRole}. To change a role's admin, use {_setRoleAdmin}."
      },
      "grantRole(bytes32,address)": {
        "details": "Grants `role` to `account`. If `account` had not been already granted `role`, emits a {RoleGranted} event. Requirements: - the caller must have ``role``'s admin role."
      },
      "hasRole(bytes32,address)": {
        "details": "Returns `true` if `account` has been granted `role`."
      },
      "isPurchasable(uint16,uint8)": {
        "params": {
          "edition": "board edition",
          "land": "cell number"
        },
        "returns": {
          "_0": "true or false"
        }
      },
      "isRegistered(uint16,uint256)": {
        "params": {
          "_edition": "board edition",
          "_pawnID": "pawn ID"
        },
        "returns": {
          "_0": "true or false"
        }
      },
      "newBoard(uint8,uint8,uint8[],uint16)": {
        "params": {
          "_maxPawns": "max number of pawns allowed",
          "_nbOfLands": "number of lands",
          "_rarityLevel": "number of rarity levels"
        }
      },
      "play(uint16,uint256)": {
        "params": {
          "_edition": "board edition",
          "_pawnID": "pawn ID"
        }
      },
      "register(uint16,uint256)": {
        "params": {
          "_edition": "board edition",
          "_pawnID": "pawn ID"
        }
      },
      "renounceRole(bytes32,address)": {
        "details": "Revokes `role` from the calling account. Roles are often managed via {grantRole} and {revokeRole}: this function's purpose is to provide a mechanism for accounts to lose their privileges if they are compromised (such as when a trusted device is misplaced). If the calling account had been revoked `role`, emits a {RoleRevoked} event. Requirements: - the caller must be `account`."
      },
      "revokeRole(bytes32,address)": {
        "details": "Revokes `role` from `account`. If `account` had been granted `role`, emits a {RoleRevoked} event. Requirements: - the caller must have ``role``'s admin role."
      },
      "setPawnInfo(uint16,uint256,(uint256,uint8,bool,bool,bool,bool,bool,bool,bool))": {
        "params": {
          "_edition": "board edition",
          "_pawnID": "pawn ID",
          "_pawnInfo": "pawn information"
        }
      },
      "supportsInterface(bytes4)": {
        "details": "See {IERC165-supportsInterface}."
      }
    },
    "stateVariables": {
      "boards": {
        "details": "store all boards by edition number"
      },
      "editionMax": {
        "details": "number of board editions"
      },
      "playInfoByRequestId": {
        "details": "store play information by requestID. Use for randomness"
      }
    },
    "title": "Board contract",
    "version": 1
  },
  "userdoc": {
    "events": {
      "BoardCreated(uint16)": {
        "notice": "Event emitted when a new board is created"
      },
      "RandomReady(bytes32)": {
        "notice": "Event emitted when a random number is received by contract"
      },
      "ePawn(uint16,uint256)": {
        "notice": "Event emitted when a new pawn is registered on a board"
      }
    },
    "kind": "user",
    "methods": {
      "getMaxEdition()": {
        "notice": "get the number of board editions"
      },
      "getNbLands(uint16)": {
        "notice": "get the number of lands for a board edition"
      },
      "getPawnInfo(uint16,uint256)": {
        "notice": "get Pawn information on a board"
      },
      "getRarityLevel(uint16)": {
        "notice": "get the number of rarity level for a board edition"
      },
      "isPurchasable(uint16,uint8)": {
        "notice": "check if a land can be bought (PROP tokens available)"
      },
      "isRegistered(uint16,uint256)": {
        "notice": "check if a pawn is registered"
      },
      "newBoard(uint8,uint8,uint8[],uint16)": {
        "notice": "create a new board"
      },
      "play(uint16,uint256)": {
        "notice": "play with a pawn"
      },
      "register(uint16,uint256)": {
        "notice": "register a pawn on a board"
      },
      "setPawnInfo(uint16,uint256,(uint256,uint8,bool,bool,bool,bool,bool,bool,bool))": {
        "notice": "set Pawn information on a board"
      }
    },
    "notice": "Implements game logic and board's features",
    "version": 1
  }
}