{
  "contractName": "BoardContract",
  "abi": [
    {
      "inputs": [
        {
          "internalType": "address",
          "name": "_VRFCoordinator",
          "type": "address"
        },
        {
          "internalType": "address",
          "name": "_LinkToken",
          "type": "address"
        },
        {
          "internalType": "bytes32",
          "name": "_keyHash",
          "type": "bytes32"
        },
        {
          "internalType": "uint256",
          "name": "_Chainlinkfee",
          "type": "uint256"
        }
      ],
      "stateMutability": "nonpayable",
      "type": "constructor"
    },
    {
      "anonymous": false,
      "inputs": [
        {
          "indexed": true,
          "internalType": "uint16",
          "name": "new_edition_nb",
          "type": "uint16"
        }
      ],
      "name": "BoardCreated",
      "type": "event"
    },
    {
      "anonymous": false,
      "inputs": [
        {
          "indexed": false,
          "internalType": "bytes32",
          "name": "requestId",
          "type": "bytes32"
        }
      ],
      "name": "RandomReady",
      "type": "event"
    },
    {
      "anonymous": false,
      "inputs": [
        {
          "indexed": true,
          "internalType": "bytes32",
          "name": "role",
          "type": "bytes32"
        },
        {
          "indexed": true,
          "internalType": "bytes32",
          "name": "previousAdminRole",
          "type": "bytes32"
        },
        {
          "indexed": true,
          "internalType": "bytes32",
          "name": "newAdminRole",
          "type": "bytes32"
        }
      ],
      "name": "RoleAdminChanged",
      "type": "event"
    },
    {
      "anonymous": false,
      "inputs": [
        {
          "indexed": true,
          "internalType": "bytes32",
          "name": "role",
          "type": "bytes32"
        },
        {
          "indexed": true,
          "internalType": "address",
          "name": "account",
          "type": "address"
        },
        {
          "indexed": true,
          "internalType": "address",
          "name": "sender",
          "type": "address"
        }
      ],
      "name": "RoleGranted",
      "type": "event"
    },
    {
      "anonymous": false,
      "inputs": [
        {
          "indexed": true,
          "internalType": "bytes32",
          "name": "role",
          "type": "bytes32"
        },
        {
          "indexed": true,
          "internalType": "address",
          "name": "account",
          "type": "address"
        },
        {
          "indexed": true,
          "internalType": "address",
          "name": "sender",
          "type": "address"
        }
      ],
      "name": "RoleRevoked",
      "type": "event"
    },
    {
      "anonymous": false,
      "inputs": [
        {
          "indexed": true,
          "internalType": "uint16",
          "name": "_edition",
          "type": "uint16"
        },
        {
          "indexed": true,
          "internalType": "uint256",
          "name": "_pawnID",
          "type": "uint256"
        }
      ],
      "name": "ePawn",
      "type": "event"
    },
    {
      "inputs": [],
      "name": "ADMIN_ROLE",
      "outputs": [
        {
          "internalType": "bytes32",
          "name": "",
          "type": "bytes32"
        }
      ],
      "stateMutability": "view",
      "type": "function",
      "constant": true
    },
    {
      "inputs": [],
      "name": "DEFAULT_ADMIN_ROLE",
      "outputs": [
        {
          "internalType": "bytes32",
          "name": "",
          "type": "bytes32"
        }
      ],
      "stateMutability": "view",
      "type": "function",
      "constant": true
    },
    {
      "inputs": [],
      "name": "MANAGER_ROLE",
      "outputs": [
        {
          "internalType": "bytes32",
          "name": "",
          "type": "bytes32"
        }
      ],
      "stateMutability": "view",
      "type": "function",
      "constant": true
    },
    {
      "inputs": [],
      "name": "fee",
      "outputs": [
        {
          "internalType": "uint256",
          "name": "",
          "type": "uint256"
        }
      ],
      "stateMutability": "view",
      "type": "function",
      "constant": true
    },
    {
      "inputs": [
        {
          "internalType": "bytes32",
          "name": "role",
          "type": "bytes32"
        }
      ],
      "name": "getRoleAdmin",
      "outputs": [
        {
          "internalType": "bytes32",
          "name": "",
          "type": "bytes32"
        }
      ],
      "stateMutability": "view",
      "type": "function",
      "constant": true
    },
    {
      "inputs": [
        {
          "internalType": "bytes32",
          "name": "role",
          "type": "bytes32"
        },
        {
          "internalType": "address",
          "name": "account",
          "type": "address"
        }
      ],
      "name": "grantRole",
      "outputs": [],
      "stateMutability": "nonpayable",
      "type": "function"
    },
    {
      "inputs": [
        {
          "internalType": "bytes32",
          "name": "role",
          "type": "bytes32"
        },
        {
          "internalType": "address",
          "name": "account",
          "type": "address"
        }
      ],
      "name": "hasRole",
      "outputs": [
        {
          "internalType": "bool",
          "name": "",
          "type": "bool"
        }
      ],
      "stateMutability": "view",
      "type": "function",
      "constant": true
    },
    {
      "inputs": [],
      "name": "randomResult",
      "outputs": [
        {
          "internalType": "uint256",
          "name": "",
          "type": "uint256"
        }
      ],
      "stateMutability": "view",
      "type": "function",
      "constant": true
    },
    {
      "inputs": [
        {
          "internalType": "bytes32",
          "name": "requestId",
          "type": "bytes32"
        },
        {
          "internalType": "uint256",
          "name": "randomness",
          "type": "uint256"
        }
      ],
      "name": "rawFulfillRandomness",
      "outputs": [],
      "stateMutability": "nonpayable",
      "type": "function"
    },
    {
      "inputs": [
        {
          "internalType": "bytes32",
          "name": "role",
          "type": "bytes32"
        },
        {
          "internalType": "address",
          "name": "account",
          "type": "address"
        }
      ],
      "name": "renounceRole",
      "outputs": [],
      "stateMutability": "nonpayable",
      "type": "function"
    },
    {
      "inputs": [
        {
          "internalType": "bytes32",
          "name": "role",
          "type": "bytes32"
        },
        {
          "internalType": "address",
          "name": "account",
          "type": "address"
        }
      ],
      "name": "revokeRole",
      "outputs": [],
      "stateMutability": "nonpayable",
      "type": "function"
    },
    {
      "inputs": [
        {
          "internalType": "bytes4",
          "name": "interfaceId",
          "type": "bytes4"
        }
      ],
      "name": "supportsInterface",
      "outputs": [
        {
          "internalType": "bool",
          "name": "",
          "type": "bool"
        }
      ],
      "stateMutability": "view",
      "type": "function",
      "constant": true
    },
    {
      "inputs": [
        {
          "internalType": "uint16",
          "name": "edition",
          "type": "uint16"
        },
        {
          "internalType": "uint8",
          "name": "land",
          "type": "uint8"
        }
      ],
      "name": "isPurchasable",
      "outputs": [
        {
          "internalType": "bool",
          "name": "",
          "type": "bool"
        }
      ],
      "stateMutability": "view",
      "type": "function",
      "constant": true
    },
    {
      "inputs": [],
      "name": "getMaxEdition",
      "outputs": [
        {
          "internalType": "uint16",
          "name": "",
          "type": "uint16"
        }
      ],
      "stateMutability": "view",
      "type": "function",
      "constant": true
    },
    {
      "inputs": [
        {
          "internalType": "uint16",
          "name": "edition",
          "type": "uint16"
        }
      ],
      "name": "getNbLands",
      "outputs": [
        {
          "internalType": "uint8",
          "name": "",
          "type": "uint8"
        }
      ],
      "stateMutability": "view",
      "type": "function",
      "constant": true
    },
    {
      "inputs": [
        {
          "internalType": "uint16",
          "name": "edition",
          "type": "uint16"
        }
      ],
      "name": "getRarityLevel",
      "outputs": [
        {
          "internalType": "uint8",
          "name": "",
          "type": "uint8"
        }
      ],
      "stateMutability": "view",
      "type": "function",
      "constant": true
    },
    {
      "inputs": [
        {
          "internalType": "uint8",
          "name": "_nbOfLands",
          "type": "uint8"
        },
        {
          "internalType": "uint8",
          "name": "_rarityLevel",
          "type": "uint8"
        },
        {
          "internalType": "uint8[]",
          "name": "_purchasableLands",
          "type": "uint8[]"
        },
        {
          "internalType": "uint16",
          "name": "_maxPawns",
          "type": "uint16"
        }
      ],
      "name": "newBoard",
      "outputs": [],
      "stateMutability": "nonpayable",
      "type": "function"
    },
    {
      "inputs": [
        {
          "internalType": "uint16",
          "name": "_edition",
          "type": "uint16"
        },
        {
          "internalType": "uint256",
          "name": "_pawnID",
          "type": "uint256"
        }
      ],
      "name": "register",
      "outputs": [
        {
          "internalType": "bool",
          "name": "isOnBoarded",
          "type": "bool"
        }
      ],
      "stateMutability": "nonpayable",
      "type": "function"
    },
    {
      "inputs": [
        {
          "internalType": "uint16",
          "name": "_edition",
          "type": "uint16"
        },
        {
          "internalType": "uint256",
          "name": "_pawnID",
          "type": "uint256"
        }
      ],
      "name": "isRegistered",
      "outputs": [
        {
          "internalType": "bool",
          "name": "",
          "type": "bool"
        }
      ],
      "stateMutability": "view",
      "type": "function",
      "constant": true
    },
    {
      "inputs": [
        {
          "internalType": "uint16",
          "name": "_edition",
          "type": "uint16"
        },
        {
          "internalType": "uint256",
          "name": "_pawnID",
          "type": "uint256"
        }
      ],
      "name": "play",
      "outputs": [
        {
          "internalType": "bytes32",
          "name": "requestId",
          "type": "bytes32"
        }
      ],
      "stateMutability": "nonpayable",
      "type": "function"
    },
    {
      "inputs": [
        {
          "internalType": "uint16",
          "name": "_edition",
          "type": "uint16"
        },
        {
          "internalType": "uint256",
          "name": "_pawnID",
          "type": "uint256"
        }
      ],
      "name": "getPawnInfo",
      "outputs": [
        {
          "components": [
            {
              "internalType": "uint256",
              "name": "random",
              "type": "uint256"
            },
            {
              "internalType": "uint8",
              "name": "position",
              "type": "uint8"
            },
            {
              "internalType": "bool",
              "name": "isOnBoard",
              "type": "bool"
            },
            {
              "internalType": "bool",
              "name": "isPropertyBought",
              "type": "bool"
            },
            {
              "internalType": "bool",
              "name": "isRentPaid",
              "type": "bool"
            },
            {
              "internalType": "bool",
              "name": "isRoundCompleted",
              "type": "bool"
            }
          ],
          "internalType": "struct BoardContract.PawnInfo",
          "name": "p",
          "type": "tuple"
        }
      ],
      "stateMutability": "view",
      "type": "function",
      "constant": true
    },
    {
      "inputs": [
        {
          "internalType": "uint16",
          "name": "_edition",
          "type": "uint16"
        },
        {
          "internalType": "uint256",
          "name": "_pawnID",
          "type": "uint256"
        },
        {
          "components": [
            {
              "internalType": "uint256",
              "name": "random",
              "type": "uint256"
            },
            {
              "internalType": "uint8",
              "name": "position",
              "type": "uint8"
            },
            {
              "internalType": "bool",
              "name": "isOnBoard",
              "type": "bool"
            },
            {
              "internalType": "bool",
              "name": "isPropertyBought",
              "type": "bool"
            },
            {
              "internalType": "bool",
              "name": "isRentPaid",
              "type": "bool"
            },
            {
              "internalType": "bool",
              "name": "isRoundCompleted",
              "type": "bool"
            }
          ],
          "internalType": "struct BoardContract.PawnInfo",
          "name": "_pawnInfo",
          "type": "tuple"
        }
      ],
      "name": "setPawnInfo",
      "outputs": [],
      "stateMutability": "nonpayable",
      "type": "function"
    }
  ],
  "bytecode": "0x60c06040523480156200001157600080fd5b50604051620037a5380380620037a5833981810160405281019062000037919062000683565b83838173ffffffffffffffffffffffffffffffffffffffff1660a08173ffffffffffffffffffffffffffffffffffffffff16815250508073ffffffffffffffffffffffffffffffffffffffff1660808173ffffffffffffffffffffffffffffffffffffffff168152505050508160028190555080600481905550620000e37fa49807205ce4d355092ef5a8a18f56e8913cf4a201fbe287825b095693c2177533620003a860201b60201c565b620001157fa49807205ce4d355092ef5a8a18f56e8913cf4a201fbe287825b095693c2177580620003be60201b60201c565b620001477f241ecf16d79d0f8dbfb92cbc07fe17840425976cf0667f022fe9877caa831b0833620003a860201b60201c565b620001997f241ecf16d79d0f8dbfb92cbc07fe17840425976cf0667f022fe9877caa831b087fa49807205ce4d355092ef5a8a18f56e8913cf4a201fbe287825b095693c21775620003be60201b60201c565b6000600360006101000a81548161ffff021916908361ffff1602179055506000600660008061ffff168152602001908152602001600020905060288160000160006101000a81548160ff021916908360ff1602179055506103e88160030160006101000a81548161ffff021916908361ffff16021790555060028160000160016101000a81548160ff021916908360ff1602179055506000604051806101400160405280600060ff168152602001600260ff168152602001600760ff168152602001600a60ff168152602001601160ff168152602001601460ff168152602001601660ff168152602001601e60ff168152602001602160ff168152602001602460ff16815250905060005b8260000160009054906101000a900460ff1660ff168160ff1610156200039b5760018360010160008360ff1660ff16815260200190815260200160002060006101000a81548160ff02191690831515021790555060005b600a8160ff1610156200038457828160ff16600a8110620003215762000320620006f5565b5b602002015160ff168260ff1614156200036e5760008460010160008460ff1660ff16815260200190815260200160002060006101000a81548160ff02191690831515021790555062000384565b80806200037b9062000760565b915050620002fb565b508080620003929062000760565b915050620002a4565b505050505050506200078f565b620003ba82826200042160201b60201c565b5050565b6000620003d1836200051260201b60201c565b905081600080858152602001908152602001600020600101819055508181847fbd79b86ffe0ab8e8776151514217cd7cacd52c909f66475c3af44e129f0b00ff60405160405180910390a4505050565b6200043382826200053160201b60201c565b6200050e57600160008084815260200190815260200160002060000160008373ffffffffffffffffffffffffffffffffffffffff1673ffffffffffffffffffffffffffffffffffffffff16815260200190815260200160002060006101000a81548160ff021916908315150217905550620004b36200059b60201b60201c565b73ffffffffffffffffffffffffffffffffffffffff168173ffffffffffffffffffffffffffffffffffffffff16837f2f8788117e7eff1d82e926ec794901d17c78024a50270940304540a733656f0d60405160405180910390a45b5050565b6000806000838152602001908152602001600020600101549050919050565b600080600084815260200190815260200160002060000160008373ffffffffffffffffffffffffffffffffffffffff1673ffffffffffffffffffffffffffffffffffffffff16815260200190815260200160002060009054906101000a900460ff16905092915050565b600033905090565b600080fd5b600073ffffffffffffffffffffffffffffffffffffffff82169050919050565b6000620005d582620005a8565b9050919050565b620005e781620005c8565b8114620005f357600080fd5b50565b6000815190506200060781620005dc565b92915050565b6000819050919050565b62000622816200060d565b81146200062e57600080fd5b50565b600081519050620006428162000617565b92915050565b6000819050919050565b6200065d8162000648565b81146200066957600080fd5b50565b6000815190506200067d8162000652565b92915050565b60008060008060808587031215620006a0576200069f620005a3565b5b6000620006b087828801620005f6565b9450506020620006c387828801620005f6565b9350506040620006d68782880162000631565b9250506060620006e9878288016200066c565b91505092959194509250565b7f4e487b7100000000000000000000000000000000000000000000000000000000600052603260045260246000fd5b7f4e487b7100000000000000000000000000000000000000000000000000000000600052601160045260246000fd5b600060ff82169050919050565b60006200076d8262000753565b915060ff82141562000784576200078362000724565b5b600182019050919050565b60805160a051612fe2620007c360003960008181610ea00152611b270152600081816114af0152611aeb0152612fe26000f3fe608060405234801561001057600080fd5b50600436106101425760003560e01c80636ae620c1116100b857806394985ddd1161007c57806394985ddd146103d5578063a1b0a7e3146103f1578063a217fddf1461040d578063d547741f1461042b578063ddca3f4314610447578063ec87621c1461046557610142565b80636ae620c11461030b5780636f3480ac1461033b578063713887671461036b57806375b238fc1461038757806391d14854146103a557610142565b80632f2ff15d1161010a5780632f2ff15d1461022557806336568abe1461024157806342619f661461025d57806351cd797d1461027b57806358f05b3a146102ab5780635f91c06a146102db57610142565b806301ffc9a7146101475780631372526f14610177578063155f205814610195578063248a9ca3146101c557806326e0fc1f146101f5575b600080fd5b610161600480360381019061015c9190611d55565b610483565b60405161016e9190611d9d565b60405180910390f35b61017f6104fd565b60405161018c9190611dd5565b60405180910390f35b6101af60048036038101906101aa9190611e52565b610515565b6040516101bc9190611d9d565b60405180910390f35b6101df60048036038101906101da9190611ec8565b61055f565b6040516101ec9190611f04565b60405180910390f35b61020f600480360381019061020a9190611e52565b61057e565b60405161021c9190611d9d565b60405180910390f35b61023f600480360381019061023a9190611f7d565b61085e565b005b61025b60048036038101906102569190611f7d565b610887565b005b61026561090a565b6040516102729190611fcc565b60405180910390f35b61029560048036038101906102909190611fe7565b610910565b6040516102a29190612030565b60405180910390f35b6102c560048036038101906102c09190611e52565b610945565b6040516102d29190611f04565b60405180910390f35b6102f560048036038101906102f09190612077565b610b52565b6040516103029190611d9d565b60405180910390f35b61032560048036038101906103209190611e52565b610b9f565b604051610332919061215f565b60405180910390f35b61035560048036038101906103509190611fe7565b610cc5565b6040516103629190612030565b60405180910390f35b610385600480360381019061038091906122d7565b610cfa565b005b61038f610e10565b60405161039c9190611f04565b60405180910390f35b6103bf60048036038101906103ba9190611f7d565b610e34565b6040516103cc9190611d9d565b60405180910390f35b6103ef60048036038101906103ea919061232b565b610e9e565b005b61040b600480360381019061040691906123d0565b610f3a565b005b61041561117e565b6040516104229190611f04565b60405180910390f35b61044560048036038101906104409190611f7d565b611185565b005b61044f6111ae565b60405161045c9190611fcc565b60405180910390f35b61046d6111b4565b60405161047a9190611f04565b60405180910390f35b60007f7965db0b000000000000000000000000000000000000000000000000000000007bffffffffffffffffffffffffffffffffffffffffffffffffffffffff1916827bffffffffffffffffffffffffffffffffffffffffffffffffffffffff191614806104f657506104f5826111d8565b5b9050919050565b6000600360009054906101000a900461ffff16905090565b6000600660008461ffff1661ffff168152602001908152602001600020600201600083815260200190815260200160002060010160019054906101000a900460ff16905092915050565b6000806000838152602001908152602001600020600101549050919050565b60007f241ecf16d79d0f8dbfb92cbc07fe17840425976cf0667f022fe9877caa831b086105b2816105ad611242565b61124a565b600360009054906101000a900461ffff1661ffff168461ffff16111561060d576040517f08c379a0000000000000000000000000000000000000000000000000000000008152600401610604906124b5565b60405180910390fd5b60001515600660008661ffff1661ffff168152602001908152602001600020600201600085815260200190815260200160002060010160019054906101000a900460ff16151514610693576040517f08c379a000000000000000000000000000000000000000000000000000000000815260040161068a90612521565b60405180910390fd5b600660008561ffff1661ffff16815260200190815260200160002060030160009054906101000a900461ffff1661ffff16600660008661ffff1661ffff16815260200190815260200160002060030160029054906101000a900461ffff1661ffff1610610735576040517f08c379a000000000000000000000000000000000000000000000000000000000815260040161072c9061258d565b60405180910390fd5b6001600660008661ffff1661ffff168152602001908152602001600020600201600085815260200190815260200160002060010160016101000a81548160ff0219169083151502179055506001600660008661ffff1661ffff168152602001908152602001600020600201600085815260200190815260200160002060010160046101000a81548160ff0219169083151502179055506001600660008661ffff1661ffff16815260200190815260200160002060030160028282829054906101000a900461ffff1661080791906125dc565b92506101000a81548161ffff021916908361ffff160217905550828461ffff167fe4e52554bc27cb4b0f5650e1dbabf0b9a745d65467f38831460f0db7fef2a13e60405160405180910390a3600191505092915050565b6108678261055f565b61087881610873611242565b61124a565b61088283836112e7565b505050565b61088f611242565b73ffffffffffffffffffffffffffffffffffffffff168173ffffffffffffffffffffffffffffffffffffffff16146108fc576040517f08c379a00000000000000000000000000000000000000000000000000000000081526004016108f390612686565b60405180910390fd5b61090682826113c7565b5050565b60055481565b6000600660008361ffff1661ffff16815260200190815260200160002060000160009054906101000a900460ff169050919050565b60007f241ecf16d79d0f8dbfb92cbc07fe17840425976cf0667f022fe9877caa831b0861097981610974611242565b61124a565b600660008561ffff1661ffff168152602001908152602001600020600201600084815260200190815260200160002060010160019054906101000a900460ff166109f8576040517f08c379a00000000000000000000000000000000000000000000000000000000081526004016109ef906126f2565b60405180910390fd5b600660008561ffff1661ffff1681526020019081526020016000206001016000600660008761ffff1661ffff168152602001908152602001600020600201600086815260200190815260200160002060010160009054906101000a900460ff1660ff1660ff16815260200190815260200160002060009054906101000a900460ff161580610ac25750600660008561ffff1661ffff168152602001908152602001600020600201600084815260200190815260200160002060010160049054906101000a900460ff165b610b01576040517f08c379a0000000000000000000000000000000000000000000000000000000008152600401610af89061275e565b60405180910390fd5b610b096114a8565b91506000600760008481526020019081526020016000209050848160010160006101000a81548161ffff021916908361ffff160217905550838160000181905550505092915050565b6000600660008461ffff1661ffff16815260200190815260200160002060010160008360ff1660ff16815260200190815260200160002060009054906101000a900460ff16905092915050565b610ba7611ca8565b610bb18383610515565b610bf0576040517f08c379a0000000000000000000000000000000000000000000000000000000008152600401610be7906127ca565b60405180910390fd5b600660008461ffff1661ffff16815260200190815260200160002060020160008381526020019081526020016000206040518060c0016040529081600082015481526020016001820160009054906101000a900460ff1660ff1660ff1681526020016001820160019054906101000a900460ff161515151581526020016001820160029054906101000a900460ff161515151581526020016001820160039054906101000a900460ff161515151581526020016001820160049054906101000a900460ff161515151581525050905092915050565b6000600660008361ffff1661ffff16815260200190815260200160002060000160019054906101000a900460ff169050919050565b7f241ecf16d79d0f8dbfb92cbc07fe17840425976cf0667f022fe9877caa831b08610d2c81610d27611242565b61124a565b81600660008661ffff1661ffff16815260200190815260200160002060020160008581526020019081526020016000206000820151816000015560208201518160010160006101000a81548160ff021916908360ff16021790555060408201518160010160016101000a81548160ff02191690831515021790555060608201518160010160026101000a81548160ff02191690831515021790555060808201518160010160036101000a81548160ff02191690831515021790555060a08201518160010160046101000a81548160ff02191690831515021790555090505050505050565b7fa49807205ce4d355092ef5a8a18f56e8913cf4a201fbe287825b095693c2177581565b600080600084815260200190815260200160002060000160008373ffffffffffffffffffffffffffffffffffffffff1673ffffffffffffffffffffffffffffffffffffffff16815260200190815260200160002060009054906101000a900460ff16905092915050565b7f000000000000000000000000000000000000000000000000000000000000000073ffffffffffffffffffffffffffffffffffffffff163373ffffffffffffffffffffffffffffffffffffffff1614610f2c576040517f08c379a0000000000000000000000000000000000000000000000000000000008152600401610f2390612836565b60405180910390fd5b610f36828261159b565b5050565b7f241ecf16d79d0f8dbfb92cbc07fe17840425976cf0667f022fe9877caa831b08610f6c81610f67611242565b61124a565b6001600360008282829054906101000a900461ffff16610f8c91906125dc565b92506101000a81548161ffff021916908361ffff160217905550600060066000600360009054906101000a900461ffff1661ffff1661ffff1681526020019081526020016000209050868160000160006101000a81548160ff021916908360ff160217905550858160000160016101000a81548160ff021916908360ff16021790555060005b858590508160ff161015611114578160000160009054906101000a900460ff1660ff1686868360ff1681811061104b5761104a612856565b5b90506020020160208101906110609190612885565b60ff16106110a3576040517f08c379a000000000000000000000000000000000000000000000000000000000815260040161109a906128fe565b60405180910390fd5b600182600101600088888560ff168181106110c1576110c0612856565b5b90506020020160208101906110d69190612885565b60ff1660ff16815260200190815260200160002060006101000a81548160ff021916908315150217905550808061110c9061291e565b915050611012565b50828160030160006101000a81548161ffff021916908361ffff160217905550600360009054906101000a900461ffff1661ffff167fb8fd28a374892893a747126e5d39b5e91f773bc968c40a5f1340ea21374e2eee60405160405180910390a250505050505050565b6000801b81565b61118e8261055f565b61119f8161119a611242565b61124a565b6111a983836113c7565b505050565b60045481565b7f241ecf16d79d0f8dbfb92cbc07fe17840425976cf0667f022fe9877caa831b0881565b60007f01ffc9a7000000000000000000000000000000000000000000000000000000007bffffffffffffffffffffffffffffffffffffffffffffffffffffffff1916827bffffffffffffffffffffffffffffffffffffffffffffffffffffffff1916149050919050565b600033905090565b6112548282610e34565b6112e3576112798173ffffffffffffffffffffffffffffffffffffffff1660146118ab565b6112878360001c60206118ab565b604051602001611298929190612a5a565b6040516020818303038152906040526040517f08c379a00000000000000000000000000000000000000000000000000000000081526004016112da9190612acd565b60405180910390fd5b5050565b6112f18282610e34565b6113c357600160008084815260200190815260200160002060000160008373ffffffffffffffffffffffffffffffffffffffff1673ffffffffffffffffffffffffffffffffffffffff16815260200190815260200160002060006101000a81548160ff021916908315150217905550611368611242565b73ffffffffffffffffffffffffffffffffffffffff168173ffffffffffffffffffffffffffffffffffffffff16837f2f8788117e7eff1d82e926ec794901d17c78024a50270940304540a733656f0d60405160405180910390a45b5050565b6113d18282610e34565b156114a457600080600084815260200190815260200160002060000160008373ffffffffffffffffffffffffffffffffffffffff1673ffffffffffffffffffffffffffffffffffffffff16815260200190815260200160002060006101000a81548160ff021916908315150217905550611449611242565b73ffffffffffffffffffffffffffffffffffffffff168173ffffffffffffffffffffffffffffffffffffffff16837ff6391f5c32d9c69d2a47ea670b442974b53935d1edc7fd64eb21e047a839171b60405160405180910390a45b5050565b60006004547f000000000000000000000000000000000000000000000000000000000000000073ffffffffffffffffffffffffffffffffffffffff166370a08231306040518263ffffffff1660e01b81526004016115069190612afe565b602060405180830381865afa158015611523573d6000803e3d6000fd5b505050506040513d601f19601f820116820180604052508101906115479190612b2e565b1015611588576040517f08c379a000000000000000000000000000000000000000000000000000000000815260040161157f90612bcd565b60405180910390fd5b611596600254600454611ae7565b905090565b60006007600084815260200190815260200160002090506002600b836115c19190612c1c565b6115cb9190612c4d565b600660008360010160009054906101000a900461ffff1661ffff1661ffff16815260200190815260200160002060020160008360000154815260200190815260200160002060010160008282829054906101000a900460ff1661162e9190612c4d565b92506101000a81548160ff021916908360ff160217905550600660008260010160009054906101000a900461ffff1661ffff1661ffff16815260200190815260200160002060000160009054906101000a900460ff16600660008360010160009054906101000a900461ffff1661ffff1661ffff16815260200190815260200160002060020160008360000154815260200190815260200160002060010160008282829054906101000a900460ff166116e79190612c84565b92506101000a81548160ff021916908360ff16021790555081600660008360010160009054906101000a900461ffff1661ffff1661ffff168152602001908152602001600020600201600083600001548152602001908152602001600020600001819055506000600660008360010160009054906101000a900461ffff1661ffff1661ffff16815260200190815260200160002060020160008360000154815260200190815260200160002060010160026101000a81548160ff0219169083151502179055506000600660008360010160009054906101000a900461ffff1661ffff1661ffff16815260200190815260200160002060020160008360000154815260200190815260200160002060010160036101000a81548160ff0219169083151502179055506000600660008360010160009054906101000a900461ffff1661ffff1661ffff16815260200190815260200160002060020160008360000154815260200190815260200160002060010160046101000a81548160ff0219169083151502179055507f1954c6845304788fb449c20d6a568c6672d0d11585f9d8f32673fba15c9cbf228360405161189e9190611f04565b60405180910390a1505050565b6060600060028360026118be9190612cb5565b6118c89190612d0f565b67ffffffffffffffff8111156118e1576118e0612190565b5b6040519080825280601f01601f1916602001820160405280156119135781602001600182028036833780820191505090505b5090507f30000000000000000000000000000000000000000000000000000000000000008160008151811061194b5761194a612856565b5b60200101907effffffffffffffffffffffffffffffffffffffffffffffffffffffffffffff1916908160001a9053507f7800000000000000000000000000000000000000000000000000000000000000816001815181106119af576119ae612856565b5b60200101907effffffffffffffffffffffffffffffffffffffffffffffffffffffffffffff1916908160001a905350600060018460026119ef9190612cb5565b6119f99190612d0f565b90505b6001811115611a99577f3031323334353637383961626364656600000000000000000000000000000000600f861660108110611a3b57611a3a612856565b5b1a60f81b828281518110611a5257611a51612856565b5b60200101907effffffffffffffffffffffffffffffffffffffffffffffffffffffffffffff1916908160001a905350600485901c945080611a9290612d65565b90506119fc565b5060008414611add576040517f08c379a0000000000000000000000000000000000000000000000000000000008152600401611ad490612ddb565b60405180910390fd5b8091505092915050565b60007f000000000000000000000000000000000000000000000000000000000000000073ffffffffffffffffffffffffffffffffffffffff16634000aea07f000000000000000000000000000000000000000000000000000000000000000084866000604051602001611b5b929190612dfb565b6040516020818303038152906040526040518463ffffffff1660e01b8152600401611b8893929190612e79565b6020604051808303816000875af1158015611ba7573d6000803e3d6000fd5b505050506040513d601f19601f82011682018060405250810190611bcb9190612ecc565b506000611bee846000306001600089815260200190815260200160002054611c39565b9050600180600086815260200190815260200160002054611c0f9190612d0f565b6001600086815260200190815260200160002081905550611c308482611c75565b91505092915050565b600084848484604051602001611c529493929190612ef9565b6040516020818303038152906040528051906020012060001c9050949350505050565b60008282604051602001611c8a929190612f80565b60405160208183030381529060405280519060200120905092915050565b6040518060c0016040528060008152602001600060ff1681526020016000151581526020016000151581526020016000151581526020016000151581525090565b6000604051905090565b600080fd5b600080fd5b60007fffffffff0000000000000000000000000000000000000000000000000000000082169050919050565b611d3281611cfd565b8114611d3d57600080fd5b50565b600081359050611d4f81611d29565b92915050565b600060208284031215611d6b57611d6a611cf3565b5b6000611d7984828501611d40565b91505092915050565b60008115159050919050565b611d9781611d82565b82525050565b6000602082019050611db26000830184611d8e565b92915050565b600061ffff82169050919050565b611dcf81611db8565b82525050565b6000602082019050611dea6000830184611dc6565b92915050565b611df981611db8565b8114611e0457600080fd5b50565b600081359050611e1681611df0565b92915050565b6000819050919050565b611e2f81611e1c565b8114611e3a57600080fd5b50565b600081359050611e4c81611e26565b92915050565b60008060408385031215611e6957611e68611cf3565b5b6000611e7785828601611e07565b9250506020611e8885828601611e3d565b9150509250929050565b6000819050919050565b611ea581611e92565b8114611eb057600080fd5b50565b600081359050611ec281611e9c565b92915050565b600060208284031215611ede57611edd611cf3565b5b6000611eec84828501611eb3565b91505092915050565b611efe81611e92565b82525050565b6000602082019050611f196000830184611ef5565b92915050565b600073ffffffffffffffffffffffffffffffffffffffff82169050919050565b6000611f4a82611f1f565b9050919050565b611f5a81611f3f565b8114611f6557600080fd5b50565b600081359050611f7781611f51565b92915050565b60008060408385031215611f9457611f93611cf3565b5b6000611fa285828601611eb3565b9250506020611fb385828601611f68565b9150509250929050565b611fc681611e1c565b82525050565b6000602082019050611fe16000830184611fbd565b92915050565b600060208284031215611ffd57611ffc611cf3565b5b600061200b84828501611e07565b91505092915050565b600060ff82169050919050565b61202a81612014565b82525050565b60006020820190506120456000830184612021565b92915050565b61205481612014565b811461205f57600080fd5b50565b6000813590506120718161204b565b92915050565b6000806040838503121561208e5761208d611cf3565b5b600061209c85828601611e07565b92505060206120ad85828601612062565b9150509250929050565b6120c081611e1c565b82525050565b6120cf81612014565b82525050565b6120de81611d82565b82525050565b60c0820160008201516120fa60008501826120b7565b50602082015161210d60208501826120c6565b50604082015161212060408501826120d5565b50606082015161213360608501826120d5565b50608082015161214660808501826120d5565b5060a082015161215960a08501826120d5565b50505050565b600060c08201905061217460008301846120e4565b92915050565b600080fd5b6000601f19601f8301169050919050565b7f4e487b7100000000000000000000000000000000000000000000000000000000600052604160045260246000fd5b6121c88261217f565b810181811067ffffffffffffffff821117156121e7576121e6612190565b5b80604052505050565b60006121fa611ce9565b905061220682826121bf565b919050565b61221481611d82565b811461221f57600080fd5b50565b6000813590506122318161220b565b92915050565b600060c0828403121561224d5761224c61217a565b5b61225760c06121f0565b9050600061226784828501611e3d565b600083015250602061227b84828501612062565b602083015250604061228f84828501612222565b60408301525060606122a384828501612222565b60608301525060806122b784828501612222565b60808301525060a06122cb84828501612222565b60a08301525092915050565b600080600061010084860312156122f1576122f0611cf3565b5b60006122ff86828701611e07565b935050602061231086828701611e3d565b925050604061232186828701612237565b9150509250925092565b6000806040838503121561234257612341611cf3565b5b600061235085828601611eb3565b925050602061236185828601611e3d565b9150509250929050565b600080fd5b600080fd5b600080fd5b60008083601f8401126123905761238f61236b565b5b8235905067ffffffffffffffff8111156123ad576123ac612370565b5b6020830191508360208202830111156123c9576123c8612375565b5b9250929050565b6000806000806000608086880312156123ec576123eb611cf3565b5b60006123fa88828901612062565b955050602061240b88828901612062565b945050604086013567ffffffffffffffff81111561242c5761242b611cf8565b5b6124388882890161237a565b9350935050606061244b88828901611e07565b9150509295509295909350565b600082825260208201905092915050565b7f556e6b6e6f776e2065646974696f6e0000000000000000000000000000000000600082015250565b600061249f600f83612458565b91506124aa82612469565b602082019050919050565b600060208201905081810360008301526124ce81612492565b9050919050565b7f7061776e20616c72656164792072656769737465726564000000000000000000600082015250565b600061250b601783612458565b9150612516826124d5565b602082019050919050565b6000602082019050818103600083015261253a816124fe565b9050919050565b7f67616d652069732066756c6c0000000000000000000000000000000000000000600082015250565b6000612577600c83612458565b915061258282612541565b602082019050919050565b600060208201905081810360008301526125a68161256a565b9050919050565b7f4e487b7100000000000000000000000000000000000000000000000000000000600052601160045260246000fd5b60006125e782611db8565b91506125f283611db8565b92508261ffff03821115612609576126086125ad565b5b828201905092915050565b7f416363657373436f6e74726f6c3a2063616e206f6e6c792072656e6f756e636560008201527f20726f6c657320666f722073656c660000000000000000000000000000000000602082015250565b6000612670602f83612458565b915061267b82612614565b604082019050919050565b6000602082019050818103600083015261269f81612663565b9050919050565b7f556e72656769737465726564207061776e000000000000000000000000000000600082015250565b60006126dc601183612458565b91506126e7826126a6565b602082019050919050565b6000602082019050818103600083015261270b816126cf565b9050919050565b7f526f756e64206e6f7420636f6d706c6574656400000000000000000000000000600082015250565b6000612748601383612458565b915061275382612712565b602082019050919050565b600060208201905081810360008301526127778161273b565b9050919050565b7f7061776e20686173206e6f74206265656e207265677369746572656400000000600082015250565b60006127b4601c83612458565b91506127bf8261277e565b602082019050919050565b600060208201905081810360008301526127e3816127a7565b9050919050565b7f4f6e6c7920565246436f6f7264696e61746f722063616e2066756c66696c6c00600082015250565b6000612820601f83612458565b915061282b826127ea565b602082019050919050565b6000602082019050818103600083015261284f81612813565b9050919050565b7f4e487b7100000000000000000000000000000000000000000000000000000000600052603260045260246000fd5b60006020828403121561289b5761289a611cf3565b5b60006128a984828501612062565b91505092915050565b7f6c616e6420696e646578206f7574206f662072616e6765000000000000000000600082015250565b60006128e8601783612458565b91506128f3826128b2565b602082019050919050565b60006020820190508181036000830152612917816128db565b9050919050565b600061292982612014565b915060ff82141561293d5761293c6125ad565b5b600182019050919050565b600081905092915050565b7f416363657373436f6e74726f6c3a206163636f756e7420000000000000000000600082015250565b6000612989601783612948565b915061299482612953565b601782019050919050565b600081519050919050565b60005b838110156129c85780820151818401526020810190506129ad565b838111156129d7576000848401525b50505050565b60006129e88261299f565b6129f28185612948565b9350612a028185602086016129aa565b80840191505092915050565b7f206973206d697373696e6720726f6c6520000000000000000000000000000000600082015250565b6000612a44601183612948565b9150612a4f82612a0e565b601182019050919050565b6000612a658261297c565b9150612a7182856129dd565b9150612a7c82612a37565b9150612a8882846129dd565b91508190509392505050565b6000612a9f8261299f565b612aa98185612458565b9350612ab98185602086016129aa565b612ac28161217f565b840191505092915050565b60006020820190508181036000830152612ae78184612a94565b905092915050565b612af881611f3f565b82525050565b6000602082019050612b136000830184612aef565b92915050565b600081519050612b2881611e26565b92915050565b600060208284031215612b4457612b43611cf3565b5b6000612b5284828501612b19565b91505092915050565b7f4e6f7420656e6f756768204c494e4b202d2066696c6c20636f6e74726163742060008201527f7769746820666175636574000000000000000000000000000000000000000000602082015250565b6000612bb7602b83612458565b9150612bc282612b5b565b604082019050919050565b60006020820190508181036000830152612be681612baa565b9050919050565b7f4e487b7100000000000000000000000000000000000000000000000000000000600052601260045260246000fd5b6000612c2782611e1c565b9150612c3283611e1c565b925082612c4257612c41612bed565b5b828206905092915050565b6000612c5882612014565b9150612c6383612014565b92508260ff03821115612c7957612c786125ad565b5b828201905092915050565b6000612c8f82612014565b9150612c9a83612014565b925082612caa57612ca9612bed565b5b828206905092915050565b6000612cc082611e1c565b9150612ccb83611e1c565b9250817fffffffffffffffffffffffffffffffffffffffffffffffffffffffffffffffff0483118215151615612d0457612d036125ad565b5b828202905092915050565b6000612d1a82611e1c565b9150612d2583611e1c565b9250827fffffffffffffffffffffffffffffffffffffffffffffffffffffffffffffffff03821115612d5a57612d596125ad565b5b828201905092915050565b6000612d7082611e1c565b91506000821415612d8457612d836125ad565b5b600182039050919050565b7f537472696e67733a20686578206c656e67746820696e73756666696369656e74600082015250565b6000612dc5602083612458565b9150612dd082612d8f565b602082019050919050565b60006020820190508181036000830152612df481612db8565b9050919050565b6000604082019050612e106000830185611ef5565b612e1d6020830184611fbd565b9392505050565b600081519050919050565b600082825260208201905092915050565b6000612e4b82612e24565b612e558185612e2f565b9350612e658185602086016129aa565b612e6e8161217f565b840191505092915050565b6000606082019050612e8e6000830186612aef565b612e9b6020830185611fbd565b8181036040830152612ead8184612e40565b9050949350505050565b600081519050612ec68161220b565b92915050565b600060208284031215612ee257612ee1611cf3565b5b6000612ef084828501612eb7565b91505092915050565b6000608082019050612f0e6000830187611ef5565b612f1b6020830186611fbd565b612f286040830185612aef565b612f356060830184611fbd565b95945050505050565b6000819050919050565b612f59612f5482611e92565b612f3e565b82525050565b6000819050919050565b612f7a612f7582611e1c565b612f5f565b82525050565b6000612f8c8285612f48565b602082019150612f9c8284612f69565b602082019150819050939250505056fea26469706673582212202736ef496da89791c89626a82195b669809b7f38c235f25294b87441d2bf519564736f6c634300080a0033",
  "immutableReferences": {
    "73": [
      {
        "length": 32,
        "start": 5295
      },
      {
        "length": 32,
        "start": 6891
      }
    ],
    "75": [
      {
        "length": 32,
        "start": 3744
      },
      {
        "length": 32,
        "start": 6951
      }
    ]
  },
  "source": "// Board.sol\r\n// SPDX-License-Identifier: MIT\r\npragma solidity 0.8.10;\r\n\r\nimport \"@openzeppelin/contracts/access/AccessControl.sol\";\r\nimport \"@chainlink/contracts/src/v0.8/VRFConsumerBase.sol\";\r\n\r\n/// @title Board\r\n/// @author Jerome Caporossi, Stphane Chaunard, Alexandre Gautier\r\n/// @notice Implements game logic and board's features\r\ncontract BoardContract is AccessControl, VRFConsumerBase {\r\n\t/// @dev structure used to store pawn's attribute\r\n\tstruct PawnInfo {\r\n\t\tuint256 random;\r\n\t\tuint8 position;\r\n\t\tbool isOnBoard;\r\n\t\tbool isPropertyBought;\r\n\t\tbool isRentPaid;\r\n\t\tbool isRoundCompleted;\r\n\t}\r\n\r\n\t/// @dev structure used to store pawn's attribute\r\n\tstruct BoardInfo {\r\n\t\tuint8 nbOfLands;\r\n\t\tuint8 rarityLevel;\r\n\t\tmapping(uint8 => bool) isPurchasable;\r\n\t\tmapping(uint256 => PawnInfo) pawns;\r\n\t\tuint16 nb_pawns_max;\r\n\t\tuint16 nb_pawns;\r\n\t}\r\n\r\n\t/// @dev structure used to store play attributes\r\n\tstruct PlayInfo {\r\n\t\tuint256 pawnID;\r\n\t\tuint16 edition;\r\n\t}\r\n\r\n\tbytes32 public constant ADMIN_ROLE = keccak256(\"ADMIN_ROLE\");\r\n\tbytes32 public constant MANAGER_ROLE = keccak256(\"MANAGER_ROLE\");\r\n\tbytes32 internal keyHash;\r\n\t/// @dev number of board editions\r\n\tuint16 private editionMax;\r\n\tuint256 public fee;\r\n\tuint256 public randomResult;\r\n\r\n\t/// @dev store all boards by edition number\r\n\tmapping(uint16 => BoardInfo) private boards;\r\n\t/// @dev store play information by requestID. Use for randomness\r\n\tmapping(bytes32 => PlayInfo) private playInfoByRequestId;\r\n\r\n\t/// @notice event emitted when a new board is created\r\n\t/// @param new_edition_nb new board edition number\r\n\tevent BoardCreated(uint16 indexed new_edition_nb);\r\n\r\n\t/// @notice event emitted when a new pawn is registered on a board\r\n\t/// @param _edition board edition number\r\n\t/// @param _pawnID pawn's ID\r\n\tevent ePawn(uint16 indexed _edition, uint256 indexed _pawnID);\r\n\r\n\tevent RandomReady(bytes32 requestId);\r\n\r\n\t/// @notice constructor\r\n\tconstructor(\r\n\t\taddress _VRFCoordinator,\r\n\t\taddress _LinkToken,\r\n\t\tbytes32 _keyHash,\r\n\t\tuint256 _Chainlinkfee\r\n\t) VRFConsumerBase(_VRFCoordinator, _LinkToken) {\r\n\t\tkeyHash = _keyHash;\r\n\t\tfee = _Chainlinkfee;\r\n\r\n\t\t_setupRole(ADMIN_ROLE, msg.sender);\r\n\t\t_setRoleAdmin(ADMIN_ROLE, ADMIN_ROLE);\r\n\t\t_setupRole(MANAGER_ROLE, msg.sender);\r\n\t\t_setRoleAdmin(MANAGER_ROLE, ADMIN_ROLE);\r\n\r\n\t\teditionMax = 0;\r\n\r\n\t\t// Paris edition (0)\r\n\t\tBoardInfo storage b = boards[0];\r\n\t\tb.nbOfLands = 40;\r\n\t\tb.nb_pawns_max = 1000;\r\n\t\tb.rarityLevel = 2;\r\n\r\n\t\tuint8[10] memory notPurchasableLands = [0, 2, 7, 10, 17, 20, 22, 30, 33, 36];\r\n\t\tfor (uint8 landID; landID < b.nbOfLands; landID++) {\r\n\t\t\tb.isPurchasable[landID] = true;\r\n\t\t\tfor (uint8 n; n < notPurchasableLands.length; n++) {\r\n\t\t\t\tif (landID == notPurchasableLands[n]) {\r\n\t\t\t\t\tb.isPurchasable[landID] = false;\r\n\t\t\t\t\tbreak;\r\n\t\t\t\t}\r\n\t\t\t}\r\n\t\t}\r\n\t}\r\n\r\n\t/**\r\n\t * @notice Request a random number\r\n\t * @return requestId the id of the request for the oracle\r\n\t */\r\n\tfunction requestRandomNumber() internal returns (bytes32 requestId) {\r\n\t\trequire(LINK.balanceOf(address(this)) >= fee, \"Not enough LINK - fill contract with faucet\");\r\n\t\trequestId = requestRandomness(keyHash, fee);\r\n\t}\r\n\r\n\t/**\r\n\t * @notice Callback function used by VRF Coordinator\r\n\t * @param requestId the id of the request for the oracle\r\n\t * @param randomness randomness must be requested from an oracle, which generates a number and a cryptographic proof\r\n\t * @dev /!\\ Maximum Gas for Callback : If your fulfillRandomness function uses more than 200k gas, the transaction will fail.\r\n\t */\r\n\tfunction fulfillRandomness(bytes32 requestId, uint256 randomness) internal override {\r\n\t\tPlayInfo storage p = playInfoByRequestId[requestId];\r\n\r\n\t\tboards[p.edition].pawns[p.pawnID].position += uint8(randomness % 11) + 2;\r\n\t\tboards[p.edition].pawns[p.pawnID].position %= boards[p.edition].nbOfLands;\r\n\t\tboards[p.edition].pawns[p.pawnID].random = randomness;\r\n\r\n\t\tboards[p.edition].pawns[p.pawnID].isPropertyBought = false;\r\n\t\tboards[p.edition].pawns[p.pawnID].isRentPaid = false;\r\n\t\tboards[p.edition].pawns[p.pawnID].isRoundCompleted = false;\r\n\r\n\t\t//todo gameStrategist(boards[p.edition].pawns[p.pawnID].position)\r\n\r\n\t\temit RandomReady(requestId);\r\n\t}\r\n\r\n\t/**\r\n\t * @dev Game strategist\r\n\t */\r\n\tfunction gameStrategist(uint16 _edition, uint256 _pawnID, uint8 _position) internal {\r\n\t\tif (boards[_edition].isPurchasable[_position]) {\r\n\t\t\tboards[_edition].pawns[_pawnID].isRoundCompleted = false;\r\n\t\t}\r\n\r\n\t\tboards[_edition].pawns[_pawnID].isRoundCompleted = true;\r\n\t}\r\n\r\n\t/**\r\n\t * @notice check if a land can be bought (PROP tokens available)\r\n\t * @param edition board edition\r\n\t * @param land cell number\r\n\t * @return true or false\r\n\t */\r\n\tfunction isPurchasable(uint16 edition, uint8 land) external view returns (bool) {\r\n\t\treturn boards[edition].isPurchasable[land];\r\n\t}\r\n\r\n\t/**\r\n\t * @notice get the number of board editions\r\n\t * @return number of board editions\r\n\t */\r\n\tfunction getMaxEdition() external view returns (uint16) {\r\n\t\treturn editionMax;\r\n\t}\r\n\r\n\t/**\r\n\t * @notice get the number of lands for a board edition\r\n\t * @param edition board edition\r\n\t * @return number of lands\r\n\t */\r\n\tfunction getNbLands(uint16 edition) external view returns (uint8) {\r\n\t\treturn boards[edition].nbOfLands;\r\n\t}\r\n\r\n\t/**\r\n\t * @notice get the number of rarity level for a board edition\r\n\t * @param edition board edition\r\n\t * @return number of rarity levels\r\n\t */\r\n\tfunction getRarityLevel(uint16 edition) external view returns (uint8) {\r\n\t\treturn boards[edition].rarityLevel;\r\n\t}\r\n\r\n\t/**\r\n\t * @notice create a new board\r\n\t * @param _nbOfLands number of lands\r\n\t * @param _rarityLevel number of rarity levels\r\n\t * @param _maxPawns max number of pawns allowed\r\n\t */\r\n\tfunction newBoard(\r\n\t\tuint8 _nbOfLands,\r\n\t\tuint8 _rarityLevel,\r\n\t\tuint8[] calldata _purchasableLands,\r\n\t\tuint16 _maxPawns\r\n\t) public onlyRole(MANAGER_ROLE) {\r\n\t\teditionMax += 1;\r\n\t\tBoardInfo storage b = boards[editionMax];\r\n\t\tb.nbOfLands = _nbOfLands;\r\n\t\tb.rarityLevel = _rarityLevel;\r\n\t\tfor (uint8 index = 0; index < _purchasableLands.length; index++) {\r\n\t\t\trequire(_purchasableLands[index] < b.nbOfLands, \"land index out of range\");\r\n\t\t\tb.isPurchasable[_purchasableLands[index]] = true;\r\n\t\t}\r\n\r\n\t\tb.nb_pawns_max = _maxPawns;\r\n\r\n\t\temit BoardCreated(editionMax);\r\n\t}\r\n\r\n\t/**\r\n\t * @notice register a pawn on a board\r\n\t * @param _edition board edition\r\n\t * @param _pawnID pawn ID\r\n\t */\r\n\tfunction register(uint16 _edition, uint256 _pawnID) external onlyRole(MANAGER_ROLE) returns (bool isOnBoarded) {\r\n\t\trequire(_edition <= editionMax, \"Unknown edition\");\r\n\t\trequire(boards[_edition].pawns[_pawnID].isOnBoard == false, \"pawn already registered\");\r\n\t\trequire(boards[_edition].nb_pawns < boards[_edition].nb_pawns_max, \"game is full\");\r\n\r\n\t\tboards[_edition].pawns[_pawnID].isOnBoard = true;\r\n\t\tboards[_edition].pawns[_pawnID].isRoundCompleted = true; // require to throw dices at the beginning\r\n\t\tboards[_edition].nb_pawns += 1;\r\n\r\n\t\temit ePawn(_edition, _pawnID);\r\n\r\n\t\treturn true;\r\n\t}\r\n\r\n\t/**\r\n\t * @notice check if a pawn is registered\r\n\t * @param _edition board edition\r\n\t * @param _pawnID pawn ID\r\n\t * @return true or false\r\n\t */\r\n\tfunction isRegistered(uint16 _edition, uint256 _pawnID) public view returns (bool) {\r\n\t\treturn boards[_edition].pawns[_pawnID].isOnBoard;\r\n\t}\r\n\r\n\t/**\r\n\t * @notice play with a pawn\r\n\t * @param _edition board edition\r\n\t * @param _pawnID pawn ID\r\n\t */\r\n\tfunction play(uint16 _edition, uint256 _pawnID) external onlyRole(MANAGER_ROLE) returns (bytes32 requestId) {\r\n\t\trequire(boards[_edition].pawns[_pawnID].isOnBoard, \"Unregistered pawn\");\r\n\r\n\t\t// todo\r\n\t\t// For not purchasable lands (i.e. price is nul) nothing is implemented.\r\n\t\t// The player can ONLY roll de dices even if round is not completed.\r\n\t\trequire(\r\n\t\t\t!boards[_edition].isPurchasable[boards[_edition].pawns[_pawnID].position] ||\r\n\t\t\t\tboards[_edition].pawns[_pawnID].isRoundCompleted,\r\n\t\t\t\"Round not completed\"\r\n\t\t);\r\n\r\n\t\trequestId = requestRandomNumber();\r\n\r\n\t\tPlayInfo storage p = playInfoByRequestId[requestId];\r\n\r\n\t\tp.edition = _edition;\r\n\t\tp.pawnID = _pawnID;\r\n\t}\r\n\r\n\t/**\r\n\t * @notice get Pawn information on a board\r\n\t * @param _edition board edition\r\n\t * @param _pawnID pawn ID\r\n\t * @return p Pawn information\r\n\t */\r\n\tfunction getPawnInfo(uint16 _edition, uint256 _pawnID) external view returns (PawnInfo memory p) {\r\n\t\trequire(isRegistered(_edition, _pawnID), \"pawn has not been regsitered\");\r\n\t\treturn boards[_edition].pawns[_pawnID];\r\n\t}\r\n\r\n\t/**\r\n\t * @notice set Pawn information on a board\r\n\t * @param _edition board edition\r\n\t * @param _pawnID pawn ID\r\n\t * @param _pawnInfo pawn information\r\n\t */\r\n\tfunction setPawnInfo(\r\n\t\tuint16 _edition,\r\n\t\tuint256 _pawnID,\r\n\t\tPawnInfo memory _pawnInfo\r\n\t)  external onlyRole(MANAGER_ROLE)  {\r\n\t\tboards[_edition].pawns[_pawnID] = _pawnInfo;\r\n\t}\r\n}\r\n",
  "sourcePath": "C:\\Users\\aaast\\Alyra\\mnp-trufflebox\\contracts\\Board.sol",
  "compiler": {
    "name": "solc",
    "version": "0.8.10+commit.fc410830.Emscripten.clang"
  },
  "schemaVersion": "3.4.3",
  "updatedAt": "2022-01-18T11:31:02.177Z",
  "networkType": "ethereum",
  "devdoc": {
    "author": "Jerome Caporossi, Stphane Chaunard, Alexandre Gautier",
    "events": {
      "BoardCreated(uint16)": {
        "params": {
          "new_edition_nb": "new board edition number"
        }
      },
      "ePawn(uint16,uint256)": {
        "params": {
          "_edition": "board edition number",
          "_pawnID": "pawn's ID"
        }
      }
    },
    "kind": "dev",
    "methods": {
      "getMaxEdition()": {
        "returns": {
          "_0": "number of board editions"
        }
      },
      "getNbLands(uint16)": {
        "params": {
          "edition": "board edition"
        },
        "returns": {
          "_0": "number of lands"
        }
      },
      "getPawnInfo(uint16,uint256)": {
        "params": {
          "_edition": "board edition",
          "_pawnID": "pawn ID"
        },
        "returns": {
          "p": "Pawn information"
        }
      },
      "getRarityLevel(uint16)": {
        "params": {
          "edition": "board edition"
        },
        "returns": {
          "_0": "number of rarity levels"
        }
      },
      "getRoleAdmin(bytes32)": {
        "details": "Returns the admin role that controls `role`. See {grantRole} and {revokeRole}. To change a role's admin, use {_setRoleAdmin}."
      },
      "grantRole(bytes32,address)": {
        "details": "Grants `role` to `account`. If `account` had not been already granted `role`, emits a {RoleGranted} event. Requirements: - the caller must have ``role``'s admin role."
      },
      "hasRole(bytes32,address)": {
        "details": "Returns `true` if `account` has been granted `role`."
      },
      "isPurchasable(uint16,uint8)": {
        "params": {
          "edition": "board edition",
          "land": "cell number"
        },
        "returns": {
          "_0": "true or false"
        }
      },
      "isRegistered(uint16,uint256)": {
        "params": {
          "_edition": "board edition",
          "_pawnID": "pawn ID"
        },
        "returns": {
          "_0": "true or false"
        }
      },
      "newBoard(uint8,uint8,uint8[],uint16)": {
        "params": {
          "_maxPawns": "max number of pawns allowed",
          "_nbOfLands": "number of lands",
          "_rarityLevel": "number of rarity levels"
        }
      },
      "play(uint16,uint256)": {
        "params": {
          "_edition": "board edition",
          "_pawnID": "pawn ID"
        }
      },
      "register(uint16,uint256)": {
        "params": {
          "_edition": "board edition",
          "_pawnID": "pawn ID"
        }
      },
      "renounceRole(bytes32,address)": {
        "details": "Revokes `role` from the calling account. Roles are often managed via {grantRole} and {revokeRole}: this function's purpose is to provide a mechanism for accounts to lose their privileges if they are compromised (such as when a trusted device is misplaced). If the calling account had been revoked `role`, emits a {RoleRevoked} event. Requirements: - the caller must be `account`."
      },
      "revokeRole(bytes32,address)": {
        "details": "Revokes `role` from `account`. If `account` had been granted `role`, emits a {RoleRevoked} event. Requirements: - the caller must have ``role``'s admin role."
      },
      "setPawnInfo(uint16,uint256,(uint256,uint8,bool,bool,bool,bool))": {
        "params": {
          "_edition": "board edition",
          "_pawnID": "pawn ID",
          "_pawnInfo": "pawn information"
        }
      },
      "supportsInterface(bytes4)": {
        "details": "See {IERC165-supportsInterface}."
      }
    },
    "stateVariables": {
      "boards": {
        "details": "store all boards by edition number"
      },
      "editionMax": {
        "details": "number of board editions"
      },
      "playInfoByRequestId": {
        "details": "store play information by requestID. Use for randomness"
      }
    },
    "title": "Board",
    "version": 1
  },
  "userdoc": {
    "events": {
      "BoardCreated(uint16)": {
        "notice": "event emitted when a new board is created"
      },
      "ePawn(uint16,uint256)": {
        "notice": "event emitted when a new pawn is registered on a board"
      }
    },
    "kind": "user",
    "methods": {
      "constructor": {
        "notice": "constructor"
      },
      "getMaxEdition()": {
        "notice": "get the number of board editions"
      },
      "getNbLands(uint16)": {
        "notice": "get the number of lands for a board edition"
      },
      "getPawnInfo(uint16,uint256)": {
        "notice": "get Pawn information on a board"
      },
      "getRarityLevel(uint16)": {
        "notice": "get the number of rarity level for a board edition"
      },
      "isPurchasable(uint16,uint8)": {
        "notice": "check if a land can be bought (PROP tokens available)"
      },
      "isRegistered(uint16,uint256)": {
        "notice": "check if a pawn is registered"
      },
      "newBoard(uint8,uint8,uint8[],uint16)": {
        "notice": "create a new board"
      },
      "play(uint16,uint256)": {
        "notice": "play with a pawn"
      },
      "register(uint16,uint256)": {
        "notice": "register a pawn on a board"
      },
      "setPawnInfo(uint16,uint256,(uint256,uint8,bool,bool,bool,bool))": {
        "notice": "set Pawn information on a board"
      }
    },
    "notice": "Implements game logic and board's features",
    "version": 1
  }
}