{
  "contractName": "BoardGameStrategistTest",
  "abi": [
    {
      "inputs": [],
      "stateMutability": "nonpayable",
      "type": "constructor"
    },
    {
      "inputs": [
        {
          "internalType": "uint16",
          "name": "_edition",
          "type": "uint16"
        },
        {
          "internalType": "uint256",
          "name": "_pawnID",
          "type": "uint256"
        }
      ],
      "name": "getPawnInfo",
      "outputs": [
        {
          "components": [
            {
              "internalType": "uint256",
              "name": "random",
              "type": "uint256"
            },
            {
              "internalType": "uint8",
              "name": "position",
              "type": "uint8"
            },
            {
              "internalType": "bool",
              "name": "isOnBoard",
              "type": "bool"
            },
            {
              "internalType": "bool",
              "name": "isPropertyBought",
              "type": "bool"
            },
            {
              "internalType": "bool",
              "name": "isRentPaid",
              "type": "bool"
            },
            {
              "internalType": "bool",
              "name": "isRoundCompleted",
              "type": "bool"
            },
            {
              "internalType": "bool",
              "name": "isInJail",
              "type": "bool"
            },
            {
              "internalType": "bool",
              "name": "isChanceCard",
              "type": "bool"
            },
            {
              "internalType": "bool",
              "name": "isCommunityCard",
              "type": "bool"
            }
          ],
          "internalType": "struct BoardGameStrategistTest.PawnInfo",
          "name": "p",
          "type": "tuple"
        }
      ],
      "stateMutability": "view",
      "type": "function"
    },
    {
      "inputs": [
        {
          "internalType": "uint16",
          "name": "_edition",
          "type": "uint16"
        },
        {
          "internalType": "uint256",
          "name": "_pawnID",
          "type": "uint256"
        },
        {
          "components": [
            {
              "internalType": "uint256",
              "name": "random",
              "type": "uint256"
            },
            {
              "internalType": "uint8",
              "name": "position",
              "type": "uint8"
            },
            {
              "internalType": "bool",
              "name": "isOnBoard",
              "type": "bool"
            },
            {
              "internalType": "bool",
              "name": "isPropertyBought",
              "type": "bool"
            },
            {
              "internalType": "bool",
              "name": "isRentPaid",
              "type": "bool"
            },
            {
              "internalType": "bool",
              "name": "isRoundCompleted",
              "type": "bool"
            },
            {
              "internalType": "bool",
              "name": "isInJail",
              "type": "bool"
            },
            {
              "internalType": "bool",
              "name": "isChanceCard",
              "type": "bool"
            },
            {
              "internalType": "bool",
              "name": "isCommunityCard",
              "type": "bool"
            }
          ],
          "internalType": "struct BoardGameStrategistTest.PawnInfo",
          "name": "_pawnInfo",
          "type": "tuple"
        }
      ],
      "name": "setPawnInfo",
      "outputs": [],
      "stateMutability": "nonpayable",
      "type": "function"
    }
  ],
  "bytecode": "0x608060405234801561001057600080fd5b5060008060006101000a81548161ffff021916908361ffff1602179055506000600160008061ffff168152602001908152602001600020905060288160000160006101000a81548160ff021916908360ff1602179055506103e88160030160006101000a81548161ffff021916908361ffff16021790555060028160000160016101000a81548160ff021916908360ff1602179055506000604051806101400160405280600060ff168152602001600260ff168152602001600760ff168152602001600a60ff168152602001601160ff168152602001601460ff168152602001601660ff168152602001601e60ff168152602001602160ff168152602001602460ff16815250905060005b8260000160009054906101000a900460ff1660ff168160ff1610156102055760018360010160008360ff1660ff16815260200190815260200160002060006101000a81548160ff02191690831515021790555060005b600a8160ff1610156101f157828160ff16600a81106101935761019261020d565b5b602002015160ff168260ff1614156101de5760008460010160008460ff1660ff16815260200190815260200160002060006101000a81548160ff0219169083151502179055506101f1565b80806101e990610278565b915050610171565b5080806101fd90610278565b91505061011b565b5050506102a2565b7f4e487b7100000000000000000000000000000000000000000000000000000000600052603260045260246000fd5b7f4e487b7100000000000000000000000000000000000000000000000000000000600052601160045260246000fd5b600060ff82169050919050565b60006102838261026b565b915060ff8214156102975761029661023c565b5b600182019050919050565b610782806102b16000396000f3fe608060405234801561001057600080fd5b50600436106100365760003560e01c80636ae620c11461003b5780639c3793451461006b575b600080fd5b610055600480360381019061005091906103d6565b610087565b6040516100629190610513565b60405180910390f35b610085600480360381019061008091906106f8565b6101b6565b005b61008f6102fa565b600160008461ffff1661ffff168152602001908152602001600020600201600083815260200190815260200160002060405180610120016040529081600082015481526020016001820160009054906101000a900460ff1660ff1660ff1681526020016001820160019054906101000a900460ff161515151581526020016001820160029054906101000a900460ff161515151581526020016001820160039054906101000a900460ff161515151581526020016001820160049054906101000a900460ff161515151581526020016001820160059054906101000a900460ff161515151581526020016001820160069054906101000a900460ff161515151581526020016001820160079054906101000a900460ff161515151581525050905092915050565b80600160008561ffff1661ffff16815260200190815260200160002060020160008481526020019081526020016000206000820151816000015560208201518160010160006101000a81548160ff021916908360ff16021790555060408201518160010160016101000a81548160ff02191690831515021790555060608201518160010160026101000a81548160ff02191690831515021790555060808201518160010160036101000a81548160ff02191690831515021790555060a08201518160010160046101000a81548160ff02191690831515021790555060c08201518160010160056101000a81548160ff02191690831515021790555060e08201518160010160066101000a81548160ff0219169083151502179055506101008201518160010160076101000a81548160ff021916908315150217905550905050505050565b60405180610120016040528060008152602001600060ff1681526020016000151581526020016000151581526020016000151581526020016000151581526020016000151581526020016000151581526020016000151581525090565b6000604051905090565b600080fd5b600061ffff82169050919050565b61037d81610366565b811461038857600080fd5b50565b60008135905061039a81610374565b92915050565b6000819050919050565b6103b3816103a0565b81146103be57600080fd5b50565b6000813590506103d0816103aa565b92915050565b600080604083850312156103ed576103ec610361565b5b60006103fb8582860161038b565b925050602061040c858286016103c1565b9150509250929050565b61041f816103a0565b82525050565b600060ff82169050919050565b61043b81610425565b82525050565b60008115159050919050565b61045681610441565b82525050565b610120820160008201516104736000850182610416565b5060208201516104866020850182610432565b506040820151610499604085018261044d565b5060608201516104ac606085018261044d565b5060808201516104bf608085018261044d565b5060a08201516104d260a085018261044d565b5060c08201516104e560c085018261044d565b5060e08201516104f860e085018261044d565b5061010082015161050d61010085018261044d565b50505050565b600061012082019050610529600083018461045c565b92915050565b600080fd5b6000601f19601f8301169050919050565b7f4e487b7100000000000000000000000000000000000000000000000000000000600052604160045260246000fd5b61057d82610534565b810181811067ffffffffffffffff8211171561059c5761059b610545565b5b80604052505050565b60006105af610357565b90506105bb8282610574565b919050565b6105c981610425565b81146105d457600080fd5b50565b6000813590506105e6816105c0565b92915050565b6105f581610441565b811461060057600080fd5b50565b600081359050610612816105ec565b92915050565b6000610120828403121561062f5761062e61052f565b5b61063a6101206105a5565b9050600061064a848285016103c1565b600083015250602061065e848285016105d7565b602083015250604061067284828501610603565b604083015250606061068684828501610603565b606083015250608061069a84828501610603565b60808301525060a06106ae84828501610603565b60a08301525060c06106c284828501610603565b60c08301525060e06106d684828501610603565b60e0830152506101006106eb84828501610603565b6101008301525092915050565b6000806000610160848603121561071257610711610361565b5b60006107208682870161038b565b9350506020610731868287016103c1565b925050604061074286828701610618565b915050925092509256fea2646970667358221220a777e55c6214bf162f2f0b68923c53780f31c91b30dc0dad1a76d37e8994278c64736f6c634300080a0033",
  "immutableReferences": {},
  "source": "// Board.sol\r\n// SPDX-License-Identifier: MIT\r\npragma solidity 0.8.10;\r\n\r\nimport \"@openzeppelin/contracts/access/AccessControl.sol\";\r\nimport \"@chainlink/contracts/src/v0.8/VRFConsumerBase.sol\";\r\n\r\n/// @dev for tests only\r\ncontract BoardGameStrategistTest {\r\n\t/// @dev structure used to store pawn's attribute\r\n\tstruct PawnInfo {\r\n\t\tuint256 random;\r\n\t\tuint8 position;\r\n\t\tbool isOnBoard;\r\n\t\tbool isPropertyBought;\r\n\t\tbool isRentPaid;\r\n\t\tbool isRoundCompleted;\r\n\t\tbool isInJail;\r\n\t\tbool isChanceCard;\r\n\t\tbool isCommunityCard;\r\n\t}\r\n\r\n\t/// @dev structure used to store pawn's attribute\r\n\tstruct BoardInfo {\r\n\t\tuint8 nbOfLands;\r\n\t\tuint8 rarityLevel;\r\n\t\tmapping(uint8 => bool) isPurchasable;\r\n\t\tmapping(uint256 => PawnInfo) pawns;\r\n\t\tuint16 nb_pawns_max;\r\n\t\tuint16 nb_pawns;\r\n\t}\r\n\r\n\t/// @dev number of board editions\r\n\tuint16 private editionMax;\r\n\r\n\t/// @dev store all boards by edition number\r\n\tmapping(uint16 => BoardInfo) private boards;\r\n\r\n\tconstructor() {\r\n\t\teditionMax = 0;\r\n\r\n\t\t// Paris edition (0)\r\n\t\tBoardInfo storage b = boards[0];\r\n\t\tb.nbOfLands = 40;\r\n\t\tb.nb_pawns_max = 1000;\r\n\t\tb.rarityLevel = 2;\r\n\r\n\t\tuint8[10] memory notPurchasableLands = [0, 2, 7, 10, 17, 20, 22, 30, 33, 36];\r\n\t\tfor (uint8 landID; landID < b.nbOfLands; landID++) {\r\n\t\t\tb.isPurchasable[landID] = true;\r\n\t\t\tfor (uint8 n; n < notPurchasableLands.length; n++) {\r\n\t\t\t\tif (landID == notPurchasableLands[n]) {\r\n\t\t\t\t\tb.isPurchasable[landID] = false;\r\n\t\t\t\t\tbreak;\r\n\t\t\t\t}\r\n\t\t\t}\r\n\t\t}\r\n\t}\r\n\r\n\t/** @dev Game strategist\r\n\t * @param _edition board edition\r\n\t * @param _pawnID pawn ID*/\r\n\tfunction gameStrategist(uint16 _edition, uint256 _pawnID, uint8 _position) internal {\r\n\t\t// Purchasable lands\r\n\t\tif (boards[_edition].isPurchasable[_position]) {\r\n\t\t\tboards[_edition].pawns[_pawnID].isRoundCompleted = false;\r\n\r\n\t\t\treturn;\r\n\t\t}\r\n\r\n\t\t// Go to jail\r\n\t\tif (_position == 30) {\r\n\t\t\tboards[_edition].pawns[_pawnID].isInJail = true;\r\n\t\t\tboards[_edition].pawns[_pawnID].position = 10;\r\n\t\t\treturn;\r\n\t\t}\r\n\r\n\t\t// Free park\r\n\t\tif (_position == 20) {\r\n\t\t\treturn;\r\n\t\t}\r\n\r\n\t\t// Jail simple visit\r\n\t\tif (_position == 10) {\r\n\t\t\treturn;\r\n\t\t}\r\n\r\n\t\t// Chance card\r\n\t\tif (_position == 7 ||\r\n\t\t\t_position == 22 ||\r\n\t\t\t_position == 36\r\n\t\t) {\r\n\t\t\tboards[_edition].pawns[_pawnID].isChanceCard = true;\r\n\t\t\tboards[_edition].pawns[_pawnID].isRoundCompleted = false;\r\n\t\t\treturn;\r\n\t\t}\r\n\r\n\t\t// Community chest card\r\n\t\tif (_position == 2 ||\r\n\t\t\t_position == 17 ||\r\n\t\t\t_position == 33\r\n\t\t) {\r\n\t\t\tboards[_edition].pawns[_pawnID].isCommunityCard = true;\r\n\t\t\tboards[_edition].pawns[_pawnID].isRoundCompleted = false;\r\n\t\t\treturn;\r\n\t\t}\r\n\r\n\t\t// Go case\r\n\t\t// Nothing is implemented when a player pass over Go.\r\n\t}\r\n\r\n\t/** get Pawn information on a board\r\n\t * @param _edition board edition\r\n\t * @param _pawnID pawn ID\r\n\t * @return p Pawn information*/\r\n\tfunction getPawnInfo(uint16 _edition, uint256 _pawnID) external view returns (PawnInfo memory p) {\r\n\t\treturn boards[_edition].pawns[_pawnID];\r\n\t}\r\n\r\n\t/** set Pawn information on a board\r\n\t * @param _edition board edition\r\n\t * @param _pawnID pawn ID\r\n\t * @param _pawnInfo pawn information*/\r\n\tfunction setPawnInfo(\r\n\t\tuint16 _edition,\r\n\t\tuint256 _pawnID,\r\n\t\tPawnInfo memory _pawnInfo\r\n\t)  external {\r\n\t\tboards[_edition].pawns[_pawnID] = _pawnInfo;\r\n\t}\r\n}\r\n",
  "sourcePath": "C:\\Users\\aaast\\Alyra\\mnp-trufflebox\\contracts\\Stubs\\BoardMocked.gameStrategistTest.sol",
  "compiler": {
    "name": "solc",
    "version": "0.8.10+commit.fc410830.Emscripten.clang"
  },
  "schemaVersion": "3.4.3",
  "updatedAt": "2022-01-24T14:23:03.739Z",
  "devdoc": {
    "details": "for tests only",
    "kind": "dev",
    "methods": {
      "getPawnInfo(uint16,uint256)": {
        "params": {
          "_edition": "board edition",
          "_pawnID": "pawn ID"
        },
        "returns": {
          "p": "Pawn information"
        }
      },
      "setPawnInfo(uint16,uint256,(uint256,uint8,bool,bool,bool,bool,bool,bool,bool))": {
        "params": {
          "_edition": "board edition",
          "_pawnID": "pawn ID",
          "_pawnInfo": "pawn information"
        }
      }
    },
    "stateVariables": {
      "boards": {
        "details": "store all boards by edition number"
      },
      "editionMax": {
        "details": "number of board editions"
      }
    },
    "version": 1
  },
  "userdoc": {
    "kind": "user",
    "methods": {
      "getPawnInfo(uint16,uint256)": {
        "notice": "get Pawn information on a board"
      },
      "setPawnInfo(uint16,uint256,(uint256,uint8,bool,bool,bool,bool,bool,bool,bool))": {
        "notice": "set Pawn information on a board"
      }
    },
    "version": 1
  }
}