{
  "contractName": "BoardMock",
  "abi": [
    {
      "inputs": [],
      "stateMutability": "nonpayable",
      "type": "constructor"
    },
    {
      "anonymous": false,
      "inputs": [
        {
          "indexed": true,
          "internalType": "uint16",
          "name": "new_edition_nb",
          "type": "uint16"
        }
      ],
      "name": "BoardCreated",
      "type": "event"
    },
    {
      "anonymous": false,
      "inputs": [
        {
          "indexed": false,
          "internalType": "bytes32",
          "name": "requestId",
          "type": "bytes32"
        }
      ],
      "name": "RandomReady",
      "type": "event"
    },
    {
      "anonymous": false,
      "inputs": [
        {
          "indexed": true,
          "internalType": "bytes32",
          "name": "role",
          "type": "bytes32"
        },
        {
          "indexed": true,
          "internalType": "bytes32",
          "name": "previousAdminRole",
          "type": "bytes32"
        },
        {
          "indexed": true,
          "internalType": "bytes32",
          "name": "newAdminRole",
          "type": "bytes32"
        }
      ],
      "name": "RoleAdminChanged",
      "type": "event"
    },
    {
      "anonymous": false,
      "inputs": [
        {
          "indexed": true,
          "internalType": "bytes32",
          "name": "role",
          "type": "bytes32"
        },
        {
          "indexed": true,
          "internalType": "address",
          "name": "account",
          "type": "address"
        },
        {
          "indexed": true,
          "internalType": "address",
          "name": "sender",
          "type": "address"
        }
      ],
      "name": "RoleGranted",
      "type": "event"
    },
    {
      "anonymous": false,
      "inputs": [
        {
          "indexed": true,
          "internalType": "bytes32",
          "name": "role",
          "type": "bytes32"
        },
        {
          "indexed": true,
          "internalType": "address",
          "name": "account",
          "type": "address"
        },
        {
          "indexed": true,
          "internalType": "address",
          "name": "sender",
          "type": "address"
        }
      ],
      "name": "RoleRevoked",
      "type": "event"
    },
    {
      "anonymous": false,
      "inputs": [
        {
          "indexed": true,
          "internalType": "uint16",
          "name": "_edition",
          "type": "uint16"
        },
        {
          "indexed": true,
          "internalType": "uint256",
          "name": "_pawnID",
          "type": "uint256"
        }
      ],
      "name": "ePawn",
      "type": "event"
    },
    {
      "inputs": [],
      "name": "ADMIN_ROLE",
      "outputs": [
        {
          "internalType": "bytes32",
          "name": "",
          "type": "bytes32"
        }
      ],
      "stateMutability": "view",
      "type": "function"
    },
    {
      "inputs": [],
      "name": "DEFAULT_ADMIN_ROLE",
      "outputs": [
        {
          "internalType": "bytes32",
          "name": "",
          "type": "bytes32"
        }
      ],
      "stateMutability": "view",
      "type": "function"
    },
    {
      "inputs": [],
      "name": "MANAGER_ROLE",
      "outputs": [
        {
          "internalType": "bytes32",
          "name": "",
          "type": "bytes32"
        }
      ],
      "stateMutability": "view",
      "type": "function"
    },
    {
      "inputs": [],
      "name": "fee",
      "outputs": [
        {
          "internalType": "uint256",
          "name": "",
          "type": "uint256"
        }
      ],
      "stateMutability": "view",
      "type": "function"
    },
    {
      "inputs": [],
      "name": "getMaxEdition",
      "outputs": [
        {
          "internalType": "uint16",
          "name": "",
          "type": "uint16"
        }
      ],
      "stateMutability": "view",
      "type": "function"
    },
    {
      "inputs": [
        {
          "internalType": "uint16",
          "name": "edition",
          "type": "uint16"
        }
      ],
      "name": "getNbLands",
      "outputs": [
        {
          "internalType": "uint8",
          "name": "",
          "type": "uint8"
        }
      ],
      "stateMutability": "view",
      "type": "function"
    },
    {
      "inputs": [
        {
          "internalType": "uint16",
          "name": "_edition",
          "type": "uint16"
        },
        {
          "internalType": "uint256",
          "name": "_pawnID",
          "type": "uint256"
        }
      ],
      "name": "getPawnInfo",
      "outputs": [
        {
          "components": [
            {
              "internalType": "uint256",
              "name": "random",
              "type": "uint256"
            },
            {
              "internalType": "uint8",
              "name": "position",
              "type": "uint8"
            },
            {
              "internalType": "bool",
              "name": "isOnBoard",
              "type": "bool"
            },
            {
              "internalType": "bool",
              "name": "isPropertyBought",
              "type": "bool"
            },
            {
              "internalType": "bool",
              "name": "isRentPaid",
              "type": "bool"
            },
            {
              "internalType": "bool",
              "name": "isRoundCompleted",
              "type": "bool"
            },
            {
              "internalType": "bool",
              "name": "isInJail",
              "type": "bool"
            },
            {
              "internalType": "bool",
              "name": "isChanceCard",
              "type": "bool"
            },
            {
              "internalType": "bool",
              "name": "isCommunityCard",
              "type": "bool"
            }
          ],
          "internalType": "struct BoardContract.PawnInfo",
          "name": "p",
          "type": "tuple"
        }
      ],
      "stateMutability": "view",
      "type": "function"
    },
    {
      "inputs": [
        {
          "internalType": "uint16",
          "name": "edition",
          "type": "uint16"
        }
      ],
      "name": "getRarityLevel",
      "outputs": [
        {
          "internalType": "uint8",
          "name": "",
          "type": "uint8"
        }
      ],
      "stateMutability": "view",
      "type": "function"
    },
    {
      "inputs": [
        {
          "internalType": "bytes32",
          "name": "role",
          "type": "bytes32"
        }
      ],
      "name": "getRoleAdmin",
      "outputs": [
        {
          "internalType": "bytes32",
          "name": "",
          "type": "bytes32"
        }
      ],
      "stateMutability": "view",
      "type": "function"
    },
    {
      "inputs": [
        {
          "internalType": "bytes32",
          "name": "role",
          "type": "bytes32"
        },
        {
          "internalType": "address",
          "name": "account",
          "type": "address"
        }
      ],
      "name": "grantRole",
      "outputs": [],
      "stateMutability": "nonpayable",
      "type": "function"
    },
    {
      "inputs": [
        {
          "internalType": "bytes32",
          "name": "role",
          "type": "bytes32"
        },
        {
          "internalType": "address",
          "name": "account",
          "type": "address"
        }
      ],
      "name": "hasRole",
      "outputs": [
        {
          "internalType": "bool",
          "name": "",
          "type": "bool"
        }
      ],
      "stateMutability": "view",
      "type": "function"
    },
    {
      "inputs": [
        {
          "internalType": "uint16",
          "name": "edition",
          "type": "uint16"
        },
        {
          "internalType": "uint8",
          "name": "land",
          "type": "uint8"
        }
      ],
      "name": "isPurchasable",
      "outputs": [
        {
          "internalType": "bool",
          "name": "",
          "type": "bool"
        }
      ],
      "stateMutability": "view",
      "type": "function"
    },
    {
      "inputs": [
        {
          "internalType": "uint16",
          "name": "_edition",
          "type": "uint16"
        },
        {
          "internalType": "uint256",
          "name": "_pawnID",
          "type": "uint256"
        }
      ],
      "name": "isRegistered",
      "outputs": [
        {
          "internalType": "bool",
          "name": "",
          "type": "bool"
        }
      ],
      "stateMutability": "view",
      "type": "function"
    },
    {
      "inputs": [
        {
          "internalType": "uint8",
          "name": "_nbOfLands",
          "type": "uint8"
        },
        {
          "internalType": "uint8",
          "name": "_rarityLevel",
          "type": "uint8"
        },
        {
          "internalType": "uint8[]",
          "name": "_purchasableLands",
          "type": "uint8[]"
        },
        {
          "internalType": "uint16",
          "name": "_maxPawns",
          "type": "uint16"
        }
      ],
      "name": "newBoard",
      "outputs": [],
      "stateMutability": "nonpayable",
      "type": "function"
    },
    {
      "inputs": [
        {
          "internalType": "uint16",
          "name": "_edition",
          "type": "uint16"
        },
        {
          "internalType": "uint256",
          "name": "_pawnID",
          "type": "uint256"
        }
      ],
      "name": "play",
      "outputs": [
        {
          "internalType": "bytes32",
          "name": "requestId",
          "type": "bytes32"
        }
      ],
      "stateMutability": "nonpayable",
      "type": "function"
    },
    {
      "inputs": [],
      "name": "randomResult",
      "outputs": [
        {
          "internalType": "uint256",
          "name": "",
          "type": "uint256"
        }
      ],
      "stateMutability": "view",
      "type": "function"
    },
    {
      "inputs": [
        {
          "internalType": "bytes32",
          "name": "requestId",
          "type": "bytes32"
        },
        {
          "internalType": "uint256",
          "name": "randomness",
          "type": "uint256"
        }
      ],
      "name": "rawFulfillRandomness",
      "outputs": [],
      "stateMutability": "nonpayable",
      "type": "function"
    },
    {
      "inputs": [
        {
          "internalType": "uint16",
          "name": "_edition",
          "type": "uint16"
        },
        {
          "internalType": "uint256",
          "name": "_pawnID",
          "type": "uint256"
        }
      ],
      "name": "register",
      "outputs": [
        {
          "internalType": "bool",
          "name": "isOnBoarded",
          "type": "bool"
        }
      ],
      "stateMutability": "nonpayable",
      "type": "function"
    },
    {
      "inputs": [
        {
          "internalType": "bytes32",
          "name": "role",
          "type": "bytes32"
        },
        {
          "internalType": "address",
          "name": "account",
          "type": "address"
        }
      ],
      "name": "renounceRole",
      "outputs": [],
      "stateMutability": "nonpayable",
      "type": "function"
    },
    {
      "inputs": [
        {
          "internalType": "bytes32",
          "name": "role",
          "type": "bytes32"
        },
        {
          "internalType": "address",
          "name": "account",
          "type": "address"
        }
      ],
      "name": "revokeRole",
      "outputs": [],
      "stateMutability": "nonpayable",
      "type": "function"
    },
    {
      "inputs": [
        {
          "internalType": "uint16",
          "name": "_edition",
          "type": "uint16"
        },
        {
          "internalType": "uint256",
          "name": "_pawnID",
          "type": "uint256"
        },
        {
          "components": [
            {
              "internalType": "uint256",
              "name": "random",
              "type": "uint256"
            },
            {
              "internalType": "uint8",
              "name": "position",
              "type": "uint8"
            },
            {
              "internalType": "bool",
              "name": "isOnBoard",
              "type": "bool"
            },
            {
              "internalType": "bool",
              "name": "isPropertyBought",
              "type": "bool"
            },
            {
              "internalType": "bool",
              "name": "isRentPaid",
              "type": "bool"
            },
            {
              "internalType": "bool",
              "name": "isRoundCompleted",
              "type": "bool"
            },
            {
              "internalType": "bool",
              "name": "isInJail",
              "type": "bool"
            },
            {
              "internalType": "bool",
              "name": "isChanceCard",
              "type": "bool"
            },
            {
              "internalType": "bool",
              "name": "isCommunityCard",
              "type": "bool"
            }
          ],
          "internalType": "struct BoardContract.PawnInfo",
          "name": "_pawnInfo",
          "type": "tuple"
        }
      ],
      "name": "setPawnInfo",
      "outputs": [],
      "stateMutability": "nonpayable",
      "type": "function"
    },
    {
      "inputs": [
        {
          "internalType": "bytes4",
          "name": "interfaceId",
          "type": "bytes4"
        }
      ],
      "name": "supportsInterface",
      "outputs": [
        {
          "internalType": "bool",
          "name": "",
          "type": "bool"
        }
      ],
      "stateMutability": "view",
      "type": "function"
    },
    {
      "inputs": [
        {
          "internalType": "uint16",
          "name": "_edition",
          "type": "uint16"
        },
        {
          "internalType": "uint256",
          "name": "_pawnID",
          "type": "uint256"
        },
        {
          "internalType": "uint8",
          "name": "_rarity",
          "type": "uint8"
        },
        {
          "components": [
            {
              "internalType": "uint256",
              "name": "random",
              "type": "uint256"
            },
            {
              "internalType": "uint8",
              "name": "position",
              "type": "uint8"
            },
            {
              "internalType": "bool",
              "name": "isOnBoard",
              "type": "bool"
            },
            {
              "internalType": "bool",
              "name": "isPropertyBought",
              "type": "bool"
            },
            {
              "internalType": "bool",
              "name": "isRentPaid",
              "type": "bool"
            },
            {
              "internalType": "bool",
              "name": "isRoundCompleted",
              "type": "bool"
            },
            {
              "internalType": "bool",
              "name": "isInJail",
              "type": "bool"
            },
            {
              "internalType": "bool",
              "name": "isChanceCard",
              "type": "bool"
            },
            {
              "internalType": "bool",
              "name": "isCommunityCard",
              "type": "bool"
            }
          ],
          "internalType": "struct BoardContract.PawnInfo",
          "name": "_pawnInfo",
          "type": "tuple"
        }
      ],
      "name": "updatePawnInfo",
      "outputs": [],
      "stateMutability": "nonpayable",
      "type": "function"
    }
  ],
  "bytecode": "0x60c06040523480156200001157600080fd5b5073514910771af9ca656af840dff83e8264ecf986ca807f6c3699283bda56ad74f6b855546325b68d482e983852a7a82979cc4807b641f460001b655af3107a400083838173ffffffffffffffffffffffffffffffffffffffff1660a08173ffffffffffffffffffffffffffffffffffffffff16815250508073ffffffffffffffffffffffffffffffffffffffff1660808173ffffffffffffffffffffffffffffffffffffffff168152505050508160028190555080600481905550620000ff7fa49807205ce4d355092ef5a8a18f56e8913cf4a201fbe287825b095693c2177533620003c460201b60201c565b620001317fa49807205ce4d355092ef5a8a18f56e8913cf4a201fbe287825b095693c2177580620003da60201b60201c565b620001637f241ecf16d79d0f8dbfb92cbc07fe17840425976cf0667f022fe9877caa831b0833620003c460201b60201c565b620001b57f241ecf16d79d0f8dbfb92cbc07fe17840425976cf0667f022fe9877caa831b087fa49807205ce4d355092ef5a8a18f56e8913cf4a201fbe287825b095693c21775620003da60201b60201c565b6000600360006101000a81548161ffff021916908361ffff1602179055506000600660008061ffff168152602001908152602001600020905060288160000160006101000a81548160ff021916908360ff1602179055506103e88160030160006101000a81548161ffff021916908361ffff16021790555060028160000160016101000a81548160ff021916908360ff1602179055506000604051806101400160405280600060ff168152602001600260ff168152602001600760ff168152602001600a60ff168152602001601160ff168152602001601460ff168152602001601660ff168152602001601e60ff168152602001602160ff168152602001602460ff16815250905060005b8260000160009054906101000a900460ff1660ff168160ff161015620003b75760018360010160008360ff1660ff16815260200190815260200160002060006101000a81548160ff02191690831515021790555060005b600a8160ff161015620003a057828160ff16600a81106200033d576200033c620005bf565b5b602002015160ff168260ff1614156200038a5760008460010160008460ff1660ff16815260200190815260200160002060006101000a81548160ff021916908315150217905550620003a0565b808062000397906200062a565b91505062000317565b508080620003ae906200062a565b915050620002c0565b5050505050505062000659565b620003d682826200043d60201b60201c565b5050565b6000620003ed836200052e60201b60201c565b905081600080858152602001908152602001600020600101819055508181847fbd79b86ffe0ab8e8776151514217cd7cacd52c909f66475c3af44e129f0b00ff60405160405180910390a4505050565b6200044f82826200054d60201b60201c565b6200052a57600160008084815260200190815260200160002060000160008373ffffffffffffffffffffffffffffffffffffffff1673ffffffffffffffffffffffffffffffffffffffff16815260200190815260200160002060006101000a81548160ff021916908315150217905550620004cf620005b760201b60201c565b73ffffffffffffffffffffffffffffffffffffffff168173ffffffffffffffffffffffffffffffffffffffff16837f2f8788117e7eff1d82e926ec794901d17c78024a50270940304540a733656f0d60405160405180910390a45b5050565b6000806000838152602001908152602001600020600101549050919050565b600080600084815260200190815260200160002060000160008373ffffffffffffffffffffffffffffffffffffffff1673ffffffffffffffffffffffffffffffffffffffff16815260200190815260200160002060009054906101000a900460ff16905092915050565b600033905090565b7f4e487b7100000000000000000000000000000000000000000000000000000000600052603260045260246000fd5b7f4e487b7100000000000000000000000000000000000000000000000000000000600052601160045260246000fd5b600060ff82169050919050565b600062000637826200061d565b915060ff8214156200064e576200064d620005ee565b5b600182019050919050565b60805160a0516136aa6200068d60003960008181610d790152611dc80152600081816115b70152611d8c01526136aa6000f3fe608060405234801561001057600080fd5b506004361061014d5760003560e01c80636ae620c1116100c35780639c3793451161007c5780639c379345146103fc578063a1b0a7e314610418578063a217fddf14610434578063d547741f14610452578063ddca3f431461046e578063ec87621c1461048c5761014d565b80636ae620c1146103165780636f3480ac1461034657806375b238fc1461037657806391d148541461039457806394985ddd146103c45780639767b93e146103e05761014d565b80632f2ff15d116101155780632f2ff15d1461023057806336568abe1461024c57806342619f661461026857806351cd797d1461028657806358f05b3a146102b65780635f91c06a146102e65761014d565b806301ffc9a7146101525780631372526f14610182578063155f2058146101a0578063248a9ca3146101d057806326e0fc1f14610200575b600080fd5b61016c60048036038101906101679190612300565b6104aa565b6040516101799190612348565b60405180910390f35b61018a610524565b6040516101979190612380565b60405180910390f35b6101ba60048036038101906101b591906123fd565b61053c565b6040516101c79190612348565b60405180910390f35b6101ea60048036038101906101e59190612473565b610586565b6040516101f791906124af565b60405180910390f35b61021a600480360381019061021591906123fd565b6105a5565b6040516102279190612348565b60405180910390f35b61024a60048036038101906102459190612528565b610885565b005b61026660048036038101906102619190612528565b6108ae565b005b610270610931565b60405161027d9190612577565b60405180910390f35b6102a0600480360381019061029b9190612592565b610937565b6040516102ad91906125db565b60405180910390f35b6102d060048036038101906102cb91906123fd565b61096c565b6040516102dd91906124af565b60405180910390f35b61030060048036038101906102fb9190612622565b610aef565b60405161030d9190612348565b60405180910390f35b610330600480360381019061032b91906123fd565b610b3c565b60405161033d9190612746565b60405180910390f35b610360600480360381019061035b9190612592565b610cb4565b60405161036d91906125db565b60405180910390f35b61037e610ce9565b60405161038b91906124af565b60405180910390f35b6103ae60048036038101906103a99190612528565b610d0d565b6040516103bb9190612348565b60405180910390f35b6103de60048036038101906103d99190612762565b610d77565b005b6103fa60048036038101906103f5919061293f565b610e13565b005b610416600480360381019061041191906129a7565b610ecb565b005b610432600480360381019061042d9190612a60565b611042565b005b61043c611286565b60405161044991906124af565b60405180910390f35b61046c60048036038101906104679190612528565b61128d565b005b6104766112b6565b6040516104839190612577565b60405180910390f35b6104946112bc565b6040516104a191906124af565b60405180910390f35b60007f7965db0b000000000000000000000000000000000000000000000000000000007bffffffffffffffffffffffffffffffffffffffffffffffffffffffff1916827bffffffffffffffffffffffffffffffffffffffffffffffffffffffff1916148061051d575061051c826112e0565b5b9050919050565b6000600360009054906101000a900461ffff16905090565b6000600660008461ffff1661ffff168152602001908152602001600020600201600083815260200190815260200160002060010160019054906101000a900460ff16905092915050565b6000806000838152602001908152602001600020600101549050919050565b60007f241ecf16d79d0f8dbfb92cbc07fe17840425976cf0667f022fe9877caa831b086105d9816105d461134a565b611352565b600360009054906101000a900461ffff1661ffff168461ffff161115610634576040517f08c379a000000000000000000000000000000000000000000000000000000000815260040161062b90612b45565b60405180910390fd5b60001515600660008661ffff1661ffff168152602001908152602001600020600201600085815260200190815260200160002060010160019054906101000a900460ff161515146106ba576040517f08c379a00000000000000000000000000000000000000000000000000000000081526004016106b190612bb1565b60405180910390fd5b600660008561ffff1661ffff16815260200190815260200160002060030160009054906101000a900461ffff1661ffff16600660008661ffff1661ffff16815260200190815260200160002060030160029054906101000a900461ffff1661ffff161061075c576040517f08c379a000000000000000000000000000000000000000000000000000000000815260040161075390612c1d565b60405180910390fd5b6001600660008661ffff1661ffff168152602001908152602001600020600201600085815260200190815260200160002060010160016101000a81548160ff0219169083151502179055506001600660008661ffff1661ffff168152602001908152602001600020600201600085815260200190815260200160002060010160046101000a81548160ff0219169083151502179055506001600660008661ffff1661ffff16815260200190815260200160002060030160028282829054906101000a900461ffff1661082e9190612c6c565b92506101000a81548161ffff021916908361ffff160217905550828461ffff167fe4e52554bc27cb4b0f5650e1dbabf0b9a745d65467f38831460f0db7fef2a13e60405160405180910390a3600191505092915050565b61088e82610586565b61089f8161089a61134a565b611352565b6108a983836113ef565b505050565b6108b661134a565b73ffffffffffffffffffffffffffffffffffffffff168173ffffffffffffffffffffffffffffffffffffffff1614610923576040517f08c379a000000000000000000000000000000000000000000000000000000000815260040161091a90612d16565b60405180910390fd5b61092d82826114cf565b5050565b60055481565b6000600660008361ffff1661ffff16815260200190815260200160002060000160009054906101000a900460ff169050919050565b60007f241ecf16d79d0f8dbfb92cbc07fe17840425976cf0667f022fe9877caa831b086109a08161099b61134a565b611352565b600660008561ffff1661ffff168152602001908152602001600020600201600084815260200190815260200160002060010160019054906101000a900460ff16610a1f576040517f08c379a0000000000000000000000000000000000000000000000000000000008152600401610a1690612d82565b60405180910390fd5b600660008561ffff1661ffff168152602001908152602001600020600201600084815260200190815260200160002060010160049054906101000a900460ff16610a9e576040517f08c379a0000000000000000000000000000000000000000000000000000000008152600401610a9590612dee565b60405180910390fd5b610aa66115b0565b91506000600760008481526020019081526020016000209050848160010160006101000a81548161ffff021916908361ffff160217905550838160000181905550505092915050565b6000600660008461ffff1661ffff16815260200190815260200160002060010160008360ff1660ff16815260200190815260200160002060009054906101000a900460ff16905092915050565b610b44612237565b610b4e838361053c565b610b8d576040517f08c379a0000000000000000000000000000000000000000000000000000000008152600401610b8490612e5a565b60405180910390fd5b600660008461ffff1661ffff168152602001908152602001600020600201600083815260200190815260200160002060405180610120016040529081600082015481526020016001820160009054906101000a900460ff1660ff1660ff1681526020016001820160019054906101000a900460ff161515151581526020016001820160029054906101000a900460ff161515151581526020016001820160039054906101000a900460ff161515151581526020016001820160049054906101000a900460ff161515151581526020016001820160059054906101000a900460ff161515151581526020016001820160069054906101000a900460ff161515151581526020016001820160079054906101000a900460ff161515151581525050905092915050565b6000600660008361ffff1661ffff16815260200190815260200160002060000160019054906101000a900460ff169050919050565b7fa49807205ce4d355092ef5a8a18f56e8913cf4a201fbe287825b095693c2177581565b600080600084815260200190815260200160002060000160008373ffffffffffffffffffffffffffffffffffffffff1673ffffffffffffffffffffffffffffffffffffffff16815260200190815260200160002060009054906101000a900460ff16905092915050565b7f000000000000000000000000000000000000000000000000000000000000000073ffffffffffffffffffffffffffffffffffffffff163373ffffffffffffffffffffffffffffffffffffffff1614610e05576040517f08c379a0000000000000000000000000000000000000000000000000000000008152600401610dfc90612ec6565b60405180910390fd5b610e0f82826116a3565b5050565b600060028360ff161415610e275761044a90505b60018360ff161415610e395761044990505b60008360ff161415610e4b5761048b90505b808260000181815250503073ffffffffffffffffffffffffffffffffffffffff16639c3793458686856040518463ffffffff1660e01b8152600401610e9293929190612ee6565b600060405180830381600087803b158015610eac57600080fd5b505af1158015610ec0573d6000803e3d6000fd5b505050505050505050565b7f241ecf16d79d0f8dbfb92cbc07fe17840425976cf0667f022fe9877caa831b08610efd81610ef861134a565b611352565b81600660008661ffff1661ffff16815260200190815260200160002060020160008581526020019081526020016000206000820151816000015560208201518160010160006101000a81548160ff021916908360ff16021790555060408201518160010160016101000a81548160ff02191690831515021790555060608201518160010160026101000a81548160ff02191690831515021790555060808201518160010160036101000a81548160ff02191690831515021790555060a08201518160010160046101000a81548160ff02191690831515021790555060c08201518160010160056101000a81548160ff02191690831515021790555060e08201518160010160066101000a81548160ff0219169083151502179055506101008201518160010160076101000a81548160ff02191690831515021790555090505050505050565b7f241ecf16d79d0f8dbfb92cbc07fe17840425976cf0667f022fe9877caa831b086110748161106f61134a565b611352565b6001600360008282829054906101000a900461ffff166110949190612c6c565b92506101000a81548161ffff021916908361ffff160217905550600060066000600360009054906101000a900461ffff1661ffff1661ffff1681526020019081526020016000209050868160000160006101000a81548160ff021916908360ff160217905550858160000160016101000a81548160ff021916908360ff16021790555060005b858590508160ff16101561121c578160000160009054906101000a900460ff1660ff1686868360ff1681811061115357611152612f1e565b5b90506020020160208101906111689190612f4d565b60ff16106111ab576040517f08c379a00000000000000000000000000000000000000000000000000000000081526004016111a290612fc6565b60405180910390fd5b600182600101600088888560ff168181106111c9576111c8612f1e565b5b90506020020160208101906111de9190612f4d565b60ff1660ff16815260200190815260200160002060006101000a81548160ff021916908315150217905550808061121490612fe6565b91505061111a565b50828160030160006101000a81548161ffff021916908361ffff160217905550600360009054906101000a900461ffff1661ffff167fb8fd28a374892893a747126e5d39b5e91f773bc968c40a5f1340ea21374e2eee60405160405180910390a250505050505050565b6000801b81565b61129682610586565b6112a7816112a261134a565b611352565b6112b183836114cf565b505050565b60045481565b7f241ecf16d79d0f8dbfb92cbc07fe17840425976cf0667f022fe9877caa831b0881565b60007f01ffc9a7000000000000000000000000000000000000000000000000000000007bffffffffffffffffffffffffffffffffffffffffffffffffffffffff1916827bffffffffffffffffffffffffffffffffffffffffffffffffffffffff1916149050919050565b600033905090565b61135c8282610d0d565b6113eb576113818173ffffffffffffffffffffffffffffffffffffffff166014611b4c565b61138f8360001c6020611b4c565b6040516020016113a0929190613122565b6040516020818303038152906040526040517f08c379a00000000000000000000000000000000000000000000000000000000081526004016113e29190613195565b60405180910390fd5b5050565b6113f98282610d0d565b6114cb57600160008084815260200190815260200160002060000160008373ffffffffffffffffffffffffffffffffffffffff1673ffffffffffffffffffffffffffffffffffffffff16815260200190815260200160002060006101000a81548160ff02191690831515021790555061147061134a565b73ffffffffffffffffffffffffffffffffffffffff168173ffffffffffffffffffffffffffffffffffffffff16837f2f8788117e7eff1d82e926ec794901d17c78024a50270940304540a733656f0d60405160405180910390a45b5050565b6114d98282610d0d565b156115ac57600080600084815260200190815260200160002060000160008373ffffffffffffffffffffffffffffffffffffffff1673ffffffffffffffffffffffffffffffffffffffff16815260200190815260200160002060006101000a81548160ff02191690831515021790555061155161134a565b73ffffffffffffffffffffffffffffffffffffffff168173ffffffffffffffffffffffffffffffffffffffff16837ff6391f5c32d9c69d2a47ea670b442974b53935d1edc7fd64eb21e047a839171b60405160405180910390a45b5050565b60006004547f000000000000000000000000000000000000000000000000000000000000000073ffffffffffffffffffffffffffffffffffffffff166370a08231306040518263ffffffff1660e01b815260040161160e91906131c6565b602060405180830381865afa15801561162b573d6000803e3d6000fd5b505050506040513d601f19601f8201168201806040525081019061164f91906131f6565b1015611690576040517f08c379a000000000000000000000000000000000000000000000000000000000815260040161168790613295565b60405180910390fd5b61169e600254600454611d88565b905090565b60006007600084815260200190815260200160002090506002600b836116c991906132e4565b6116d39190613315565b600660008360010160009054906101000a900461ffff1661ffff1661ffff16815260200190815260200160002060020160008360000154815260200190815260200160002060010160008282829054906101000a900460ff166117369190613315565b92506101000a81548160ff021916908360ff160217905550600660008260010160009054906101000a900461ffff1661ffff1661ffff16815260200190815260200160002060000160009054906101000a900460ff16600660008360010160009054906101000a900461ffff1661ffff1661ffff16815260200190815260200160002060020160008360000154815260200190815260200160002060010160008282829054906101000a900460ff166117ef919061334c565b92506101000a81548160ff021916908360ff16021790555081600660008360010160009054906101000a900461ffff1661ffff1661ffff168152602001908152602001600020600201600083600001548152602001908152602001600020600001819055506000600660008360010160009054906101000a900461ffff1661ffff1661ffff16815260200190815260200160002060020160008360000154815260200190815260200160002060010160026101000a81548160ff0219169083151502179055506000600660008360010160009054906101000a900461ffff1661ffff1661ffff16815260200190815260200160002060020160008360000154815260200190815260200160002060010160036101000a81548160ff0219169083151502179055506000600660008360010160009054906101000a900461ffff1661ffff1661ffff16815260200190815260200160002060020160008360000154815260200190815260200160002060010160056101000a81548160ff0219169083151502179055506000600660008360010160009054906101000a900461ffff1661ffff1661ffff16815260200190815260200160002060020160008360000154815260200190815260200160002060010160066101000a81548160ff0219169083151502179055506000600660008360010160009054906101000a900461ffff1661ffff1661ffff16815260200190815260200160002060020160008360000154815260200190815260200160002060010160076101000a81548160ff0219169083151502179055506001600660008360010160009054906101000a900461ffff1661ffff1661ffff16815260200190815260200160002060020160008360000154815260200190815260200160002060010160046101000a81548160ff021916908315150217905550611b108160010160009054906101000a900461ffff168260000154600660008560010160009054906101000a900461ffff1661ffff1661ffff16815260200190815260200160002060020160008560000154815260200190815260200160002060010160009054906101000a900460ff16611eda565b7f1954c6845304788fb449c20d6a568c6672d0d11585f9d8f32673fba15c9cbf2283604051611b3f91906124af565b60405180910390a1505050565b606060006002836002611b5f919061337d565b611b6991906133d7565b67ffffffffffffffff811115611b8257611b816127b8565b5b6040519080825280601f01601f191660200182016040528015611bb45781602001600182028036833780820191505090505b5090507f300000000000000000000000000000000000000000000000000000000000000081600081518110611bec57611beb612f1e565b5b60200101907effffffffffffffffffffffffffffffffffffffffffffffffffffffffffffff1916908160001a9053507f780000000000000000000000000000000000000000000000000000000000000081600181518110611c5057611c4f612f1e565b5b60200101907effffffffffffffffffffffffffffffffffffffffffffffffffffffffffffff1916908160001a90535060006001846002611c90919061337d565b611c9a91906133d7565b90505b6001811115611d3a577f3031323334353637383961626364656600000000000000000000000000000000600f861660108110611cdc57611cdb612f1e565b5b1a60f81b828281518110611cf357611cf2612f1e565b5b60200101907effffffffffffffffffffffffffffffffffffffffffffffffffffffffffffff1916908160001a905350600485901c945080611d339061342d565b9050611c9d565b5060008414611d7e576040517f08c379a0000000000000000000000000000000000000000000000000000000008152600401611d75906134a3565b60405180910390fd5b8091505092915050565b60007f000000000000000000000000000000000000000000000000000000000000000073ffffffffffffffffffffffffffffffffffffffff16634000aea07f000000000000000000000000000000000000000000000000000000000000000084866000604051602001611dfc9291906134c3565b6040516020818303038152906040526040518463ffffffff1660e01b8152600401611e2993929190613541565b6020604051808303816000875af1158015611e48573d6000803e3d6000fd5b505050506040513d601f19601f82011682018060405250810190611e6c9190613594565b506000611e8f8460003060016000898152602001908152602001600020546121c8565b9050600180600086815260200190815260200160002054611eb091906133d7565b6001600086815260200190815260200160002081905550611ed18482612204565b91505092915050565b600660008461ffff1661ffff16815260200190815260200160002060010160008260ff1660ff16815260200190815260200160002060009054906101000a900460ff1615611f72576000600660008561ffff1661ffff168152602001908152602001600020600201600084815260200190815260200160002060010160046101000a81548160ff0219169083151502179055506121c3565b601e8160ff16141561201a576001600660008561ffff1661ffff168152602001908152602001600020600201600084815260200190815260200160002060010160056101000a81548160ff021916908315150217905550600a600660008561ffff1661ffff168152602001908152602001600020600201600084815260200190815260200160002060010160006101000a81548160ff021916908360ff1602179055506121c3565b60148160ff16141561202b576121c3565b600a8160ff16141561203c576121c3565b60078160ff161480612051575060168160ff16145b8061205f575060248160ff16145b156120ff576001600660008561ffff1661ffff168152602001908152602001600020600201600084815260200190815260200160002060010160066101000a81548160ff0219169083151502179055506000600660008561ffff1661ffff168152602001908152602001600020600201600084815260200190815260200160002060010160046101000a81548160ff0219169083151502179055506121c3565b60028160ff161480612114575060118160ff16145b80612122575060218160ff16145b156121c2576001600660008561ffff1661ffff168152602001908152602001600020600201600084815260200190815260200160002060010160076101000a81548160ff0219169083151502179055506000600660008561ffff1661ffff168152602001908152602001600020600201600084815260200190815260200160002060010160046101000a81548160ff0219169083151502179055506121c3565b5b505050565b6000848484846040516020016121e194939291906135c1565b6040516020818303038152906040528051906020012060001c9050949350505050565b60008282604051602001612219929190613648565b60405160208183030381529060405280519060200120905092915050565b60405180610120016040528060008152602001600060ff1681526020016000151581526020016000151581526020016000151581526020016000151581526020016000151581526020016000151581526020016000151581525090565b6000604051905090565b600080fd5b600080fd5b60007fffffffff0000000000000000000000000000000000000000000000000000000082169050919050565b6122dd816122a8565b81146122e857600080fd5b50565b6000813590506122fa816122d4565b92915050565b6000602082840312156123165761231561229e565b5b6000612324848285016122eb565b91505092915050565b60008115159050919050565b6123428161232d565b82525050565b600060208201905061235d6000830184612339565b92915050565b600061ffff82169050919050565b61237a81612363565b82525050565b60006020820190506123956000830184612371565b92915050565b6123a481612363565b81146123af57600080fd5b50565b6000813590506123c18161239b565b92915050565b6000819050919050565b6123da816123c7565b81146123e557600080fd5b50565b6000813590506123f7816123d1565b92915050565b600080604083850312156124145761241361229e565b5b6000612422858286016123b2565b9250506020612433858286016123e8565b9150509250929050565b6000819050919050565b6124508161243d565b811461245b57600080fd5b50565b60008135905061246d81612447565b92915050565b6000602082840312156124895761248861229e565b5b60006124978482850161245e565b91505092915050565b6124a98161243d565b82525050565b60006020820190506124c460008301846124a0565b92915050565b600073ffffffffffffffffffffffffffffffffffffffff82169050919050565b60006124f5826124ca565b9050919050565b612505816124ea565b811461251057600080fd5b50565b600081359050612522816124fc565b92915050565b6000806040838503121561253f5761253e61229e565b5b600061254d8582860161245e565b925050602061255e85828601612513565b9150509250929050565b612571816123c7565b82525050565b600060208201905061258c6000830184612568565b92915050565b6000602082840312156125a8576125a761229e565b5b60006125b6848285016123b2565b91505092915050565b600060ff82169050919050565b6125d5816125bf565b82525050565b60006020820190506125f060008301846125cc565b92915050565b6125ff816125bf565b811461260a57600080fd5b50565b60008135905061261c816125f6565b92915050565b600080604083850312156126395761263861229e565b5b6000612647858286016123b2565b92505060206126588582860161260d565b9150509250929050565b61266b816123c7565b82525050565b61267a816125bf565b82525050565b6126898161232d565b82525050565b610120820160008201516126a66000850182612662565b5060208201516126b96020850182612671565b5060408201516126cc6040850182612680565b5060608201516126df6060850182612680565b5060808201516126f26080850182612680565b5060a082015161270560a0850182612680565b5060c082015161271860c0850182612680565b5060e082015161272b60e0850182612680565b50610100820151612740610100850182612680565b50505050565b60006101208201905061275c600083018461268f565b92915050565b600080604083850312156127795761277861229e565b5b60006127878582860161245e565b9250506020612798858286016123e8565b9150509250929050565b600080fd5b6000601f19601f8301169050919050565b7f4e487b7100000000000000000000000000000000000000000000000000000000600052604160045260246000fd5b6127f0826127a7565b810181811067ffffffffffffffff8211171561280f5761280e6127b8565b5b80604052505050565b6000612822612294565b905061282e82826127e7565b919050565b61283c8161232d565b811461284757600080fd5b50565b60008135905061285981612833565b92915050565b60006101208284031215612876576128756127a2565b5b612881610120612818565b90506000612891848285016123e8565b60008301525060206128a58482850161260d565b60208301525060406128b98482850161284a565b60408301525060606128cd8482850161284a565b60608301525060806128e18482850161284a565b60808301525060a06128f58482850161284a565b60a08301525060c06129098482850161284a565b60c08301525060e061291d8482850161284a565b60e0830152506101006129328482850161284a565b6101008301525092915050565b600080600080610180858703121561295a5761295961229e565b5b6000612968878288016123b2565b9450506020612979878288016123e8565b935050604061298a8782880161260d565b925050606061299b8782880161285f565b91505092959194509250565b600080600061016084860312156129c1576129c061229e565b5b60006129cf868287016123b2565b93505060206129e0868287016123e8565b92505060406129f18682870161285f565b9150509250925092565b600080fd5b600080fd5b600080fd5b60008083601f840112612a2057612a1f6129fb565b5b8235905067ffffffffffffffff811115612a3d57612a3c612a00565b5b602083019150836020820283011115612a5957612a58612a05565b5b9250929050565b600080600080600060808688031215612a7c57612a7b61229e565b5b6000612a8a8882890161260d565b9550506020612a9b8882890161260d565b945050604086013567ffffffffffffffff811115612abc57612abb6122a3565b5b612ac888828901612a0a565b93509350506060612adb888289016123b2565b9150509295509295909350565b600082825260208201905092915050565b7f556e6b6e6f776e2065646974696f6e0000000000000000000000000000000000600082015250565b6000612b2f600f83612ae8565b9150612b3a82612af9565b602082019050919050565b60006020820190508181036000830152612b5e81612b22565b9050919050565b7f7061776e20616c72656164792072656769737465726564000000000000000000600082015250565b6000612b9b601783612ae8565b9150612ba682612b65565b602082019050919050565b60006020820190508181036000830152612bca81612b8e565b9050919050565b7f67616d652069732066756c6c0000000000000000000000000000000000000000600082015250565b6000612c07600c83612ae8565b9150612c1282612bd1565b602082019050919050565b60006020820190508181036000830152612c3681612bfa565b9050919050565b7f4e487b7100000000000000000000000000000000000000000000000000000000600052601160045260246000fd5b6000612c7782612363565b9150612c8283612363565b92508261ffff03821115612c9957612c98612c3d565b5b828201905092915050565b7f416363657373436f6e74726f6c3a2063616e206f6e6c792072656e6f756e636560008201527f20726f6c657320666f722073656c660000000000000000000000000000000000602082015250565b6000612d00602f83612ae8565b9150612d0b82612ca4565b604082019050919050565b60006020820190508181036000830152612d2f81612cf3565b9050919050565b7f556e72656769737465726564207061776e000000000000000000000000000000600082015250565b6000612d6c601183612ae8565b9150612d7782612d36565b602082019050919050565b60006020820190508181036000830152612d9b81612d5f565b9050919050565b7f526f756e64206e6f7420636f6d706c6574656400000000000000000000000000600082015250565b6000612dd8601383612ae8565b9150612de382612da2565b602082019050919050565b60006020820190508181036000830152612e0781612dcb565b9050919050565b7f7061776e20686173206e6f74206265656e207265677369746572656400000000600082015250565b6000612e44601c83612ae8565b9150612e4f82612e0e565b602082019050919050565b60006020820190508181036000830152612e7381612e37565b9050919050565b7f4f6e6c7920565246436f6f7264696e61746f722063616e2066756c66696c6c00600082015250565b6000612eb0601f83612ae8565b9150612ebb82612e7a565b602082019050919050565b60006020820190508181036000830152612edf81612ea3565b9050919050565b600061016082019050612efc6000830186612371565b612f096020830185612568565b612f16604083018461268f565b949350505050565b7f4e487b7100000000000000000000000000000000000000000000000000000000600052603260045260246000fd5b600060208284031215612f6357612f6261229e565b5b6000612f718482850161260d565b91505092915050565b7f6c616e6420696e646578206f7574206f662072616e6765000000000000000000600082015250565b6000612fb0601783612ae8565b9150612fbb82612f7a565b602082019050919050565b60006020820190508181036000830152612fdf81612fa3565b9050919050565b6000612ff1826125bf565b915060ff82141561300557613004612c3d565b5b600182019050919050565b600081905092915050565b7f416363657373436f6e74726f6c3a206163636f756e7420000000000000000000600082015250565b6000613051601783613010565b915061305c8261301b565b601782019050919050565b600081519050919050565b60005b83811015613090578082015181840152602081019050613075565b8381111561309f576000848401525b50505050565b60006130b082613067565b6130ba8185613010565b93506130ca818560208601613072565b80840191505092915050565b7f206973206d697373696e6720726f6c6520000000000000000000000000000000600082015250565b600061310c601183613010565b9150613117826130d6565b601182019050919050565b600061312d82613044565b915061313982856130a5565b9150613144826130ff565b915061315082846130a5565b91508190509392505050565b600061316782613067565b6131718185612ae8565b9350613181818560208601613072565b61318a816127a7565b840191505092915050565b600060208201905081810360008301526131af818461315c565b905092915050565b6131c0816124ea565b82525050565b60006020820190506131db60008301846131b7565b92915050565b6000815190506131f0816123d1565b92915050565b60006020828403121561320c5761320b61229e565b5b600061321a848285016131e1565b91505092915050565b7f4e6f7420656e6f756768204c494e4b202d2066696c6c20636f6e74726163742060008201527f7769746820666175636574000000000000000000000000000000000000000000602082015250565b600061327f602b83612ae8565b915061328a82613223565b604082019050919050565b600060208201905081810360008301526132ae81613272565b9050919050565b7f4e487b7100000000000000000000000000000000000000000000000000000000600052601260045260246000fd5b60006132ef826123c7565b91506132fa836123c7565b92508261330a576133096132b5565b5b828206905092915050565b6000613320826125bf565b915061332b836125bf565b92508260ff0382111561334157613340612c3d565b5b828201905092915050565b6000613357826125bf565b9150613362836125bf565b925082613372576133716132b5565b5b828206905092915050565b6000613388826123c7565b9150613393836123c7565b9250817fffffffffffffffffffffffffffffffffffffffffffffffffffffffffffffffff04831182151516156133cc576133cb612c3d565b5b828202905092915050565b60006133e2826123c7565b91506133ed836123c7565b9250827fffffffffffffffffffffffffffffffffffffffffffffffffffffffffffffffff0382111561342257613421612c3d565b5b828201905092915050565b6000613438826123c7565b9150600082141561344c5761344b612c3d565b5b600182039050919050565b7f537472696e67733a20686578206c656e67746820696e73756666696369656e74600082015250565b600061348d602083612ae8565b915061349882613457565b602082019050919050565b600060208201905081810360008301526134bc81613480565b9050919050565b60006040820190506134d860008301856124a0565b6134e56020830184612568565b9392505050565b600081519050919050565b600082825260208201905092915050565b6000613513826134ec565b61351d81856134f7565b935061352d818560208601613072565b613536816127a7565b840191505092915050565b600060608201905061355660008301866131b7565b6135636020830185612568565b81810360408301526135758184613508565b9050949350505050565b60008151905061358e81612833565b92915050565b6000602082840312156135aa576135a961229e565b5b60006135b88482850161357f565b91505092915050565b60006080820190506135d660008301876124a0565b6135e36020830186612568565b6135f060408301856131b7565b6135fd6060830184612568565b95945050505050565b6000819050919050565b61362161361c8261243d565b613606565b82525050565b6000819050919050565b61364261363d826123c7565b613627565b82525050565b60006136548285613610565b6020820191506136648284613631565b602082019150819050939250505056fea2646970667358221220af888da91cb368cf3da335ec0cef810bccb2842848f24c5cd871960f49ad3f6564736f6c634300080a0033",
  "immutableReferences": {
    "73": [
      {
        "length": 32,
        "start": 5559
      },
      {
        "length": 32,
        "start": 7564
      }
    ],
    "75": [
      {
        "length": 32,
        "start": 3449
      },
      {
        "length": 32,
        "start": 7624
      }
    ]
  },
  "source": "// BoardMock.sol\r\n// SPDX-License-Identifier: MIT\r\n\r\npragma solidity 0.8.10;\r\n\r\nimport \"../Board.sol\";\r\n\r\n// @dev For tests only\r\ncontract BoardMock is BoardContract {\r\n\r\n\tconstructor() BoardContract(\r\n\t\taddress(0x514910771AF9Ca656af840dff83E8264EcF986CA),\r\n\t\taddress(0x514910771AF9Ca656af840dff83E8264EcF986CA),\r\n\t\t0x6c3699283bda56ad74f6b855546325b68d482e983852a7a82979cc4807b641f4,\r\n\t\t0.0001 * 10 ** 18\r\n\t) {}\r\n\r\n\tfunction updatePawnInfo(uint16 _edition, uint256 _pawnID, uint8 _rarity, PawnInfo memory _pawnInfo) public {\r\n\t\tuint256 _random;\r\n\t\t/*uint8 rarity;\r\n\t\tfor (uint i=0; rarity == _rarity; i++) {\r\n\t\t\t_random = uint256(keccak256(abi.encode(block.timestamp, i)));\r\n\t\t\trarity = retrievePropertyRarity(_random);\r\n\t\t}*/\r\n\r\n\t\t/* script to retrieve random number from rarity\r\n\t\tfor (let random = 1000; random < 5000; random++)\r\n\t\t\tawait BoardInstance.retrievePropertyRarity(\r\n\t\tethers.utils.parseEther(random.toString())\r\n\t\t).then((rarity) => {\r\n\t\tif (rarity.toNumber() === 0) {\r\n\t\tconsole.log(\"retrievePropertyRarity\", random, rarity.toNumber());\r\n\t\t}\r\n\t\t});*/\r\n\r\n\t\tif (_rarity == 2) {\r\n\t\t\t_random = 1098;\r\n\t\t}\r\n\r\n\t\tif (_rarity == 1) {\r\n\t\t\t_random = 1097;\r\n\t\t}\r\n\r\n\t\tif (_rarity == 0) {\r\n\t\t\t_random = 1163;\r\n\t\t}\r\n\r\n\t\t_pawnInfo.random = _random;\r\n\r\n\t\tthis.setPawnInfo(_edition, _pawnID, _pawnInfo);\r\n\t}\r\n\r\n\t// Strict copy of Bank functions turned to public type\r\n\t/*function retrievePropertyRarity(uint256 randomness) public pure returns(uint8){\r\n\t\tuint256 number = calculateRandomInteger(\"rarity\", 1, 111, randomness);\r\n\r\n\t\tif (number <= 100) return 2;\r\n\t\tif (number <= 110) return 1;\r\n\t\treturn 0;\r\n\t}\r\n\r\n\tfunction calculateRandomInteger(string memory _type, uint256 min, uint256 max, uint256 randomness) public pure returns(uint256) {\r\n\t\tuint256 modulo = max - min + 1;\r\n\t\tuint256 number = uint256(keccak256(abi.encode(randomness, _type)));\r\n\r\n\t\treturn number % modulo + min;\r\n\t}*/\r\n}\r\n",
  "sourcePath": "C:\\Users\\aaast\\Alyra\\mnp-trufflebox\\contracts\\Stubs\\BoardMock.sol",
  "compiler": {
    "name": "solc",
    "version": "0.8.10+commit.fc410830.Emscripten.clang"
  },
  "schemaVersion": "3.4.3",
  "updatedAt": "2022-01-24T14:23:03.730Z",
  "devdoc": {
    "kind": "dev",
    "methods": {
      "getMaxEdition()": {
        "returns": {
          "_0": "number of board editions"
        }
      },
      "getNbLands(uint16)": {
        "params": {
          "edition": "board edition"
        },
        "returns": {
          "_0": "number of lands"
        }
      },
      "getPawnInfo(uint16,uint256)": {
        "params": {
          "_edition": "board edition",
          "_pawnID": "pawn ID"
        },
        "returns": {
          "p": "Pawn information"
        }
      },
      "getRarityLevel(uint16)": {
        "params": {
          "edition": "board edition"
        },
        "returns": {
          "_0": "number of rarity levels"
        }
      },
      "getRoleAdmin(bytes32)": {
        "details": "Returns the admin role that controls `role`. See {grantRole} and {revokeRole}. To change a role's admin, use {_setRoleAdmin}."
      },
      "grantRole(bytes32,address)": {
        "details": "Grants `role` to `account`. If `account` had not been already granted `role`, emits a {RoleGranted} event. Requirements: - the caller must have ``role``'s admin role."
      },
      "hasRole(bytes32,address)": {
        "details": "Returns `true` if `account` has been granted `role`."
      },
      "isPurchasable(uint16,uint8)": {
        "params": {
          "edition": "board edition",
          "land": "cell number"
        },
        "returns": {
          "_0": "true or false"
        }
      },
      "isRegistered(uint16,uint256)": {
        "params": {
          "_edition": "board edition",
          "_pawnID": "pawn ID"
        },
        "returns": {
          "_0": "true or false"
        }
      },
      "newBoard(uint8,uint8,uint8[],uint16)": {
        "params": {
          "_maxPawns": "max number of pawns allowed",
          "_nbOfLands": "number of lands",
          "_rarityLevel": "number of rarity levels"
        }
      },
      "play(uint16,uint256)": {
        "params": {
          "_edition": "board edition",
          "_pawnID": "pawn ID"
        }
      },
      "register(uint16,uint256)": {
        "params": {
          "_edition": "board edition",
          "_pawnID": "pawn ID"
        }
      },
      "renounceRole(bytes32,address)": {
        "details": "Revokes `role` from the calling account. Roles are often managed via {grantRole} and {revokeRole}: this function's purpose is to provide a mechanism for accounts to lose their privileges if they are compromised (such as when a trusted device is misplaced). If the calling account had been revoked `role`, emits a {RoleRevoked} event. Requirements: - the caller must be `account`."
      },
      "revokeRole(bytes32,address)": {
        "details": "Revokes `role` from `account`. If `account` had been granted `role`, emits a {RoleRevoked} event. Requirements: - the caller must have ``role``'s admin role."
      },
      "setPawnInfo(uint16,uint256,(uint256,uint8,bool,bool,bool,bool,bool,bool,bool))": {
        "params": {
          "_edition": "board edition",
          "_pawnID": "pawn ID",
          "_pawnInfo": "pawn information"
        }
      },
      "supportsInterface(bytes4)": {
        "details": "See {IERC165-supportsInterface}."
      }
    },
    "version": 1
  },
  "userdoc": {
    "events": {
      "BoardCreated(uint16)": {
        "notice": "Event emitted when a new board is created"
      },
      "RandomReady(bytes32)": {
        "notice": "Event emitted when a random number is received by contract"
      },
      "ePawn(uint16,uint256)": {
        "notice": "Event emitted when a new pawn is registered on a board"
      }
    },
    "kind": "user",
    "methods": {
      "getMaxEdition()": {
        "notice": "get the number of board editions"
      },
      "getNbLands(uint16)": {
        "notice": "get the number of lands for a board edition"
      },
      "getPawnInfo(uint16,uint256)": {
        "notice": "get Pawn information on a board"
      },
      "getRarityLevel(uint16)": {
        "notice": "get the number of rarity level for a board edition"
      },
      "isPurchasable(uint16,uint8)": {
        "notice": "check if a land can be bought (PROP tokens available)"
      },
      "isRegistered(uint16,uint256)": {
        "notice": "check if a pawn is registered"
      },
      "newBoard(uint8,uint8,uint8[],uint16)": {
        "notice": "create a new board"
      },
      "play(uint16,uint256)": {
        "notice": "play with a pawn"
      },
      "register(uint16,uint256)": {
        "notice": "register a pawn on a board"
      },
      "setPawnInfo(uint16,uint256,(uint256,uint8,bool,bool,bool,bool,bool,bool,bool))": {
        "notice": "set Pawn information on a board"
      }
    },
    "version": 1
  }
}