{
  "contractName": "BoardGameStrategistTest",
  "abi": [
    {
      "inputs": [],
      "stateMutability": "nonpayable",
      "type": "constructor"
    },
    {
      "inputs": [
        {
          "internalType": "uint16",
          "name": "",
          "type": "uint16"
        }
      ],
      "name": "boards",
      "outputs": [
        {
          "internalType": "uint8",
          "name": "nbOfLands",
          "type": "uint8"
        },
        {
          "internalType": "uint8",
          "name": "rarityLevel",
          "type": "uint8"
        },
        {
          "internalType": "uint16",
          "name": "nb_pawns_max",
          "type": "uint16"
        },
        {
          "internalType": "uint16",
          "name": "nb_pawns",
          "type": "uint16"
        }
      ],
      "stateMutability": "view",
      "type": "function"
    },
    {
      "inputs": [],
      "name": "pawnID",
      "outputs": [
        {
          "internalType": "uint256",
          "name": "",
          "type": "uint256"
        }
      ],
      "stateMutability": "view",
      "type": "function"
    },
    {
      "inputs": [
        {
          "internalType": "uint16",
          "name": "_edition",
          "type": "uint16"
        },
        {
          "internalType": "uint256",
          "name": "_pawnID",
          "type": "uint256"
        },
        {
          "internalType": "uint8",
          "name": "_position",
          "type": "uint8"
        }
      ],
      "name": "gameStrategist",
      "outputs": [],
      "stateMutability": "nonpayable",
      "type": "function"
    },
    {
      "inputs": [
        {
          "internalType": "uint16",
          "name": "edition",
          "type": "uint16"
        },
        {
          "internalType": "uint8",
          "name": "land",
          "type": "uint8"
        }
      ],
      "name": "isPurchasable",
      "outputs": [
        {
          "internalType": "bool",
          "name": "",
          "type": "bool"
        }
      ],
      "stateMutability": "view",
      "type": "function"
    },
    {
      "inputs": [
        {
          "internalType": "uint16",
          "name": "_edition",
          "type": "uint16"
        },
        {
          "internalType": "uint256",
          "name": "_pawnID",
          "type": "uint256"
        }
      ],
      "name": "getPawnInfo",
      "outputs": [
        {
          "components": [
            {
              "internalType": "uint256",
              "name": "random",
              "type": "uint256"
            },
            {
              "internalType": "uint8",
              "name": "position",
              "type": "uint8"
            },
            {
              "internalType": "bool",
              "name": "isOnBoard",
              "type": "bool"
            },
            {
              "internalType": "bool",
              "name": "isPropertyBought",
              "type": "bool"
            },
            {
              "internalType": "bool",
              "name": "isRentPaid",
              "type": "bool"
            },
            {
              "internalType": "bool",
              "name": "isRoundCompleted",
              "type": "bool"
            },
            {
              "internalType": "bool",
              "name": "isInJail",
              "type": "bool"
            },
            {
              "internalType": "bool",
              "name": "isChanceCard",
              "type": "bool"
            },
            {
              "internalType": "bool",
              "name": "isCommunityCard",
              "type": "bool"
            }
          ],
          "internalType": "struct BoardGameStrategistTest.PawnInfo",
          "name": "p",
          "type": "tuple"
        }
      ],
      "stateMutability": "view",
      "type": "function"
    },
    {
      "inputs": [
        {
          "internalType": "uint16",
          "name": "_edition",
          "type": "uint16"
        },
        {
          "internalType": "uint256",
          "name": "_pawnID",
          "type": "uint256"
        },
        {
          "components": [
            {
              "internalType": "uint256",
              "name": "random",
              "type": "uint256"
            },
            {
              "internalType": "uint8",
              "name": "position",
              "type": "uint8"
            },
            {
              "internalType": "bool",
              "name": "isOnBoard",
              "type": "bool"
            },
            {
              "internalType": "bool",
              "name": "isPropertyBought",
              "type": "bool"
            },
            {
              "internalType": "bool",
              "name": "isRentPaid",
              "type": "bool"
            },
            {
              "internalType": "bool",
              "name": "isRoundCompleted",
              "type": "bool"
            },
            {
              "internalType": "bool",
              "name": "isInJail",
              "type": "bool"
            },
            {
              "internalType": "bool",
              "name": "isChanceCard",
              "type": "bool"
            },
            {
              "internalType": "bool",
              "name": "isCommunityCard",
              "type": "bool"
            }
          ],
          "internalType": "struct BoardGameStrategistTest.PawnInfo",
          "name": "_pawnInfo",
          "type": "tuple"
        }
      ],
      "name": "setPawnInfo",
      "outputs": [],
      "stateMutability": "nonpayable",
      "type": "function"
    },
    {
      "inputs": [
        {
          "internalType": "uint16",
          "name": "_edition",
          "type": "uint16"
        },
        {
          "internalType": "uint256",
          "name": "_pawnID",
          "type": "uint256"
        },
        {
          "internalType": "uint8",
          "name": "_position",
          "type": "uint8"
        }
      ],
      "name": "setPosition",
      "outputs": [],
      "stateMutability": "nonpayable",
      "type": "function"
    }
  ],
  "bytecode": "0x60806040523480156200001157600080fd5b5060008060006101000a81548161ffff021916908361ffff1602179055506000600260008061ffff168152602001908152602001600020905060288160000160006101000a81548160ff021916908360ff1602179055506103e88160030160006101000a81548161ffff021916908361ffff16021790555060028160000160016101000a81548160ff021916908360ff1602179055506000604051806101400160405280600060ff168152602001600260ff168152602001600760ff168152602001600a60ff168152602001601160ff168152602001601460ff168152602001601660ff168152602001601e60ff168152602001602160ff168152602001602460ff16815250905060005b8260000160009054906101000a900460ff1660ff168160ff161015620002135760018360010160008360ff1660ff16815260200190815260200160002060006101000a81548160ff02191690831515021790555060005b600a8160ff161015620001fc57828160ff16600a8110620001995762000198620002a9565b5b602002015160ff168260ff161415620001e65760008460010160008460ff1660ff16815260200190815260200160002060006101000a81548160ff021916908315150217905550620001fc565b8080620001f39062000314565b91505062000173565b5080806200020a9062000314565b9150506200011c565b507fd2ae2067bef5ced912dc3639bf77575813758210bc98a7f3fb3f9f29d852d39f6001819055506001826002016000600154815260200190815260200160002060010160016101000a81548160ff0219169083151502179055506001826002016000600154815260200190815260200160002060010160046101000a81548160ff021916908315150217905550505062000343565b7f4e487b7100000000000000000000000000000000000000000000000000000000600052603260045260246000fd5b7f4e487b7100000000000000000000000000000000000000000000000000000000600052601160045260246000fd5b600060ff82169050919050565b6000620003218262000307565b915060ff821415620003385762000337620002d8565b5b600182019050919050565b610fb280620003536000396000f3fe608060405234801561001057600080fd5b506004361061007d5760003560e01c80636ae620c11161005b5780636ae620c1146101035780639c37934514610133578063b8db81a11461014f578063b9025bd91461016b5761007d565b80634db5ae6014610082578063561d0b81146100b55780635f91c06a146100d3575b600080fd5b61009c60048036038101906100979190610a59565b610187565b6040516100ac9493929190610ab1565b60405180910390f35b6100bd6101ed565b6040516100ca9190610b0f565b60405180910390f35b6100ed60048036038101906100e89190610b56565b6101f3565b6040516100fa9190610bb1565b60405180910390f35b61011d60048036038101906101189190610bf8565b610240565b60405161012a9190610d1c565b60405180910390f35b61014d60048036038101906101489190610ed5565b61036f565b005b61016960048036038101906101649190610f29565b6104b3565b005b61018560048036038101906101809190610f29565b6106c5565b005b60026020528060005260406000206000915090508060000160009054906101000a900460ff16908060000160019054906101000a900460ff16908060030160009054906101000a900461ffff16908060030160029054906101000a900461ffff16905084565b60015481565b6000600260008461ffff1661ffff16815260200190815260200160002060010160008360ff1660ff16815260200190815260200160002060009054906101000a900460ff16905092915050565b6102486109b3565b600260008461ffff1661ffff168152602001908152602001600020600201600083815260200190815260200160002060405180610120016040529081600082015481526020016001820160009054906101000a900460ff1660ff1660ff1681526020016001820160019054906101000a900460ff161515151581526020016001820160029054906101000a900460ff161515151581526020016001820160039054906101000a900460ff161515151581526020016001820160049054906101000a900460ff161515151581526020016001820160059054906101000a900460ff161515151581526020016001820160069054906101000a900460ff161515151581526020016001820160079054906101000a900460ff161515151581525050905092915050565b80600260008561ffff1661ffff16815260200190815260200160002060020160008481526020019081526020016000206000820151816000015560208201518160010160006101000a81548160ff021916908360ff16021790555060408201518160010160016101000a81548160ff02191690831515021790555060608201518160010160026101000a81548160ff02191690831515021790555060808201518160010160036101000a81548160ff02191690831515021790555060a08201518160010160046101000a81548160ff02191690831515021790555060c08201518160010160056101000a81548160ff02191690831515021790555060e08201518160010160066101000a81548160ff0219169083151502179055506101008201518160010160076101000a81548160ff021916908315150217905550905050505050565b80600260008561ffff1661ffff168152602001908152602001600020600201600084815260200190815260200160002060010160006101000a81548160ff021916908360ff1602179055506000600260008561ffff1661ffff168152602001908152602001600020600201600084815260200190815260200160002060010160026101000a81548160ff0219169083151502179055506000600260008561ffff1661ffff168152602001908152602001600020600201600084815260200190815260200160002060010160036101000a81548160ff0219169083151502179055506000600260008561ffff1661ffff168152602001908152602001600020600201600084815260200190815260200160002060010160056101000a81548160ff0219169083151502179055506000600260008561ffff1661ffff168152602001908152602001600020600201600084815260200190815260200160002060010160066101000a81548160ff0219169083151502179055506000600260008561ffff1661ffff168152602001908152602001600020600201600084815260200190815260200160002060010160076101000a81548160ff0219169083151502179055506001600260008561ffff1661ffff168152602001908152602001600020600201600084815260200190815260200160002060010160046101000a81548160ff021916908315150217905550505050565b600260008461ffff1661ffff16815260200190815260200160002060010160008260ff1660ff16815260200190815260200160002060009054906101000a900460ff161561075d576000600260008561ffff1661ffff168152602001908152602001600020600201600084815260200190815260200160002060010160046101000a81548160ff0219169083151502179055506109ae565b601e8160ff161415610805576001600260008561ffff1661ffff168152602001908152602001600020600201600084815260200190815260200160002060010160056101000a81548160ff021916908315150217905550600a600260008561ffff1661ffff168152602001908152602001600020600201600084815260200190815260200160002060010160006101000a81548160ff021916908360ff1602179055506109ae565b60148160ff161415610816576109ae565b600a8160ff161415610827576109ae565b60078160ff16148061083c575060168160ff16145b8061084a575060248160ff16145b156108ea576001600260008561ffff1661ffff168152602001908152602001600020600201600084815260200190815260200160002060010160066101000a81548160ff0219169083151502179055506000600260008561ffff1661ffff168152602001908152602001600020600201600084815260200190815260200160002060010160046101000a81548160ff0219169083151502179055506109ae565b60028160ff1614806108ff575060118160ff16145b8061090d575060218160ff16145b156109ad576001600260008561ffff1661ffff168152602001908152602001600020600201600084815260200190815260200160002060010160076101000a81548160ff0219169083151502179055506000600260008561ffff1661ffff168152602001908152602001600020600201600084815260200190815260200160002060010160046101000a81548160ff0219169083151502179055506109ae565b5b505050565b60405180610120016040528060008152602001600060ff1681526020016000151581526020016000151581526020016000151581526020016000151581526020016000151581526020016000151581526020016000151581525090565b6000604051905090565b600080fd5b600061ffff82169050919050565b610a3681610a1f565b8114610a4157600080fd5b50565b600081359050610a5381610a2d565b92915050565b600060208284031215610a6f57610a6e610a1a565b5b6000610a7d84828501610a44565b91505092915050565b600060ff82169050919050565b610a9c81610a86565b82525050565b610aab81610a1f565b82525050565b6000608082019050610ac66000830187610a93565b610ad36020830186610a93565b610ae06040830185610aa2565b610aed6060830184610aa2565b95945050505050565b6000819050919050565b610b0981610af6565b82525050565b6000602082019050610b246000830184610b00565b92915050565b610b3381610a86565b8114610b3e57600080fd5b50565b600081359050610b5081610b2a565b92915050565b60008060408385031215610b6d57610b6c610a1a565b5b6000610b7b85828601610a44565b9250506020610b8c85828601610b41565b9150509250929050565b60008115159050919050565b610bab81610b96565b82525050565b6000602082019050610bc66000830184610ba2565b92915050565b610bd581610af6565b8114610be057600080fd5b50565b600081359050610bf281610bcc565b92915050565b60008060408385031215610c0f57610c0e610a1a565b5b6000610c1d85828601610a44565b9250506020610c2e85828601610be3565b9150509250929050565b610c4181610af6565b82525050565b610c5081610a86565b82525050565b610c5f81610b96565b82525050565b61012082016000820151610c7c6000850182610c38565b506020820151610c8f6020850182610c47565b506040820151610ca26040850182610c56565b506060820151610cb56060850182610c56565b506080820151610cc86080850182610c56565b5060a0820151610cdb60a0850182610c56565b5060c0820151610cee60c0850182610c56565b5060e0820151610d0160e0850182610c56565b50610100820151610d16610100850182610c56565b50505050565b600061012082019050610d326000830184610c65565b92915050565b600080fd5b6000601f19601f8301169050919050565b7f4e487b7100000000000000000000000000000000000000000000000000000000600052604160045260246000fd5b610d8682610d3d565b810181811067ffffffffffffffff82111715610da557610da4610d4e565b5b80604052505050565b6000610db8610a10565b9050610dc48282610d7d565b919050565b610dd281610b96565b8114610ddd57600080fd5b50565b600081359050610def81610dc9565b92915050565b60006101208284031215610e0c57610e0b610d38565b5b610e17610120610dae565b90506000610e2784828501610be3565b6000830152506020610e3b84828501610b41565b6020830152506040610e4f84828501610de0565b6040830152506060610e6384828501610de0565b6060830152506080610e7784828501610de0565b60808301525060a0610e8b84828501610de0565b60a08301525060c0610e9f84828501610de0565b60c08301525060e0610eb384828501610de0565b60e083015250610100610ec884828501610de0565b6101008301525092915050565b60008060006101608486031215610eef57610eee610a1a565b5b6000610efd86828701610a44565b9350506020610f0e86828701610be3565b9250506040610f1f86828701610df5565b9150509250925092565b600080600060608486031215610f4257610f41610a1a565b5b6000610f5086828701610a44565b9350506020610f6186828701610be3565b9250506040610f7286828701610b41565b915050925092509256fea26469706673582212207a819dc2ed8cef252e6b5f6120a8943bb6880ad8dc7231bda3f28a1e49b20d5d64736f6c634300080a0033",
  "immutableReferences": {},
  "source": "// Board.sol\r\n// SPDX-License-Identifier: MIT\r\npragma solidity 0.8.10;\r\n\r\nimport \"@openzeppelin/contracts/access/AccessControl.sol\";\r\nimport \"@chainlink/contracts/src/v0.8/VRFConsumerBase.sol\";\r\n\r\n/// @dev for tests only\r\ncontract BoardGameStrategistTest {\r\n\t/// @dev structure used to store pawn's attribute\r\n\tstruct PawnInfo {\r\n\t\tuint256 random;\r\n\t\tuint8 position;\r\n\t\tbool isOnBoard;\r\n\t\tbool isPropertyBought;\r\n\t\tbool isRentPaid;\r\n\t\tbool isRoundCompleted;\r\n\t\tbool isInJail;\r\n\t\tbool isChanceCard;\r\n\t\tbool isCommunityCard;\r\n\t}\r\n\r\n\t/// @dev structure used to store pawn's attribute\r\n\tstruct BoardInfo {\r\n\t\tuint8 nbOfLands;\r\n\t\tuint8 rarityLevel;\r\n\t\tmapping(uint8 => bool) isPurchasable;\r\n\t\tmapping(uint256 => PawnInfo) pawns;\r\n\t\tuint16 nb_pawns_max;\r\n\t\tuint16 nb_pawns;\r\n\t}\r\n\r\n\t/// @dev number of board editions\r\n\tuint16 private editionMax;\r\n\r\n\tuint256 public pawnID;\r\n\r\n\t/// @dev store all boards by edition number\r\n\tmapping(uint16 => BoardInfo) public boards;\r\n\r\n\tconstructor() {\r\n\t\teditionMax = 0;\r\n\r\n\t\t// Paris edition (0)\r\n\t\tBoardInfo storage b = boards[0];\r\n\t\tb.nbOfLands = 40;\r\n\t\tb.nb_pawns_max = 1000;\r\n\t\tb.rarityLevel = 2;\r\n\r\n\t\tuint8[10] memory notPurchasableLands = [0, 2, 7, 10, 17, 20, 22, 30, 33, 36];\r\n\t\tfor (uint8 landID; landID < b.nbOfLands; landID++) {\r\n\t\t\tb.isPurchasable[landID] = true;\r\n\t\t\tfor (uint8 n; n < notPurchasableLands.length; n++) {\r\n\t\t\t\tif (landID == notPurchasableLands[n]) {\r\n\t\t\t\t\tb.isPurchasable[landID] = false;\r\n\t\t\t\t\tbreak;\r\n\t\t\t\t}\r\n\t\t\t}\r\n\t\t}\r\n\r\n\t\t// Pawn initialization\r\n\t\tpawnID = uint256(0xd2ae2067bef5ced912dc3639bf77575813758210bc98a7f3fb3f9f29d852d39f);\r\n\t\tb.pawns[pawnID].isOnBoard = true;\r\n\t\tb.pawns[pawnID].isRoundCompleted = true;\r\n\t}\r\n\r\n\t/** @dev Game strategist\r\n\t * @param _edition board edition\r\n\t * @param _pawnID pawn ID*/\r\n\tfunction gameStrategist(uint16 _edition, uint256 _pawnID, uint8 _position) external {\r\n\t\t// Purchasable lands\r\n\t\tif (boards[_edition].isPurchasable[_position]) {\r\n\t\t\tboards[_edition].pawns[_pawnID].isRoundCompleted = false;\r\n\r\n\t\t\treturn;\r\n\t\t}\r\n\r\n\t\t// Go to jail\r\n\t\tif (_position == 30) {\r\n\t\t\tboards[_edition].pawns[_pawnID].isInJail = true;\r\n\t\t\tboards[_edition].pawns[_pawnID].position = 10;\r\n\t\t\treturn;\r\n\t\t}\r\n\r\n\t\t// Free park\r\n\t\tif (_position == 20) {\r\n\t\t\treturn;\r\n\t\t}\r\n\r\n\t\t// Jail simple visit\r\n\t\tif (_position == 10) {\r\n\t\t\treturn;\r\n\t\t}\r\n\r\n\t\t// Chance card\r\n\t\tif (_position == 7 ||\r\n\t\t\t_position == 22 ||\r\n\t\t\t_position == 36\r\n\t\t) {\r\n\t\t\tboards[_edition].pawns[_pawnID].isChanceCard = true;\r\n\t\t\tboards[_edition].pawns[_pawnID].isRoundCompleted = false;\r\n\t\t\treturn;\r\n\t\t}\r\n\r\n\t\t// Community chest card\r\n\t\tif (_position == 2 ||\r\n\t\t\t_position == 17 ||\r\n\t\t\t_position == 33\r\n\t\t) {\r\n\t\t\tboards[_edition].pawns[_pawnID].isCommunityCard = true;\r\n\t\t\tboards[_edition].pawns[_pawnID].isRoundCompleted = false;\r\n\t\t\treturn;\r\n\t\t}\r\n\r\n\t\t// Go case\r\n\t\t// Nothing is implemented when a player pass over Go.\r\n\t}\r\n\r\n\t/** check if a land can be bought (PROP tokens available)\r\n\t * @param edition board edition\r\n\t * @param land cell number\r\n\t * @return true or false*/\r\n\tfunction isPurchasable(uint16 edition, uint8 land) external view returns (bool) {\r\n\t\treturn boards[edition].isPurchasable[land];\r\n\t}\r\n\r\n\t/** get Pawn information on a board\r\n\t * @param _edition board edition\r\n\t * @param _pawnID pawn ID\r\n\t * @return p Pawn information*/\r\n\tfunction getPawnInfo(uint16 _edition, uint256 _pawnID) external view returns (PawnInfo memory p) {\r\n\t\treturn boards[_edition].pawns[_pawnID];\r\n\t}\r\n\r\n\t/** set Pawn information on a board\r\n\t * @param _edition board edition\r\n\t * @param _pawnID pawn ID\r\n\t * @param _pawnInfo pawn information*/\r\n\tfunction setPawnInfo(\r\n\t\tuint16 _edition,\r\n\t\tuint256 _pawnID,\r\n\t\tPawnInfo memory _pawnInfo\r\n\t)  external {\r\n\t\tboards[_edition].pawns[_pawnID] = _pawnInfo;\r\n\t}\r\n\r\n\t///@dev for tests\r\n\tfunction setPosition(\r\n\t\tuint16 _edition,\r\n\t\tuint256 _pawnID,\r\n\t\tuint8 _position\r\n\t)  external {\r\n\t\tboards[_edition].pawns[_pawnID].position = _position;\r\n\t\tboards[_edition].pawns[_pawnID].isPropertyBought = false;\r\n\t\tboards[_edition].pawns[_pawnID].isRentPaid = false;\r\n\t\tboards[_edition].pawns[_pawnID].isInJail = false;\r\n\t\tboards[_edition].pawns[_pawnID].isChanceCard = false;\r\n\t\tboards[_edition].pawns[_pawnID].isCommunityCard = false;\r\n\t\tboards[_edition].pawns[_pawnID].isRoundCompleted = true;\r\n\t}\r\n}\r\n",
  "sourcePath": "C:\\Users\\aaast\\Alyra\\mnp-trufflebox\\contracts\\notUsedInProduction\\Stubs\\BoardMocked.gameStrategistTest.sol",
  "compiler": {
    "name": "solc",
    "version": "0.8.10+commit.fc410830.Emscripten.clang"
  },
  "schemaVersion": "3.4.3",
  "updatedAt": "2022-01-26T13:15:29.912Z",
  "devdoc": {
    "details": "for tests only",
    "kind": "dev",
    "methods": {
      "gameStrategist(uint16,uint256,uint8)": {
        "details": "Game strategist",
        "params": {
          "_edition": "board edition",
          "_pawnID": "pawn ID"
        }
      },
      "getPawnInfo(uint16,uint256)": {
        "params": {
          "_edition": "board edition",
          "_pawnID": "pawn ID"
        },
        "returns": {
          "p": "Pawn information"
        }
      },
      "isPurchasable(uint16,uint8)": {
        "params": {
          "edition": "board edition",
          "land": "cell number"
        },
        "returns": {
          "_0": "true or false"
        }
      },
      "setPawnInfo(uint16,uint256,(uint256,uint8,bool,bool,bool,bool,bool,bool,bool))": {
        "params": {
          "_edition": "board edition",
          "_pawnID": "pawn ID",
          "_pawnInfo": "pawn information"
        }
      },
      "setPosition(uint16,uint256,uint8)": {
        "details": "for tests"
      }
    },
    "stateVariables": {
      "boards": {
        "details": "store all boards by edition number"
      },
      "editionMax": {
        "details": "number of board editions"
      }
    },
    "version": 1
  },
  "userdoc": {
    "kind": "user",
    "methods": {
      "getPawnInfo(uint16,uint256)": {
        "notice": "get Pawn information on a board"
      },
      "isPurchasable(uint16,uint8)": {
        "notice": "check if a land can be bought (PROP tokens available)"
      },
      "setPawnInfo(uint16,uint256,(uint256,uint8,bool,bool,bool,bool,bool,bool,bool))": {
        "notice": "set Pawn information on a board"
      }
    },
    "version": 1
  }
}