{
  "contractName": "BoardMock",
  "abi": [
    {
      "inputs": [],
      "stateMutability": "nonpayable",
      "type": "constructor"
    },
    {
      "anonymous": false,
      "inputs": [
        {
          "indexed": true,
          "internalType": "uint16",
          "name": "new_edition_nb",
          "type": "uint16"
        }
      ],
      "name": "BoardCreated",
      "type": "event"
    },
    {
      "anonymous": false,
      "inputs": [
        {
          "indexed": false,
          "internalType": "bytes32",
          "name": "requestId",
          "type": "bytes32"
        }
      ],
      "name": "RandomReady",
      "type": "event"
    },
    {
      "anonymous": false,
      "inputs": [
        {
          "indexed": true,
          "internalType": "bytes32",
          "name": "role",
          "type": "bytes32"
        },
        {
          "indexed": true,
          "internalType": "bytes32",
          "name": "previousAdminRole",
          "type": "bytes32"
        },
        {
          "indexed": true,
          "internalType": "bytes32",
          "name": "newAdminRole",
          "type": "bytes32"
        }
      ],
      "name": "RoleAdminChanged",
      "type": "event"
    },
    {
      "anonymous": false,
      "inputs": [
        {
          "indexed": true,
          "internalType": "bytes32",
          "name": "role",
          "type": "bytes32"
        },
        {
          "indexed": true,
          "internalType": "address",
          "name": "account",
          "type": "address"
        },
        {
          "indexed": true,
          "internalType": "address",
          "name": "sender",
          "type": "address"
        }
      ],
      "name": "RoleGranted",
      "type": "event"
    },
    {
      "anonymous": false,
      "inputs": [
        {
          "indexed": true,
          "internalType": "bytes32",
          "name": "role",
          "type": "bytes32"
        },
        {
          "indexed": true,
          "internalType": "address",
          "name": "account",
          "type": "address"
        },
        {
          "indexed": true,
          "internalType": "address",
          "name": "sender",
          "type": "address"
        }
      ],
      "name": "RoleRevoked",
      "type": "event"
    },
    {
      "anonymous": false,
      "inputs": [
        {
          "indexed": true,
          "internalType": "uint16",
          "name": "_edition",
          "type": "uint16"
        },
        {
          "indexed": true,
          "internalType": "uint256",
          "name": "_pawnID",
          "type": "uint256"
        }
      ],
      "name": "ePawn",
      "type": "event"
    },
    {
      "inputs": [],
      "name": "ADMIN_ROLE",
      "outputs": [
        {
          "internalType": "bytes32",
          "name": "",
          "type": "bytes32"
        }
      ],
      "stateMutability": "view",
      "type": "function"
    },
    {
      "inputs": [],
      "name": "DEFAULT_ADMIN_ROLE",
      "outputs": [
        {
          "internalType": "bytes32",
          "name": "",
          "type": "bytes32"
        }
      ],
      "stateMutability": "view",
      "type": "function"
    },
    {
      "inputs": [],
      "name": "MANAGER_ROLE",
      "outputs": [
        {
          "internalType": "bytes32",
          "name": "",
          "type": "bytes32"
        }
      ],
      "stateMutability": "view",
      "type": "function"
    },
    {
      "inputs": [],
      "name": "fee",
      "outputs": [
        {
          "internalType": "uint256",
          "name": "",
          "type": "uint256"
        }
      ],
      "stateMutability": "view",
      "type": "function"
    },
    {
      "inputs": [],
      "name": "getMaxEdition",
      "outputs": [
        {
          "internalType": "uint16",
          "name": "",
          "type": "uint16"
        }
      ],
      "stateMutability": "view",
      "type": "function"
    },
    {
      "inputs": [
        {
          "internalType": "uint16",
          "name": "edition",
          "type": "uint16"
        }
      ],
      "name": "getNbLands",
      "outputs": [
        {
          "internalType": "uint8",
          "name": "",
          "type": "uint8"
        }
      ],
      "stateMutability": "view",
      "type": "function"
    },
    {
      "inputs": [
        {
          "internalType": "uint16",
          "name": "_edition",
          "type": "uint16"
        },
        {
          "internalType": "uint256",
          "name": "_pawnID",
          "type": "uint256"
        }
      ],
      "name": "getPawnInfo",
      "outputs": [
        {
          "components": [
            {
              "internalType": "uint256",
              "name": "random",
              "type": "uint256"
            },
            {
              "internalType": "uint8",
              "name": "position",
              "type": "uint8"
            },
            {
              "internalType": "bool",
              "name": "isOnBoard",
              "type": "bool"
            },
            {
              "internalType": "bool",
              "name": "isPropertyBought",
              "type": "bool"
            },
            {
              "internalType": "bool",
              "name": "isRentPaid",
              "type": "bool"
            },
            {
              "internalType": "bool",
              "name": "isRoundCompleted",
              "type": "bool"
            }
          ],
          "internalType": "struct BoardContract.PawnInfo",
          "name": "p",
          "type": "tuple"
        }
      ],
      "stateMutability": "view",
      "type": "function"
    },
    {
      "inputs": [
        {
          "internalType": "uint16",
          "name": "edition",
          "type": "uint16"
        }
      ],
      "name": "getRarityLevel",
      "outputs": [
        {
          "internalType": "uint8",
          "name": "",
          "type": "uint8"
        }
      ],
      "stateMutability": "view",
      "type": "function"
    },
    {
      "inputs": [
        {
          "internalType": "bytes32",
          "name": "role",
          "type": "bytes32"
        }
      ],
      "name": "getRoleAdmin",
      "outputs": [
        {
          "internalType": "bytes32",
          "name": "",
          "type": "bytes32"
        }
      ],
      "stateMutability": "view",
      "type": "function"
    },
    {
      "inputs": [
        {
          "internalType": "bytes32",
          "name": "role",
          "type": "bytes32"
        },
        {
          "internalType": "address",
          "name": "account",
          "type": "address"
        }
      ],
      "name": "grantRole",
      "outputs": [],
      "stateMutability": "nonpayable",
      "type": "function"
    },
    {
      "inputs": [
        {
          "internalType": "bytes32",
          "name": "role",
          "type": "bytes32"
        },
        {
          "internalType": "address",
          "name": "account",
          "type": "address"
        }
      ],
      "name": "hasRole",
      "outputs": [
        {
          "internalType": "bool",
          "name": "",
          "type": "bool"
        }
      ],
      "stateMutability": "view",
      "type": "function"
    },
    {
      "inputs": [
        {
          "internalType": "uint16",
          "name": "edition",
          "type": "uint16"
        },
        {
          "internalType": "uint8",
          "name": "land",
          "type": "uint8"
        }
      ],
      "name": "isPurchasable",
      "outputs": [
        {
          "internalType": "bool",
          "name": "",
          "type": "bool"
        }
      ],
      "stateMutability": "view",
      "type": "function"
    },
    {
      "inputs": [
        {
          "internalType": "uint16",
          "name": "_edition",
          "type": "uint16"
        },
        {
          "internalType": "uint256",
          "name": "_pawnID",
          "type": "uint256"
        }
      ],
      "name": "isRegistered",
      "outputs": [
        {
          "internalType": "bool",
          "name": "",
          "type": "bool"
        }
      ],
      "stateMutability": "view",
      "type": "function"
    },
    {
      "inputs": [
        {
          "internalType": "uint8",
          "name": "_nbOfLands",
          "type": "uint8"
        },
        {
          "internalType": "uint8",
          "name": "_rarityLevel",
          "type": "uint8"
        },
        {
          "internalType": "uint8[]",
          "name": "_purchasableLands",
          "type": "uint8[]"
        },
        {
          "internalType": "uint16",
          "name": "_maxPawns",
          "type": "uint16"
        }
      ],
      "name": "newBoard",
      "outputs": [],
      "stateMutability": "nonpayable",
      "type": "function"
    },
    {
      "inputs": [
        {
          "internalType": "uint16",
          "name": "_edition",
          "type": "uint16"
        },
        {
          "internalType": "uint256",
          "name": "_pawnID",
          "type": "uint256"
        }
      ],
      "name": "play",
      "outputs": [
        {
          "internalType": "bytes32",
          "name": "requestId",
          "type": "bytes32"
        }
      ],
      "stateMutability": "nonpayable",
      "type": "function"
    },
    {
      "inputs": [],
      "name": "randomResult",
      "outputs": [
        {
          "internalType": "uint256",
          "name": "",
          "type": "uint256"
        }
      ],
      "stateMutability": "view",
      "type": "function"
    },
    {
      "inputs": [
        {
          "internalType": "bytes32",
          "name": "requestId",
          "type": "bytes32"
        },
        {
          "internalType": "uint256",
          "name": "randomness",
          "type": "uint256"
        }
      ],
      "name": "rawFulfillRandomness",
      "outputs": [],
      "stateMutability": "nonpayable",
      "type": "function"
    },
    {
      "inputs": [
        {
          "internalType": "uint16",
          "name": "_edition",
          "type": "uint16"
        },
        {
          "internalType": "uint256",
          "name": "_pawnID",
          "type": "uint256"
        }
      ],
      "name": "register",
      "outputs": [
        {
          "internalType": "bool",
          "name": "isOnBoarded",
          "type": "bool"
        }
      ],
      "stateMutability": "nonpayable",
      "type": "function"
    },
    {
      "inputs": [
        {
          "internalType": "bytes32",
          "name": "role",
          "type": "bytes32"
        },
        {
          "internalType": "address",
          "name": "account",
          "type": "address"
        }
      ],
      "name": "renounceRole",
      "outputs": [],
      "stateMutability": "nonpayable",
      "type": "function"
    },
    {
      "inputs": [
        {
          "internalType": "bytes32",
          "name": "role",
          "type": "bytes32"
        },
        {
          "internalType": "address",
          "name": "account",
          "type": "address"
        }
      ],
      "name": "revokeRole",
      "outputs": [],
      "stateMutability": "nonpayable",
      "type": "function"
    },
    {
      "inputs": [
        {
          "internalType": "uint16",
          "name": "_edition",
          "type": "uint16"
        },
        {
          "internalType": "uint256",
          "name": "_pawnID",
          "type": "uint256"
        },
        {
          "components": [
            {
              "internalType": "uint256",
              "name": "random",
              "type": "uint256"
            },
            {
              "internalType": "uint8",
              "name": "position",
              "type": "uint8"
            },
            {
              "internalType": "bool",
              "name": "isOnBoard",
              "type": "bool"
            },
            {
              "internalType": "bool",
              "name": "isPropertyBought",
              "type": "bool"
            },
            {
              "internalType": "bool",
              "name": "isRentPaid",
              "type": "bool"
            },
            {
              "internalType": "bool",
              "name": "isRoundCompleted",
              "type": "bool"
            }
          ],
          "internalType": "struct BoardContract.PawnInfo",
          "name": "_pawnInfo",
          "type": "tuple"
        }
      ],
      "name": "setPawnInfo",
      "outputs": [],
      "stateMutability": "nonpayable",
      "type": "function"
    },
    {
      "inputs": [
        {
          "internalType": "bytes4",
          "name": "interfaceId",
          "type": "bytes4"
        }
      ],
      "name": "supportsInterface",
      "outputs": [
        {
          "internalType": "bool",
          "name": "",
          "type": "bool"
        }
      ],
      "stateMutability": "view",
      "type": "function"
    },
    {
      "inputs": [
        {
          "internalType": "uint16",
          "name": "_edition",
          "type": "uint16"
        },
        {
          "internalType": "uint256",
          "name": "_pawnID",
          "type": "uint256"
        },
        {
          "internalType": "uint8",
          "name": "_rarity",
          "type": "uint8"
        },
        {
          "components": [
            {
              "internalType": "uint256",
              "name": "random",
              "type": "uint256"
            },
            {
              "internalType": "uint8",
              "name": "position",
              "type": "uint8"
            },
            {
              "internalType": "bool",
              "name": "isOnBoard",
              "type": "bool"
            },
            {
              "internalType": "bool",
              "name": "isPropertyBought",
              "type": "bool"
            },
            {
              "internalType": "bool",
              "name": "isRentPaid",
              "type": "bool"
            },
            {
              "internalType": "bool",
              "name": "isRoundCompleted",
              "type": "bool"
            }
          ],
          "internalType": "struct BoardContract.PawnInfo",
          "name": "_pawnInfo",
          "type": "tuple"
        }
      ],
      "name": "updatePawnInfo",
      "outputs": [],
      "stateMutability": "nonpayable",
      "type": "function"
    }
  ],
  "bytecode": "0x60c06040523480156200001157600080fd5b5073514910771af9ca656af840dff83e8264ecf986ca807f6c3699283bda56ad74f6b855546325b68d482e983852a7a82979cc4807b641f460001b655af3107a400083838173ffffffffffffffffffffffffffffffffffffffff1660a08173ffffffffffffffffffffffffffffffffffffffff16815250508073ffffffffffffffffffffffffffffffffffffffff1660808173ffffffffffffffffffffffffffffffffffffffff168152505050508160028190555080600481905550620000ff7fa49807205ce4d355092ef5a8a18f56e8913cf4a201fbe287825b095693c2177533620003c460201b60201c565b620001317fa49807205ce4d355092ef5a8a18f56e8913cf4a201fbe287825b095693c2177580620003da60201b60201c565b620001637f241ecf16d79d0f8dbfb92cbc07fe17840425976cf0667f022fe9877caa831b0833620003c460201b60201c565b620001b57f241ecf16d79d0f8dbfb92cbc07fe17840425976cf0667f022fe9877caa831b087fa49807205ce4d355092ef5a8a18f56e8913cf4a201fbe287825b095693c21775620003da60201b60201c565b6000600360006101000a81548161ffff021916908361ffff1602179055506000600660008061ffff168152602001908152602001600020905060288160000160006101000a81548160ff021916908360ff1602179055506103e88160030160006101000a81548161ffff021916908361ffff16021790555060028160000160016101000a81548160ff021916908360ff1602179055506000604051806101400160405280600060ff168152602001600260ff168152602001600760ff168152602001600a60ff168152602001601160ff168152602001601460ff168152602001601660ff168152602001601e60ff168152602001602160ff168152602001602460ff16815250905060005b8260000160009054906101000a900460ff1660ff168160ff161015620003b75760018360010160008360ff1660ff16815260200190815260200160002060006101000a81548160ff02191690831515021790555060005b600a8160ff161015620003a057828160ff16600a81106200033d576200033c620005bf565b5b602002015160ff168260ff1614156200038a5760008460010160008460ff1660ff16815260200190815260200160002060006101000a81548160ff021916908315150217905550620003a0565b808062000397906200062a565b91505062000317565b508080620003ae906200062a565b915050620002c0565b5050505050505062000659565b620003d682826200043d60201b60201c565b5050565b6000620003ed836200052e60201b60201c565b905081600080858152602001908152602001600020600101819055508181847fbd79b86ffe0ab8e8776151514217cd7cacd52c909f66475c3af44e129f0b00ff60405160405180910390a4505050565b6200044f82826200054d60201b60201c565b6200052a57600160008084815260200190815260200160002060000160008373ffffffffffffffffffffffffffffffffffffffff1673ffffffffffffffffffffffffffffffffffffffff16815260200190815260200160002060006101000a81548160ff021916908315150217905550620004cf620005b760201b60201c565b73ffffffffffffffffffffffffffffffffffffffff168173ffffffffffffffffffffffffffffffffffffffff16837f2f8788117e7eff1d82e926ec794901d17c78024a50270940304540a733656f0d60405160405180910390a45b5050565b6000806000838152602001908152602001600020600101549050919050565b600080600084815260200190815260200160002060000160008373ffffffffffffffffffffffffffffffffffffffff1673ffffffffffffffffffffffffffffffffffffffff16815260200190815260200160002060009054906101000a900460ff16905092915050565b600033905090565b7f4e487b7100000000000000000000000000000000000000000000000000000000600052603260045260246000fd5b7f4e487b7100000000000000000000000000000000000000000000000000000000600052601160045260246000fd5b600060ff82169050919050565b600062000637826200061d565b915060ff8214156200064e576200064d620005ee565b5b600182019050919050565b60805160a0516131616200068d60003960008181610ec70152611c0601526000818161158e0152611bca01526131616000f3fe608060405234801561001057600080fd5b506004361061014d5760003560e01c80636ae620c1116100c3578063a1b0a7e31161007c578063a1b0a7e3146103fc578063a217fddf14610418578063d547741f14610436578063ddca3f4314610452578063ec87621c14610470578063fd3bf1cc1461048e5761014d565b80636ae620c1146103165780636f3480ac14610346578063713887671461037657806375b238fc1461039257806391d14854146103b057806394985ddd146103e05761014d565b80632f2ff15d116101155780632f2ff15d1461023057806336568abe1461024c57806342619f661461026857806351cd797d1461028657806358f05b3a146102b65780635f91c06a146102e65761014d565b806301ffc9a7146101525780631372526f14610182578063155f2058146101a0578063248a9ca3146101d057806326e0fc1f14610200575b600080fd5b61016c60048036038101906101679190611e34565b6104aa565b6040516101799190611e7c565b60405180910390f35b61018a610524565b6040516101979190611eb4565b60405180910390f35b6101ba60048036038101906101b59190611f31565b61053c565b6040516101c79190611e7c565b60405180910390f35b6101ea60048036038101906101e59190611fa7565b610586565b6040516101f79190611fe3565b60405180910390f35b61021a60048036038101906102159190611f31565b6105a5565b6040516102279190611e7c565b60405180910390f35b61024a6004803603810190610245919061205c565b610885565b005b6102666004803603810190610261919061205c565b6108ae565b005b610270610931565b60405161027d91906120ab565b60405180910390f35b6102a0600480360381019061029b91906120c6565b610937565b6040516102ad919061210f565b60405180910390f35b6102d060048036038101906102cb9190611f31565b61096c565b6040516102dd9190611fe3565b60405180910390f35b61030060048036038101906102fb9190612156565b610b79565b60405161030d9190611e7c565b60405180910390f35b610330600480360381019061032b9190611f31565b610bc6565b60405161033d919061223e565b60405180910390f35b610360600480360381019061035b91906120c6565b610cec565b60405161036d919061210f565b60405180910390f35b610390600480360381019061038b91906123b6565b610d21565b005b61039a610e37565b6040516103a79190611fe3565b60405180910390f35b6103ca60048036038101906103c5919061205c565b610e5b565b6040516103d79190611e7c565b60405180910390f35b6103fa60048036038101906103f5919061240a565b610ec5565b005b610416600480360381019061041191906124af565b610f61565b005b6104206111a5565b60405161042d9190611fe3565b60405180910390f35b610450600480360381019061044b919061205c565b6111ac565b005b61045a6111d5565b60405161046791906120ab565b60405180910390f35b6104786111db565b6040516104859190611fe3565b60405180910390f35b6104a860048036038101906104a39190612537565b6111ff565b005b60007f7965db0b000000000000000000000000000000000000000000000000000000007bffffffffffffffffffffffffffffffffffffffffffffffffffffffff1916827bffffffffffffffffffffffffffffffffffffffffffffffffffffffff1916148061051d575061051c826112b7565b5b9050919050565b6000600360009054906101000a900461ffff16905090565b6000600660008461ffff1661ffff168152602001908152602001600020600201600083815260200190815260200160002060010160019054906101000a900460ff16905092915050565b6000806000838152602001908152602001600020600101549050919050565b60007f241ecf16d79d0f8dbfb92cbc07fe17840425976cf0667f022fe9877caa831b086105d9816105d4611321565b611329565b600360009054906101000a900461ffff1661ffff168461ffff161115610634576040517f08c379a000000000000000000000000000000000000000000000000000000000815260040161062b906125fc565b60405180910390fd5b60001515600660008661ffff1661ffff168152602001908152602001600020600201600085815260200190815260200160002060010160019054906101000a900460ff161515146106ba576040517f08c379a00000000000000000000000000000000000000000000000000000000081526004016106b190612668565b60405180910390fd5b600660008561ffff1661ffff16815260200190815260200160002060030160009054906101000a900461ffff1661ffff16600660008661ffff1661ffff16815260200190815260200160002060030160029054906101000a900461ffff1661ffff161061075c576040517f08c379a0000000000000000000000000000000000000000000000000000000008152600401610753906126d4565b60405180910390fd5b6001600660008661ffff1661ffff168152602001908152602001600020600201600085815260200190815260200160002060010160016101000a81548160ff0219169083151502179055506001600660008661ffff1661ffff168152602001908152602001600020600201600085815260200190815260200160002060010160046101000a81548160ff0219169083151502179055506001600660008661ffff1661ffff16815260200190815260200160002060030160028282829054906101000a900461ffff1661082e9190612723565b92506101000a81548161ffff021916908361ffff160217905550828461ffff167fe4e52554bc27cb4b0f5650e1dbabf0b9a745d65467f38831460f0db7fef2a13e60405160405180910390a3600191505092915050565b61088e82610586565b61089f8161089a611321565b611329565b6108a983836113c6565b505050565b6108b6611321565b73ffffffffffffffffffffffffffffffffffffffff168173ffffffffffffffffffffffffffffffffffffffff1614610923576040517f08c379a000000000000000000000000000000000000000000000000000000000815260040161091a906127cd565b60405180910390fd5b61092d82826114a6565b5050565b60055481565b6000600660008361ffff1661ffff16815260200190815260200160002060000160009054906101000a900460ff169050919050565b60007f241ecf16d79d0f8dbfb92cbc07fe17840425976cf0667f022fe9877caa831b086109a08161099b611321565b611329565b600660008561ffff1661ffff168152602001908152602001600020600201600084815260200190815260200160002060010160019054906101000a900460ff16610a1f576040517f08c379a0000000000000000000000000000000000000000000000000000000008152600401610a1690612839565b60405180910390fd5b600660008561ffff1661ffff1681526020019081526020016000206001016000600660008761ffff1661ffff168152602001908152602001600020600201600086815260200190815260200160002060010160009054906101000a900460ff1660ff1660ff16815260200190815260200160002060009054906101000a900460ff161580610ae95750600660008561ffff1661ffff168152602001908152602001600020600201600084815260200190815260200160002060010160049054906101000a900460ff165b610b28576040517f08c379a0000000000000000000000000000000000000000000000000000000008152600401610b1f906128a5565b60405180910390fd5b610b30611587565b91506000600760008481526020019081526020016000209050848160010160006101000a81548161ffff021916908361ffff160217905550838160000181905550505092915050565b6000600660008461ffff1661ffff16815260200190815260200160002060010160008360ff1660ff16815260200190815260200160002060009054906101000a900460ff16905092915050565b610bce611d87565b610bd8838361053c565b610c17576040517f08c379a0000000000000000000000000000000000000000000000000000000008152600401610c0e90612911565b60405180910390fd5b600660008461ffff1661ffff16815260200190815260200160002060020160008381526020019081526020016000206040518060c0016040529081600082015481526020016001820160009054906101000a900460ff1660ff1660ff1681526020016001820160019054906101000a900460ff161515151581526020016001820160029054906101000a900460ff161515151581526020016001820160039054906101000a900460ff161515151581526020016001820160049054906101000a900460ff161515151581525050905092915050565b6000600660008361ffff1661ffff16815260200190815260200160002060000160019054906101000a900460ff169050919050565b7f241ecf16d79d0f8dbfb92cbc07fe17840425976cf0667f022fe9877caa831b08610d5381610d4e611321565b611329565b81600660008661ffff1661ffff16815260200190815260200160002060020160008581526020019081526020016000206000820151816000015560208201518160010160006101000a81548160ff021916908360ff16021790555060408201518160010160016101000a81548160ff02191690831515021790555060608201518160010160026101000a81548160ff02191690831515021790555060808201518160010160036101000a81548160ff02191690831515021790555060a08201518160010160046101000a81548160ff02191690831515021790555090505050505050565b7fa49807205ce4d355092ef5a8a18f56e8913cf4a201fbe287825b095693c2177581565b600080600084815260200190815260200160002060000160008373ffffffffffffffffffffffffffffffffffffffff1673ffffffffffffffffffffffffffffffffffffffff16815260200190815260200160002060009054906101000a900460ff16905092915050565b7f000000000000000000000000000000000000000000000000000000000000000073ffffffffffffffffffffffffffffffffffffffff163373ffffffffffffffffffffffffffffffffffffffff1614610f53576040517f08c379a0000000000000000000000000000000000000000000000000000000008152600401610f4a9061297d565b60405180910390fd5b610f5d828261167a565b5050565b7f241ecf16d79d0f8dbfb92cbc07fe17840425976cf0667f022fe9877caa831b08610f9381610f8e611321565b611329565b6001600360008282829054906101000a900461ffff16610fb39190612723565b92506101000a81548161ffff021916908361ffff160217905550600060066000600360009054906101000a900461ffff1661ffff1661ffff1681526020019081526020016000209050868160000160006101000a81548160ff021916908360ff160217905550858160000160016101000a81548160ff021916908360ff16021790555060005b858590508160ff16101561113b578160000160009054906101000a900460ff1660ff1686868360ff168181106110725761107161299d565b5b905060200201602081019061108791906129cc565b60ff16106110ca576040517f08c379a00000000000000000000000000000000000000000000000000000000081526004016110c190612a45565b60405180910390fd5b600182600101600088888560ff168181106110e8576110e761299d565b5b90506020020160208101906110fd91906129cc565b60ff1660ff16815260200190815260200160002060006101000a81548160ff021916908315150217905550808061113390612a65565b915050611039565b50828160030160006101000a81548161ffff021916908361ffff160217905550600360009054906101000a900461ffff1661ffff167fb8fd28a374892893a747126e5d39b5e91f773bc968c40a5f1340ea21374e2eee60405160405180910390a250505050505050565b6000801b81565b6111b582610586565b6111c6816111c1611321565b611329565b6111d083836114a6565b505050565b60045481565b7f241ecf16d79d0f8dbfb92cbc07fe17840425976cf0667f022fe9877caa831b0881565b600060028360ff1614156112135761044a90505b60018360ff1614156112255761044990505b60008360ff1614156112375761048b90505b808260000181815250503073ffffffffffffffffffffffffffffffffffffffff1663713887678686856040518463ffffffff1660e01b815260040161127e93929190612a8f565b600060405180830381600087803b15801561129857600080fd5b505af11580156112ac573d6000803e3d6000fd5b505050505050505050565b60007f01ffc9a7000000000000000000000000000000000000000000000000000000007bffffffffffffffffffffffffffffffffffffffffffffffffffffffff1916827bffffffffffffffffffffffffffffffffffffffffffffffffffffffff1916149050919050565b600033905090565b6113338282610e5b565b6113c2576113588173ffffffffffffffffffffffffffffffffffffffff16601461198a565b6113668360001c602061198a565b604051602001611377929190612bd9565b6040516020818303038152906040526040517f08c379a00000000000000000000000000000000000000000000000000000000081526004016113b99190612c4c565b60405180910390fd5b5050565b6113d08282610e5b565b6114a257600160008084815260200190815260200160002060000160008373ffffffffffffffffffffffffffffffffffffffff1673ffffffffffffffffffffffffffffffffffffffff16815260200190815260200160002060006101000a81548160ff021916908315150217905550611447611321565b73ffffffffffffffffffffffffffffffffffffffff168173ffffffffffffffffffffffffffffffffffffffff16837f2f8788117e7eff1d82e926ec794901d17c78024a50270940304540a733656f0d60405160405180910390a45b5050565b6114b08282610e5b565b1561158357600080600084815260200190815260200160002060000160008373ffffffffffffffffffffffffffffffffffffffff1673ffffffffffffffffffffffffffffffffffffffff16815260200190815260200160002060006101000a81548160ff021916908315150217905550611528611321565b73ffffffffffffffffffffffffffffffffffffffff168173ffffffffffffffffffffffffffffffffffffffff16837ff6391f5c32d9c69d2a47ea670b442974b53935d1edc7fd64eb21e047a839171b60405160405180910390a45b5050565b60006004547f000000000000000000000000000000000000000000000000000000000000000073ffffffffffffffffffffffffffffffffffffffff166370a08231306040518263ffffffff1660e01b81526004016115e59190612c7d565b602060405180830381865afa158015611602573d6000803e3d6000fd5b505050506040513d601f19601f820116820180604052508101906116269190612cad565b1015611667576040517f08c379a000000000000000000000000000000000000000000000000000000000815260040161165e90612d4c565b60405180910390fd5b611675600254600454611bc6565b905090565b60006007600084815260200190815260200160002090506002600b836116a09190612d9b565b6116aa9190612dcc565b600660008360010160009054906101000a900461ffff1661ffff1661ffff16815260200190815260200160002060020160008360000154815260200190815260200160002060010160008282829054906101000a900460ff1661170d9190612dcc565b92506101000a81548160ff021916908360ff160217905550600660008260010160009054906101000a900461ffff1661ffff1661ffff16815260200190815260200160002060000160009054906101000a900460ff16600660008360010160009054906101000a900461ffff1661ffff1661ffff16815260200190815260200160002060020160008360000154815260200190815260200160002060010160008282829054906101000a900460ff166117c69190612e03565b92506101000a81548160ff021916908360ff16021790555081600660008360010160009054906101000a900461ffff1661ffff1661ffff168152602001908152602001600020600201600083600001548152602001908152602001600020600001819055506000600660008360010160009054906101000a900461ffff1661ffff1661ffff16815260200190815260200160002060020160008360000154815260200190815260200160002060010160026101000a81548160ff0219169083151502179055506000600660008360010160009054906101000a900461ffff1661ffff1661ffff16815260200190815260200160002060020160008360000154815260200190815260200160002060010160036101000a81548160ff0219169083151502179055506000600660008360010160009054906101000a900461ffff1661ffff1661ffff16815260200190815260200160002060020160008360000154815260200190815260200160002060010160046101000a81548160ff0219169083151502179055507f1954c6845304788fb449c20d6a568c6672d0d11585f9d8f32673fba15c9cbf228360405161197d9190611fe3565b60405180910390a1505050565b60606000600283600261199d9190612e34565b6119a79190612e8e565b67ffffffffffffffff8111156119c0576119bf61226f565b5b6040519080825280601f01601f1916602001820160405280156119f25781602001600182028036833780820191505090505b5090507f300000000000000000000000000000000000000000000000000000000000000081600081518110611a2a57611a2961299d565b5b60200101907effffffffffffffffffffffffffffffffffffffffffffffffffffffffffffff1916908160001a9053507f780000000000000000000000000000000000000000000000000000000000000081600181518110611a8e57611a8d61299d565b5b60200101907effffffffffffffffffffffffffffffffffffffffffffffffffffffffffffff1916908160001a90535060006001846002611ace9190612e34565b611ad89190612e8e565b90505b6001811115611b78577f3031323334353637383961626364656600000000000000000000000000000000600f861660108110611b1a57611b1961299d565b5b1a60f81b828281518110611b3157611b3061299d565b5b60200101907effffffffffffffffffffffffffffffffffffffffffffffffffffffffffffff1916908160001a905350600485901c945080611b7190612ee4565b9050611adb565b5060008414611bbc576040517f08c379a0000000000000000000000000000000000000000000000000000000008152600401611bb390612f5a565b60405180910390fd5b8091505092915050565b60007f000000000000000000000000000000000000000000000000000000000000000073ffffffffffffffffffffffffffffffffffffffff16634000aea07f000000000000000000000000000000000000000000000000000000000000000084866000604051602001611c3a929190612f7a565b6040516020818303038152906040526040518463ffffffff1660e01b8152600401611c6793929190612ff8565b6020604051808303816000875af1158015611c86573d6000803e3d6000fd5b505050506040513d601f19601f82011682018060405250810190611caa919061304b565b506000611ccd846000306001600089815260200190815260200160002054611d18565b9050600180600086815260200190815260200160002054611cee9190612e8e565b6001600086815260200190815260200160002081905550611d0f8482611d54565b91505092915050565b600084848484604051602001611d319493929190613078565b6040516020818303038152906040528051906020012060001c9050949350505050565b60008282604051602001611d699291906130ff565b60405160208183030381529060405280519060200120905092915050565b6040518060c0016040528060008152602001600060ff1681526020016000151581526020016000151581526020016000151581526020016000151581525090565b6000604051905090565b600080fd5b600080fd5b60007fffffffff0000000000000000000000000000000000000000000000000000000082169050919050565b611e1181611ddc565b8114611e1c57600080fd5b50565b600081359050611e2e81611e08565b92915050565b600060208284031215611e4a57611e49611dd2565b5b6000611e5884828501611e1f565b91505092915050565b60008115159050919050565b611e7681611e61565b82525050565b6000602082019050611e916000830184611e6d565b92915050565b600061ffff82169050919050565b611eae81611e97565b82525050565b6000602082019050611ec96000830184611ea5565b92915050565b611ed881611e97565b8114611ee357600080fd5b50565b600081359050611ef581611ecf565b92915050565b6000819050919050565b611f0e81611efb565b8114611f1957600080fd5b50565b600081359050611f2b81611f05565b92915050565b60008060408385031215611f4857611f47611dd2565b5b6000611f5685828601611ee6565b9250506020611f6785828601611f1c565b9150509250929050565b6000819050919050565b611f8481611f71565b8114611f8f57600080fd5b50565b600081359050611fa181611f7b565b92915050565b600060208284031215611fbd57611fbc611dd2565b5b6000611fcb84828501611f92565b91505092915050565b611fdd81611f71565b82525050565b6000602082019050611ff86000830184611fd4565b92915050565b600073ffffffffffffffffffffffffffffffffffffffff82169050919050565b600061202982611ffe565b9050919050565b6120398161201e565b811461204457600080fd5b50565b60008135905061205681612030565b92915050565b6000806040838503121561207357612072611dd2565b5b600061208185828601611f92565b925050602061209285828601612047565b9150509250929050565b6120a581611efb565b82525050565b60006020820190506120c0600083018461209c565b92915050565b6000602082840312156120dc576120db611dd2565b5b60006120ea84828501611ee6565b91505092915050565b600060ff82169050919050565b612109816120f3565b82525050565b60006020820190506121246000830184612100565b92915050565b612133816120f3565b811461213e57600080fd5b50565b6000813590506121508161212a565b92915050565b6000806040838503121561216d5761216c611dd2565b5b600061217b85828601611ee6565b925050602061218c85828601612141565b9150509250929050565b61219f81611efb565b82525050565b6121ae816120f3565b82525050565b6121bd81611e61565b82525050565b60c0820160008201516121d96000850182612196565b5060208201516121ec60208501826121a5565b5060408201516121ff60408501826121b4565b50606082015161221260608501826121b4565b50608082015161222560808501826121b4565b5060a082015161223860a08501826121b4565b50505050565b600060c08201905061225360008301846121c3565b92915050565b600080fd5b6000601f19601f8301169050919050565b7f4e487b7100000000000000000000000000000000000000000000000000000000600052604160045260246000fd5b6122a78261225e565b810181811067ffffffffffffffff821117156122c6576122c561226f565b5b80604052505050565b60006122d9611dc8565b90506122e5828261229e565b919050565b6122f381611e61565b81146122fe57600080fd5b50565b600081359050612310816122ea565b92915050565b600060c0828403121561232c5761232b612259565b5b61233660c06122cf565b9050600061234684828501611f1c565b600083015250602061235a84828501612141565b602083015250604061236e84828501612301565b604083015250606061238284828501612301565b606083015250608061239684828501612301565b60808301525060a06123aa84828501612301565b60a08301525092915050565b600080600061010084860312156123d0576123cf611dd2565b5b60006123de86828701611ee6565b93505060206123ef86828701611f1c565b925050604061240086828701612316565b9150509250925092565b6000806040838503121561242157612420611dd2565b5b600061242f85828601611f92565b925050602061244085828601611f1c565b9150509250929050565b600080fd5b600080fd5b600080fd5b60008083601f84011261246f5761246e61244a565b5b8235905067ffffffffffffffff81111561248c5761248b61244f565b5b6020830191508360208202830111156124a8576124a7612454565b5b9250929050565b6000806000806000608086880312156124cb576124ca611dd2565b5b60006124d988828901612141565b95505060206124ea88828901612141565b945050604086013567ffffffffffffffff81111561250b5761250a611dd7565b5b61251788828901612459565b9350935050606061252a88828901611ee6565b9150509295509295909350565b600080600080610120858703121561255257612551611dd2565b5b600061256087828801611ee6565b945050602061257187828801611f1c565b935050604061258287828801612141565b925050606061259387828801612316565b91505092959194509250565b600082825260208201905092915050565b7f556e6b6e6f776e2065646974696f6e0000000000000000000000000000000000600082015250565b60006125e6600f8361259f565b91506125f1826125b0565b602082019050919050565b60006020820190508181036000830152612615816125d9565b9050919050565b7f7061776e20616c72656164792072656769737465726564000000000000000000600082015250565b600061265260178361259f565b915061265d8261261c565b602082019050919050565b6000602082019050818103600083015261268181612645565b9050919050565b7f67616d652069732066756c6c0000000000000000000000000000000000000000600082015250565b60006126be600c8361259f565b91506126c982612688565b602082019050919050565b600060208201905081810360008301526126ed816126b1565b9050919050565b7f4e487b7100000000000000000000000000000000000000000000000000000000600052601160045260246000fd5b600061272e82611e97565b915061273983611e97565b92508261ffff038211156127505761274f6126f4565b5b828201905092915050565b7f416363657373436f6e74726f6c3a2063616e206f6e6c792072656e6f756e636560008201527f20726f6c657320666f722073656c660000000000000000000000000000000000602082015250565b60006127b7602f8361259f565b91506127c28261275b565b604082019050919050565b600060208201905081810360008301526127e6816127aa565b9050919050565b7f556e72656769737465726564207061776e000000000000000000000000000000600082015250565b600061282360118361259f565b915061282e826127ed565b602082019050919050565b6000602082019050818103600083015261285281612816565b9050919050565b7f526f756e64206e6f7420636f6d706c6574656400000000000000000000000000600082015250565b600061288f60138361259f565b915061289a82612859565b602082019050919050565b600060208201905081810360008301526128be81612882565b9050919050565b7f7061776e20686173206e6f74206265656e207265677369746572656400000000600082015250565b60006128fb601c8361259f565b9150612906826128c5565b602082019050919050565b6000602082019050818103600083015261292a816128ee565b9050919050565b7f4f6e6c7920565246436f6f7264696e61746f722063616e2066756c66696c6c00600082015250565b6000612967601f8361259f565b915061297282612931565b602082019050919050565b600060208201905081810360008301526129968161295a565b9050919050565b7f4e487b7100000000000000000000000000000000000000000000000000000000600052603260045260246000fd5b6000602082840312156129e2576129e1611dd2565b5b60006129f084828501612141565b91505092915050565b7f6c616e6420696e646578206f7574206f662072616e6765000000000000000000600082015250565b6000612a2f60178361259f565b9150612a3a826129f9565b602082019050919050565b60006020820190508181036000830152612a5e81612a22565b9050919050565b6000612a70826120f3565b915060ff821415612a8457612a836126f4565b5b600182019050919050565b600061010082019050612aa56000830186611ea5565b612ab2602083018561209c565b612abf60408301846121c3565b949350505050565b600081905092915050565b7f416363657373436f6e74726f6c3a206163636f756e7420000000000000000000600082015250565b6000612b08601783612ac7565b9150612b1382612ad2565b601782019050919050565b600081519050919050565b60005b83811015612b47578082015181840152602081019050612b2c565b83811115612b56576000848401525b50505050565b6000612b6782612b1e565b612b718185612ac7565b9350612b81818560208601612b29565b80840191505092915050565b7f206973206d697373696e6720726f6c6520000000000000000000000000000000600082015250565b6000612bc3601183612ac7565b9150612bce82612b8d565b601182019050919050565b6000612be482612afb565b9150612bf08285612b5c565b9150612bfb82612bb6565b9150612c078284612b5c565b91508190509392505050565b6000612c1e82612b1e565b612c28818561259f565b9350612c38818560208601612b29565b612c418161225e565b840191505092915050565b60006020820190508181036000830152612c668184612c13565b905092915050565b612c778161201e565b82525050565b6000602082019050612c926000830184612c6e565b92915050565b600081519050612ca781611f05565b92915050565b600060208284031215612cc357612cc2611dd2565b5b6000612cd184828501612c98565b91505092915050565b7f4e6f7420656e6f756768204c494e4b202d2066696c6c20636f6e74726163742060008201527f7769746820666175636574000000000000000000000000000000000000000000602082015250565b6000612d36602b8361259f565b9150612d4182612cda565b604082019050919050565b60006020820190508181036000830152612d6581612d29565b9050919050565b7f4e487b7100000000000000000000000000000000000000000000000000000000600052601260045260246000fd5b6000612da682611efb565b9150612db183611efb565b925082612dc157612dc0612d6c565b5b828206905092915050565b6000612dd7826120f3565b9150612de2836120f3565b92508260ff03821115612df857612df76126f4565b5b828201905092915050565b6000612e0e826120f3565b9150612e19836120f3565b925082612e2957612e28612d6c565b5b828206905092915050565b6000612e3f82611efb565b9150612e4a83611efb565b9250817fffffffffffffffffffffffffffffffffffffffffffffffffffffffffffffffff0483118215151615612e8357612e826126f4565b5b828202905092915050565b6000612e9982611efb565b9150612ea483611efb565b9250827fffffffffffffffffffffffffffffffffffffffffffffffffffffffffffffffff03821115612ed957612ed86126f4565b5b828201905092915050565b6000612eef82611efb565b91506000821415612f0357612f026126f4565b5b600182039050919050565b7f537472696e67733a20686578206c656e67746820696e73756666696369656e74600082015250565b6000612f4460208361259f565b9150612f4f82612f0e565b602082019050919050565b60006020820190508181036000830152612f7381612f37565b9050919050565b6000604082019050612f8f6000830185611fd4565b612f9c602083018461209c565b9392505050565b600081519050919050565b600082825260208201905092915050565b6000612fca82612fa3565b612fd48185612fae565b9350612fe4818560208601612b29565b612fed8161225e565b840191505092915050565b600060608201905061300d6000830186612c6e565b61301a602083018561209c565b818103604083015261302c8184612fbf565b9050949350505050565b600081519050613045816122ea565b92915050565b60006020828403121561306157613060611dd2565b5b600061306f84828501613036565b91505092915050565b600060808201905061308d6000830187611fd4565b61309a602083018661209c565b6130a76040830185612c6e565b6130b4606083018461209c565b95945050505050565b6000819050919050565b6130d86130d382611f71565b6130bd565b82525050565b6000819050919050565b6130f96130f482611efb565b6130de565b82525050565b600061310b82856130c7565b60208201915061311b82846130e8565b602082019150819050939250505056fea2646970667358221220b4ff949bc3c9cec52e5bf56855a017286de26cf217e873b21a9e4f8d1dc6334664736f6c634300080a0033",
  "immutableReferences": {
    "73": [
      {
        "length": 32,
        "start": 5518
      },
      {
        "length": 32,
        "start": 7114
      }
    ],
    "75": [
      {
        "length": 32,
        "start": 3783
      },
      {
        "length": 32,
        "start": 7174
      }
    ]
  },
  "source": "// BoardMock.sol\r\n// SPDX-License-Identifier: MIT\r\n\r\npragma solidity 0.8.10;\r\n\r\nimport \"../Board.sol\";\r\n\r\n// @dev For tests only\r\ncontract BoardMock is BoardContract {\r\n\r\n\tconstructor() BoardContract(\r\n\t\taddress(0x514910771AF9Ca656af840dff83E8264EcF986CA),\r\n\t\taddress(0x514910771AF9Ca656af840dff83E8264EcF986CA),\r\n\t\t0x6c3699283bda56ad74f6b855546325b68d482e983852a7a82979cc4807b641f4,\r\n\t\t0.0001 * 10 ** 18\r\n\t) {}\r\n\r\n\tfunction updatePawnInfo(uint16 _edition, uint256 _pawnID, uint8 _rarity, PawnInfo memory _pawnInfo) public {\r\n\t\tuint256 _random;\r\n\t\t/*uint8 rarity;\r\n\t\tfor (uint i=0; rarity == _rarity; i++) {\r\n\t\t\t_random = uint256(keccak256(abi.encode(block.timestamp, i)));\r\n\t\t\trarity = retrievePropertyRarity(_random);\r\n\t\t}*/\r\n\r\n\t\t/* script to retrieve random number from rarity\r\n\t\tfor (let random = 1000; random < 5000; random++)\r\n\t\t\tawait BoardInstance.retrievePropertyRarity(\r\n\t\tethers.utils.parseEther(random.toString())\r\n\t\t).then((rarity) => {\r\n\t\tif (rarity.toNumber() === 0) {\r\n\t\tconsole.log(\"retrievePropertyRarity\", random, rarity.toNumber());\r\n\t\t}\r\n\t\t});*/\r\n\r\n\t\tif (_rarity == 2) {\r\n\t\t\t_random = 1098;\r\n\t\t}\r\n\r\n\t\tif (_rarity == 1) {\r\n\t\t\t_random = 1097;\r\n\t\t}\r\n\r\n\t\tif (_rarity == 0) {\r\n\t\t\t_random = 1163;\r\n\t\t}\r\n\r\n\t\t_pawnInfo.random = _random;\r\n\r\n\t\tthis.setPawnInfo(_edition, _pawnID, _pawnInfo);\r\n\t}\r\n\r\n\t// Strict copy of Bank functions turned to public type\r\n\t/*function retrievePropertyRarity(uint256 randomness) public pure returns(uint8){\r\n\t\tuint256 number = calculateRandomInteger(\"rarity\", 1, 111, randomness);\r\n\r\n\t\tif (number <= 100) return 2;\r\n\t\tif (number <= 110) return 1;\r\n\t\treturn 0;\r\n\t}\r\n\r\n\tfunction calculateRandomInteger(string memory _type, uint256 min, uint256 max, uint256 randomness) public pure returns(uint256) {\r\n\t\tuint256 modulo = max - min + 1;\r\n\t\tuint256 number = uint256(keccak256(abi.encode(randomness, _type)));\r\n\r\n\t\treturn number % modulo + min;\r\n\t}*/\r\n}\r\n",
  "sourcePath": "C:\\Users\\aaast\\Alyra\\mnp-trufflebox\\contracts\\Stubs\\BoardMock.sol",
  "compiler": {
    "name": "solc",
    "version": "0.8.10+commit.fc410830.Emscripten.clang"
  },
  "schemaVersion": "3.4.3",
  "updatedAt": "2022-01-18T11:27:20.702Z",
  "devdoc": {
    "kind": "dev",
    "methods": {
      "getMaxEdition()": {
        "returns": {
          "_0": "number of board editions"
        }
      },
      "getNbLands(uint16)": {
        "params": {
          "edition": "board edition"
        },
        "returns": {
          "_0": "number of lands"
        }
      },
      "getPawnInfo(uint16,uint256)": {
        "params": {
          "_edition": "board edition",
          "_pawnID": "pawn ID"
        },
        "returns": {
          "p": "Pawn information"
        }
      },
      "getRarityLevel(uint16)": {
        "params": {
          "edition": "board edition"
        },
        "returns": {
          "_0": "number of rarity levels"
        }
      },
      "getRoleAdmin(bytes32)": {
        "details": "Returns the admin role that controls `role`. See {grantRole} and {revokeRole}. To change a role's admin, use {_setRoleAdmin}."
      },
      "grantRole(bytes32,address)": {
        "details": "Grants `role` to `account`. If `account` had not been already granted `role`, emits a {RoleGranted} event. Requirements: - the caller must have ``role``'s admin role."
      },
      "hasRole(bytes32,address)": {
        "details": "Returns `true` if `account` has been granted `role`."
      },
      "isPurchasable(uint16,uint8)": {
        "params": {
          "edition": "board edition",
          "land": "cell number"
        },
        "returns": {
          "_0": "true or false"
        }
      },
      "isRegistered(uint16,uint256)": {
        "params": {
          "_edition": "board edition",
          "_pawnID": "pawn ID"
        },
        "returns": {
          "_0": "true or false"
        }
      },
      "newBoard(uint8,uint8,uint8[],uint16)": {
        "params": {
          "_maxPawns": "max number of pawns allowed",
          "_nbOfLands": "number of lands",
          "_rarityLevel": "number of rarity levels"
        }
      },
      "play(uint16,uint256)": {
        "params": {
          "_edition": "board edition",
          "_pawnID": "pawn ID"
        }
      },
      "register(uint16,uint256)": {
        "params": {
          "_edition": "board edition",
          "_pawnID": "pawn ID"
        }
      },
      "renounceRole(bytes32,address)": {
        "details": "Revokes `role` from the calling account. Roles are often managed via {grantRole} and {revokeRole}: this function's purpose is to provide a mechanism for accounts to lose their privileges if they are compromised (such as when a trusted device is misplaced). If the calling account had been revoked `role`, emits a {RoleRevoked} event. Requirements: - the caller must be `account`."
      },
      "revokeRole(bytes32,address)": {
        "details": "Revokes `role` from `account`. If `account` had been granted `role`, emits a {RoleRevoked} event. Requirements: - the caller must have ``role``'s admin role."
      },
      "setPawnInfo(uint16,uint256,(uint256,uint8,bool,bool,bool,bool))": {
        "params": {
          "_edition": "board edition",
          "_pawnID": "pawn ID",
          "_pawnInfo": "pawn information"
        }
      },
      "supportsInterface(bytes4)": {
        "details": "See {IERC165-supportsInterface}."
      }
    },
    "version": 1
  },
  "userdoc": {
    "events": {
      "BoardCreated(uint16)": {
        "notice": "event emitted when a new board is created"
      },
      "ePawn(uint16,uint256)": {
        "notice": "event emitted when a new pawn is registered on a board"
      }
    },
    "kind": "user",
    "methods": {
      "getMaxEdition()": {
        "notice": "get the number of board editions"
      },
      "getNbLands(uint16)": {
        "notice": "get the number of lands for a board edition"
      },
      "getPawnInfo(uint16,uint256)": {
        "notice": "get Pawn information on a board"
      },
      "getRarityLevel(uint16)": {
        "notice": "get the number of rarity level for a board edition"
      },
      "isPurchasable(uint16,uint8)": {
        "notice": "check if a land can be bought (PROP tokens available)"
      },
      "isRegistered(uint16,uint256)": {
        "notice": "check if a pawn is registered"
      },
      "newBoard(uint8,uint8,uint8[],uint16)": {
        "notice": "create a new board"
      },
      "play(uint16,uint256)": {
        "notice": "play with a pawn"
      },
      "register(uint16,uint256)": {
        "notice": "register a pawn on a board"
      },
      "setPawnInfo(uint16,uint256,(uint256,uint8,bool,bool,bool,bool))": {
        "notice": "set Pawn information on a board"
      }
    },
    "version": 1
  }
}