{
  "contractName": "LinkForChainlinkVRF",
  "abi": [
    {
      "inputs": [
        {
          "internalType": "address",
          "name": "VRFCoordinatorAddress",
          "type": "address"
        }
      ],
      "stateMutability": "nonpayable",
      "type": "constructor"
    },
    {
      "anonymous": false,
      "inputs": [
        {
          "indexed": true,
          "internalType": "address",
          "name": "owner",
          "type": "address"
        },
        {
          "indexed": true,
          "internalType": "address",
          "name": "spender",
          "type": "address"
        },
        {
          "indexed": false,
          "internalType": "uint256",
          "name": "value",
          "type": "uint256"
        }
      ],
      "name": "Approval",
      "type": "event"
    },
    {
      "anonymous": false,
      "inputs": [
        {
          "indexed": true,
          "internalType": "address",
          "name": "from",
          "type": "address"
        },
        {
          "indexed": true,
          "internalType": "address",
          "name": "to",
          "type": "address"
        },
        {
          "indexed": false,
          "internalType": "uint256",
          "name": "value",
          "type": "uint256"
        }
      ],
      "name": "Transfer",
      "type": "event"
    },
    {
      "inputs": [
        {
          "internalType": "address",
          "name": "owner",
          "type": "address"
        },
        {
          "internalType": "address",
          "name": "spender",
          "type": "address"
        }
      ],
      "name": "allowance",
      "outputs": [
        {
          "internalType": "uint256",
          "name": "",
          "type": "uint256"
        }
      ],
      "stateMutability": "view",
      "type": "function"
    },
    {
      "inputs": [
        {
          "internalType": "address",
          "name": "spender",
          "type": "address"
        },
        {
          "internalType": "uint256",
          "name": "amount",
          "type": "uint256"
        }
      ],
      "name": "approve",
      "outputs": [
        {
          "internalType": "bool",
          "name": "",
          "type": "bool"
        }
      ],
      "stateMutability": "nonpayable",
      "type": "function"
    },
    {
      "inputs": [
        {
          "internalType": "address",
          "name": "account",
          "type": "address"
        }
      ],
      "name": "balanceOf",
      "outputs": [
        {
          "internalType": "uint256",
          "name": "",
          "type": "uint256"
        }
      ],
      "stateMutability": "view",
      "type": "function"
    },
    {
      "inputs": [],
      "name": "decimals",
      "outputs": [
        {
          "internalType": "uint8",
          "name": "",
          "type": "uint8"
        }
      ],
      "stateMutability": "view",
      "type": "function"
    },
    {
      "inputs": [
        {
          "internalType": "address",
          "name": "spender",
          "type": "address"
        },
        {
          "internalType": "uint256",
          "name": "subtractedValue",
          "type": "uint256"
        }
      ],
      "name": "decreaseAllowance",
      "outputs": [
        {
          "internalType": "bool",
          "name": "",
          "type": "bool"
        }
      ],
      "stateMutability": "nonpayable",
      "type": "function"
    },
    {
      "inputs": [
        {
          "internalType": "address",
          "name": "spender",
          "type": "address"
        },
        {
          "internalType": "uint256",
          "name": "addedValue",
          "type": "uint256"
        }
      ],
      "name": "increaseAllowance",
      "outputs": [
        {
          "internalType": "bool",
          "name": "",
          "type": "bool"
        }
      ],
      "stateMutability": "nonpayable",
      "type": "function"
    },
    {
      "inputs": [],
      "name": "name",
      "outputs": [
        {
          "internalType": "string",
          "name": "",
          "type": "string"
        }
      ],
      "stateMutability": "view",
      "type": "function"
    },
    {
      "inputs": [],
      "name": "symbol",
      "outputs": [
        {
          "internalType": "string",
          "name": "",
          "type": "string"
        }
      ],
      "stateMutability": "view",
      "type": "function"
    },
    {
      "inputs": [],
      "name": "totalSupply",
      "outputs": [
        {
          "internalType": "uint256",
          "name": "",
          "type": "uint256"
        }
      ],
      "stateMutability": "view",
      "type": "function"
    },
    {
      "inputs": [
        {
          "internalType": "address",
          "name": "recipient",
          "type": "address"
        },
        {
          "internalType": "uint256",
          "name": "amount",
          "type": "uint256"
        }
      ],
      "name": "transfer",
      "outputs": [
        {
          "internalType": "bool",
          "name": "",
          "type": "bool"
        }
      ],
      "stateMutability": "nonpayable",
      "type": "function"
    },
    {
      "inputs": [
        {
          "internalType": "address",
          "name": "sender",
          "type": "address"
        },
        {
          "internalType": "address",
          "name": "recipient",
          "type": "address"
        },
        {
          "internalType": "uint256",
          "name": "amount",
          "type": "uint256"
        }
      ],
      "name": "transferFrom",
      "outputs": [
        {
          "internalType": "bool",
          "name": "",
          "type": "bool"
        }
      ],
      "stateMutability": "nonpayable",
      "type": "function"
    },
    {
      "inputs": [
        {
          "internalType": "address",
          "name": "recipient",
          "type": "address"
        },
        {
          "internalType": "uint256",
          "name": "amount",
          "type": "uint256"
        }
      ],
      "name": "faucet",
      "outputs": [],
      "stateMutability": "nonpayable",
      "type": "function"
    },
    {
      "inputs": [
        {
          "internalType": "address",
          "name": "to",
          "type": "address"
        },
        {
          "internalType": "uint256",
          "name": "value",
          "type": "uint256"
        },
        {
          "internalType": "bytes",
          "name": "data",
          "type": "bytes"
        }
      ],
      "name": "transferAndCall",
      "outputs": [
        {
          "internalType": "bool",
          "name": "",
          "type": "bool"
        }
      ],
      "stateMutability": "nonpayable",
      "type": "function"
    }
  ],
  "bytecode": "0x60806040523480156200001157600080fd5b5060405162001ed238038062001ed2833981810160405281019062000037919062000239565b6040518060400160405280600f81526020017f436861696e6c696e6b20546f6b656e00000000000000000000000000000000008152506040518060400160405280600481526020017f4c494e4b000000000000000000000000000000000000000000000000000000008152508160039080519060200190620000bb9291906200011f565b508060049080519060200190620000d49291906200011f565b50505080600560006101000a81548173ffffffffffffffffffffffffffffffffffffffff021916908373ffffffffffffffffffffffffffffffffffffffff16021790555050620002d0565b8280546200012d906200029a565b90600052602060002090601f0160209004810192826200015157600085556200019d565b82601f106200016c57805160ff19168380011785556200019d565b828001600101855582156200019d579182015b828111156200019c5782518255916020019190600101906200017f565b5b509050620001ac9190620001b0565b5090565b5b80821115620001cb576000816000905550600101620001b1565b5090565b600080fd5b600073ffffffffffffffffffffffffffffffffffffffff82169050919050565b60006200020182620001d4565b9050919050565b6200021381620001f4565b81146200021f57600080fd5b50565b600081519050620002338162000208565b92915050565b600060208284031215620002525762000251620001cf565b5b6000620002628482850162000222565b91505092915050565b7f4e487b7100000000000000000000000000000000000000000000000000000000600052602260045260246000fd5b60006002820490506001821680620002b357607f821691505b60208210811415620002ca57620002c96200026b565b5b50919050565b611bf280620002e06000396000f3fe608060405234801561001057600080fd5b50600436106100cf5760003560e01c80634000aea01161008c57806395d89b411161006657806395d89b411461023a578063a457c2d714610258578063a9059cbb14610288578063dd62ed3e146102b8576100cf565b80634000aea0146101be57806370a08231146101ee5780637b56c2b21461021e576100cf565b806306fdde03146100d4578063095ea7b3146100f257806318160ddd1461012257806323b872dd14610140578063313ce56714610170578063395093511461018e575b600080fd5b6100dc6102e8565b6040516100e9919061103e565b60405180910390f35b61010c60048036038101906101079190611108565b61037a565b6040516101199190611163565b60405180910390f35b61012a610398565b604051610137919061118d565b60405180910390f35b61015a600480360381019061015591906111a8565b6103a2565b6040516101679190611163565b60405180910390f35b61017861049a565b6040516101859190611217565b60405180910390f35b6101a860048036038101906101a39190611108565b6104a3565b6040516101b59190611163565b60405180910390f35b6101d860048036038101906101d39190611367565b61054f565b6040516101e59190611163565b60405180910390f35b610208600480360381019061020391906113d6565b61076f565b604051610215919061118d565b60405180910390f35b61023860048036038101906102339190611108565b6107b7565b005b6102426107c5565b60405161024f919061103e565b60405180910390f35b610272600480360381019061026d9190611108565b610857565b60405161027f9190611163565b60405180910390f35b6102a2600480360381019061029d9190611108565b610942565b6040516102af9190611163565b60405180910390f35b6102d260048036038101906102cd9190611403565b610960565b6040516102df919061118d565b60405180910390f35b6060600380546102f790611472565b80601f016020809104026020016040519081016040528092919081815260200182805461032390611472565b80156103705780601f1061034557610100808354040283529160200191610370565b820191906000526020600020905b81548152906001019060200180831161035357829003601f168201915b5050505050905090565b600061038e6103876109e7565b84846109ef565b6001905092915050565b6000600254905090565b60006103af848484610bba565b6000600160008673ffffffffffffffffffffffffffffffffffffffff1673ffffffffffffffffffffffffffffffffffffffff16815260200190815260200160002060006103fa6109e7565b73ffffffffffffffffffffffffffffffffffffffff1673ffffffffffffffffffffffffffffffffffffffff1681526020019081526020016000205490508281101561047a576040517f08c379a000000000000000000000000000000000000000000000000000000000815260040161047190611516565b60405180910390fd5b61048e856104866109e7565b8584036109ef565b60019150509392505050565b60006012905090565b60006105456104b06109e7565b8484600160006104be6109e7565b73ffffffffffffffffffffffffffffffffffffffff1673ffffffffffffffffffffffffffffffffffffffff16815260200190815260200160002060008873ffffffffffffffffffffffffffffffffffffffff1673ffffffffffffffffffffffffffffffffffffffff168152602001908152602001600020546105409190611565565b6109ef565b6001905092915050565b60008061055c8585610942565b90508061056d576000915050610768565b8473ffffffffffffffffffffffffffffffffffffffff163373ffffffffffffffffffffffffffffffffffffffff167fddf252ad1be2c89b69c2b068fc378daa952ba7f163c4a11628f55a4df523b3ef866040516105ca919061118d565b60405180910390a3600080848060200190518101906105e99190611606565b91509150600082823360066000878152602001908152602001600020546040516020016106199493929190611664565b6040516020818303038152906040528051906020012060001c9050600160066000858152602001908152602001600020546106549190611565565b6006600085815260200190815260200160002081905550600083826040516020016106809291906116eb565b604051602081830303815290604052805190602001209050600084838a8c6040516020016106b1949392919061175f565b6040516020818303038152906040528051906020012060001c9050600560009054906101000a900473ffffffffffffffffffffffffffffffffffffffff1673ffffffffffffffffffffffffffffffffffffffff16638f8e8b1c8383336040518463ffffffff1660e01b815260040161072b939291906117ad565b600060405180830381600087803b15801561074557600080fd5b505af1158015610759573d6000803e3d6000fd5b50505050600196505050505050505b9392505050565b60008060008373ffffffffffffffffffffffffffffffffffffffff1673ffffffffffffffffffffffffffffffffffffffff168152602001908152602001600020549050919050565b6107c18282610e3b565b5050565b6060600480546107d490611472565b80601f016020809104026020016040519081016040528092919081815260200182805461080090611472565b801561084d5780601f106108225761010080835404028352916020019161084d565b820191906000526020600020905b81548152906001019060200180831161083057829003601f168201915b5050505050905090565b600080600160006108666109e7565b73ffffffffffffffffffffffffffffffffffffffff1673ffffffffffffffffffffffffffffffffffffffff16815260200190815260200160002060008573ffffffffffffffffffffffffffffffffffffffff1673ffffffffffffffffffffffffffffffffffffffff16815260200190815260200160002054905082811015610923576040517f08c379a000000000000000000000000000000000000000000000000000000000815260040161091a90611856565b60405180910390fd5b61093761092e6109e7565b858584036109ef565b600191505092915050565b600061095661094f6109e7565b8484610bba565b6001905092915050565b6000600160008473ffffffffffffffffffffffffffffffffffffffff1673ffffffffffffffffffffffffffffffffffffffff16815260200190815260200160002060008373ffffffffffffffffffffffffffffffffffffffff1673ffffffffffffffffffffffffffffffffffffffff16815260200190815260200160002054905092915050565b600033905090565b600073ffffffffffffffffffffffffffffffffffffffff168373ffffffffffffffffffffffffffffffffffffffff161415610a5f576040517f08c379a0000000000000000000000000000000000000000000000000000000008152600401610a56906118e8565b60405180910390fd5b600073ffffffffffffffffffffffffffffffffffffffff168273ffffffffffffffffffffffffffffffffffffffff161415610acf576040517f08c379a0000000000000000000000000000000000000000000000000000000008152600401610ac69061197a565b60405180910390fd5b80600160008573ffffffffffffffffffffffffffffffffffffffff1673ffffffffffffffffffffffffffffffffffffffff16815260200190815260200160002060008473ffffffffffffffffffffffffffffffffffffffff1673ffffffffffffffffffffffffffffffffffffffff168152602001908152602001600020819055508173ffffffffffffffffffffffffffffffffffffffff168373ffffffffffffffffffffffffffffffffffffffff167f8c5be1e5ebec7d5bd14f71427d1e84f3dd0314c0f7b2291e5b200ac8c7c3b92583604051610bad919061118d565b60405180910390a3505050565b600073ffffffffffffffffffffffffffffffffffffffff168373ffffffffffffffffffffffffffffffffffffffff161415610c2a576040517f08c379a0000000000000000000000000000000000000000000000000000000008152600401610c2190611a0c565b60405180910390fd5b600073ffffffffffffffffffffffffffffffffffffffff168273ffffffffffffffffffffffffffffffffffffffff161415610c9a576040517f08c379a0000000000000000000000000000000000000000000000000000000008152600401610c9190611a9e565b60405180910390fd5b610ca5838383610f9b565b60008060008573ffffffffffffffffffffffffffffffffffffffff1673ffffffffffffffffffffffffffffffffffffffff16815260200190815260200160002054905081811015610d2b576040517f08c379a0000000000000000000000000000000000000000000000000000000008152600401610d2290611b30565b60405180910390fd5b8181036000808673ffffffffffffffffffffffffffffffffffffffff1673ffffffffffffffffffffffffffffffffffffffff16815260200190815260200160002081905550816000808573ffffffffffffffffffffffffffffffffffffffff1673ffffffffffffffffffffffffffffffffffffffff1681526020019081526020016000206000828254610dbe9190611565565b925050819055508273ffffffffffffffffffffffffffffffffffffffff168473ffffffffffffffffffffffffffffffffffffffff167fddf252ad1be2c89b69c2b068fc378daa952ba7f163c4a11628f55a4df523b3ef84604051610e22919061118d565b60405180910390a3610e35848484610fa0565b50505050565b600073ffffffffffffffffffffffffffffffffffffffff168273ffffffffffffffffffffffffffffffffffffffff161415610eab576040517f08c379a0000000000000000000000000000000000000000000000000000000008152600401610ea290611b9c565b60405180910390fd5b610eb760008383610f9b565b8060026000828254610ec99190611565565b92505081905550806000808473ffffffffffffffffffffffffffffffffffffffff1673ffffffffffffffffffffffffffffffffffffffff1681526020019081526020016000206000828254610f1e9190611565565b925050819055508173ffffffffffffffffffffffffffffffffffffffff16600073ffffffffffffffffffffffffffffffffffffffff167fddf252ad1be2c89b69c2b068fc378daa952ba7f163c4a11628f55a4df523b3ef83604051610f83919061118d565b60405180910390a3610f9760008383610fa0565b5050565b505050565b505050565b600081519050919050565b600082825260208201905092915050565b60005b83811015610fdf578082015181840152602081019050610fc4565b83811115610fee576000848401525b50505050565b6000601f19601f8301169050919050565b600061101082610fa5565b61101a8185610fb0565b935061102a818560208601610fc1565b61103381610ff4565b840191505092915050565b600060208201905081810360008301526110588184611005565b905092915050565b6000604051905090565b600080fd5b600080fd5b600073ffffffffffffffffffffffffffffffffffffffff82169050919050565b600061109f82611074565b9050919050565b6110af81611094565b81146110ba57600080fd5b50565b6000813590506110cc816110a6565b92915050565b6000819050919050565b6110e5816110d2565b81146110f057600080fd5b50565b600081359050611102816110dc565b92915050565b6000806040838503121561111f5761111e61106a565b5b600061112d858286016110bd565b925050602061113e858286016110f3565b9150509250929050565b60008115159050919050565b61115d81611148565b82525050565b60006020820190506111786000830184611154565b92915050565b611187816110d2565b82525050565b60006020820190506111a2600083018461117e565b92915050565b6000806000606084860312156111c1576111c061106a565b5b60006111cf868287016110bd565b93505060206111e0868287016110bd565b92505060406111f1868287016110f3565b9150509250925092565b600060ff82169050919050565b611211816111fb565b82525050565b600060208201905061122c6000830184611208565b92915050565b600080fd5b600080fd5b7f4e487b7100000000000000000000000000000000000000000000000000000000600052604160045260246000fd5b61127482610ff4565b810181811067ffffffffffffffff821117156112935761129261123c565b5b80604052505050565b60006112a6611060565b90506112b2828261126b565b919050565b600067ffffffffffffffff8211156112d2576112d161123c565b5b6112db82610ff4565b9050602081019050919050565b82818337600083830152505050565b600061130a611305846112b7565b61129c565b90508281526020810184848401111561132657611325611237565b5b6113318482856112e8565b509392505050565b600082601f83011261134e5761134d611232565b5b813561135e8482602086016112f7565b91505092915050565b6000806000606084860312156113805761137f61106a565b5b600061138e868287016110bd565b935050602061139f868287016110f3565b925050604084013567ffffffffffffffff8111156113c0576113bf61106f565b5b6113cc86828701611339565b9150509250925092565b6000602082840312156113ec576113eb61106a565b5b60006113fa848285016110bd565b91505092915050565b6000806040838503121561141a5761141961106a565b5b6000611428858286016110bd565b9250506020611439858286016110bd565b9150509250929050565b7f4e487b7100000000000000000000000000000000000000000000000000000000600052602260045260246000fd5b6000600282049050600182168061148a57607f821691505b6020821081141561149e5761149d611443565b5b50919050565b7f45524332303a207472616e7366657220616d6f756e742065786365656473206160008201527f6c6c6f77616e6365000000000000000000000000000000000000000000000000602082015250565b6000611500602883610fb0565b915061150b826114a4565b604082019050919050565b6000602082019050818103600083015261152f816114f3565b9050919050565b7f4e487b7100000000000000000000000000000000000000000000000000000000600052601160045260246000fd5b6000611570826110d2565b915061157b836110d2565b9250827fffffffffffffffffffffffffffffffffffffffffffffffffffffffffffffffff038211156115b0576115af611536565b5b828201905092915050565b6000819050919050565b6115ce816115bb565b81146115d957600080fd5b50565b6000815190506115eb816115c5565b92915050565b600081519050611600816110dc565b92915050565b6000806040838503121561161d5761161c61106a565b5b600061162b858286016115dc565b925050602061163c858286016115f1565b9150509250929050565b61164f816115bb565b82525050565b61165e81611094565b82525050565b60006080820190506116796000830187611646565b611686602083018661117e565b6116936040830185611655565b6116a0606083018461117e565b95945050505050565b6000819050919050565b6116c46116bf826115bb565b6116a9565b82525050565b6000819050919050565b6116e56116e0826110d2565b6116ca565b82525050565b60006116f782856116b3565b60208201915061170782846116d4565b6020820191508190509392505050565b60008160601b9050919050565b600061172f82611717565b9050919050565b600061174182611724565b9050919050565b61175961175482611094565b611736565b82525050565b600061176b82876116b3565b60208201915061177b82866116d4565b60208201915061178b82856116d4565b60208201915061179b8284611748565b60148201915081905095945050505050565b60006060820190506117c26000830186611646565b6117cf602083018561117e565b6117dc6040830184611655565b949350505050565b7f45524332303a2064656372656173656420616c6c6f77616e63652062656c6f7760008201527f207a65726f000000000000000000000000000000000000000000000000000000602082015250565b6000611840602583610fb0565b915061184b826117e4565b604082019050919050565b6000602082019050818103600083015261186f81611833565b9050919050565b7f45524332303a20617070726f76652066726f6d20746865207a65726f2061646460008201527f7265737300000000000000000000000000000000000000000000000000000000602082015250565b60006118d2602483610fb0565b91506118dd82611876565b604082019050919050565b60006020820190508181036000830152611901816118c5565b9050919050565b7f45524332303a20617070726f766520746f20746865207a65726f20616464726560008201527f7373000000000000000000000000000000000000000000000000000000000000602082015250565b6000611964602283610fb0565b915061196f82611908565b604082019050919050565b6000602082019050818103600083015261199381611957565b9050919050565b7f45524332303a207472616e736665722066726f6d20746865207a65726f20616460008201527f6472657373000000000000000000000000000000000000000000000000000000602082015250565b60006119f6602583610fb0565b9150611a018261199a565b604082019050919050565b60006020820190508181036000830152611a25816119e9565b9050919050565b7f45524332303a207472616e7366657220746f20746865207a65726f206164647260008201527f6573730000000000000000000000000000000000000000000000000000000000602082015250565b6000611a88602383610fb0565b9150611a9382611a2c565b604082019050919050565b60006020820190508181036000830152611ab781611a7b565b9050919050565b7f45524332303a207472616e7366657220616d6f756e742065786365656473206260008201527f616c616e63650000000000000000000000000000000000000000000000000000602082015250565b6000611b1a602683610fb0565b9150611b2582611abe565b604082019050919050565b60006020820190508181036000830152611b4981611b0d565b9050919050565b7f45524332303a206d696e7420746f20746865207a65726f206164647265737300600082015250565b6000611b86601f83610fb0565b9150611b9182611b50565b602082019050919050565b60006020820190508181036000830152611bb581611b79565b905091905056fea26469706673582212201218062827d59632a7f83bb6d8babb85e242b1a93354aabac8d2e50df74f07fb64736f6c634300080a0033",
  "immutableReferences": {},
  "source": "// LinkForChainLinkVRF.sol\r\n// SPDX-License-Identifier: MIT\r\n\r\npragma solidity 0.8.10;\r\n\r\nimport '@openzeppelin/contracts/token/ERC20/ERC20.sol';\r\nimport \"../Board.sol\";\r\nimport \"./VRFCoordinator.sol\";\r\n\r\n// @dev only used for local development with Ganache\r\ncontract LinkForChainlinkVRF is ERC20 { // https://github.com/rsksmart/erc677/blob/master/contracts/ERC677.sol\r\n    VRFCoordinatorContract VRFCoordinator;\r\n\r\n    /* keyHash */ /* nonce */\r\n    mapping(bytes32 => uint256) private nonces;\r\n\r\n    constructor(address VRFCoordinatorAddress) ERC20('Chainlink Token', 'LINK') {\r\n        VRFCoordinator = VRFCoordinatorContract(VRFCoordinatorAddress);\r\n    }\r\n\r\n    // to create LINK\r\n    function faucet(address recipient, uint amount) external {\r\n        _mint(recipient, amount);\r\n    }\r\n\r\n    function transferAndCall(\r\n        address to,\r\n        uint256 value,\r\n        bytes memory data\r\n    ) external returns (bool) {\r\n        bool result = super.transfer(to, value);\r\n        if (!result) return false;\r\n\r\n        emit Transfer(msg.sender, to, value);\r\n\r\n        (bytes32 _keyHash,uint256 _userSeed) = abi.decode(data, (bytes32, uint256));\r\n        uint256 vRFSeed = uint256(keccak256(abi.encode(_keyHash, _userSeed, msg.sender, nonces[_keyHash])));\r\n        nonces[_keyHash] = nonces[_keyHash] + 1;\r\n        bytes32 requestId = keccak256(abi.encodePacked(_keyHash, vRFSeed));\r\n\r\n        uint256 randomness = uint256(keccak256(abi.encodePacked(_keyHash, vRFSeed, value, to)));\r\n\r\n        // Randomness is calculated here, by simplicity, but is not important.\r\n        // msg.sender is Board contract\r\n        VRFCoordinator.saveData(requestId, randomness, msg.sender);\r\n\r\n        return true;\r\n    }\r\n}",
  "sourcePath": "C:\\Users\\aaast\\Alyra\\mnp-trufflebox\\contracts\\withGanacheOnly\\LinkForChainlinkVRF.sol",
  "compiler": {
    "name": "solc",
    "version": "0.8.10+commit.fc410830.Emscripten.clang"
  },
  "schemaVersion": "3.4.3",
  "updatedAt": "2022-01-24T10:41:30.867Z",
  "networkType": "ethereum",
  "devdoc": {
    "kind": "dev",
    "methods": {
      "allowance(address,address)": {
        "details": "See {IERC20-allowance}."
      },
      "approve(address,uint256)": {
        "details": "See {IERC20-approve}. Requirements: - `spender` cannot be the zero address."
      },
      "balanceOf(address)": {
        "details": "See {IERC20-balanceOf}."
      },
      "decimals()": {
        "details": "Returns the number of decimals used to get its user representation. For example, if `decimals` equals `2`, a balance of `505` tokens should be displayed to a user as `5.05` (`505 / 10 ** 2`). Tokens usually opt for a value of 18, imitating the relationship between Ether and Wei. This is the value {ERC20} uses, unless this function is overridden; NOTE: This information is only used for _display_ purposes: it in no way affects any of the arithmetic of the contract, including {IERC20-balanceOf} and {IERC20-transfer}."
      },
      "decreaseAllowance(address,uint256)": {
        "details": "Atomically decreases the allowance granted to `spender` by the caller. This is an alternative to {approve} that can be used as a mitigation for problems described in {IERC20-approve}. Emits an {Approval} event indicating the updated allowance. Requirements: - `spender` cannot be the zero address. - `spender` must have allowance for the caller of at least `subtractedValue`."
      },
      "increaseAllowance(address,uint256)": {
        "details": "Atomically increases the allowance granted to `spender` by the caller. This is an alternative to {approve} that can be used as a mitigation for problems described in {IERC20-approve}. Emits an {Approval} event indicating the updated allowance. Requirements: - `spender` cannot be the zero address."
      },
      "name()": {
        "details": "Returns the name of the token."
      },
      "symbol()": {
        "details": "Returns the symbol of the token, usually a shorter version of the name."
      },
      "totalSupply()": {
        "details": "See {IERC20-totalSupply}."
      },
      "transfer(address,uint256)": {
        "details": "See {IERC20-transfer}. Requirements: - `recipient` cannot be the zero address. - the caller must have a balance of at least `amount`."
      },
      "transferFrom(address,address,uint256)": {
        "details": "See {IERC20-transferFrom}. Emits an {Approval} event indicating the updated allowance. This is not required by the EIP. See the note at the beginning of {ERC20}. Requirements: - `sender` and `recipient` cannot be the zero address. - `sender` must have a balance of at least `amount`. - the caller must have allowance for ``sender``'s tokens of at least `amount`."
      }
    },
    "version": 1
  },
  "userdoc": {
    "kind": "user",
    "methods": {},
    "version": 1
  }
}