{
  "contractName": "MaticUsdPriceFeed",
  "abi": [
    {
      "inputs": [
        {
          "internalType": "int256",
          "name": "_value",
          "type": "int256"
        }
      ],
      "stateMutability": "nonpayable",
      "type": "constructor"
    },
    {
      "anonymous": false,
      "inputs": [
        {
          "indexed": true,
          "internalType": "address",
          "name": "previousOwner",
          "type": "address"
        },
        {
          "indexed": true,
          "internalType": "address",
          "name": "newOwner",
          "type": "address"
        }
      ],
      "name": "OwnershipTransferred",
      "type": "event"
    },
    {
      "inputs": [],
      "name": "owner",
      "outputs": [
        {
          "internalType": "address",
          "name": "",
          "type": "address"
        }
      ],
      "stateMutability": "view",
      "type": "function"
    },
    {
      "inputs": [],
      "name": "renounceOwnership",
      "outputs": [],
      "stateMutability": "nonpayable",
      "type": "function"
    },
    {
      "inputs": [
        {
          "internalType": "address",
          "name": "newOwner",
          "type": "address"
        }
      ],
      "name": "transferOwnership",
      "outputs": [],
      "stateMutability": "nonpayable",
      "type": "function"
    },
    {
      "inputs": [],
      "name": "decimals",
      "outputs": [
        {
          "internalType": "uint8",
          "name": "",
          "type": "uint8"
        }
      ],
      "stateMutability": "view",
      "type": "function"
    },
    {
      "inputs": [],
      "name": "description",
      "outputs": [
        {
          "internalType": "string",
          "name": "",
          "type": "string"
        }
      ],
      "stateMutability": "pure",
      "type": "function"
    },
    {
      "inputs": [],
      "name": "version",
      "outputs": [
        {
          "internalType": "uint256",
          "name": "",
          "type": "uint256"
        }
      ],
      "stateMutability": "pure",
      "type": "function"
    },
    {
      "inputs": [
        {
          "internalType": "int256",
          "name": "_value",
          "type": "int256"
        }
      ],
      "name": "setRoundData",
      "outputs": [],
      "stateMutability": "nonpayable",
      "type": "function"
    },
    {
      "inputs": [
        {
          "internalType": "uint80",
          "name": "_roundId",
          "type": "uint80"
        }
      ],
      "name": "getRoundData",
      "outputs": [
        {
          "internalType": "uint80",
          "name": "roundId",
          "type": "uint80"
        },
        {
          "internalType": "int256",
          "name": "answer",
          "type": "int256"
        },
        {
          "internalType": "uint256",
          "name": "startedAt",
          "type": "uint256"
        },
        {
          "internalType": "uint256",
          "name": "updatedAt",
          "type": "uint256"
        },
        {
          "internalType": "uint80",
          "name": "answeredInRound",
          "type": "uint80"
        }
      ],
      "stateMutability": "view",
      "type": "function"
    },
    {
      "inputs": [],
      "name": "latestRoundData",
      "outputs": [
        {
          "internalType": "uint80",
          "name": "roundId",
          "type": "uint80"
        },
        {
          "internalType": "int256",
          "name": "answer",
          "type": "int256"
        },
        {
          "internalType": "uint256",
          "name": "startedAt",
          "type": "uint256"
        },
        {
          "internalType": "uint256",
          "name": "updatedAt",
          "type": "uint256"
        },
        {
          "internalType": "uint80",
          "name": "answeredInRound",
          "type": "uint80"
        }
      ],
      "stateMutability": "view",
      "type": "function"
    }
  ],
  "bytecode": "0x608060405260086005600a6101000a81548160ff021916908360ff1602179055503480156200002d57600080fd5b5060405162000d1338038062000d13833981810160405281019062000053919062000247565b62000073620000676200008b60201b60201c565b6200009360201b60201c565b62000084816200015760201b60201c565b50620002f6565b600033905090565b60008060009054906101000a900473ffffffffffffffffffffffffffffffffffffffff169050816000806101000a81548173ffffffffffffffffffffffffffffffffffffffff021916908373ffffffffffffffffffffffffffffffffffffffff1602179055508173ffffffffffffffffffffffffffffffffffffffff168173ffffffffffffffffffffffffffffffffffffffff167f8be0079c531659141344cd1fd0a4f28419497f9722a3daafe3b4186f6b6457e060405160405180910390a35050565b806001819055504260038190556004819055506002600081819054906101000a900469ffffffffffffffffffff16809291906200019490620002be565b91906101000a81548169ffffffffffffffffffff021916908369ffffffffffffffffffff16021790555050600260009054906101000a900469ffffffffffffffffffff16600560006101000a81548169ffffffffffffffffffff021916908369ffffffffffffffffffff16021790555050565b600080fd5b6000819050919050565b62000221816200020c565b81146200022d57600080fd5b50565b600081519050620002418162000216565b92915050565b60006020828403121562000260576200025f62000207565b5b6000620002708482850162000230565b91505092915050565b7f4e487b7100000000000000000000000000000000000000000000000000000000600052601160045260246000fd5b600069ffffffffffffffffffff82169050919050565b6000620002cb82620002a8565b915069ffffffffffffffffffff821415620002eb57620002ea62000279565b5b600182019050919050565b610a0d80620003066000396000f3fe608060405234801561001057600080fd5b50600436106100935760003560e01c80638da5cb5b116100665780638da5cb5b146100fc5780639a6fc8f51461011a578063a4381d1f1461014e578063f2fde38b1461016a578063feaf968c1461018657610093565b8063313ce5671461009857806354fd4d50146100b6578063715018a6146100d45780637284e416146100de575b600080fd5b6100a06101a8565b6040516100ad9190610570565b60405180910390f35b6100be6101bf565b6040516100cb91906105a4565b60405180910390f35b6100dc6101c4565b005b6100e661024c565b6040516100f39190610658565b60405180910390f35b610104610289565b60405161011191906106bb565b60405180910390f35b610134600480360381019061012f919061071d565b6102b2565b604051610145959493929190610772565b60405180910390f35b610168600480360381019061016391906107f1565b6102cb565b005b610184600480360381019061017f919061084a565b610379565b005b61018e610471565b60405161019f959493929190610772565b60405180910390f35b60006005600a9054906101000a900460ff16905090565b600090565b6101cc610488565b73ffffffffffffffffffffffffffffffffffffffff166101ea610289565b73ffffffffffffffffffffffffffffffffffffffff1614610240576040517f08c379a0000000000000000000000000000000000000000000000000000000008152600401610237906108c3565b60405180910390fd5b61024a6000610490565b565b60606040518060400160405280601e81526020017f4d415449432f55534420436861696e4c696e6b20507269636520466565640000815250905090565b60008060009054906101000a900473ffffffffffffffffffffffffffffffffffffffff16905090565b6000806000806000856001549450945091939590929450565b806001819055504260038190556004819055506002600081819054906101000a900469ffffffffffffffffffff168092919061030690610912565b91906101000a81548169ffffffffffffffffffff021916908369ffffffffffffffffffff16021790555050600260009054906101000a900469ffffffffffffffffffff16600560006101000a81548169ffffffffffffffffffff021916908369ffffffffffffffffffff16021790555050565b610381610488565b73ffffffffffffffffffffffffffffffffffffffff1661039f610289565b73ffffffffffffffffffffffffffffffffffffffff16146103f5576040517f08c379a00000000000000000000000000000000000000000000000000000000081526004016103ec906108c3565b60405180910390fd5b600073ffffffffffffffffffffffffffffffffffffffff168173ffffffffffffffffffffffffffffffffffffffff161415610465576040517f08c379a000000000000000000000000000000000000000000000000000000000815260040161045c906109b7565b60405180910390fd5b61046e81610490565b50565b600080600080600084600154945094509091929394565b600033905090565b60008060009054906101000a900473ffffffffffffffffffffffffffffffffffffffff169050816000806101000a81548173ffffffffffffffffffffffffffffffffffffffff021916908373ffffffffffffffffffffffffffffffffffffffff1602179055508173ffffffffffffffffffffffffffffffffffffffff168173ffffffffffffffffffffffffffffffffffffffff167f8be0079c531659141344cd1fd0a4f28419497f9722a3daafe3b4186f6b6457e060405160405180910390a35050565b600060ff82169050919050565b61056a81610554565b82525050565b60006020820190506105856000830184610561565b92915050565b6000819050919050565b61059e8161058b565b82525050565b60006020820190506105b96000830184610595565b92915050565b600081519050919050565b600082825260208201905092915050565b60005b838110156105f95780820151818401526020810190506105de565b83811115610608576000848401525b50505050565b6000601f19601f8301169050919050565b600061062a826105bf565b61063481856105ca565b93506106448185602086016105db565b61064d8161060e565b840191505092915050565b60006020820190508181036000830152610672818461061f565b905092915050565b600073ffffffffffffffffffffffffffffffffffffffff82169050919050565b60006106a58261067a565b9050919050565b6106b58161069a565b82525050565b60006020820190506106d060008301846106ac565b92915050565b600080fd5b600069ffffffffffffffffffff82169050919050565b6106fa816106db565b811461070557600080fd5b50565b600081359050610717816106f1565b92915050565b600060208284031215610733576107326106d6565b5b600061074184828501610708565b91505092915050565b610753816106db565b82525050565b6000819050919050565b61076c81610759565b82525050565b600060a082019050610787600083018861074a565b6107946020830187610763565b6107a16040830186610595565b6107ae6060830185610595565b6107bb608083018461074a565b9695505050505050565b6107ce81610759565b81146107d957600080fd5b50565b6000813590506107eb816107c5565b92915050565b600060208284031215610807576108066106d6565b5b6000610815848285016107dc565b91505092915050565b6108278161069a565b811461083257600080fd5b50565b6000813590506108448161081e565b92915050565b6000602082840312156108605761085f6106d6565b5b600061086e84828501610835565b91505092915050565b7f4f776e61626c653a2063616c6c6572206973206e6f7420746865206f776e6572600082015250565b60006108ad6020836105ca565b91506108b882610877565b602082019050919050565b600060208201905081810360008301526108dc816108a0565b9050919050565b7f4e487b7100000000000000000000000000000000000000000000000000000000600052601160045260246000fd5b600061091d826106db565b915069ffffffffffffffffffff82141561093a576109396108e3565b5b600182019050919050565b7f4f776e61626c653a206e6577206f776e657220697320746865207a65726f206160008201527f6464726573730000000000000000000000000000000000000000000000000000602082015250565b60006109a16026836105ca565b91506109ac82610945565b604082019050919050565b600060208201905081810360008301526109d081610994565b905091905056fea264697066735822122029f954201793f7b6f70b110709198d94f2c9d60ecbb065f563de1a61f4f0b91364736f6c634300080a0033",
  "immutableReferences": {},
  "source": "// SPDX-License-Identifier: MIT\r\npragma solidity 0.8.10;\r\n\r\nimport '@openzeppelin/contracts/access/Ownable.sol';\r\nimport '@openzeppelin/contracts/token/ERC20/IERC20.sol';\r\nimport '@chainlink/contracts/src/v0.8/interfaces/AggregatorV3Interface.sol';\r\n\r\n\r\n// @dev For local development only\r\ncontract MaticUsdPriceFeed is AggregatorV3Interface, Ownable {\r\n    \r\n    int256 value;\r\n    uint80 roundId;\r\n    uint256 startedAt;\r\n    uint256 updatedAt;\r\n    uint80 answeredInRound;\r\n    uint8 private _decimals = 8;\r\n\r\n    // @param _value: prcision  6 chiffres\r\n    constructor(int256 _value) {\r\n        setRoundData(_value);\r\n    }\r\n\r\n    function decimals() override external view returns (uint8) {\r\n        return _decimals;\r\n    }\r\n\r\n    function description() override external pure returns (string memory) {\r\n        return \"MATIC/USD ChainLink Price Feed\";\r\n    }\r\n\r\n    function version() override external pure returns (uint256) {\r\n        return 0;\r\n    }\r\n\r\n    function setRoundData(int256 _value) public {\r\n        value = _value;\r\n        updatedAt = startedAt = block.timestamp;\r\n        roundId++;\r\n        answeredInRound = roundId;\r\n    }\r\n\r\n    function getRoundData(\r\n        uint80 _roundId\r\n    ) override external view returns (\r\n        uint80 roundId,\r\n        int256 answer,\r\n        uint256 startedAt,\r\n        uint256 updatedAt,\r\n        uint80 answeredInRound\r\n    ) {\r\n        return (\r\n        _roundId,\r\n        value,\r\n        startedAt,\r\n        updatedAt,\r\n        answeredInRound\r\n        );\r\n    }\r\n\r\n    function latestRoundData()\r\n    override external view returns (\r\n        uint80 roundId,\r\n        int256 answer,\r\n        uint256 startedAt,\r\n        uint256 updatedAt,\r\n        uint80 answeredInRound\r\n    ) {\r\n        return (\r\n        roundId,\r\n        value,\r\n        startedAt,\r\n        updatedAt,\r\n        answeredInRound\r\n        );\r\n    }\r\n}\r\n",
  "sourcePath": "C:\\Users\\aaast\\Alyra\\mnp-trufflebox\\contracts\\withGanacheOnly\\MaticUsdPriceFeed.sol",
  "compiler": {
    "name": "solc",
    "version": "0.8.10+commit.fc410830.Emscripten.clang"
  },
  "schemaVersion": "3.4.3",
  "updatedAt": "2022-01-24T14:23:03.818Z",
  "devdoc": {
    "kind": "dev",
    "methods": {
      "owner()": {
        "details": "Returns the address of the current owner."
      },
      "renounceOwnership()": {
        "details": "Leaves the contract without owner. It will not be possible to call `onlyOwner` functions anymore. Can only be called by the current owner. NOTE: Renouncing ownership will leave the contract without an owner, thereby removing any functionality that is only available to the owner."
      },
      "transferOwnership(address)": {
        "details": "Transfers ownership of the contract to a new account (`newOwner`). Can only be called by the current owner."
      }
    },
    "version": 1
  },
  "userdoc": {
    "kind": "user",
    "methods": {},
    "version": 1
  }
}