{
  "contractName": "MonoContract",
  "abi": [
    {
      "inputs": [
        {
          "internalType": "uint256",
          "name": "_cap",
          "type": "uint256"
        }
      ],
      "stateMutability": "nonpayable",
      "type": "constructor"
    },
    {
      "anonymous": false,
      "inputs": [
        {
          "indexed": true,
          "internalType": "address",
          "name": "owner",
          "type": "address"
        },
        {
          "indexed": true,
          "internalType": "address",
          "name": "spender",
          "type": "address"
        },
        {
          "indexed": false,
          "internalType": "uint256",
          "name": "value",
          "type": "uint256"
        }
      ],
      "name": "Approval",
      "type": "event"
    },
    {
      "anonymous": false,
      "inputs": [
        {
          "indexed": false,
          "internalType": "address",
          "name": "account",
          "type": "address"
        }
      ],
      "name": "Paused",
      "type": "event"
    },
    {
      "anonymous": false,
      "inputs": [
        {
          "indexed": true,
          "internalType": "bytes32",
          "name": "role",
          "type": "bytes32"
        },
        {
          "indexed": true,
          "internalType": "bytes32",
          "name": "previousAdminRole",
          "type": "bytes32"
        },
        {
          "indexed": true,
          "internalType": "bytes32",
          "name": "newAdminRole",
          "type": "bytes32"
        }
      ],
      "name": "RoleAdminChanged",
      "type": "event"
    },
    {
      "anonymous": false,
      "inputs": [
        {
          "indexed": true,
          "internalType": "bytes32",
          "name": "role",
          "type": "bytes32"
        },
        {
          "indexed": true,
          "internalType": "address",
          "name": "account",
          "type": "address"
        },
        {
          "indexed": true,
          "internalType": "address",
          "name": "sender",
          "type": "address"
        }
      ],
      "name": "RoleGranted",
      "type": "event"
    },
    {
      "anonymous": false,
      "inputs": [
        {
          "indexed": true,
          "internalType": "bytes32",
          "name": "role",
          "type": "bytes32"
        },
        {
          "indexed": true,
          "internalType": "address",
          "name": "account",
          "type": "address"
        },
        {
          "indexed": true,
          "internalType": "address",
          "name": "sender",
          "type": "address"
        }
      ],
      "name": "RoleRevoked",
      "type": "event"
    },
    {
      "anonymous": false,
      "inputs": [
        {
          "indexed": true,
          "internalType": "address",
          "name": "from",
          "type": "address"
        },
        {
          "indexed": true,
          "internalType": "address",
          "name": "to",
          "type": "address"
        },
        {
          "indexed": false,
          "internalType": "uint256",
          "name": "value",
          "type": "uint256"
        }
      ],
      "name": "Transfer",
      "type": "event"
    },
    {
      "anonymous": false,
      "inputs": [
        {
          "indexed": false,
          "internalType": "address",
          "name": "account",
          "type": "address"
        }
      ],
      "name": "Unpaused",
      "type": "event"
    },
    {
      "inputs": [],
      "name": "ADMIN_ROLE",
      "outputs": [
        {
          "internalType": "bytes32",
          "name": "",
          "type": "bytes32"
        }
      ],
      "stateMutability": "view",
      "type": "function",
      "constant": true
    },
    {
      "inputs": [],
      "name": "DEFAULT_ADMIN_ROLE",
      "outputs": [
        {
          "internalType": "bytes32",
          "name": "",
          "type": "bytes32"
        }
      ],
      "stateMutability": "view",
      "type": "function",
      "constant": true
    },
    {
      "inputs": [],
      "name": "MINTER_ROLE",
      "outputs": [
        {
          "internalType": "bytes32",
          "name": "",
          "type": "bytes32"
        }
      ],
      "stateMutability": "view",
      "type": "function",
      "constant": true
    },
    {
      "inputs": [],
      "name": "PAUSER_ROLE",
      "outputs": [
        {
          "internalType": "bytes32",
          "name": "",
          "type": "bytes32"
        }
      ],
      "stateMutability": "view",
      "type": "function",
      "constant": true
    },
    {
      "inputs": [
        {
          "internalType": "address",
          "name": "owner",
          "type": "address"
        },
        {
          "internalType": "address",
          "name": "spender",
          "type": "address"
        }
      ],
      "name": "allowance",
      "outputs": [
        {
          "internalType": "uint256",
          "name": "",
          "type": "uint256"
        }
      ],
      "stateMutability": "view",
      "type": "function",
      "constant": true
    },
    {
      "inputs": [
        {
          "internalType": "address",
          "name": "spender",
          "type": "address"
        },
        {
          "internalType": "uint256",
          "name": "amount",
          "type": "uint256"
        }
      ],
      "name": "approve",
      "outputs": [
        {
          "internalType": "bool",
          "name": "",
          "type": "bool"
        }
      ],
      "stateMutability": "nonpayable",
      "type": "function"
    },
    {
      "inputs": [
        {
          "internalType": "address",
          "name": "account",
          "type": "address"
        }
      ],
      "name": "balanceOf",
      "outputs": [
        {
          "internalType": "uint256",
          "name": "",
          "type": "uint256"
        }
      ],
      "stateMutability": "view",
      "type": "function",
      "constant": true
    },
    {
      "inputs": [
        {
          "internalType": "uint256",
          "name": "amount",
          "type": "uint256"
        }
      ],
      "name": "burn",
      "outputs": [],
      "stateMutability": "nonpayable",
      "type": "function"
    },
    {
      "inputs": [
        {
          "internalType": "address",
          "name": "account",
          "type": "address"
        },
        {
          "internalType": "uint256",
          "name": "amount",
          "type": "uint256"
        }
      ],
      "name": "burnFrom",
      "outputs": [],
      "stateMutability": "nonpayable",
      "type": "function"
    },
    {
      "inputs": [],
      "name": "cap",
      "outputs": [
        {
          "internalType": "uint256",
          "name": "",
          "type": "uint256"
        }
      ],
      "stateMutability": "view",
      "type": "function",
      "constant": true
    },
    {
      "inputs": [],
      "name": "decimals",
      "outputs": [
        {
          "internalType": "uint8",
          "name": "",
          "type": "uint8"
        }
      ],
      "stateMutability": "view",
      "type": "function",
      "constant": true
    },
    {
      "inputs": [
        {
          "internalType": "address",
          "name": "spender",
          "type": "address"
        },
        {
          "internalType": "uint256",
          "name": "subtractedValue",
          "type": "uint256"
        }
      ],
      "name": "decreaseAllowance",
      "outputs": [
        {
          "internalType": "bool",
          "name": "",
          "type": "bool"
        }
      ],
      "stateMutability": "nonpayable",
      "type": "function"
    },
    {
      "inputs": [
        {
          "internalType": "bytes32",
          "name": "role",
          "type": "bytes32"
        }
      ],
      "name": "getRoleAdmin",
      "outputs": [
        {
          "internalType": "bytes32",
          "name": "",
          "type": "bytes32"
        }
      ],
      "stateMutability": "view",
      "type": "function",
      "constant": true
    },
    {
      "inputs": [
        {
          "internalType": "bytes32",
          "name": "role",
          "type": "bytes32"
        },
        {
          "internalType": "address",
          "name": "account",
          "type": "address"
        }
      ],
      "name": "grantRole",
      "outputs": [],
      "stateMutability": "nonpayable",
      "type": "function"
    },
    {
      "inputs": [
        {
          "internalType": "bytes32",
          "name": "role",
          "type": "bytes32"
        },
        {
          "internalType": "address",
          "name": "account",
          "type": "address"
        }
      ],
      "name": "hasRole",
      "outputs": [
        {
          "internalType": "bool",
          "name": "",
          "type": "bool"
        }
      ],
      "stateMutability": "view",
      "type": "function",
      "constant": true
    },
    {
      "inputs": [
        {
          "internalType": "address",
          "name": "spender",
          "type": "address"
        },
        {
          "internalType": "uint256",
          "name": "addedValue",
          "type": "uint256"
        }
      ],
      "name": "increaseAllowance",
      "outputs": [
        {
          "internalType": "bool",
          "name": "",
          "type": "bool"
        }
      ],
      "stateMutability": "nonpayable",
      "type": "function"
    },
    {
      "inputs": [],
      "name": "name",
      "outputs": [
        {
          "internalType": "string",
          "name": "",
          "type": "string"
        }
      ],
      "stateMutability": "view",
      "type": "function",
      "constant": true
    },
    {
      "inputs": [],
      "name": "paused",
      "outputs": [
        {
          "internalType": "bool",
          "name": "",
          "type": "bool"
        }
      ],
      "stateMutability": "view",
      "type": "function",
      "constant": true
    },
    {
      "inputs": [
        {
          "internalType": "bytes32",
          "name": "role",
          "type": "bytes32"
        },
        {
          "internalType": "address",
          "name": "account",
          "type": "address"
        }
      ],
      "name": "renounceRole",
      "outputs": [],
      "stateMutability": "nonpayable",
      "type": "function"
    },
    {
      "inputs": [
        {
          "internalType": "bytes32",
          "name": "role",
          "type": "bytes32"
        },
        {
          "internalType": "address",
          "name": "account",
          "type": "address"
        }
      ],
      "name": "revokeRole",
      "outputs": [],
      "stateMutability": "nonpayable",
      "type": "function"
    },
    {
      "inputs": [
        {
          "internalType": "bytes4",
          "name": "interfaceId",
          "type": "bytes4"
        }
      ],
      "name": "supportsInterface",
      "outputs": [
        {
          "internalType": "bool",
          "name": "",
          "type": "bool"
        }
      ],
      "stateMutability": "view",
      "type": "function",
      "constant": true
    },
    {
      "inputs": [],
      "name": "symbol",
      "outputs": [
        {
          "internalType": "string",
          "name": "",
          "type": "string"
        }
      ],
      "stateMutability": "view",
      "type": "function",
      "constant": true
    },
    {
      "inputs": [],
      "name": "totalSupply",
      "outputs": [
        {
          "internalType": "uint256",
          "name": "",
          "type": "uint256"
        }
      ],
      "stateMutability": "view",
      "type": "function",
      "constant": true
    },
    {
      "inputs": [
        {
          "internalType": "address",
          "name": "recipient",
          "type": "address"
        },
        {
          "internalType": "uint256",
          "name": "amount",
          "type": "uint256"
        }
      ],
      "name": "transfer",
      "outputs": [
        {
          "internalType": "bool",
          "name": "",
          "type": "bool"
        }
      ],
      "stateMutability": "nonpayable",
      "type": "function"
    },
    {
      "inputs": [
        {
          "internalType": "address",
          "name": "sender",
          "type": "address"
        },
        {
          "internalType": "address",
          "name": "recipient",
          "type": "address"
        },
        {
          "internalType": "uint256",
          "name": "amount",
          "type": "uint256"
        }
      ],
      "name": "transferFrom",
      "outputs": [
        {
          "internalType": "bool",
          "name": "",
          "type": "bool"
        }
      ],
      "stateMutability": "nonpayable",
      "type": "function"
    },
    {
      "inputs": [
        {
          "internalType": "address",
          "name": "account",
          "type": "address"
        },
        {
          "internalType": "uint256",
          "name": "amount",
          "type": "uint256"
        }
      ],
      "name": "mint",
      "outputs": [],
      "stateMutability": "nonpayable",
      "type": "function"
    },
    {
      "inputs": [],
      "name": "pause",
      "outputs": [],
      "stateMutability": "nonpayable",
      "type": "function"
    },
    {
      "inputs": [],
      "name": "unpause",
      "outputs": [],
      "stateMutability": "nonpayable",
      "type": "function"
    }
  ],
  "bytecode": "0x60a06040523480156200001157600080fd5b506040516200349a3803806200349a8339818101604052810190620000379190620005a4565b806040518060400160405280600681526020017f4d574d4f4e4f00000000000000000000000000000000000000000000000000008152506040518060400160405280600481526020017f4d4f4e4f000000000000000000000000000000000000000000000000000000008152508160039080519060200190620000bc929190620004b4565b508060049080519060200190620000d5929190620004b4565b505050600081116200011e576040517f08c379a0000000000000000000000000000000000000000000000000000000008152600401620001159062000637565b60405180910390fd5b8060808181525050506000600560006101000a81548160ff021916908315150217905550620001747fa49807205ce4d355092ef5a8a18f56e8913cf4a201fbe287825b095693c2177533620002b560201b60201c565b620001a67fa49807205ce4d355092ef5a8a18f56e8913cf4a201fbe287825b095693c2177580620002cb60201b60201c565b620001d87f9f2df0fed2c77648de5860a4cc508cd0818c85b8b8a1ab4ceeef8d981c8956a633620002b560201b60201c565b6200022a7f9f2df0fed2c77648de5860a4cc508cd0818c85b8b8a1ab4ceeef8d981c8956a67fa49807205ce4d355092ef5a8a18f56e8913cf4a201fbe287825b095693c21775620002cb60201b60201c565b6200025c7f65d7a28e3265b37a6474929f336521b332c1681b933f6cb9f3376673440d862a33620002b560201b60201c565b620002ae7f65d7a28e3265b37a6474929f336521b332c1681b933f6cb9f3376673440d862a7fa49807205ce4d355092ef5a8a18f56e8913cf4a201fbe287825b095693c21775620002cb60201b60201c565b50620006be565b620002c782826200032f60201b60201c565b5050565b6000620002de836200042160201b60201c565b90508160066000858152602001908152602001600020600101819055508181847fbd79b86ffe0ab8e8776151514217cd7cacd52c909f66475c3af44e129f0b00ff60405160405180910390a4505050565b6200034182826200044160201b60201c565b6200041d5760016006600084815260200190815260200160002060000160008373ffffffffffffffffffffffffffffffffffffffff1673ffffffffffffffffffffffffffffffffffffffff16815260200190815260200160002060006101000a81548160ff021916908315150217905550620003c2620004ac60201b60201c565b73ffffffffffffffffffffffffffffffffffffffff168173ffffffffffffffffffffffffffffffffffffffff16837f2f8788117e7eff1d82e926ec794901d17c78024a50270940304540a733656f0d60405160405180910390a45b5050565b600060066000838152602001908152602001600020600101549050919050565b60006006600084815260200190815260200160002060000160008373ffffffffffffffffffffffffffffffffffffffff1673ffffffffffffffffffffffffffffffffffffffff16815260200190815260200160002060009054906101000a900460ff16905092915050565b600033905090565b828054620004c29062000688565b90600052602060002090601f016020900481019282620004e6576000855562000532565b82601f106200050157805160ff191683800117855562000532565b8280016001018555821562000532579182015b828111156200053157825182559160200191906001019062000514565b5b50905062000541919062000545565b5090565b5b808211156200056057600081600090555060010162000546565b5090565b600080fd5b6000819050919050565b6200057e8162000569565b81146200058a57600080fd5b50565b6000815190506200059e8162000573565b92915050565b600060208284031215620005bd57620005bc62000564565b5b6000620005cd848285016200058d565b91505092915050565b600082825260208201905092915050565b7f45524332304361707065643a2063617020697320300000000000000000000000600082015250565b60006200061f601583620005d6565b91506200062c82620005e7565b602082019050919050565b60006020820190508181036000830152620006528162000610565b9050919050565b7f4e487b7100000000000000000000000000000000000000000000000000000000600052602260045260246000fd5b60006002820490506001821680620006a157607f821691505b60208210811415620006b857620006b762000659565b5b50919050565b608051612dc0620006da60003960006108130152612dc06000f3fe608060405234801561001057600080fd5b50600436106101c45760003560e01c80635c975abb116100f9578063a217fddf11610097578063d539139311610071578063d539139314610509578063d547741f14610527578063dd62ed3e14610543578063e63ab1e914610573576101c4565b8063a217fddf1461048b578063a457c2d7146104a9578063a9059cbb146104d9576101c4565b806379cc6790116100d357806379cc6790146104175780638456cb591461043357806391d148541461043d57806395d89b411461046d576101c4565b80635c975abb146103ab57806370a08231146103c957806375b238fc146103f9576101c4565b8063313ce56711610166578063395093511161014057806339509351146103395780633f4ba83a1461036957806340c10f191461037357806342966c681461038f576101c4565b8063313ce567146102e1578063355274ea146102ff57806336568abe1461031d576101c4565b806318160ddd116101a257806318160ddd1461024757806323b872dd14610265578063248a9ca3146102955780632f2ff15d146102c5576101c4565b806301ffc9a7146101c957806306fdde03146101f9578063095ea7b314610217575b600080fd5b6101e360048036038101906101de9190611d55565b610591565b6040516101f09190611d9d565b60405180910390f35b61020161060b565b60405161020e9190611e51565b60405180910390f35b610231600480360381019061022c9190611f07565b61069d565b60405161023e9190611d9d565b60405180910390f35b61024f6106bb565b60405161025c9190611f56565b60405180910390f35b61027f600480360381019061027a9190611f71565b6106c5565b60405161028c9190611d9d565b60405180910390f35b6102af60048036038101906102aa9190611ffa565b6107bd565b6040516102bc9190612036565b60405180910390f35b6102df60048036038101906102da9190612051565b6107dd565b005b6102e9610806565b6040516102f691906120ad565b60405180910390f35b61030761080f565b6040516103149190611f56565b60405180910390f35b61033760048036038101906103329190612051565b610837565b005b610353600480360381019061034e9190611f07565b6108ba565b6040516103609190611d9d565b60405180910390f35b610371610966565b005b61038d60048036038101906103889190611f07565b6109a3565b005b6103a960048036038101906103a491906120c8565b6109e4565b005b6103b36109f8565b6040516103c09190611d9d565b60405180910390f35b6103e360048036038101906103de91906120f5565b610a0f565b6040516103f09190611f56565b60405180910390f35b610401610a57565b60405161040e9190612036565b60405180910390f35b610431600480360381019061042c9190611f07565b610a7b565b005b61043b610af6565b005b61045760048036038101906104529190612051565b610b33565b6040516104649190611d9d565b60405180910390f35b610475610b9e565b6040516104829190611e51565b60405180910390f35b610493610c30565b6040516104a09190612036565b60405180910390f35b6104c360048036038101906104be9190611f07565b610c37565b6040516104d09190611d9d565b60405180910390f35b6104f360048036038101906104ee9190611f07565b610d22565b6040516105009190611d9d565b60405180910390f35b610511610d40565b60405161051e9190612036565b60405180910390f35b610541600480360381019061053c9190612051565b610d64565b005b61055d60048036038101906105589190612122565b610d8d565b60405161056a9190611f56565b60405180910390f35b61057b610e14565b6040516105889190612036565b60405180910390f35b60007f7965db0b000000000000000000000000000000000000000000000000000000007bffffffffffffffffffffffffffffffffffffffffffffffffffffffff1916827bffffffffffffffffffffffffffffffffffffffffffffffffffffffff19161480610604575061060382610e38565b5b9050919050565b60606003805461061a90612191565b80601f016020809104026020016040519081016040528092919081815260200182805461064690612191565b80156106935780601f1061066857610100808354040283529160200191610693565b820191906000526020600020905b81548152906001019060200180831161067657829003601f168201915b5050505050905090565b60006106b16106aa610ea2565b8484610eaa565b6001905092915050565b6000600254905090565b60006106d2848484611075565b6000600160008673ffffffffffffffffffffffffffffffffffffffff1673ffffffffffffffffffffffffffffffffffffffff168152602001908152602001600020600061071d610ea2565b73ffffffffffffffffffffffffffffffffffffffff1673ffffffffffffffffffffffffffffffffffffffff1681526020019081526020016000205490508281101561079d576040517f08c379a000000000000000000000000000000000000000000000000000000000815260040161079490612235565b60405180910390fd5b6107b1856107a9610ea2565b858403610eaa565b60019150509392505050565b600060066000838152602001908152602001600020600101549050919050565b6107e6826107bd565b6107f7816107f2610ea2565b6112f6565b6108018383611393565b505050565b60006012905090565b60007f0000000000000000000000000000000000000000000000000000000000000000905090565b61083f610ea2565b73ffffffffffffffffffffffffffffffffffffffff168173ffffffffffffffffffffffffffffffffffffffff16146108ac576040517f08c379a00000000000000000000000000000000000000000000000000000000081526004016108a3906122c7565b60405180910390fd5b6108b68282611474565b5050565b600061095c6108c7610ea2565b8484600160006108d5610ea2565b73ffffffffffffffffffffffffffffffffffffffff1673ffffffffffffffffffffffffffffffffffffffff16815260200190815260200160002060008873ffffffffffffffffffffffffffffffffffffffff1673ffffffffffffffffffffffffffffffffffffffff168152602001908152602001600020546109579190612316565b610eaa565b6001905092915050565b7fa49807205ce4d355092ef5a8a18f56e8913cf4a201fbe287825b095693c2177561099881610993610ea2565b6112f6565b6109a0611556565b50565b7f9f2df0fed2c77648de5860a4cc508cd0818c85b8b8a1ab4ceeef8d981c8956a66109d5816109d0610ea2565b6112f6565b6109df83836115f8565b505050565b6109f56109ef610ea2565b82611606565b50565b6000600560009054906101000a900460ff16905090565b60008060008373ffffffffffffffffffffffffffffffffffffffff1673ffffffffffffffffffffffffffffffffffffffff168152602001908152602001600020549050919050565b7fa49807205ce4d355092ef5a8a18f56e8913cf4a201fbe287825b095693c2177581565b6000610a8e83610a89610ea2565b610d8d565b905081811015610ad3576040517f08c379a0000000000000000000000000000000000000000000000000000000008152600401610aca906123de565b60405180910390fd5b610ae783610adf610ea2565b848403610eaa565b610af18383611606565b505050565b7fa49807205ce4d355092ef5a8a18f56e8913cf4a201fbe287825b095693c21775610b2881610b23610ea2565b6112f6565b610b306117dd565b50565b60006006600084815260200190815260200160002060000160008373ffffffffffffffffffffffffffffffffffffffff1673ffffffffffffffffffffffffffffffffffffffff16815260200190815260200160002060009054906101000a900460ff16905092915050565b606060048054610bad90612191565b80601f0160208091040260200160405190810160405280929190818152602001828054610bd990612191565b8015610c265780601f10610bfb57610100808354040283529160200191610c26565b820191906000526020600020905b815481529060010190602001808311610c0957829003601f168201915b5050505050905090565b6000801b81565b60008060016000610c46610ea2565b73ffffffffffffffffffffffffffffffffffffffff1673ffffffffffffffffffffffffffffffffffffffff16815260200190815260200160002060008573ffffffffffffffffffffffffffffffffffffffff1673ffffffffffffffffffffffffffffffffffffffff16815260200190815260200160002054905082811015610d03576040517f08c379a0000000000000000000000000000000000000000000000000000000008152600401610cfa90612470565b60405180910390fd5b610d17610d0e610ea2565b85858403610eaa565b600191505092915050565b6000610d36610d2f610ea2565b8484611075565b6001905092915050565b7f9f2df0fed2c77648de5860a4cc508cd0818c85b8b8a1ab4ceeef8d981c8956a681565b610d6d826107bd565b610d7e81610d79610ea2565b6112f6565b610d888383611474565b505050565b6000600160008473ffffffffffffffffffffffffffffffffffffffff1673ffffffffffffffffffffffffffffffffffffffff16815260200190815260200160002060008373ffffffffffffffffffffffffffffffffffffffff1673ffffffffffffffffffffffffffffffffffffffff16815260200190815260200160002054905092915050565b7f65d7a28e3265b37a6474929f336521b332c1681b933f6cb9f3376673440d862a81565b60007f01ffc9a7000000000000000000000000000000000000000000000000000000007bffffffffffffffffffffffffffffffffffffffffffffffffffffffff1916827bffffffffffffffffffffffffffffffffffffffffffffffffffffffff1916149050919050565b600033905090565b600073ffffffffffffffffffffffffffffffffffffffff168373ffffffffffffffffffffffffffffffffffffffff161415610f1a576040517f08c379a0000000000000000000000000000000000000000000000000000000008152600401610f1190612502565b60405180910390fd5b600073ffffffffffffffffffffffffffffffffffffffff168273ffffffffffffffffffffffffffffffffffffffff161415610f8a576040517f08c379a0000000000000000000000000000000000000000000000000000000008152600401610f8190612594565b60405180910390fd5b80600160008573ffffffffffffffffffffffffffffffffffffffff1673ffffffffffffffffffffffffffffffffffffffff16815260200190815260200160002060008473ffffffffffffffffffffffffffffffffffffffff1673ffffffffffffffffffffffffffffffffffffffff168152602001908152602001600020819055508173ffffffffffffffffffffffffffffffffffffffff168373ffffffffffffffffffffffffffffffffffffffff167f8c5be1e5ebec7d5bd14f71427d1e84f3dd0314c0f7b2291e5b200ac8c7c3b925836040516110689190611f56565b60405180910390a3505050565b600073ffffffffffffffffffffffffffffffffffffffff168373ffffffffffffffffffffffffffffffffffffffff1614156110e5576040517f08c379a00000000000000000000000000000000000000000000000000000000081526004016110dc90612626565b60405180910390fd5b600073ffffffffffffffffffffffffffffffffffffffff168273ffffffffffffffffffffffffffffffffffffffff161415611155576040517f08c379a000000000000000000000000000000000000000000000000000000000815260040161114c906126b8565b60405180910390fd5b611160838383611880565b60008060008573ffffffffffffffffffffffffffffffffffffffff1673ffffffffffffffffffffffffffffffffffffffff168152602001908152602001600020549050818110156111e6576040517f08c379a00000000000000000000000000000000000000000000000000000000081526004016111dd9061274a565b60405180910390fd5b8181036000808673ffffffffffffffffffffffffffffffffffffffff1673ffffffffffffffffffffffffffffffffffffffff16815260200190815260200160002081905550816000808573ffffffffffffffffffffffffffffffffffffffff1673ffffffffffffffffffffffffffffffffffffffff16815260200190815260200160002060008282546112799190612316565b925050819055508273ffffffffffffffffffffffffffffffffffffffff168473ffffffffffffffffffffffffffffffffffffffff167fddf252ad1be2c89b69c2b068fc378daa952ba7f163c4a11628f55a4df523b3ef846040516112dd9190611f56565b60405180910390a36112f0848484611890565b50505050565b6113008282610b33565b61138f576113258173ffffffffffffffffffffffffffffffffffffffff166014611895565b6113338360001c6020611895565b60405160200161134492919061283e565b6040516020818303038152906040526040517f08c379a00000000000000000000000000000000000000000000000000000000081526004016113869190611e51565b60405180910390fd5b5050565b61139d8282610b33565b6114705760016006600084815260200190815260200160002060000160008373ffffffffffffffffffffffffffffffffffffffff1673ffffffffffffffffffffffffffffffffffffffff16815260200190815260200160002060006101000a81548160ff021916908315150217905550611415610ea2565b73ffffffffffffffffffffffffffffffffffffffff168173ffffffffffffffffffffffffffffffffffffffff16837f2f8788117e7eff1d82e926ec794901d17c78024a50270940304540a733656f0d60405160405180910390a45b5050565b61147e8282610b33565b156115525760006006600084815260200190815260200160002060000160008373ffffffffffffffffffffffffffffffffffffffff1673ffffffffffffffffffffffffffffffffffffffff16815260200190815260200160002060006101000a81548160ff0219169083151502179055506114f7610ea2565b73ffffffffffffffffffffffffffffffffffffffff168173ffffffffffffffffffffffffffffffffffffffff16837ff6391f5c32d9c69d2a47ea670b442974b53935d1edc7fd64eb21e047a839171b60405160405180910390a45b5050565b61155e6109f8565b61159d576040517f08c379a0000000000000000000000000000000000000000000000000000000008152600401611594906128c4565b60405180910390fd5b6000600560006101000a81548160ff0219169083151502179055507f5db9ee0a495bf2e6ff9c91a7834c1ba4fdd244a5e8aa4e537bd38aeae4b073aa6115e1610ea2565b6040516115ee91906128f3565b60405180910390a1565b6116028282611ad1565b5050565b600073ffffffffffffffffffffffffffffffffffffffff168273ffffffffffffffffffffffffffffffffffffffff161415611676576040517f08c379a000000000000000000000000000000000000000000000000000000000815260040161166d90612980565b60405180910390fd5b61168282600083611880565b60008060008473ffffffffffffffffffffffffffffffffffffffff1673ffffffffffffffffffffffffffffffffffffffff16815260200190815260200160002054905081811015611708576040517f08c379a00000000000000000000000000000000000000000000000000000000081526004016116ff90612a12565b60405180910390fd5b8181036000808573ffffffffffffffffffffffffffffffffffffffff1673ffffffffffffffffffffffffffffffffffffffff16815260200190815260200160002081905550816002600082825461175f9190612a32565b92505081905550600073ffffffffffffffffffffffffffffffffffffffff168373ffffffffffffffffffffffffffffffffffffffff167fddf252ad1be2c89b69c2b068fc378daa952ba7f163c4a11628f55a4df523b3ef846040516117c49190611f56565b60405180910390a36117d883600084611890565b505050565b6117e56109f8565b15611825576040517f08c379a000000000000000000000000000000000000000000000000000000000815260040161181c90612ab2565b60405180910390fd5b6001600560006101000a81548160ff0219169083151502179055507f62e78cea01bee320cd4e420270b5ea74000d11b0c9f74754ebdbfc544b05a258611869610ea2565b60405161187691906128f3565b60405180910390a1565b61188b838383611b3b565b505050565b505050565b6060600060028360026118a89190612ad2565b6118b29190612316565b67ffffffffffffffff8111156118cb576118ca612b2c565b5b6040519080825280601f01601f1916602001820160405280156118fd5781602001600182028036833780820191505090505b5090507f30000000000000000000000000000000000000000000000000000000000000008160008151811061193557611934612b5b565b5b60200101907effffffffffffffffffffffffffffffffffffffffffffffffffffffffffffff1916908160001a9053507f78000000000000000000000000000000000000000000000000000000000000008160018151811061199957611998612b5b565b5b60200101907effffffffffffffffffffffffffffffffffffffffffffffffffffffffffffff1916908160001a905350600060018460026119d99190612ad2565b6119e39190612316565b90505b6001811115611a83577f3031323334353637383961626364656600000000000000000000000000000000600f861660108110611a2557611a24612b5b565b5b1a60f81b828281518110611a3c57611a3b612b5b565b5b60200101907effffffffffffffffffffffffffffffffffffffffffffffffffffffffffffff1916908160001a905350600485901c945080611a7c90612b8a565b90506119e6565b5060008414611ac7576040517f08c379a0000000000000000000000000000000000000000000000000000000008152600401611abe90612c00565b60405180910390fd5b8091505092915050565b611ad961080f565b81611ae26106bb565b611aec9190612316565b1115611b2d576040517f08c379a0000000000000000000000000000000000000000000000000000000008152600401611b2490612c6c565b60405180910390fd5b611b378282611b93565b5050565b611b46838383611cf3565b611b4e6109f8565b15611b8e576040517f08c379a0000000000000000000000000000000000000000000000000000000008152600401611b8590612cfe565b60405180910390fd5b505050565b600073ffffffffffffffffffffffffffffffffffffffff168273ffffffffffffffffffffffffffffffffffffffff161415611c03576040517f08c379a0000000000000000000000000000000000000000000000000000000008152600401611bfa90612d6a565b60405180910390fd5b611c0f60008383611880565b8060026000828254611c219190612316565b92505081905550806000808473ffffffffffffffffffffffffffffffffffffffff1673ffffffffffffffffffffffffffffffffffffffff1681526020019081526020016000206000828254611c769190612316565b925050819055508173ffffffffffffffffffffffffffffffffffffffff16600073ffffffffffffffffffffffffffffffffffffffff167fddf252ad1be2c89b69c2b068fc378daa952ba7f163c4a11628f55a4df523b3ef83604051611cdb9190611f56565b60405180910390a3611cef60008383611890565b5050565b505050565b600080fd5b60007fffffffff0000000000000000000000000000000000000000000000000000000082169050919050565b611d3281611cfd565b8114611d3d57600080fd5b50565b600081359050611d4f81611d29565b92915050565b600060208284031215611d6b57611d6a611cf8565b5b6000611d7984828501611d40565b91505092915050565b60008115159050919050565b611d9781611d82565b82525050565b6000602082019050611db26000830184611d8e565b92915050565b600081519050919050565b600082825260208201905092915050565b60005b83811015611df2578082015181840152602081019050611dd7565b83811115611e01576000848401525b50505050565b6000601f19601f8301169050919050565b6000611e2382611db8565b611e2d8185611dc3565b9350611e3d818560208601611dd4565b611e4681611e07565b840191505092915050565b60006020820190508181036000830152611e6b8184611e18565b905092915050565b600073ffffffffffffffffffffffffffffffffffffffff82169050919050565b6000611e9e82611e73565b9050919050565b611eae81611e93565b8114611eb957600080fd5b50565b600081359050611ecb81611ea5565b92915050565b6000819050919050565b611ee481611ed1565b8114611eef57600080fd5b50565b600081359050611f0181611edb565b92915050565b60008060408385031215611f1e57611f1d611cf8565b5b6000611f2c85828601611ebc565b9250506020611f3d85828601611ef2565b9150509250929050565b611f5081611ed1565b82525050565b6000602082019050611f6b6000830184611f47565b92915050565b600080600060608486031215611f8a57611f89611cf8565b5b6000611f9886828701611ebc565b9350506020611fa986828701611ebc565b9250506040611fba86828701611ef2565b9150509250925092565b6000819050919050565b611fd781611fc4565b8114611fe257600080fd5b50565b600081359050611ff481611fce565b92915050565b6000602082840312156120105761200f611cf8565b5b600061201e84828501611fe5565b91505092915050565b61203081611fc4565b82525050565b600060208201905061204b6000830184612027565b92915050565b6000806040838503121561206857612067611cf8565b5b600061207685828601611fe5565b925050602061208785828601611ebc565b9150509250929050565b600060ff82169050919050565b6120a781612091565b82525050565b60006020820190506120c2600083018461209e565b92915050565b6000602082840312156120de576120dd611cf8565b5b60006120ec84828501611ef2565b91505092915050565b60006020828403121561210b5761210a611cf8565b5b600061211984828501611ebc565b91505092915050565b6000806040838503121561213957612138611cf8565b5b600061214785828601611ebc565b925050602061215885828601611ebc565b9150509250929050565b7f4e487b7100000000000000000000000000000000000000000000000000000000600052602260045260246000fd5b600060028204905060018216806121a957607f821691505b602082108114156121bd576121bc612162565b5b50919050565b7f45524332303a207472616e7366657220616d6f756e742065786365656473206160008201527f6c6c6f77616e6365000000000000000000000000000000000000000000000000602082015250565b600061221f602883611dc3565b915061222a826121c3565b604082019050919050565b6000602082019050818103600083015261224e81612212565b9050919050565b7f416363657373436f6e74726f6c3a2063616e206f6e6c792072656e6f756e636560008201527f20726f6c657320666f722073656c660000000000000000000000000000000000602082015250565b60006122b1602f83611dc3565b91506122bc82612255565b604082019050919050565b600060208201905081810360008301526122e0816122a4565b9050919050565b7f4e487b7100000000000000000000000000000000000000000000000000000000600052601160045260246000fd5b600061232182611ed1565b915061232c83611ed1565b9250827fffffffffffffffffffffffffffffffffffffffffffffffffffffffffffffffff03821115612361576123606122e7565b5b828201905092915050565b7f45524332303a206275726e20616d6f756e74206578636565647320616c6c6f7760008201527f616e636500000000000000000000000000000000000000000000000000000000602082015250565b60006123c8602483611dc3565b91506123d38261236c565b604082019050919050565b600060208201905081810360008301526123f7816123bb565b9050919050565b7f45524332303a2064656372656173656420616c6c6f77616e63652062656c6f7760008201527f207a65726f000000000000000000000000000000000000000000000000000000602082015250565b600061245a602583611dc3565b9150612465826123fe565b604082019050919050565b600060208201905081810360008301526124898161244d565b9050919050565b7f45524332303a20617070726f76652066726f6d20746865207a65726f2061646460008201527f7265737300000000000000000000000000000000000000000000000000000000602082015250565b60006124ec602483611dc3565b91506124f782612490565b604082019050919050565b6000602082019050818103600083015261251b816124df565b9050919050565b7f45524332303a20617070726f766520746f20746865207a65726f20616464726560008201527f7373000000000000000000000000000000000000000000000000000000000000602082015250565b600061257e602283611dc3565b915061258982612522565b604082019050919050565b600060208201905081810360008301526125ad81612571565b9050919050565b7f45524332303a207472616e736665722066726f6d20746865207a65726f20616460008201527f6472657373000000000000000000000000000000000000000000000000000000602082015250565b6000612610602583611dc3565b915061261b826125b4565b604082019050919050565b6000602082019050818103600083015261263f81612603565b9050919050565b7f45524332303a207472616e7366657220746f20746865207a65726f206164647260008201527f6573730000000000000000000000000000000000000000000000000000000000602082015250565b60006126a2602383611dc3565b91506126ad82612646565b604082019050919050565b600060208201905081810360008301526126d181612695565b9050919050565b7f45524332303a207472616e7366657220616d6f756e742065786365656473206260008201527f616c616e63650000000000000000000000000000000000000000000000000000602082015250565b6000612734602683611dc3565b915061273f826126d8565b604082019050919050565b6000602082019050818103600083015261276381612727565b9050919050565b600081905092915050565b7f416363657373436f6e74726f6c3a206163636f756e7420000000000000000000600082015250565b60006127ab60178361276a565b91506127b682612775565b601782019050919050565b60006127cc82611db8565b6127d6818561276a565b93506127e6818560208601611dd4565b80840191505092915050565b7f206973206d697373696e6720726f6c6520000000000000000000000000000000600082015250565b600061282860118361276a565b9150612833826127f2565b601182019050919050565b60006128498261279e565b915061285582856127c1565b91506128608261281b565b915061286c82846127c1565b91508190509392505050565b7f5061757361626c653a206e6f7420706175736564000000000000000000000000600082015250565b60006128ae601483611dc3565b91506128b982612878565b602082019050919050565b600060208201905081810360008301526128dd816128a1565b9050919050565b6128ed81611e93565b82525050565b600060208201905061290860008301846128e4565b92915050565b7f45524332303a206275726e2066726f6d20746865207a65726f2061646472657360008201527f7300000000000000000000000000000000000000000000000000000000000000602082015250565b600061296a602183611dc3565b91506129758261290e565b604082019050919050565b600060208201905081810360008301526129998161295d565b9050919050565b7f45524332303a206275726e20616d6f756e7420657863656564732062616c616e60008201527f6365000000000000000000000000000000000000000000000000000000000000602082015250565b60006129fc602283611dc3565b9150612a07826129a0565b604082019050919050565b60006020820190508181036000830152612a2b816129ef565b9050919050565b6000612a3d82611ed1565b9150612a4883611ed1565b925082821015612a5b57612a5a6122e7565b5b828203905092915050565b7f5061757361626c653a2070617573656400000000000000000000000000000000600082015250565b6000612a9c601083611dc3565b9150612aa782612a66565b602082019050919050565b60006020820190508181036000830152612acb81612a8f565b9050919050565b6000612add82611ed1565b9150612ae883611ed1565b9250817fffffffffffffffffffffffffffffffffffffffffffffffffffffffffffffffff0483118215151615612b2157612b206122e7565b5b828202905092915050565b7f4e487b7100000000000000000000000000000000000000000000000000000000600052604160045260246000fd5b7f4e487b7100000000000000000000000000000000000000000000000000000000600052603260045260246000fd5b6000612b9582611ed1565b91506000821415612ba957612ba86122e7565b5b600182039050919050565b7f537472696e67733a20686578206c656e67746820696e73756666696369656e74600082015250565b6000612bea602083611dc3565b9150612bf582612bb4565b602082019050919050565b60006020820190508181036000830152612c1981612bdd565b9050919050565b7f45524332304361707065643a2063617020657863656564656400000000000000600082015250565b6000612c56601983611dc3565b9150612c6182612c20565b602082019050919050565b60006020820190508181036000830152612c8581612c49565b9050919050565b7f45524332305061757361626c653a20746f6b656e207472616e7366657220776860008201527f696c652070617573656400000000000000000000000000000000000000000000602082015250565b6000612ce8602a83611dc3565b9150612cf382612c8c565b604082019050919050565b60006020820190508181036000830152612d1781612cdb565b9050919050565b7f45524332303a206d696e7420746f20746865207a65726f206164647265737300600082015250565b6000612d54601f83611dc3565b9150612d5f82612d1e565b602082019050919050565b60006020820190508181036000830152612d8381612d47565b905091905056fea26469706673582212207d0942d3756835eaae41a0e7e526da06d7d2f245f1184cab7d39c57151f1985464736f6c634300080a0033",
  "immutableReferences": {
    "1606": [
      {
        "length": 32,
        "start": 2067
      }
    ]
  },
  "source": "// Mono.sol\r\n// SPDX-License-Identifier: MIT\r\npragma solidity 0.8.10;\r\n\r\nimport \"@openzeppelin/contracts/access/AccessControl.sol\";\r\nimport \"@openzeppelin/contracts/token/ERC20/extensions/ERC20Capped.sol\";\r\nimport \"@openzeppelin/contracts/token/ERC20/extensions/ERC20Burnable.sol\";\r\nimport \"@openzeppelin/contracts/token/ERC20/extensions/ERC20Pausable.sol\";\r\n\r\n/**\r\n * @title $MONO ERC20 token contract\r\n * @notice This is the project token.\r\n * @notice Is capped, burnable, pausable and have an access control.\r\n * @author Jerome Caporossi, Stphane Chaunard, Alexandre Gautier\r\n */\r\ncontract MonoContract is ERC20Capped, ERC20Burnable, ERC20Pausable, AccessControl {\r\n\tbytes32 public constant ADMIN_ROLE = keccak256(\"ADMIN_ROLE\");\r\n\tbytes32 public constant MINTER_ROLE = keccak256(\"MINTER_ROLE\");\r\n\tbytes32 public constant PAUSER_ROLE = keccak256(\"PAUSER_ROLE\");\r\n\r\n\t/** @dev Constructor\r\n\t * @dev ADMIN_ROLE, MINTER_ROLE and PAUSER_ROLE are given to deployer\r\n\t * @param _cap Sets the value of the max supply of token. This value is immutable, it can only be set once during construction.*/\r\n\tconstructor(uint256 _cap) ERC20Capped(_cap) ERC20(\"MWMONO\", \"MONO\") {\r\n\t\t_setupRole(ADMIN_ROLE, msg.sender);\r\n\t\t_setRoleAdmin(ADMIN_ROLE, ADMIN_ROLE);\r\n\t\t_setupRole(MINTER_ROLE, msg.sender);\r\n\t\t_setRoleAdmin(MINTER_ROLE, ADMIN_ROLE);\r\n\t\t_setupRole(PAUSER_ROLE, msg.sender);\r\n\t\t_setRoleAdmin(PAUSER_ROLE, ADMIN_ROLE);\r\n\t}\r\n\r\n\t/** mint $MONO token to an address\r\n\t * @param account destination address\r\n\t * @param amount quantity of tokens to be minted*/\r\n\tfunction mint(address account, uint256 amount) external onlyRole(MINTER_ROLE) {\r\n\t\t_mint(account, amount);\r\n\t}\r\n\r\n\t/** pause token transfers, minting and burning*/\r\n\tfunction pause() external onlyRole(ADMIN_ROLE) {\r\n\t\tsuper._pause();\r\n\t}\r\n\r\n\t/** unpause token transfers, minting and burning*/\r\n\tfunction unpause() external onlyRole(ADMIN_ROLE) {\r\n\t\tsuper._unpause();\r\n\t}\r\n\r\n\tfunction _beforeTokenTransfer(\r\n\t\taddress from,\r\n\t\taddress to,\r\n\t\tuint256 amount\r\n\t) internal override(ERC20Pausable, ERC20) {\r\n\t\tsuper._beforeTokenTransfer(from, to, amount);\r\n\t}\r\n\r\n\tfunction _mint(address account, uint256 amount) internal override(ERC20Capped, ERC20) {\r\n\t\tsuper._mint(account, amount);\r\n\t}\r\n}\r\n",
  "sourcePath": "C:\\Users\\aaast\\Alyra\\mnp-trufflebox\\contracts\\Mono.sol",
  "compiler": {
    "name": "solc",
    "version": "0.8.10+commit.fc410830.Emscripten.clang"
  },
  "schemaVersion": "3.4.3",
  "updatedAt": "2022-01-26T13:19:14.660Z",
  "networkType": "ethereum",
  "devdoc": {
    "author": "Jerome Caporossi, Stphane Chaunard, Alexandre Gautier",
    "kind": "dev",
    "methods": {
      "allowance(address,address)": {
        "details": "See {IERC20-allowance}."
      },
      "approve(address,uint256)": {
        "details": "See {IERC20-approve}. Requirements: - `spender` cannot be the zero address."
      },
      "balanceOf(address)": {
        "details": "See {IERC20-balanceOf}."
      },
      "burn(uint256)": {
        "details": "Destroys `amount` tokens from the caller. See {ERC20-_burn}."
      },
      "burnFrom(address,uint256)": {
        "details": "Destroys `amount` tokens from `account`, deducting from the caller's allowance. See {ERC20-_burn} and {ERC20-allowance}. Requirements: - the caller must have allowance for ``accounts``'s tokens of at least `amount`."
      },
      "cap()": {
        "details": "Returns the cap on the token's total supply."
      },
      "constructor": {
        "details": "ConstructorADMIN_ROLE, MINTER_ROLE and PAUSER_ROLE are given to deployer",
        "params": {
          "_cap": "Sets the value of the max supply of token. This value is immutable, it can only be set once during construction."
        }
      },
      "decimals()": {
        "details": "Returns the number of decimals used to get its user representation. For example, if `decimals` equals `2`, a balance of `505` tokens should be displayed to a user as `5.05` (`505 / 10 ** 2`). Tokens usually opt for a value of 18, imitating the relationship between Ether and Wei. This is the value {ERC20} uses, unless this function is overridden; NOTE: This information is only used for _display_ purposes: it in no way affects any of the arithmetic of the contract, including {IERC20-balanceOf} and {IERC20-transfer}."
      },
      "decreaseAllowance(address,uint256)": {
        "details": "Atomically decreases the allowance granted to `spender` by the caller. This is an alternative to {approve} that can be used as a mitigation for problems described in {IERC20-approve}. Emits an {Approval} event indicating the updated allowance. Requirements: - `spender` cannot be the zero address. - `spender` must have allowance for the caller of at least `subtractedValue`."
      },
      "getRoleAdmin(bytes32)": {
        "details": "Returns the admin role that controls `role`. See {grantRole} and {revokeRole}. To change a role's admin, use {_setRoleAdmin}."
      },
      "grantRole(bytes32,address)": {
        "details": "Grants `role` to `account`. If `account` had not been already granted `role`, emits a {RoleGranted} event. Requirements: - the caller must have ``role``'s admin role."
      },
      "hasRole(bytes32,address)": {
        "details": "Returns `true` if `account` has been granted `role`."
      },
      "increaseAllowance(address,uint256)": {
        "details": "Atomically increases the allowance granted to `spender` by the caller. This is an alternative to {approve} that can be used as a mitigation for problems described in {IERC20-approve}. Emits an {Approval} event indicating the updated allowance. Requirements: - `spender` cannot be the zero address."
      },
      "mint(address,uint256)": {
        "params": {
          "account": "destination address",
          "amount": "quantity of tokens to be minted"
        }
      },
      "name()": {
        "details": "Returns the name of the token."
      },
      "paused()": {
        "details": "Returns true if the contract is paused, and false otherwise."
      },
      "renounceRole(bytes32,address)": {
        "details": "Revokes `role` from the calling account. Roles are often managed via {grantRole} and {revokeRole}: this function's purpose is to provide a mechanism for accounts to lose their privileges if they are compromised (such as when a trusted device is misplaced). If the calling account had been revoked `role`, emits a {RoleRevoked} event. Requirements: - the caller must be `account`."
      },
      "revokeRole(bytes32,address)": {
        "details": "Revokes `role` from `account`. If `account` had been granted `role`, emits a {RoleRevoked} event. Requirements: - the caller must have ``role``'s admin role."
      },
      "supportsInterface(bytes4)": {
        "details": "See {IERC165-supportsInterface}."
      },
      "symbol()": {
        "details": "Returns the symbol of the token, usually a shorter version of the name."
      },
      "totalSupply()": {
        "details": "See {IERC20-totalSupply}."
      },
      "transfer(address,uint256)": {
        "details": "See {IERC20-transfer}. Requirements: - `recipient` cannot be the zero address. - the caller must have a balance of at least `amount`."
      },
      "transferFrom(address,address,uint256)": {
        "details": "See {IERC20-transferFrom}. Emits an {Approval} event indicating the updated allowance. This is not required by the EIP. See the note at the beginning of {ERC20}. Requirements: - `sender` and `recipient` cannot be the zero address. - `sender` must have a balance of at least `amount`. - the caller must have allowance for ``sender``'s tokens of at least `amount`."
      }
    },
    "title": "$MONO ERC20 token contract",
    "version": 1
  },
  "userdoc": {
    "kind": "user",
    "methods": {
      "mint(address,uint256)": {
        "notice": "mint $MONO token to an address"
      },
      "pause()": {
        "notice": "pause token transfers, minting and burning"
      },
      "unpause()": {
        "notice": "unpause token transfers, minting and burning"
      }
    },
    "notice": "This is the project token.Is capped, burnable, pausable and have an access control.",
    "version": 1
  }
}