{
  "contractName": "PawnStubContract",
  "abi": [
    {
      "inputs": [],
      "stateMutability": "nonpayable",
      "type": "constructor"
    },
    {
      "anonymous": false,
      "inputs": [
        {
          "indexed": true,
          "internalType": "address",
          "name": "owner",
          "type": "address"
        },
        {
          "indexed": true,
          "internalType": "address",
          "name": "approved",
          "type": "address"
        },
        {
          "indexed": true,
          "internalType": "uint256",
          "name": "tokenId",
          "type": "uint256"
        }
      ],
      "name": "Approval",
      "type": "event"
    },
    {
      "anonymous": false,
      "inputs": [
        {
          "indexed": true,
          "internalType": "address",
          "name": "owner",
          "type": "address"
        },
        {
          "indexed": true,
          "internalType": "address",
          "name": "operator",
          "type": "address"
        },
        {
          "indexed": false,
          "internalType": "bool",
          "name": "approved",
          "type": "bool"
        }
      ],
      "name": "ApprovalForAll",
      "type": "event"
    },
    {
      "anonymous": false,
      "inputs": [
        {
          "indexed": true,
          "internalType": "bytes32",
          "name": "role",
          "type": "bytes32"
        },
        {
          "indexed": true,
          "internalType": "bytes32",
          "name": "previousAdminRole",
          "type": "bytes32"
        },
        {
          "indexed": true,
          "internalType": "bytes32",
          "name": "newAdminRole",
          "type": "bytes32"
        }
      ],
      "name": "RoleAdminChanged",
      "type": "event"
    },
    {
      "anonymous": false,
      "inputs": [
        {
          "indexed": true,
          "internalType": "bytes32",
          "name": "role",
          "type": "bytes32"
        },
        {
          "indexed": true,
          "internalType": "address",
          "name": "account",
          "type": "address"
        },
        {
          "indexed": true,
          "internalType": "address",
          "name": "sender",
          "type": "address"
        }
      ],
      "name": "RoleGranted",
      "type": "event"
    },
    {
      "anonymous": false,
      "inputs": [
        {
          "indexed": true,
          "internalType": "bytes32",
          "name": "role",
          "type": "bytes32"
        },
        {
          "indexed": true,
          "internalType": "address",
          "name": "account",
          "type": "address"
        },
        {
          "indexed": true,
          "internalType": "address",
          "name": "sender",
          "type": "address"
        }
      ],
      "name": "RoleRevoked",
      "type": "event"
    },
    {
      "anonymous": false,
      "inputs": [
        {
          "indexed": true,
          "internalType": "address",
          "name": "from",
          "type": "address"
        },
        {
          "indexed": true,
          "internalType": "address",
          "name": "to",
          "type": "address"
        },
        {
          "indexed": true,
          "internalType": "uint256",
          "name": "tokenId",
          "type": "uint256"
        }
      ],
      "name": "Transfer",
      "type": "event"
    },
    {
      "inputs": [],
      "name": "ADMIN_ROLE",
      "outputs": [
        {
          "internalType": "bytes32",
          "name": "",
          "type": "bytes32"
        }
      ],
      "stateMutability": "view",
      "type": "function"
    },
    {
      "inputs": [],
      "name": "DEFAULT_ADMIN_ROLE",
      "outputs": [
        {
          "internalType": "bytes32",
          "name": "",
          "type": "bytes32"
        }
      ],
      "stateMutability": "view",
      "type": "function"
    },
    {
      "inputs": [],
      "name": "MINTER_ROLE",
      "outputs": [
        {
          "internalType": "bytes32",
          "name": "",
          "type": "bytes32"
        }
      ],
      "stateMutability": "view",
      "type": "function"
    },
    {
      "inputs": [
        {
          "internalType": "address",
          "name": "to",
          "type": "address"
        },
        {
          "internalType": "uint256",
          "name": "tokenId",
          "type": "uint256"
        }
      ],
      "name": "approve",
      "outputs": [],
      "stateMutability": "nonpayable",
      "type": "function"
    },
    {
      "inputs": [
        {
          "internalType": "address",
          "name": "owner",
          "type": "address"
        }
      ],
      "name": "balanceOf",
      "outputs": [
        {
          "internalType": "uint256",
          "name": "",
          "type": "uint256"
        }
      ],
      "stateMutability": "view",
      "type": "function"
    },
    {
      "inputs": [
        {
          "internalType": "uint256",
          "name": "tokenId",
          "type": "uint256"
        }
      ],
      "name": "getApproved",
      "outputs": [
        {
          "internalType": "address",
          "name": "",
          "type": "address"
        }
      ],
      "stateMutability": "view",
      "type": "function"
    },
    {
      "inputs": [
        {
          "internalType": "bytes32",
          "name": "role",
          "type": "bytes32"
        }
      ],
      "name": "getRoleAdmin",
      "outputs": [
        {
          "internalType": "bytes32",
          "name": "",
          "type": "bytes32"
        }
      ],
      "stateMutability": "view",
      "type": "function"
    },
    {
      "inputs": [
        {
          "internalType": "bytes32",
          "name": "role",
          "type": "bytes32"
        },
        {
          "internalType": "address",
          "name": "account",
          "type": "address"
        }
      ],
      "name": "grantRole",
      "outputs": [],
      "stateMutability": "nonpayable",
      "type": "function"
    },
    {
      "inputs": [
        {
          "internalType": "bytes32",
          "name": "role",
          "type": "bytes32"
        },
        {
          "internalType": "address",
          "name": "account",
          "type": "address"
        }
      ],
      "name": "hasRole",
      "outputs": [
        {
          "internalType": "bool",
          "name": "",
          "type": "bool"
        }
      ],
      "stateMutability": "view",
      "type": "function"
    },
    {
      "inputs": [
        {
          "internalType": "address",
          "name": "owner",
          "type": "address"
        },
        {
          "internalType": "address",
          "name": "operator",
          "type": "address"
        }
      ],
      "name": "isApprovedForAll",
      "outputs": [
        {
          "internalType": "bool",
          "name": "",
          "type": "bool"
        }
      ],
      "stateMutability": "view",
      "type": "function"
    },
    {
      "inputs": [],
      "name": "name",
      "outputs": [
        {
          "internalType": "string",
          "name": "",
          "type": "string"
        }
      ],
      "stateMutability": "view",
      "type": "function"
    },
    {
      "inputs": [
        {
          "internalType": "uint256",
          "name": "tokenId",
          "type": "uint256"
        }
      ],
      "name": "ownerOf",
      "outputs": [
        {
          "internalType": "address",
          "name": "",
          "type": "address"
        }
      ],
      "stateMutability": "view",
      "type": "function"
    },
    {
      "inputs": [
        {
          "internalType": "bytes32",
          "name": "role",
          "type": "bytes32"
        },
        {
          "internalType": "address",
          "name": "account",
          "type": "address"
        }
      ],
      "name": "renounceRole",
      "outputs": [],
      "stateMutability": "nonpayable",
      "type": "function"
    },
    {
      "inputs": [
        {
          "internalType": "bytes32",
          "name": "role",
          "type": "bytes32"
        },
        {
          "internalType": "address",
          "name": "account",
          "type": "address"
        }
      ],
      "name": "revokeRole",
      "outputs": [],
      "stateMutability": "nonpayable",
      "type": "function"
    },
    {
      "inputs": [
        {
          "internalType": "address",
          "name": "from",
          "type": "address"
        },
        {
          "internalType": "address",
          "name": "to",
          "type": "address"
        },
        {
          "internalType": "uint256",
          "name": "tokenId",
          "type": "uint256"
        }
      ],
      "name": "safeTransferFrom",
      "outputs": [],
      "stateMutability": "nonpayable",
      "type": "function"
    },
    {
      "inputs": [
        {
          "internalType": "address",
          "name": "from",
          "type": "address"
        },
        {
          "internalType": "address",
          "name": "to",
          "type": "address"
        },
        {
          "internalType": "uint256",
          "name": "tokenId",
          "type": "uint256"
        },
        {
          "internalType": "bytes",
          "name": "_data",
          "type": "bytes"
        }
      ],
      "name": "safeTransferFrom",
      "outputs": [],
      "stateMutability": "nonpayable",
      "type": "function"
    },
    {
      "inputs": [
        {
          "internalType": "address",
          "name": "operator",
          "type": "address"
        },
        {
          "internalType": "bool",
          "name": "approved",
          "type": "bool"
        }
      ],
      "name": "setApprovalForAll",
      "outputs": [],
      "stateMutability": "nonpayable",
      "type": "function"
    },
    {
      "inputs": [],
      "name": "symbol",
      "outputs": [
        {
          "internalType": "string",
          "name": "",
          "type": "string"
        }
      ],
      "stateMutability": "view",
      "type": "function"
    },
    {
      "inputs": [
        {
          "internalType": "uint256",
          "name": "index",
          "type": "uint256"
        }
      ],
      "name": "tokenByIndex",
      "outputs": [
        {
          "internalType": "uint256",
          "name": "",
          "type": "uint256"
        }
      ],
      "stateMutability": "view",
      "type": "function"
    },
    {
      "inputs": [
        {
          "internalType": "address",
          "name": "owner",
          "type": "address"
        },
        {
          "internalType": "uint256",
          "name": "index",
          "type": "uint256"
        }
      ],
      "name": "tokenOfOwnerByIndex",
      "outputs": [
        {
          "internalType": "uint256",
          "name": "",
          "type": "uint256"
        }
      ],
      "stateMutability": "view",
      "type": "function"
    },
    {
      "inputs": [],
      "name": "totalSupply",
      "outputs": [
        {
          "internalType": "uint256",
          "name": "",
          "type": "uint256"
        }
      ],
      "stateMutability": "view",
      "type": "function"
    },
    {
      "inputs": [
        {
          "internalType": "address",
          "name": "from",
          "type": "address"
        },
        {
          "internalType": "address",
          "name": "to",
          "type": "address"
        },
        {
          "internalType": "uint256",
          "name": "tokenId",
          "type": "uint256"
        }
      ],
      "name": "transferFrom",
      "outputs": [],
      "stateMutability": "nonpayable",
      "type": "function"
    },
    {
      "inputs": [
        {
          "internalType": "uint256",
          "name": "_id",
          "type": "uint256"
        }
      ],
      "name": "tokenURI",
      "outputs": [
        {
          "internalType": "string",
          "name": "",
          "type": "string"
        }
      ],
      "stateMutability": "view",
      "type": "function"
    },
    {
      "inputs": [
        {
          "internalType": "address",
          "name": "_to",
          "type": "address"
        }
      ],
      "name": "mint",
      "outputs": [
        {
          "internalType": "uint256",
          "name": "id_",
          "type": "uint256"
        }
      ],
      "stateMutability": "nonpayable",
      "type": "function"
    },
    {
      "inputs": [
        {
          "internalType": "bytes4",
          "name": "_interfaceId",
          "type": "bytes4"
        }
      ],
      "name": "supportsInterface",
      "outputs": [
        {
          "internalType": "bool",
          "name": "",
          "type": "bool"
        }
      ],
      "stateMutability": "view",
      "type": "function"
    },
    {
      "inputs": [
        {
          "internalType": "uint256",
          "name": "_id",
          "type": "uint256"
        }
      ],
      "name": "get",
      "outputs": [
        {
          "components": [
            {
              "internalType": "uint8",
              "name": "subject",
              "type": "uint8"
            },
            {
              "internalType": "uint8",
              "name": "background",
              "type": "uint8"
            },
            {
              "internalType": "uint8",
              "name": "material",
              "type": "uint8"
            },
            {
              "internalType": "uint8",
              "name": "halo",
              "type": "uint8"
            },
            {
              "internalType": "uint8",
              "name": "power",
              "type": "uint8"
            },
            {
              "internalType": "uint8",
              "name": "level",
              "type": "uint8"
            },
            {
              "internalType": "uint8",
              "name": "xp",
              "type": "uint8"
            }
          ],
          "internalType": "struct PawnStubContract.PawnStruct",
          "name": "p_",
          "type": "tuple"
        }
      ],
      "stateMutability": "view",
      "type": "function"
    }
  ],
  "bytecode": "0x60806040523480156200001157600080fd5b506040518060400160405280600a81526020017f5061776e20746f6b656e000000000000000000000000000000000000000000008152506040518060400160405280600481526020017f5041574e00000000000000000000000000000000000000000000000000000000815250816000908051906020019062000096929190620003ed565b508060019080519060200190620000af929190620003ed565b5050506040518060400160405280600c81526020017f62617365546f6b656e5552490000000000000000000000000000000000000000815250600b9080519060200190620000ff929190620003ed565b50620001327fa49807205ce4d355092ef5a8a18f56e8913cf4a201fbe287825b095693c2177533620001ee60201b60201c565b620001647fa49807205ce4d355092ef5a8a18f56e8913cf4a201fbe287825b095693c21775806200020460201b60201c565b620001967f9f2df0fed2c77648de5860a4cc508cd0818c85b8b8a1ab4ceeef8d981c8956a633620001ee60201b60201c565b620001e87f9f2df0fed2c77648de5860a4cc508cd0818c85b8b8a1ab4ceeef8d981c8956a67fa49807205ce4d355092ef5a8a18f56e8913cf4a201fbe287825b095693c217756200020460201b60201c565b62000502565b6200020082826200026860201b60201c565b5050565b600062000217836200035a60201b60201c565b905081600a6000858152602001908152602001600020600101819055508181847fbd79b86ffe0ab8e8776151514217cd7cacd52c909f66475c3af44e129f0b00ff60405160405180910390a4505050565b6200027a82826200037a60201b60201c565b62000356576001600a600084815260200190815260200160002060000160008373ffffffffffffffffffffffffffffffffffffffff1673ffffffffffffffffffffffffffffffffffffffff16815260200190815260200160002060006101000a81548160ff021916908315150217905550620002fb620003e560201b60201c565b73ffffffffffffffffffffffffffffffffffffffff168173ffffffffffffffffffffffffffffffffffffffff16837f2f8788117e7eff1d82e926ec794901d17c78024a50270940304540a733656f0d60405160405180910390a45b5050565b6000600a6000838152602001908152602001600020600101549050919050565b6000600a600084815260200190815260200160002060000160008373ffffffffffffffffffffffffffffffffffffffff1673ffffffffffffffffffffffffffffffffffffffff16815260200190815260200160002060009054906101000a900460ff16905092915050565b600033905090565b828054620003fb90620004cc565b90600052602060002090601f0160209004810192826200041f57600085556200046b565b82601f106200043a57805160ff19168380011785556200046b565b828001600101855582156200046b579182015b828111156200046a5782518255916020019190600101906200044d565b5b5090506200047a91906200047e565b5090565b5b80821115620004995760008160009055506001016200047f565b5090565b7f4e487b7100000000000000000000000000000000000000000000000000000000600052602260045260246000fd5b60006002820490506001821680620004e557607f821691505b60208210811415620004fc57620004fb6200049d565b5b50919050565b6142f780620005126000396000f3fe608060405234801561001057600080fd5b506004361061018e5760003560e01c80636a627842116100de578063a217fddf11610097578063c87b56dd11610071578063c87b56dd146104cd578063d5391393146104fd578063d547741f1461051b578063e985e9c5146105375761018e565b8063a217fddf14610477578063a22cb46514610495578063b88d4fde146104b15761018e565b80636a6278421461037b57806370a08231146103ab57806375b238fc146103db57806391d14854146103f95780639507d39a1461042957806395d89b41146104595761018e565b8063248a9ca31161014b57806336568abe1161012557806336568abe146102e357806342842e0e146102ff5780634f6ccce71461031b5780636352211e1461034b5761018e565b8063248a9ca3146102675780632f2ff15d146102975780632f745c59146102b35761018e565b806301ffc9a71461019357806306fdde03146101c3578063081812fc146101e1578063095ea7b31461021157806318160ddd1461022d57806323b872dd1461024b575b600080fd5b6101ad60048036038101906101a89190612b5b565b610567565b6040516101ba9190612ba3565b60405180910390f35b6101cb610579565b6040516101d89190612c57565b60405180910390f35b6101fb60048036038101906101f69190612caf565b61060b565b6040516102089190612d1d565b60405180910390f35b61022b60048036038101906102269190612d64565b610690565b005b6102356107a8565b6040516102429190612db3565b60405180910390f35b61026560048036038101906102609190612dce565b6107b5565b005b610281600480360381019061027c9190612e57565b610815565b60405161028e9190612e93565b60405180910390f35b6102b160048036038101906102ac9190612eae565b610835565b005b6102cd60048036038101906102c89190612d64565b61085e565b6040516102da9190612db3565b60405180910390f35b6102fd60048036038101906102f89190612eae565b610903565b005b61031960048036038101906103149190612dce565b610986565b005b61033560048036038101906103309190612caf565b6109a6565b6040516103429190612db3565b60405180910390f35b61036560048036038101906103609190612caf565b610a17565b6040516103729190612d1d565b60405180910390f35b61039560048036038101906103909190612eee565b610ac9565b6040516103a29190612db3565b60405180910390f35b6103c560048036038101906103c09190612eee565b610d70565b6040516103d29190612db3565b60405180910390f35b6103e3610e28565b6040516103f09190612e93565b60405180910390f35b610413600480360381019061040e9190612eae565b610e4c565b6040516104209190612ba3565b60405180910390f35b610443600480360381019061043e9190612caf565b610eb7565b6040516104509190612fc5565b60405180910390f35b610461610ff7565b60405161046e9190612c57565b60405180910390f35b61047f611089565b60405161048c9190612e93565b60405180910390f35b6104af60048036038101906104aa919061300c565b611090565b005b6104cb60048036038101906104c69190613181565b6110a6565b005b6104e760048036038101906104e29190612caf565b611108565b6040516104f49190612c57565b60405180910390f35b61050561117c565b6040516105129190612e93565b60405180910390f35b61053560048036038101906105309190612eae565b6111a0565b005b610551600480360381019061054c9190613204565b6111c9565b60405161055e9190612ba3565b60405180910390f35b60006105728261125d565b9050919050565b60606000805461058890613273565b80601f01602080910402602001604051908101604052809291908181526020018280546105b490613273565b80156106015780601f106105d657610100808354040283529160200191610601565b820191906000526020600020905b8154815290600101906020018083116105e457829003601f168201915b5050505050905090565b6000610616826112d7565b610655576040517f08c379a000000000000000000000000000000000000000000000000000000000815260040161064c90613317565b60405180910390fd5b6004600083815260200190815260200160002060009054906101000a900473ffffffffffffffffffffffffffffffffffffffff169050919050565b600061069b82610a17565b90508073ffffffffffffffffffffffffffffffffffffffff168373ffffffffffffffffffffffffffffffffffffffff16141561070c576040517f08c379a0000000000000000000000000000000000000000000000000000000008152600401610703906133a9565b60405180910390fd5b8073ffffffffffffffffffffffffffffffffffffffff1661072b611343565b73ffffffffffffffffffffffffffffffffffffffff16148061075a575061075981610754611343565b6111c9565b5b610799576040517f08c379a00000000000000000000000000000000000000000000000000000000081526004016107909061343b565b60405180910390fd5b6107a3838361134b565b505050565b6000600880549050905090565b6107c66107c0611343565b82611404565b610805576040517f08c379a00000000000000000000000000000000000000000000000000000000081526004016107fc906134cd565b60405180910390fd5b6108108383836114e2565b505050565b6000600a6000838152602001908152602001600020600101549050919050565b61083e82610815565b61084f8161084a611343565b61173e565b61085983836117db565b505050565b600061086983610d70565b82106108aa576040517f08c379a00000000000000000000000000000000000000000000000000000000081526004016108a19061355f565b60405180910390fd5b600660008473ffffffffffffffffffffffffffffffffffffffff1673ffffffffffffffffffffffffffffffffffffffff168152602001908152602001600020600083815260200190815260200160002054905092915050565b61090b611343565b73ffffffffffffffffffffffffffffffffffffffff168173ffffffffffffffffffffffffffffffffffffffff1614610978576040517f08c379a000000000000000000000000000000000000000000000000000000000815260040161096f906135f1565b60405180910390fd5b61098282826118bc565b5050565b6109a1838383604051806020016040528060008152506110a6565b505050565b60006109b06107a8565b82106109f1576040517f08c379a00000000000000000000000000000000000000000000000000000000081526004016109e890613683565b60405180910390fd5b60088281548110610a0557610a046136a3565b5b90600052602060002001549050919050565b6000806002600084815260200190815260200160002060009054906101000a900473ffffffffffffffffffffffffffffffffffffffff169050600073ffffffffffffffffffffffffffffffffffffffff168173ffffffffffffffffffffffffffffffffffffffff161415610ac0576040517f08c379a0000000000000000000000000000000000000000000000000000000008152600401610ab790613744565b60405180910390fd5b80915050919050565b60007f9f2df0fed2c77648de5860a4cc508cd0818c85b8b8a1ab4ceeef8d981c8956a6610afd81610af8611343565b61173e565b6000610b0884610d70565b14610b48576040517f08c379a0000000000000000000000000000000000000000000000000000000008152600401610b3f906137b0565b60405180910390fd5b610b50612a9d565b6000610b5b8561199e565b9050600881610b6a91906137ff565b6001610b76919061385f565b826000019060ff16908160ff1681525050600a81610b9491906137ff565b6001610ba0919061385f565b826020019060ff16908160ff1681525050600a81610bbe91906137ff565b6001610bca919061385f565b826040019060ff16908160ff1681525050600781610be891906137ff565b6001610bf4919061385f565b826060019060ff16908160ff1681525050600b81610c1291906137ff565b6001610c1e919061385f565b826080019060ff16908160ff168152505060008260a0019060ff16908160ff168152505060008260c0019060ff16908160ff1681525050610c5e826119e3565b9350610c6a8585611a37565b81600c600086815260200190815260200160002060008201518160000160006101000a81548160ff021916908360ff16021790555060208201518160000160016101000a81548160ff021916908360ff16021790555060408201518160000160026101000a81548160ff021916908360ff16021790555060608201518160000160036101000a81548160ff021916908360ff16021790555060808201518160000160046101000a81548160ff021916908360ff16021790555060a08201518160000160056101000a81548160ff021916908360ff16021790555060c08201518160000160066101000a81548160ff021916908360ff160217905550905050505050919050565b60008073ffffffffffffffffffffffffffffffffffffffff168273ffffffffffffffffffffffffffffffffffffffff161415610de1576040517f08c379a0000000000000000000000000000000000000000000000000000000008152600401610dd890613908565b60405180910390fd5b600360008373ffffffffffffffffffffffffffffffffffffffff1673ffffffffffffffffffffffffffffffffffffffff168152602001908152602001600020549050919050565b7fa49807205ce4d355092ef5a8a18f56e8913cf4a201fbe287825b095693c2177581565b6000600a600084815260200190815260200160002060000160008373ffffffffffffffffffffffffffffffffffffffff1673ffffffffffffffffffffffffffffffffffffffff16815260200190815260200160002060009054906101000a900460ff16905092915050565b610ebf612a9d565b610ec8826112d7565b610f07576040517f08c379a0000000000000000000000000000000000000000000000000000000008152600401610efe90613974565b60405180910390fd5b600c60008381526020019081526020016000206040518060e00160405290816000820160009054906101000a900460ff1660ff1660ff1681526020016000820160019054906101000a900460ff1660ff1660ff1681526020016000820160029054906101000a900460ff1660ff1660ff1681526020016000820160039054906101000a900460ff1660ff1660ff1681526020016000820160049054906101000a900460ff1660ff1660ff1681526020016000820160059054906101000a900460ff1660ff1660ff1681526020016000820160069054906101000a900460ff1660ff1660ff16815250509050919050565b60606001805461100690613273565b80601f016020809104026020016040519081016040528092919081815260200182805461103290613273565b801561107f5780601f106110545761010080835404028352916020019161107f565b820191906000526020600020905b81548152906001019060200180831161106257829003601f168201915b5050505050905090565b6000801b81565b6110a261109b611343565b8383611a55565b5050565b6110b76110b1611343565b83611404565b6110f6576040517f08c379a00000000000000000000000000000000000000000000000000000000081526004016110ed906134cd565b60405180910390fd5b61110284848484611bc2565b50505050565b6060600061111583611c1e565b905060006040518060400160405280600581526020017f2e6a736f6e000000000000000000000000000000000000000000000000000000815250905081816040516020016111649291906139d0565b60405160208183030381529060405292505050919050565b7f9f2df0fed2c77648de5860a4cc508cd0818c85b8b8a1ab4ceeef8d981c8956a681565b6111a982610815565b6111ba816111b5611343565b61173e565b6111c483836118bc565b505050565b6000600560008473ffffffffffffffffffffffffffffffffffffffff1673ffffffffffffffffffffffffffffffffffffffff16815260200190815260200160002060008373ffffffffffffffffffffffffffffffffffffffff1673ffffffffffffffffffffffffffffffffffffffff16815260200190815260200160002060009054906101000a900460ff16905092915050565b60007f7965db0b000000000000000000000000000000000000000000000000000000007bffffffffffffffffffffffffffffffffffffffffffffffffffffffff1916827bffffffffffffffffffffffffffffffffffffffffffffffffffffffff191614806112d057506112cf82611cc5565b5b9050919050565b60008073ffffffffffffffffffffffffffffffffffffffff166002600084815260200190815260200160002060009054906101000a900473ffffffffffffffffffffffffffffffffffffffff1673ffffffffffffffffffffffffffffffffffffffff1614159050919050565b600033905090565b816004600083815260200190815260200160002060006101000a81548173ffffffffffffffffffffffffffffffffffffffff021916908373ffffffffffffffffffffffffffffffffffffffff160217905550808273ffffffffffffffffffffffffffffffffffffffff166113be83610a17565b73ffffffffffffffffffffffffffffffffffffffff167f8c5be1e5ebec7d5bd14f71427d1e84f3dd0314c0f7b2291e5b200ac8c7c3b92560405160405180910390a45050565b600061140f826112d7565b61144e576040517f08c379a000000000000000000000000000000000000000000000000000000000815260040161144590613a66565b60405180910390fd5b600061145983610a17565b90508073ffffffffffffffffffffffffffffffffffffffff168473ffffffffffffffffffffffffffffffffffffffff1614806114c857508373ffffffffffffffffffffffffffffffffffffffff166114b08461060b565b73ffffffffffffffffffffffffffffffffffffffff16145b806114d957506114d881856111c9565b5b91505092915050565b8273ffffffffffffffffffffffffffffffffffffffff1661150282610a17565b73ffffffffffffffffffffffffffffffffffffffff1614611558576040517f08c379a000000000000000000000000000000000000000000000000000000000815260040161154f90613af8565b60405180910390fd5b600073ffffffffffffffffffffffffffffffffffffffff168273ffffffffffffffffffffffffffffffffffffffff1614156115c8576040517f08c379a00000000000000000000000000000000000000000000000000000000081526004016115bf90613b8a565b60405180910390fd5b6115d3838383611d3f565b6115de60008261134b565b6001600360008573ffffffffffffffffffffffffffffffffffffffff1673ffffffffffffffffffffffffffffffffffffffff168152602001908152602001600020600082825461162e9190613baa565b925050819055506001600360008473ffffffffffffffffffffffffffffffffffffffff1673ffffffffffffffffffffffffffffffffffffffff16815260200190815260200160002060008282546116859190613bde565b92505081905550816002600083815260200190815260200160002060006101000a81548173ffffffffffffffffffffffffffffffffffffffff021916908373ffffffffffffffffffffffffffffffffffffffff160217905550808273ffffffffffffffffffffffffffffffffffffffff168473ffffffffffffffffffffffffffffffffffffffff167fddf252ad1be2c89b69c2b068fc378daa952ba7f163c4a11628f55a4df523b3ef60405160405180910390a4505050565b6117488282610e4c565b6117d75761176d8173ffffffffffffffffffffffffffffffffffffffff166014611e53565b61177b8360001c6020611e53565b60405160200161178c929190613ccc565b6040516020818303038152906040526040517f08c379a00000000000000000000000000000000000000000000000000000000081526004016117ce9190612c57565b60405180910390fd5b5050565b6117e58282610e4c565b6118b8576001600a600084815260200190815260200160002060000160008373ffffffffffffffffffffffffffffffffffffffff1673ffffffffffffffffffffffffffffffffffffffff16815260200190815260200160002060006101000a81548160ff02191690831515021790555061185d611343565b73ffffffffffffffffffffffffffffffffffffffff168173ffffffffffffffffffffffffffffffffffffffff16837f2f8788117e7eff1d82e926ec794901d17c78024a50270940304540a733656f0d60405160405180910390a45b5050565b6118c68282610e4c565b1561199a576000600a600084815260200190815260200160002060000160008373ffffffffffffffffffffffffffffffffffffffff1673ffffffffffffffffffffffffffffffffffffffff16815260200190815260200160002060006101000a81548160ff02191690831515021790555061193f611343565b73ffffffffffffffffffffffffffffffffffffffff168173ffffffffffffffffffffffffffffffffffffffff16837ff6391f5c32d9c69d2a47ea670b442974b53935d1edc7fd64eb21e047a839171b60405160405180910390a45b5050565b600060ff80164442846040516020016119b993929190613d6f565b6040516020818303038152906040528051906020012060001c6119dc9190613dac565b9050919050565b60008160c0015160ff168260c0015160ff161415611a1457600d6000815480929190611a0e90613ddd565b91905055505b6001600d546103e8611a269190613bde565b611a309190613baa565b9050919050565b611a5182826040518060200160405280600081525061208f565b5050565b8173ffffffffffffffffffffffffffffffffffffffff168373ffffffffffffffffffffffffffffffffffffffff161415611ac4576040517f08c379a0000000000000000000000000000000000000000000000000000000008152600401611abb90613e72565b60405180910390fd5b80600560008573ffffffffffffffffffffffffffffffffffffffff1673ffffffffffffffffffffffffffffffffffffffff16815260200190815260200160002060008473ffffffffffffffffffffffffffffffffffffffff1673ffffffffffffffffffffffffffffffffffffffff16815260200190815260200160002060006101000a81548160ff0219169083151502179055508173ffffffffffffffffffffffffffffffffffffffff168373ffffffffffffffffffffffffffffffffffffffff167f17307eab39ab6107e8899845ad3d59bd9653f200f220920489ca2b5937696c3183604051611bb59190612ba3565b60405180910390a3505050565b611bcd8484846114e2565b611bd9848484846120ea565b611c18576040517f08c379a0000000000000000000000000000000000000000000000000000000008152600401611c0f90613f04565b60405180910390fd5b50505050565b6060611c29826112d7565b611c68576040517f08c379a0000000000000000000000000000000000000000000000000000000008152600401611c5f90613f96565b60405180910390fd5b6000611c72612272565b90506000815111611c925760405180602001604052806000815250611cbd565b80611c9c84612304565b604051602001611cad9291906139d0565b6040516020818303038152906040525b915050919050565b60007f780e9d63000000000000000000000000000000000000000000000000000000007bffffffffffffffffffffffffffffffffffffffffffffffffffffffff1916827bffffffffffffffffffffffffffffffffffffffffffffffffffffffff19161480611d385750611d3782612465565b5b9050919050565b611d4a838383612547565b600073ffffffffffffffffffffffffffffffffffffffff168373ffffffffffffffffffffffffffffffffffffffff161415611d8d57611d888161254c565b611dcc565b8173ffffffffffffffffffffffffffffffffffffffff168373ffffffffffffffffffffffffffffffffffffffff1614611dcb57611dca8382612595565b5b5b600073ffffffffffffffffffffffffffffffffffffffff168273ffffffffffffffffffffffffffffffffffffffff161415611e0f57611e0a81612702565b611e4e565b8273ffffffffffffffffffffffffffffffffffffffff168273ffffffffffffffffffffffffffffffffffffffff1614611e4d57611e4c82826127d3565b5b5b505050565b606060006002836002611e669190613fb6565b611e709190613bde565b67ffffffffffffffff811115611e8957611e88613056565b5b6040519080825280601f01601f191660200182016040528015611ebb5781602001600182028036833780820191505090505b5090507f300000000000000000000000000000000000000000000000000000000000000081600081518110611ef357611ef26136a3565b5b60200101907effffffffffffffffffffffffffffffffffffffffffffffffffffffffffffff1916908160001a9053507f780000000000000000000000000000000000000000000000000000000000000081600181518110611f5757611f566136a3565b5b60200101907effffffffffffffffffffffffffffffffffffffffffffffffffffffffffffff1916908160001a90535060006001846002611f979190613fb6565b611fa19190613bde565b90505b6001811115612041577f3031323334353637383961626364656600000000000000000000000000000000600f861660108110611fe357611fe26136a3565b5b1a60f81b828281518110611ffa57611ff96136a3565b5b60200101907effffffffffffffffffffffffffffffffffffffffffffffffffffffffffffff1916908160001a905350600485901c94508061203a90614010565b9050611fa4565b5060008414612085576040517f08c379a000000000000000000000000000000000000000000000000000000000815260040161207c90614086565b60405180910390fd5b8091505092915050565b6120998383612852565b6120a660008484846120ea565b6120e5576040517f08c379a00000000000000000000000000000000000000000000000000000000081526004016120dc90613f04565b60405180910390fd5b505050565b600061210b8473ffffffffffffffffffffffffffffffffffffffff16612a20565b15612265578373ffffffffffffffffffffffffffffffffffffffff1663150b7a02612134611343565b8786866040518563ffffffff1660e01b815260040161215694939291906140fb565b6020604051808303816000875af192505050801561219257506040513d601f19601f8201168201806040525081019061218f919061415c565b60015b612215573d80600081146121c2576040519150601f19603f3d011682016040523d82523d6000602084013e6121c7565b606091505b5060008151141561220d576040517f08c379a000000000000000000000000000000000000000000000000000000000815260040161220490613f04565b60405180910390fd5b805181602001fd5b63150b7a0260e01b7bffffffffffffffffffffffffffffffffffffffffffffffffffffffff1916817bffffffffffffffffffffffffffffffffffffffffffffffffffffffff19161491505061226a565b600190505b949350505050565b6060600b805461228190613273565b80601f01602080910402602001604051908101604052809291908181526020018280546122ad90613273565b80156122fa5780601f106122cf576101008083540402835291602001916122fa565b820191906000526020600020905b8154815290600101906020018083116122dd57829003601f168201915b5050505050905090565b6060600082141561234c576040518060400160405280600181526020017f30000000000000000000000000000000000000000000000000000000000000008152509050612460565b600082905060005b6000821461237e57808061236790613ddd565b915050600a826123779190614189565b9150612354565b60008167ffffffffffffffff81111561239a57612399613056565b5b6040519080825280601f01601f1916602001820160405280156123cc5781602001600182028036833780820191505090505b5090505b60008514612459576001826123e59190613baa565b9150600a856123f49190613dac565b60306124009190613bde565b60f81b818381518110612416576124156136a3565b5b60200101907effffffffffffffffffffffffffffffffffffffffffffffffffffffffffffff1916908160001a905350600a856124529190614189565b94506123d0565b8093505050505b919050565b60007f80ac58cd000000000000000000000000000000000000000000000000000000007bffffffffffffffffffffffffffffffffffffffffffffffffffffffff1916827bffffffffffffffffffffffffffffffffffffffffffffffffffffffff1916148061253057507f5b5e139f000000000000000000000000000000000000000000000000000000007bffffffffffffffffffffffffffffffffffffffffffffffffffffffff1916827bffffffffffffffffffffffffffffffffffffffffffffffffffffffff1916145b80612540575061253f82612a33565b5b9050919050565b505050565b6008805490506009600083815260200190815260200160002081905550600881908060018154018082558091505060019003906000526020600020016000909190919091505550565b600060016125a284610d70565b6125ac9190613baa565b9050600060076000848152602001908152602001600020549050818114612691576000600660008673ffffffffffffffffffffffffffffffffffffffff1673ffffffffffffffffffffffffffffffffffffffff168152602001908152602001600020600084815260200190815260200160002054905080600660008773ffffffffffffffffffffffffffffffffffffffff1673ffffffffffffffffffffffffffffffffffffffff168152602001908152602001600020600084815260200190815260200160002081905550816007600083815260200190815260200160002081905550505b6007600084815260200190815260200160002060009055600660008573ffffffffffffffffffffffffffffffffffffffff1673ffffffffffffffffffffffffffffffffffffffff16815260200190815260200160002060008381526020019081526020016000206000905550505050565b600060016008805490506127169190613baa565b9050600060096000848152602001908152602001600020549050600060088381548110612746576127456136a3565b5b906000526020600020015490508060088381548110612768576127676136a3565b5b9060005260206000200181905550816009600083815260200190815260200160002081905550600960008581526020019081526020016000206000905560088054806127b7576127b66141ba565b5b6001900381819060005260206000200160009055905550505050565b60006127de83610d70565b905081600660008573ffffffffffffffffffffffffffffffffffffffff1673ffffffffffffffffffffffffffffffffffffffff168152602001908152602001600020600083815260200190815260200160002081905550806007600084815260200190815260200160002081905550505050565b600073ffffffffffffffffffffffffffffffffffffffff168273ffffffffffffffffffffffffffffffffffffffff1614156128c2576040517f08c379a00000000000000000000000000000000000000000000000000000000081526004016128b990614235565b60405180910390fd5b6128cb816112d7565b1561290b576040517f08c379a0000000000000000000000000000000000000000000000000000000008152600401612902906142a1565b60405180910390fd5b61291760008383611d3f565b6001600360008473ffffffffffffffffffffffffffffffffffffffff1673ffffffffffffffffffffffffffffffffffffffff16815260200190815260200160002060008282546129679190613bde565b92505081905550816002600083815260200190815260200160002060006101000a81548173ffffffffffffffffffffffffffffffffffffffff021916908373ffffffffffffffffffffffffffffffffffffffff160217905550808273ffffffffffffffffffffffffffffffffffffffff16600073ffffffffffffffffffffffffffffffffffffffff167fddf252ad1be2c89b69c2b068fc378daa952ba7f163c4a11628f55a4df523b3ef60405160405180910390a45050565b600080823b905060008111915050919050565b60007f01ffc9a7000000000000000000000000000000000000000000000000000000007bffffffffffffffffffffffffffffffffffffffffffffffffffffffff1916827bffffffffffffffffffffffffffffffffffffffffffffffffffffffff1916149050919050565b6040518060e00160405280600060ff168152602001600060ff168152602001600060ff168152602001600060ff168152602001600060ff168152602001600060ff168152602001600060ff1681525090565b6000604051905090565b600080fd5b600080fd5b60007fffffffff0000000000000000000000000000000000000000000000000000000082169050919050565b612b3881612b03565b8114612b4357600080fd5b50565b600081359050612b5581612b2f565b92915050565b600060208284031215612b7157612b70612af9565b5b6000612b7f84828501612b46565b91505092915050565b60008115159050919050565b612b9d81612b88565b82525050565b6000602082019050612bb86000830184612b94565b92915050565b600081519050919050565b600082825260208201905092915050565b60005b83811015612bf8578082015181840152602081019050612bdd565b83811115612c07576000848401525b50505050565b6000601f19601f8301169050919050565b6000612c2982612bbe565b612c338185612bc9565b9350612c43818560208601612bda565b612c4c81612c0d565b840191505092915050565b60006020820190508181036000830152612c718184612c1e565b905092915050565b6000819050919050565b612c8c81612c79565b8114612c9757600080fd5b50565b600081359050612ca981612c83565b92915050565b600060208284031215612cc557612cc4612af9565b5b6000612cd384828501612c9a565b91505092915050565b600073ffffffffffffffffffffffffffffffffffffffff82169050919050565b6000612d0782612cdc565b9050919050565b612d1781612cfc565b82525050565b6000602082019050612d326000830184612d0e565b92915050565b612d4181612cfc565b8114612d4c57600080fd5b50565b600081359050612d5e81612d38565b92915050565b60008060408385031215612d7b57612d7a612af9565b5b6000612d8985828601612d4f565b9250506020612d9a85828601612c9a565b9150509250929050565b612dad81612c79565b82525050565b6000602082019050612dc86000830184612da4565b92915050565b600080600060608486031215612de757612de6612af9565b5b6000612df586828701612d4f565b9350506020612e0686828701612d4f565b9250506040612e1786828701612c9a565b9150509250925092565b6000819050919050565b612e3481612e21565b8114612e3f57600080fd5b50565b600081359050612e5181612e2b565b92915050565b600060208284031215612e6d57612e6c612af9565b5b6000612e7b84828501612e42565b91505092915050565b612e8d81612e21565b82525050565b6000602082019050612ea86000830184612e84565b92915050565b60008060408385031215612ec557612ec4612af9565b5b6000612ed385828601612e42565b9250506020612ee485828601612d4f565b9150509250929050565b600060208284031215612f0457612f03612af9565b5b6000612f1284828501612d4f565b91505092915050565b600060ff82169050919050565b612f3181612f1b565b82525050565b60e082016000820151612f4d6000850182612f28565b506020820151612f606020850182612f28565b506040820151612f736040850182612f28565b506060820151612f866060850182612f28565b506080820151612f996080850182612f28565b5060a0820151612fac60a0850182612f28565b5060c0820151612fbf60c0850182612f28565b50505050565b600060e082019050612fda6000830184612f37565b92915050565b612fe981612b88565b8114612ff457600080fd5b50565b60008135905061300681612fe0565b92915050565b6000806040838503121561302357613022612af9565b5b600061303185828601612d4f565b925050602061304285828601612ff7565b9150509250929050565b600080fd5b600080fd5b7f4e487b7100000000000000000000000000000000000000000000000000000000600052604160045260246000fd5b61308e82612c0d565b810181811067ffffffffffffffff821117156130ad576130ac613056565b5b80604052505050565b60006130c0612aef565b90506130cc8282613085565b919050565b600067ffffffffffffffff8211156130ec576130eb613056565b5b6130f582612c0d565b9050602081019050919050565b82818337600083830152505050565b600061312461311f846130d1565b6130b6565b9050828152602081018484840111156131405761313f613051565b5b61314b848285613102565b509392505050565b600082601f8301126131685761316761304c565b5b8135613178848260208601613111565b91505092915050565b6000806000806080858703121561319b5761319a612af9565b5b60006131a987828801612d4f565b94505060206131ba87828801612d4f565b93505060406131cb87828801612c9a565b925050606085013567ffffffffffffffff8111156131ec576131eb612afe565b5b6131f887828801613153565b91505092959194509250565b6000806040838503121561321b5761321a612af9565b5b600061322985828601612d4f565b925050602061323a85828601612d4f565b9150509250929050565b7f4e487b7100000000000000000000000000000000000000000000000000000000600052602260045260246000fd5b6000600282049050600182168061328b57607f821691505b6020821081141561329f5761329e613244565b5b50919050565b7f4552433732313a20617070726f76656420717565727920666f72206e6f6e657860008201527f697374656e7420746f6b656e0000000000000000000000000000000000000000602082015250565b6000613301602c83612bc9565b915061330c826132a5565b604082019050919050565b60006020820190508181036000830152613330816132f4565b9050919050565b7f4552433732313a20617070726f76616c20746f2063757272656e74206f776e6560008201527f7200000000000000000000000000000000000000000000000000000000000000602082015250565b6000613393602183612bc9565b915061339e82613337565b604082019050919050565b600060208201905081810360008301526133c281613386565b9050919050565b7f4552433732313a20617070726f76652063616c6c6572206973206e6f74206f7760008201527f6e6572206e6f7220617070726f76656420666f7220616c6c0000000000000000602082015250565b6000613425603883612bc9565b9150613430826133c9565b604082019050919050565b6000602082019050818103600083015261345481613418565b9050919050565b7f4552433732313a207472616e736665722063616c6c6572206973206e6f74206f60008201527f776e6572206e6f7220617070726f766564000000000000000000000000000000602082015250565b60006134b7603183612bc9565b91506134c28261345b565b604082019050919050565b600060208201905081810360008301526134e6816134aa565b9050919050565b7f455243373231456e756d657261626c653a206f776e657220696e646578206f7560008201527f74206f6620626f756e6473000000000000000000000000000000000000000000602082015250565b6000613549602b83612bc9565b9150613554826134ed565b604082019050919050565b600060208201905081810360008301526135788161353c565b9050919050565b7f416363657373436f6e74726f6c3a2063616e206f6e6c792072656e6f756e636560008201527f20726f6c657320666f722073656c660000000000000000000000000000000000602082015250565b60006135db602f83612bc9565b91506135e68261357f565b604082019050919050565b6000602082019050818103600083015261360a816135ce565b9050919050565b7f455243373231456e756d657261626c653a20676c6f62616c20696e646578206f60008201527f7574206f6620626f756e64730000000000000000000000000000000000000000602082015250565b600061366d602c83612bc9565b915061367882613611565b604082019050919050565b6000602082019050818103600083015261369c81613660565b9050919050565b7f4e487b7100000000000000000000000000000000000000000000000000000000600052603260045260246000fd5b7f4552433732313a206f776e657220717565727920666f72206e6f6e657869737460008201527f656e7420746f6b656e0000000000000000000000000000000000000000000000602082015250565b600061372e602983612bc9565b9150613739826136d2565b604082019050919050565b6000602082019050818103600083015261375d81613721565b9050919050565b7f706c6179657220616c7265616479206f776e732061207061776e000000000000600082015250565b600061379a601a83612bc9565b91506137a582613764565b602082019050919050565b600060208201905081810360008301526137c98161378d565b9050919050565b7f4e487b7100000000000000000000000000000000000000000000000000000000600052601260045260246000fd5b600061380a82612f1b565b915061381583612f1b565b925082613825576138246137d0565b5b828206905092915050565b7f4e487b7100000000000000000000000000000000000000000000000000000000600052601160045260246000fd5b600061386a82612f1b565b915061387583612f1b565b92508260ff0382111561388b5761388a613830565b5b828201905092915050565b7f4552433732313a2062616c616e636520717565727920666f7220746865207a6560008201527f726f206164647265737300000000000000000000000000000000000000000000602082015250565b60006138f2602a83612bc9565b91506138fd82613896565b604082019050919050565b60006020820190508181036000830152613921816138e5565b9050919050565b7f54686973207061776e20646f6573206e6f742065786973740000000000000000600082015250565b600061395e601883612bc9565b915061396982613928565b602082019050919050565b6000602082019050818103600083015261398d81613951565b9050919050565b600081905092915050565b60006139aa82612bbe565b6139b48185613994565b93506139c4818560208601612bda565b80840191505092915050565b60006139dc828561399f565b91506139e8828461399f565b91508190509392505050565b7f4552433732313a206f70657261746f7220717565727920666f72206e6f6e657860008201527f697374656e7420746f6b656e0000000000000000000000000000000000000000602082015250565b6000613a50602c83612bc9565b9150613a5b826139f4565b604082019050919050565b60006020820190508181036000830152613a7f81613a43565b9050919050565b7f4552433732313a207472616e73666572206f6620746f6b656e2074686174206960008201527f73206e6f74206f776e0000000000000000000000000000000000000000000000602082015250565b6000613ae2602983612bc9565b9150613aed82613a86565b604082019050919050565b60006020820190508181036000830152613b1181613ad5565b9050919050565b7f4552433732313a207472616e7366657220746f20746865207a65726f2061646460008201527f7265737300000000000000000000000000000000000000000000000000000000602082015250565b6000613b74602483612bc9565b9150613b7f82613b18565b604082019050919050565b60006020820190508181036000830152613ba381613b67565b9050919050565b6000613bb582612c79565b9150613bc083612c79565b925082821015613bd357613bd2613830565b5b828203905092915050565b6000613be982612c79565b9150613bf483612c79565b9250827fffffffffffffffffffffffffffffffffffffffffffffffffffffffffffffffff03821115613c2957613c28613830565b5b828201905092915050565b7f416363657373436f6e74726f6c3a206163636f756e7420000000000000000000600082015250565b6000613c6a601783613994565b9150613c7582613c34565b601782019050919050565b7f206973206d697373696e6720726f6c6520000000000000000000000000000000600082015250565b6000613cb6601183613994565b9150613cc182613c80565b601182019050919050565b6000613cd782613c5d565b9150613ce3828561399f565b9150613cee82613ca9565b9150613cfa828461399f565b91508190509392505050565b6000819050919050565b613d21613d1c82612c79565b613d06565b82525050565b60008160601b9050919050565b6000613d3f82613d27565b9050919050565b6000613d5182613d34565b9050919050565b613d69613d6482612cfc565b613d46565b82525050565b6000613d7b8286613d10565b602082019150613d8b8285613d10565b602082019150613d9b8284613d58565b601482019150819050949350505050565b6000613db782612c79565b9150613dc283612c79565b925082613dd257613dd16137d0565b5b828206905092915050565b6000613de882612c79565b91507fffffffffffffffffffffffffffffffffffffffffffffffffffffffffffffffff821415613e1b57613e1a613830565b5b600182019050919050565b7f4552433732313a20617070726f766520746f2063616c6c657200000000000000600082015250565b6000613e5c601983612bc9565b9150613e6782613e26565b602082019050919050565b60006020820190508181036000830152613e8b81613e4f565b9050919050565b7f4552433732313a207472616e7366657220746f206e6f6e20455243373231526560008201527f63656976657220696d706c656d656e7465720000000000000000000000000000602082015250565b6000613eee603283612bc9565b9150613ef982613e92565b604082019050919050565b60006020820190508181036000830152613f1d81613ee1565b9050919050565b7f4552433732314d657461646174613a2055524920717565727920666f72206e6f60008201527f6e6578697374656e7420746f6b656e0000000000000000000000000000000000602082015250565b6000613f80602f83612bc9565b9150613f8b82613f24565b604082019050919050565b60006020820190508181036000830152613faf81613f73565b9050919050565b6000613fc182612c79565b9150613fcc83612c79565b9250817fffffffffffffffffffffffffffffffffffffffffffffffffffffffffffffffff048311821515161561400557614004613830565b5b828202905092915050565b600061401b82612c79565b9150600082141561402f5761402e613830565b5b600182039050919050565b7f537472696e67733a20686578206c656e67746820696e73756666696369656e74600082015250565b6000614070602083612bc9565b915061407b8261403a565b602082019050919050565b6000602082019050818103600083015261409f81614063565b9050919050565b600081519050919050565b600082825260208201905092915050565b60006140cd826140a6565b6140d781856140b1565b93506140e7818560208601612bda565b6140f081612c0d565b840191505092915050565b60006080820190506141106000830187612d0e565b61411d6020830186612d0e565b61412a6040830185612da4565b818103606083015261413c81846140c2565b905095945050505050565b60008151905061415681612b2f565b92915050565b60006020828403121561417257614171612af9565b5b600061418084828501614147565b91505092915050565b600061419482612c79565b915061419f83612c79565b9250826141af576141ae6137d0565b5b828204905092915050565b7f4e487b7100000000000000000000000000000000000000000000000000000000600052603160045260246000fd5b7f4552433732313a206d696e7420746f20746865207a65726f2061646472657373600082015250565b600061421f602083612bc9565b915061422a826141e9565b602082019050919050565b6000602082019050818103600083015261424e81614212565b9050919050565b7f4552433732313a20746f6b656e20616c7265616479206d696e74656400000000600082015250565b600061428b601c83612bc9565b915061429682614255565b602082019050919050565b600060208201905081810360008301526142ba8161427e565b905091905056fea26469706673582212204e67d26d22398c70073112707b6603ad214fff0653c06be4bfc1f63b48532ca664736f6c634300080a0033",
  "immutableReferences": {},
  "source": "// PawnStub.sol\r\n// SPDX-License-Identifier: MIT\r\n\r\npragma solidity 0.8.10;\r\n\r\nimport \"@openzeppelin/contracts/access/AccessControl.sol\";\r\nimport \"@openzeppelin/contracts/token/ERC721/extensions/ERC721Enumerable.sol\";\r\n\r\n// @dev For tests only\r\ncontract PawnStubContract is ERC721Enumerable, AccessControl {\r\n\tbytes32 public constant ADMIN_ROLE = keccak256(\"ADMIN_ROLE\");\r\n\tbytes32 public constant MINTER_ROLE = keccak256(\"MINTER_ROLE\");\r\n\r\n\tstring private baseTokenURI;\r\n\r\n\tstruct PawnStruct {\r\n\t\tuint8 subject; /* car, thimble, hat, ship, shoe, wheelbarrow, dog, cat */\r\n\t\tuint8 background; /* blanc, noir, bleu, rouge, vert, jaune, bleu clair, violet, arc-en-ciel */\r\n\t\tuint8 material; /* carton, bois, plastique, cuivre, plomb, tain, argent, palladium, platine, or */\r\n\t\tuint8 halo; /* aucun, bleu lectrique, jaune solaire, pure blanc, vert plasma, psycho arc-en-ciel, fusion flou */\r\n\t\tuint8 power; /* aucun, monopole, anarchiste, politicien, avocat, juge, banquier, mdias, startuper, star, CEO */\r\n\t\tuint8 level;\r\n\t\tuint8 xp;\r\n\t}\r\n\r\n\tmapping(uint256 => PawnStruct) private pawns;\r\n\tuint256 nonce;\r\n\r\n\t// stubbed\r\n\tconstructor(\r\n\t) ERC721(\"Pawn token\", \"PAWN\") {\r\n\t\tbaseTokenURI = \"baseTokenURI\";\r\n\r\n\t\t_setupRole(ADMIN_ROLE, msg.sender);\r\n\t\t_setRoleAdmin(ADMIN_ROLE, ADMIN_ROLE);\r\n\t\t_setupRole(MINTER_ROLE, msg.sender);\r\n\t\t_setRoleAdmin(MINTER_ROLE, ADMIN_ROLE);\r\n\t}\r\n\r\n\tfunction _baseURI() internal view override returns (string memory) {\r\n\t\treturn baseTokenURI;\r\n\t}\r\n\r\n\tfunction tokenURI(uint256 _id) public view override returns (string memory) {\r\n\t\tstring memory uri = super.tokenURI(_id);\r\n\r\n\t\tstring memory ext = \".json\";\r\n\r\n\t\treturn string(abi.encodePacked(uri, ext));\r\n\t}\r\n\r\n\tfunction mint(address _to) external onlyRole(MINTER_ROLE) returns (uint256 id_) {\r\n\t\trequire(balanceOf(_to) == 0, \"player already owns a pawn\");\r\n\r\n\t\tPawnStruct memory p;\r\n\t\tuint8 r = random(_to);\r\n\t\tp.subject = 1 + (r % 8);\r\n\t\tp.background = 1 + (r % 10);\r\n\t\tp.material = 1 + (r % 10);\r\n\t\tp.halo = 1 + (r % 7);\r\n\t\tp.power = 1 + (r % 11);\r\n\t\tp.level = 0;\r\n\t\tp.xp = 0;\r\n\r\n\t\tid_ = generateID(p);\r\n\r\n\t\t_safeMint(_to, id_);\r\n\r\n\t\tpawns[id_] = p;\r\n\t}\r\n\r\n\tfunction supportsInterface(bytes4 _interfaceId)\r\n\tpublic\r\n\tview\r\n\toverride(ERC721Enumerable, AccessControl)\r\n\treturns (bool)\r\n\t{\r\n\t\treturn super.supportsInterface(_interfaceId);\r\n\t}\r\n\r\n\tfunction get(uint256 _id) public view returns (PawnStruct memory p_) {\r\n\t\trequire(_exists(_id), \"This pawn does not exist\");\r\n\r\n\t\tp_ = pawns[_id];\r\n\t}\r\n\r\n\t// stubbed\r\n\tfunction generateID(PawnStruct memory _p) internal returns (uint256 id_) {\r\n\t\tif (_p.xp == _p.xp) {\r\n\t\t\tnonce++;\r\n\t\t}\r\n\r\n\t\treturn 1000 + nonce - 1;\r\n\t}\r\n\r\n\t/// @dev pseudo-random function\r\n\t/// @return a random value in between [0, type(uint8).max]\r\n\tfunction random(address user) internal view returns (uint8) {\r\n\t\treturn uint8(uint256(keccak256(abi.encodePacked(block.difficulty, block.timestamp, user))) % type(uint8).max);\r\n\t}\r\n}\r\n",
  "sourcePath": "C:\\Users\\aaast\\Alyra\\mnp-trufflebox\\contracts\\Stubs\\PawnStub.sol",
  "compiler": {
    "name": "solc",
    "version": "0.8.10+commit.fc410830.Emscripten.clang"
  },
  "schemaVersion": "3.4.3",
  "updatedAt": "2022-01-24T14:23:03.772Z",
  "devdoc": {
    "kind": "dev",
    "methods": {
      "approve(address,uint256)": {
        "details": "See {IERC721-approve}."
      },
      "balanceOf(address)": {
        "details": "See {IERC721-balanceOf}."
      },
      "getApproved(uint256)": {
        "details": "See {IERC721-getApproved}."
      },
      "getRoleAdmin(bytes32)": {
        "details": "Returns the admin role that controls `role`. See {grantRole} and {revokeRole}. To change a role's admin, use {_setRoleAdmin}."
      },
      "grantRole(bytes32,address)": {
        "details": "Grants `role` to `account`. If `account` had not been already granted `role`, emits a {RoleGranted} event. Requirements: - the caller must have ``role``'s admin role."
      },
      "hasRole(bytes32,address)": {
        "details": "Returns `true` if `account` has been granted `role`."
      },
      "isApprovedForAll(address,address)": {
        "details": "See {IERC721-isApprovedForAll}."
      },
      "name()": {
        "details": "See {IERC721Metadata-name}."
      },
      "ownerOf(uint256)": {
        "details": "See {IERC721-ownerOf}."
      },
      "renounceRole(bytes32,address)": {
        "details": "Revokes `role` from the calling account. Roles are often managed via {grantRole} and {revokeRole}: this function's purpose is to provide a mechanism for accounts to lose their privileges if they are compromised (such as when a trusted device is misplaced). If the calling account had been revoked `role`, emits a {RoleRevoked} event. Requirements: - the caller must be `account`."
      },
      "revokeRole(bytes32,address)": {
        "details": "Revokes `role` from `account`. If `account` had been granted `role`, emits a {RoleRevoked} event. Requirements: - the caller must have ``role``'s admin role."
      },
      "safeTransferFrom(address,address,uint256)": {
        "details": "See {IERC721-safeTransferFrom}."
      },
      "safeTransferFrom(address,address,uint256,bytes)": {
        "details": "See {IERC721-safeTransferFrom}."
      },
      "setApprovalForAll(address,bool)": {
        "details": "See {IERC721-setApprovalForAll}."
      },
      "symbol()": {
        "details": "See {IERC721Metadata-symbol}."
      },
      "tokenByIndex(uint256)": {
        "details": "See {IERC721Enumerable-tokenByIndex}."
      },
      "tokenOfOwnerByIndex(address,uint256)": {
        "details": "See {IERC721Enumerable-tokenOfOwnerByIndex}."
      },
      "totalSupply()": {
        "details": "See {IERC721Enumerable-totalSupply}."
      },
      "transferFrom(address,address,uint256)": {
        "details": "See {IERC721-transferFrom}."
      }
    },
    "version": 1
  },
  "userdoc": {
    "kind": "user",
    "methods": {},
    "version": 1
  }
}