{
  "contractName": "PawnContract",
  "abi": [
    {
      "inputs": [
        {
          "internalType": "string",
          "name": "_name",
          "type": "string"
        },
        {
          "internalType": "string",
          "name": "_symbol",
          "type": "string"
        },
        {
          "internalType": "string",
          "name": "_baseTokenURI",
          "type": "string"
        }
      ],
      "stateMutability": "nonpayable",
      "type": "constructor"
    },
    {
      "anonymous": false,
      "inputs": [
        {
          "indexed": true,
          "internalType": "address",
          "name": "owner",
          "type": "address"
        },
        {
          "indexed": true,
          "internalType": "address",
          "name": "approved",
          "type": "address"
        },
        {
          "indexed": true,
          "internalType": "uint256",
          "name": "tokenId",
          "type": "uint256"
        }
      ],
      "name": "Approval",
      "type": "event"
    },
    {
      "anonymous": false,
      "inputs": [
        {
          "indexed": true,
          "internalType": "address",
          "name": "owner",
          "type": "address"
        },
        {
          "indexed": true,
          "internalType": "address",
          "name": "operator",
          "type": "address"
        },
        {
          "indexed": false,
          "internalType": "bool",
          "name": "approved",
          "type": "bool"
        }
      ],
      "name": "ApprovalForAll",
      "type": "event"
    },
    {
      "anonymous": false,
      "inputs": [
        {
          "indexed": true,
          "internalType": "bytes32",
          "name": "role",
          "type": "bytes32"
        },
        {
          "indexed": true,
          "internalType": "bytes32",
          "name": "previousAdminRole",
          "type": "bytes32"
        },
        {
          "indexed": true,
          "internalType": "bytes32",
          "name": "newAdminRole",
          "type": "bytes32"
        }
      ],
      "name": "RoleAdminChanged",
      "type": "event"
    },
    {
      "anonymous": false,
      "inputs": [
        {
          "indexed": true,
          "internalType": "bytes32",
          "name": "role",
          "type": "bytes32"
        },
        {
          "indexed": true,
          "internalType": "address",
          "name": "account",
          "type": "address"
        },
        {
          "indexed": true,
          "internalType": "address",
          "name": "sender",
          "type": "address"
        }
      ],
      "name": "RoleGranted",
      "type": "event"
    },
    {
      "anonymous": false,
      "inputs": [
        {
          "indexed": true,
          "internalType": "bytes32",
          "name": "role",
          "type": "bytes32"
        },
        {
          "indexed": true,
          "internalType": "address",
          "name": "account",
          "type": "address"
        },
        {
          "indexed": true,
          "internalType": "address",
          "name": "sender",
          "type": "address"
        }
      ],
      "name": "RoleRevoked",
      "type": "event"
    },
    {
      "anonymous": false,
      "inputs": [
        {
          "indexed": true,
          "internalType": "address",
          "name": "from",
          "type": "address"
        },
        {
          "indexed": true,
          "internalType": "address",
          "name": "to",
          "type": "address"
        },
        {
          "indexed": true,
          "internalType": "uint256",
          "name": "tokenId",
          "type": "uint256"
        }
      ],
      "name": "Transfer",
      "type": "event"
    },
    {
      "inputs": [],
      "name": "ADMIN_ROLE",
      "outputs": [
        {
          "internalType": "bytes32",
          "name": "",
          "type": "bytes32"
        }
      ],
      "stateMutability": "view",
      "type": "function",
      "constant": true
    },
    {
      "inputs": [],
      "name": "DEFAULT_ADMIN_ROLE",
      "outputs": [
        {
          "internalType": "bytes32",
          "name": "",
          "type": "bytes32"
        }
      ],
      "stateMutability": "view",
      "type": "function",
      "constant": true
    },
    {
      "inputs": [],
      "name": "MINTER_ROLE",
      "outputs": [
        {
          "internalType": "bytes32",
          "name": "",
          "type": "bytes32"
        }
      ],
      "stateMutability": "view",
      "type": "function",
      "constant": true
    },
    {
      "inputs": [
        {
          "internalType": "address",
          "name": "to",
          "type": "address"
        },
        {
          "internalType": "uint256",
          "name": "tokenId",
          "type": "uint256"
        }
      ],
      "name": "approve",
      "outputs": [],
      "stateMutability": "nonpayable",
      "type": "function"
    },
    {
      "inputs": [
        {
          "internalType": "address",
          "name": "owner",
          "type": "address"
        }
      ],
      "name": "balanceOf",
      "outputs": [
        {
          "internalType": "uint256",
          "name": "",
          "type": "uint256"
        }
      ],
      "stateMutability": "view",
      "type": "function",
      "constant": true
    },
    {
      "inputs": [
        {
          "internalType": "uint256",
          "name": "tokenId",
          "type": "uint256"
        }
      ],
      "name": "getApproved",
      "outputs": [
        {
          "internalType": "address",
          "name": "",
          "type": "address"
        }
      ],
      "stateMutability": "view",
      "type": "function",
      "constant": true
    },
    {
      "inputs": [
        {
          "internalType": "bytes32",
          "name": "role",
          "type": "bytes32"
        }
      ],
      "name": "getRoleAdmin",
      "outputs": [
        {
          "internalType": "bytes32",
          "name": "",
          "type": "bytes32"
        }
      ],
      "stateMutability": "view",
      "type": "function",
      "constant": true
    },
    {
      "inputs": [
        {
          "internalType": "bytes32",
          "name": "role",
          "type": "bytes32"
        },
        {
          "internalType": "address",
          "name": "account",
          "type": "address"
        }
      ],
      "name": "grantRole",
      "outputs": [],
      "stateMutability": "nonpayable",
      "type": "function"
    },
    {
      "inputs": [
        {
          "internalType": "bytes32",
          "name": "role",
          "type": "bytes32"
        },
        {
          "internalType": "address",
          "name": "account",
          "type": "address"
        }
      ],
      "name": "hasRole",
      "outputs": [
        {
          "internalType": "bool",
          "name": "",
          "type": "bool"
        }
      ],
      "stateMutability": "view",
      "type": "function",
      "constant": true
    },
    {
      "inputs": [
        {
          "internalType": "address",
          "name": "owner",
          "type": "address"
        },
        {
          "internalType": "address",
          "name": "operator",
          "type": "address"
        }
      ],
      "name": "isApprovedForAll",
      "outputs": [
        {
          "internalType": "bool",
          "name": "",
          "type": "bool"
        }
      ],
      "stateMutability": "view",
      "type": "function",
      "constant": true
    },
    {
      "inputs": [],
      "name": "name",
      "outputs": [
        {
          "internalType": "string",
          "name": "",
          "type": "string"
        }
      ],
      "stateMutability": "view",
      "type": "function",
      "constant": true
    },
    {
      "inputs": [
        {
          "internalType": "uint256",
          "name": "tokenId",
          "type": "uint256"
        }
      ],
      "name": "ownerOf",
      "outputs": [
        {
          "internalType": "address",
          "name": "",
          "type": "address"
        }
      ],
      "stateMutability": "view",
      "type": "function",
      "constant": true
    },
    {
      "inputs": [
        {
          "internalType": "bytes32",
          "name": "role",
          "type": "bytes32"
        },
        {
          "internalType": "address",
          "name": "account",
          "type": "address"
        }
      ],
      "name": "renounceRole",
      "outputs": [],
      "stateMutability": "nonpayable",
      "type": "function"
    },
    {
      "inputs": [
        {
          "internalType": "bytes32",
          "name": "role",
          "type": "bytes32"
        },
        {
          "internalType": "address",
          "name": "account",
          "type": "address"
        }
      ],
      "name": "revokeRole",
      "outputs": [],
      "stateMutability": "nonpayable",
      "type": "function"
    },
    {
      "inputs": [
        {
          "internalType": "address",
          "name": "from",
          "type": "address"
        },
        {
          "internalType": "address",
          "name": "to",
          "type": "address"
        },
        {
          "internalType": "uint256",
          "name": "tokenId",
          "type": "uint256"
        }
      ],
      "name": "safeTransferFrom",
      "outputs": [],
      "stateMutability": "nonpayable",
      "type": "function"
    },
    {
      "inputs": [
        {
          "internalType": "address",
          "name": "from",
          "type": "address"
        },
        {
          "internalType": "address",
          "name": "to",
          "type": "address"
        },
        {
          "internalType": "uint256",
          "name": "tokenId",
          "type": "uint256"
        },
        {
          "internalType": "bytes",
          "name": "_data",
          "type": "bytes"
        }
      ],
      "name": "safeTransferFrom",
      "outputs": [],
      "stateMutability": "nonpayable",
      "type": "function"
    },
    {
      "inputs": [
        {
          "internalType": "address",
          "name": "operator",
          "type": "address"
        },
        {
          "internalType": "bool",
          "name": "approved",
          "type": "bool"
        }
      ],
      "name": "setApprovalForAll",
      "outputs": [],
      "stateMutability": "nonpayable",
      "type": "function"
    },
    {
      "inputs": [],
      "name": "symbol",
      "outputs": [
        {
          "internalType": "string",
          "name": "",
          "type": "string"
        }
      ],
      "stateMutability": "view",
      "type": "function",
      "constant": true
    },
    {
      "inputs": [
        {
          "internalType": "uint256",
          "name": "index",
          "type": "uint256"
        }
      ],
      "name": "tokenByIndex",
      "outputs": [
        {
          "internalType": "uint256",
          "name": "",
          "type": "uint256"
        }
      ],
      "stateMutability": "view",
      "type": "function",
      "constant": true
    },
    {
      "inputs": [
        {
          "internalType": "address",
          "name": "owner",
          "type": "address"
        },
        {
          "internalType": "uint256",
          "name": "index",
          "type": "uint256"
        }
      ],
      "name": "tokenOfOwnerByIndex",
      "outputs": [
        {
          "internalType": "uint256",
          "name": "",
          "type": "uint256"
        }
      ],
      "stateMutability": "view",
      "type": "function",
      "constant": true
    },
    {
      "inputs": [],
      "name": "totalSupply",
      "outputs": [
        {
          "internalType": "uint256",
          "name": "",
          "type": "uint256"
        }
      ],
      "stateMutability": "view",
      "type": "function",
      "constant": true
    },
    {
      "inputs": [
        {
          "internalType": "address",
          "name": "from",
          "type": "address"
        },
        {
          "internalType": "address",
          "name": "to",
          "type": "address"
        },
        {
          "internalType": "uint256",
          "name": "tokenId",
          "type": "uint256"
        }
      ],
      "name": "transferFrom",
      "outputs": [],
      "stateMutability": "nonpayable",
      "type": "function"
    },
    {
      "inputs": [
        {
          "internalType": "uint256",
          "name": "_id",
          "type": "uint256"
        }
      ],
      "name": "tokenURI",
      "outputs": [
        {
          "internalType": "string",
          "name": "",
          "type": "string"
        }
      ],
      "stateMutability": "view",
      "type": "function",
      "constant": true
    },
    {
      "inputs": [
        {
          "internalType": "address",
          "name": "_to",
          "type": "address"
        }
      ],
      "name": "mint",
      "outputs": [
        {
          "internalType": "uint256",
          "name": "id_",
          "type": "uint256"
        }
      ],
      "stateMutability": "nonpayable",
      "type": "function"
    },
    {
      "inputs": [
        {
          "internalType": "bytes4",
          "name": "_interfaceId",
          "type": "bytes4"
        }
      ],
      "name": "supportsInterface",
      "outputs": [
        {
          "internalType": "bool",
          "name": "",
          "type": "bool"
        }
      ],
      "stateMutability": "view",
      "type": "function",
      "constant": true
    },
    {
      "inputs": [
        {
          "internalType": "uint256",
          "name": "_id",
          "type": "uint256"
        }
      ],
      "name": "get",
      "outputs": [
        {
          "components": [
            {
              "internalType": "uint8",
              "name": "subject",
              "type": "uint8"
            },
            {
              "internalType": "uint8",
              "name": "background",
              "type": "uint8"
            },
            {
              "internalType": "uint8",
              "name": "material",
              "type": "uint8"
            },
            {
              "internalType": "uint8",
              "name": "halo",
              "type": "uint8"
            },
            {
              "internalType": "uint8",
              "name": "power",
              "type": "uint8"
            },
            {
              "internalType": "uint8",
              "name": "level",
              "type": "uint8"
            },
            {
              "internalType": "uint8",
              "name": "xp",
              "type": "uint8"
            }
          ],
          "internalType": "struct PawnContract.PawnStruct",
          "name": "p_",
          "type": "tuple"
        }
      ],
      "stateMutability": "view",
      "type": "function",
      "constant": true
    }
  ],
  "bytecode": "0x60806040523480156200001157600080fd5b5060405162004aa638038062004aa68339818101604052810190620000379190620005c3565b828281600090805190602001906200005192919062000376565b5080600190805190602001906200006a92919062000376565b50505080600b90805190602001906200008592919062000376565b50620000b87fa49807205ce4d355092ef5a8a18f56e8913cf4a201fbe287825b095693c21775336200017760201b60201c565b620000ea7fa49807205ce4d355092ef5a8a18f56e8913cf4a201fbe287825b095693c21775806200018d60201b60201c565b6200011c7f9f2df0fed2c77648de5860a4cc508cd0818c85b8b8a1ab4ceeef8d981c8956a6336200017760201b60201c565b6200016e7f9f2df0fed2c77648de5860a4cc508cd0818c85b8b8a1ab4ceeef8d981c8956a67fa49807205ce4d355092ef5a8a18f56e8913cf4a201fbe287825b095693c217756200018d60201b60201c565b505050620006e1565b620001898282620001f160201b60201c565b5050565b6000620001a083620002e360201b60201c565b905081600a6000858152602001908152602001600020600101819055508181847fbd79b86ffe0ab8e8776151514217cd7cacd52c909f66475c3af44e129f0b00ff60405160405180910390a4505050565b6200020382826200030360201b60201c565b620002df576001600a600084815260200190815260200160002060000160008373ffffffffffffffffffffffffffffffffffffffff1673ffffffffffffffffffffffffffffffffffffffff16815260200190815260200160002060006101000a81548160ff021916908315150217905550620002846200036e60201b60201c565b73ffffffffffffffffffffffffffffffffffffffff168173ffffffffffffffffffffffffffffffffffffffff16837f2f8788117e7eff1d82e926ec794901d17c78024a50270940304540a733656f0d60405160405180910390a45b5050565b6000600a6000838152602001908152602001600020600101549050919050565b6000600a600084815260200190815260200160002060000160008373ffffffffffffffffffffffffffffffffffffffff1673ffffffffffffffffffffffffffffffffffffffff16815260200190815260200160002060009054906101000a900460ff16905092915050565b600033905090565b8280546200038490620006ab565b90600052602060002090601f016020900481019282620003a85760008555620003f4565b82601f10620003c357805160ff1916838001178555620003f4565b82800160010185558215620003f4579182015b82811115620003f3578251825591602001919060010190620003d6565b5b50905062000403919062000407565b5090565b5b808211156200042257600081600090555060010162000408565b5090565b6000604051905090565b600080fd5b600080fd5b600080fd5b600080fd5b6000601f19601f8301169050919050565b7f4e487b7100000000000000000000000000000000000000000000000000000000600052604160045260246000fd5b6200048f8262000444565b810181811067ffffffffffffffff82111715620004b157620004b062000455565b5b80604052505050565b6000620004c662000426565b9050620004d4828262000484565b919050565b600067ffffffffffffffff821115620004f757620004f662000455565b5b620005028262000444565b9050602081019050919050565b60005b838110156200052f57808201518184015260208101905062000512565b838111156200053f576000848401525b50505050565b60006200055c6200055684620004d9565b620004ba565b9050828152602081018484840111156200057b576200057a6200043f565b5b620005888482856200050f565b509392505050565b600082601f830112620005a857620005a76200043a565b5b8151620005ba84826020860162000545565b91505092915050565b600080600060608486031215620005df57620005de62000430565b5b600084015167ffffffffffffffff8111156200060057620005ff62000435565b5b6200060e8682870162000590565b935050602084015167ffffffffffffffff81111562000632576200063162000435565b5b620006408682870162000590565b925050604084015167ffffffffffffffff81111562000664576200066362000435565b5b620006728682870162000590565b9150509250925092565b7f4e487b7100000000000000000000000000000000000000000000000000000000600052602260045260246000fd5b60006002820490506001821680620006c457607f821691505b60208210811415620006db57620006da6200067c565b5b50919050565b6143b580620006f16000396000f3fe608060405234801561001057600080fd5b506004361061018e5760003560e01c80636a627842116100de578063a217fddf11610097578063c87b56dd11610071578063c87b56dd146104cd578063d5391393146104fd578063d547741f1461051b578063e985e9c5146105375761018e565b8063a217fddf14610477578063a22cb46514610495578063b88d4fde146104b15761018e565b80636a6278421461037b57806370a08231146103ab57806375b238fc146103db57806391d14854146103f95780639507d39a1461042957806395d89b41146104595761018e565b8063248a9ca31161014b57806336568abe1161012557806336568abe146102e357806342842e0e146102ff5780634f6ccce71461031b5780636352211e1461034b5761018e565b8063248a9ca3146102675780632f2ff15d146102975780632f745c59146102b35761018e565b806301ffc9a71461019357806306fdde03146101c3578063081812fc146101e1578063095ea7b31461021157806318160ddd1461022d57806323b872dd1461024b575b600080fd5b6101ad60048036038101906101a89190612b62565b610567565b6040516101ba9190612baa565b60405180910390f35b6101cb610579565b6040516101d89190612c5e565b60405180910390f35b6101fb60048036038101906101f69190612cb6565b61060b565b6040516102089190612d24565b60405180910390f35b61022b60048036038101906102269190612d6b565b610690565b005b6102356107a8565b6040516102429190612dba565b60405180910390f35b61026560048036038101906102609190612dd5565b6107b5565b005b610281600480360381019061027c9190612e5e565b610815565b60405161028e9190612e9a565b60405180910390f35b6102b160048036038101906102ac9190612eb5565b610835565b005b6102cd60048036038101906102c89190612d6b565b61085e565b6040516102da9190612dba565b60405180910390f35b6102fd60048036038101906102f89190612eb5565b610903565b005b61031960048036038101906103149190612dd5565b610986565b005b61033560048036038101906103309190612cb6565b6109a6565b6040516103429190612dba565b60405180910390f35b61036560048036038101906103609190612cb6565b610a17565b6040516103729190612d24565b60405180910390f35b61039560048036038101906103909190612ef5565b610ac9565b6040516103a29190612dba565b60405180910390f35b6103c560048036038101906103c09190612ef5565b610d70565b6040516103d29190612dba565b60405180910390f35b6103e3610e28565b6040516103f09190612e9a565b60405180910390f35b610413600480360381019061040e9190612eb5565b610e4c565b6040516104209190612baa565b60405180910390f35b610443600480360381019061043e9190612cb6565b610eb7565b6040516104509190612fcc565b60405180910390f35b610461610ff7565b60405161046e9190612c5e565b60405180910390f35b61047f611089565b60405161048c9190612e9a565b60405180910390f35b6104af60048036038101906104aa9190613013565b611090565b005b6104cb60048036038101906104c69190613188565b6110a6565b005b6104e760048036038101906104e29190612cb6565b611108565b6040516104f49190612c5e565b60405180910390f35b61050561117c565b6040516105129190612e9a565b60405180910390f35b61053560048036038101906105309190612eb5565b6111a0565b005b610551600480360381019061054c919061320b565b6111c9565b60405161055e9190612baa565b60405180910390f35b60006105728261125d565b9050919050565b6060600080546105889061327a565b80601f01602080910402602001604051908101604052809291908181526020018280546105b49061327a565b80156106015780601f106105d657610100808354040283529160200191610601565b820191906000526020600020905b8154815290600101906020018083116105e457829003601f168201915b5050505050905090565b6000610616826112d7565b610655576040517f08c379a000000000000000000000000000000000000000000000000000000000815260040161064c9061331e565b60405180910390fd5b6004600083815260200190815260200160002060009054906101000a900473ffffffffffffffffffffffffffffffffffffffff169050919050565b600061069b82610a17565b90508073ffffffffffffffffffffffffffffffffffffffff168373ffffffffffffffffffffffffffffffffffffffff16141561070c576040517f08c379a0000000000000000000000000000000000000000000000000000000008152600401610703906133b0565b60405180910390fd5b8073ffffffffffffffffffffffffffffffffffffffff1661072b611343565b73ffffffffffffffffffffffffffffffffffffffff16148061075a575061075981610754611343565b6111c9565b5b610799576040517f08c379a000000000000000000000000000000000000000000000000000000000815260040161079090613442565b60405180910390fd5b6107a3838361134b565b505050565b6000600880549050905090565b6107c66107c0611343565b82611404565b610805576040517f08c379a00000000000000000000000000000000000000000000000000000000081526004016107fc906134d4565b60405180910390fd5b6108108383836114e2565b505050565b6000600a6000838152602001908152602001600020600101549050919050565b61083e82610815565b61084f8161084a611343565b61173e565b61085983836117db565b505050565b600061086983610d70565b82106108aa576040517f08c379a00000000000000000000000000000000000000000000000000000000081526004016108a190613566565b60405180910390fd5b600660008473ffffffffffffffffffffffffffffffffffffffff1673ffffffffffffffffffffffffffffffffffffffff168152602001908152602001600020600083815260200190815260200160002054905092915050565b61090b611343565b73ffffffffffffffffffffffffffffffffffffffff168173ffffffffffffffffffffffffffffffffffffffff1614610978576040517f08c379a000000000000000000000000000000000000000000000000000000000815260040161096f906135f8565b60405180910390fd5b61098282826118bc565b5050565b6109a1838383604051806020016040528060008152506110a6565b505050565b60006109b06107a8565b82106109f1576040517f08c379a00000000000000000000000000000000000000000000000000000000081526004016109e89061368a565b60405180910390fd5b60088281548110610a0557610a046136aa565b5b90600052602060002001549050919050565b6000806002600084815260200190815260200160002060009054906101000a900473ffffffffffffffffffffffffffffffffffffffff169050600073ffffffffffffffffffffffffffffffffffffffff168173ffffffffffffffffffffffffffffffffffffffff161415610ac0576040517f08c379a0000000000000000000000000000000000000000000000000000000008152600401610ab79061374b565b60405180910390fd5b80915050919050565b60007f9f2df0fed2c77648de5860a4cc508cd0818c85b8b8a1ab4ceeef8d981c8956a6610afd81610af8611343565b61173e565b6000610b0884610d70565b14610b48576040517f08c379a0000000000000000000000000000000000000000000000000000000008152600401610b3f906137b7565b60405180910390fd5b610b50612aa4565b6000610b5b8561199e565b9050600881610b6a9190613806565b6001610b769190613866565b826000019060ff16908160ff1681525050600a81610b949190613806565b6001610ba09190613866565b826020019060ff16908160ff1681525050600a81610bbe9190613806565b6001610bca9190613866565b826040019060ff16908160ff1681525050600781610be89190613806565b6001610bf49190613866565b826060019060ff16908160ff1681525050600b81610c129190613806565b6001610c1e9190613866565b826080019060ff16908160ff168152505060008260a0019060ff16908160ff168152505060008260c0019060ff16908160ff1681525050610c5e826119e3565b9350610c6a8585611a3e565b81600c600086815260200190815260200160002060008201518160000160006101000a81548160ff021916908360ff16021790555060208201518160000160016101000a81548160ff021916908360ff16021790555060408201518160000160026101000a81548160ff021916908360ff16021790555060608201518160000160036101000a81548160ff021916908360ff16021790555060808201518160000160046101000a81548160ff021916908360ff16021790555060a08201518160000160056101000a81548160ff021916908360ff16021790555060c08201518160000160066101000a81548160ff021916908360ff160217905550905050505050919050565b60008073ffffffffffffffffffffffffffffffffffffffff168273ffffffffffffffffffffffffffffffffffffffff161415610de1576040517f08c379a0000000000000000000000000000000000000000000000000000000008152600401610dd89061390f565b60405180910390fd5b600360008373ffffffffffffffffffffffffffffffffffffffff1673ffffffffffffffffffffffffffffffffffffffff168152602001908152602001600020549050919050565b7fa49807205ce4d355092ef5a8a18f56e8913cf4a201fbe287825b095693c2177581565b6000600a600084815260200190815260200160002060000160008373ffffffffffffffffffffffffffffffffffffffff1673ffffffffffffffffffffffffffffffffffffffff16815260200190815260200160002060009054906101000a900460ff16905092915050565b610ebf612aa4565b610ec8826112d7565b610f07576040517f08c379a0000000000000000000000000000000000000000000000000000000008152600401610efe9061397b565b60405180910390fd5b600c60008381526020019081526020016000206040518060e00160405290816000820160009054906101000a900460ff1660ff1660ff1681526020016000820160019054906101000a900460ff1660ff1660ff1681526020016000820160029054906101000a900460ff1660ff1660ff1681526020016000820160039054906101000a900460ff1660ff1660ff1681526020016000820160049054906101000a900460ff1660ff1660ff1681526020016000820160059054906101000a900460ff1660ff1660ff1681526020016000820160069054906101000a900460ff1660ff1660ff16815250509050919050565b6060600180546110069061327a565b80601f01602080910402602001604051908101604052809291908181526020018280546110329061327a565b801561107f5780601f106110545761010080835404028352916020019161107f565b820191906000526020600020905b81548152906001019060200180831161106257829003601f168201915b5050505050905090565b6000801b81565b6110a261109b611343565b8383611a5c565b5050565b6110b76110b1611343565b83611404565b6110f6576040517f08c379a00000000000000000000000000000000000000000000000000000000081526004016110ed906134d4565b60405180910390fd5b61110284848484611bc9565b50505050565b6060600061111583611c25565b905060006040518060400160405280600581526020017f2e6a736f6e000000000000000000000000000000000000000000000000000000815250905081816040516020016111649291906139d7565b60405160208183030381529060405292505050919050565b7f9f2df0fed2c77648de5860a4cc508cd0818c85b8b8a1ab4ceeef8d981c8956a681565b6111a982610815565b6111ba816111b5611343565b61173e565b6111c483836118bc565b505050565b6000600560008473ffffffffffffffffffffffffffffffffffffffff1673ffffffffffffffffffffffffffffffffffffffff16815260200190815260200160002060008373ffffffffffffffffffffffffffffffffffffffff1673ffffffffffffffffffffffffffffffffffffffff16815260200190815260200160002060009054906101000a900460ff16905092915050565b60007f7965db0b000000000000000000000000000000000000000000000000000000007bffffffffffffffffffffffffffffffffffffffffffffffffffffffff1916827bffffffffffffffffffffffffffffffffffffffffffffffffffffffff191614806112d057506112cf82611ccc565b5b9050919050565b60008073ffffffffffffffffffffffffffffffffffffffff166002600084815260200190815260200160002060009054906101000a900473ffffffffffffffffffffffffffffffffffffffff1673ffffffffffffffffffffffffffffffffffffffff1614159050919050565b600033905090565b816004600083815260200190815260200160002060006101000a81548173ffffffffffffffffffffffffffffffffffffffff021916908373ffffffffffffffffffffffffffffffffffffffff160217905550808273ffffffffffffffffffffffffffffffffffffffff166113be83610a17565b73ffffffffffffffffffffffffffffffffffffffff167f8c5be1e5ebec7d5bd14f71427d1e84f3dd0314c0f7b2291e5b200ac8c7c3b92560405160405180910390a45050565b600061140f826112d7565b61144e576040517f08c379a000000000000000000000000000000000000000000000000000000000815260040161144590613a6d565b60405180910390fd5b600061145983610a17565b90508073ffffffffffffffffffffffffffffffffffffffff168473ffffffffffffffffffffffffffffffffffffffff1614806114c857508373ffffffffffffffffffffffffffffffffffffffff166114b08461060b565b73ffffffffffffffffffffffffffffffffffffffff16145b806114d957506114d881856111c9565b5b91505092915050565b8273ffffffffffffffffffffffffffffffffffffffff1661150282610a17565b73ffffffffffffffffffffffffffffffffffffffff1614611558576040517f08c379a000000000000000000000000000000000000000000000000000000000815260040161154f90613aff565b60405180910390fd5b600073ffffffffffffffffffffffffffffffffffffffff168273ffffffffffffffffffffffffffffffffffffffff1614156115c8576040517f08c379a00000000000000000000000000000000000000000000000000000000081526004016115bf90613b91565b60405180910390fd5b6115d3838383611d46565b6115de60008261134b565b6001600360008573ffffffffffffffffffffffffffffffffffffffff1673ffffffffffffffffffffffffffffffffffffffff168152602001908152602001600020600082825461162e9190613bb1565b925050819055506001600360008473ffffffffffffffffffffffffffffffffffffffff1673ffffffffffffffffffffffffffffffffffffffff16815260200190815260200160002060008282546116859190613be5565b92505081905550816002600083815260200190815260200160002060006101000a81548173ffffffffffffffffffffffffffffffffffffffff021916908373ffffffffffffffffffffffffffffffffffffffff160217905550808273ffffffffffffffffffffffffffffffffffffffff168473ffffffffffffffffffffffffffffffffffffffff167fddf252ad1be2c89b69c2b068fc378daa952ba7f163c4a11628f55a4df523b3ef60405160405180910390a4505050565b6117488282610e4c565b6117d75761176d8173ffffffffffffffffffffffffffffffffffffffff166014611e5a565b61177b8360001c6020611e5a565b60405160200161178c929190613cd3565b6040516020818303038152906040526040517f08c379a00000000000000000000000000000000000000000000000000000000081526004016117ce9190612c5e565b60405180910390fd5b5050565b6117e58282610e4c565b6118b8576001600a600084815260200190815260200160002060000160008373ffffffffffffffffffffffffffffffffffffffff1673ffffffffffffffffffffffffffffffffffffffff16815260200190815260200160002060006101000a81548160ff02191690831515021790555061185d611343565b73ffffffffffffffffffffffffffffffffffffffff168173ffffffffffffffffffffffffffffffffffffffff16837f2f8788117e7eff1d82e926ec794901d17c78024a50270940304540a733656f0d60405160405180910390a45b5050565b6118c68282610e4c565b1561199a576000600a600084815260200190815260200160002060000160008373ffffffffffffffffffffffffffffffffffffffff1673ffffffffffffffffffffffffffffffffffffffff16815260200190815260200160002060006101000a81548160ff02191690831515021790555061193f611343565b73ffffffffffffffffffffffffffffffffffffffff168173ffffffffffffffffffffffffffffffffffffffff16837ff6391f5c32d9c69d2a47ea670b442974b53935d1edc7fd64eb21e047a839171b60405160405180910390a45b5050565b600060ff80164442846040516020016119b993929190613d76565b6040516020818303038152906040528051906020012060001c6119dc9190613db3565b9050919050565b6000816000015182602001518360400151846060015185608001518660a001518760c00151604051602001611a1e9796959493929190613e1a565b6040516020818303038152906040528051906020012060001c9050919050565b611a58828260405180602001604052806000815250612096565b5050565b8173ffffffffffffffffffffffffffffffffffffffff168373ffffffffffffffffffffffffffffffffffffffff161415611acb576040517f08c379a0000000000000000000000000000000000000000000000000000000008152600401611ac290613ee7565b60405180910390fd5b80600560008573ffffffffffffffffffffffffffffffffffffffff1673ffffffffffffffffffffffffffffffffffffffff16815260200190815260200160002060008473ffffffffffffffffffffffffffffffffffffffff1673ffffffffffffffffffffffffffffffffffffffff16815260200190815260200160002060006101000a81548160ff0219169083151502179055508173ffffffffffffffffffffffffffffffffffffffff168373ffffffffffffffffffffffffffffffffffffffff167f17307eab39ab6107e8899845ad3d59bd9653f200f220920489ca2b5937696c3183604051611bbc9190612baa565b60405180910390a3505050565b611bd48484846114e2565b611be0848484846120f1565b611c1f576040517f08c379a0000000000000000000000000000000000000000000000000000000008152600401611c1690613f79565b60405180910390fd5b50505050565b6060611c30826112d7565b611c6f576040517f08c379a0000000000000000000000000000000000000000000000000000000008152600401611c669061400b565b60405180910390fd5b6000611c79612279565b90506000815111611c995760405180602001604052806000815250611cc4565b80611ca38461230b565b604051602001611cb49291906139d7565b6040516020818303038152906040525b915050919050565b60007f780e9d63000000000000000000000000000000000000000000000000000000007bffffffffffffffffffffffffffffffffffffffffffffffffffffffff1916827bffffffffffffffffffffffffffffffffffffffffffffffffffffffff19161480611d3f5750611d3e8261246c565b5b9050919050565b611d5183838361254e565b600073ffffffffffffffffffffffffffffffffffffffff168373ffffffffffffffffffffffffffffffffffffffff161415611d9457611d8f81612553565b611dd3565b8173ffffffffffffffffffffffffffffffffffffffff168373ffffffffffffffffffffffffffffffffffffffff1614611dd257611dd1838261259c565b5b5b600073ffffffffffffffffffffffffffffffffffffffff168273ffffffffffffffffffffffffffffffffffffffff161415611e1657611e1181612709565b611e55565b8273ffffffffffffffffffffffffffffffffffffffff168273ffffffffffffffffffffffffffffffffffffffff1614611e5457611e5382826127da565b5b5b505050565b606060006002836002611e6d919061402b565b611e779190613be5565b67ffffffffffffffff811115611e9057611e8f61305d565b5b6040519080825280601f01601f191660200182016040528015611ec25781602001600182028036833780820191505090505b5090507f300000000000000000000000000000000000000000000000000000000000000081600081518110611efa57611ef96136aa565b5b60200101907effffffffffffffffffffffffffffffffffffffffffffffffffffffffffffff1916908160001a9053507f780000000000000000000000000000000000000000000000000000000000000081600181518110611f5e57611f5d6136aa565b5b60200101907effffffffffffffffffffffffffffffffffffffffffffffffffffffffffffff1916908160001a90535060006001846002611f9e919061402b565b611fa89190613be5565b90505b6001811115612048577f3031323334353637383961626364656600000000000000000000000000000000600f861660108110611fea57611fe96136aa565b5b1a60f81b828281518110612001576120006136aa565b5b60200101907effffffffffffffffffffffffffffffffffffffffffffffffffffffffffffff1916908160001a905350600485901c94508061204190614085565b9050611fab565b506000841461208c576040517f08c379a0000000000000000000000000000000000000000000000000000000008152600401612083906140fb565b60405180910390fd5b8091505092915050565b6120a08383612859565b6120ad60008484846120f1565b6120ec576040517f08c379a00000000000000000000000000000000000000000000000000000000081526004016120e390613f79565b60405180910390fd5b505050565b60006121128473ffffffffffffffffffffffffffffffffffffffff16612a27565b1561226c578373ffffffffffffffffffffffffffffffffffffffff1663150b7a0261213b611343565b8786866040518563ffffffff1660e01b815260040161215d9493929190614170565b6020604051808303816000875af192505050801561219957506040513d601f19601f8201168201806040525081019061219691906141d1565b60015b61221c573d80600081146121c9576040519150601f19603f3d011682016040523d82523d6000602084013e6121ce565b606091505b50600081511415612214576040517f08c379a000000000000000000000000000000000000000000000000000000000815260040161220b90613f79565b60405180910390fd5b805181602001fd5b63150b7a0260e01b7bffffffffffffffffffffffffffffffffffffffffffffffffffffffff1916817bffffffffffffffffffffffffffffffffffffffffffffffffffffffff191614915050612271565b600190505b949350505050565b6060600b80546122889061327a565b80601f01602080910402602001604051908101604052809291908181526020018280546122b49061327a565b80156123015780601f106122d657610100808354040283529160200191612301565b820191906000526020600020905b8154815290600101906020018083116122e457829003601f168201915b5050505050905090565b60606000821415612353576040518060400160405280600181526020017f30000000000000000000000000000000000000000000000000000000000000008152509050612467565b600082905060005b6000821461238557808061236e906141fe565b915050600a8261237e9190614247565b915061235b565b60008167ffffffffffffffff8111156123a1576123a061305d565b5b6040519080825280601f01601f1916602001820160405280156123d35781602001600182028036833780820191505090505b5090505b60008514612460576001826123ec9190613bb1565b9150600a856123fb9190613db3565b60306124079190613be5565b60f81b81838151811061241d5761241c6136aa565b5b60200101907effffffffffffffffffffffffffffffffffffffffffffffffffffffffffffff1916908160001a905350600a856124599190614247565b94506123d7565b8093505050505b919050565b60007f80ac58cd000000000000000000000000000000000000000000000000000000007bffffffffffffffffffffffffffffffffffffffffffffffffffffffff1916827bffffffffffffffffffffffffffffffffffffffffffffffffffffffff1916148061253757507f5b5e139f000000000000000000000000000000000000000000000000000000007bffffffffffffffffffffffffffffffffffffffffffffffffffffffff1916827bffffffffffffffffffffffffffffffffffffffffffffffffffffffff1916145b80612547575061254682612a3a565b5b9050919050565b505050565b6008805490506009600083815260200190815260200160002081905550600881908060018154018082558091505060019003906000526020600020016000909190919091505550565b600060016125a984610d70565b6125b39190613bb1565b9050600060076000848152602001908152602001600020549050818114612698576000600660008673ffffffffffffffffffffffffffffffffffffffff1673ffffffffffffffffffffffffffffffffffffffff168152602001908152602001600020600084815260200190815260200160002054905080600660008773ffffffffffffffffffffffffffffffffffffffff1673ffffffffffffffffffffffffffffffffffffffff168152602001908152602001600020600084815260200190815260200160002081905550816007600083815260200190815260200160002081905550505b6007600084815260200190815260200160002060009055600660008573ffffffffffffffffffffffffffffffffffffffff1673ffffffffffffffffffffffffffffffffffffffff16815260200190815260200160002060008381526020019081526020016000206000905550505050565b6000600160088054905061271d9190613bb1565b905060006009600084815260200190815260200160002054905060006008838154811061274d5761274c6136aa565b5b90600052602060002001549050806008838154811061276f5761276e6136aa565b5b9060005260206000200181905550816009600083815260200190815260200160002081905550600960008581526020019081526020016000206000905560088054806127be576127bd614278565b5b6001900381819060005260206000200160009055905550505050565b60006127e583610d70565b905081600660008573ffffffffffffffffffffffffffffffffffffffff1673ffffffffffffffffffffffffffffffffffffffff168152602001908152602001600020600083815260200190815260200160002081905550806007600084815260200190815260200160002081905550505050565b600073ffffffffffffffffffffffffffffffffffffffff168273ffffffffffffffffffffffffffffffffffffffff1614156128c9576040517f08c379a00000000000000000000000000000000000000000000000000000000081526004016128c0906142f3565b60405180910390fd5b6128d2816112d7565b15612912576040517f08c379a00000000000000000000000000000000000000000000000000000000081526004016129099061435f565b60405180910390fd5b61291e60008383611d46565b6001600360008473ffffffffffffffffffffffffffffffffffffffff1673ffffffffffffffffffffffffffffffffffffffff168152602001908152602001600020600082825461296e9190613be5565b92505081905550816002600083815260200190815260200160002060006101000a81548173ffffffffffffffffffffffffffffffffffffffff021916908373ffffffffffffffffffffffffffffffffffffffff160217905550808273ffffffffffffffffffffffffffffffffffffffff16600073ffffffffffffffffffffffffffffffffffffffff167fddf252ad1be2c89b69c2b068fc378daa952ba7f163c4a11628f55a4df523b3ef60405160405180910390a45050565b600080823b905060008111915050919050565b60007f01ffc9a7000000000000000000000000000000000000000000000000000000007bffffffffffffffffffffffffffffffffffffffffffffffffffffffff1916827bffffffffffffffffffffffffffffffffffffffffffffffffffffffff1916149050919050565b6040518060e00160405280600060ff168152602001600060ff168152602001600060ff168152602001600060ff168152602001600060ff168152602001600060ff168152602001600060ff1681525090565b6000604051905090565b600080fd5b600080fd5b60007fffffffff0000000000000000000000000000000000000000000000000000000082169050919050565b612b3f81612b0a565b8114612b4a57600080fd5b50565b600081359050612b5c81612b36565b92915050565b600060208284031215612b7857612b77612b00565b5b6000612b8684828501612b4d565b91505092915050565b60008115159050919050565b612ba481612b8f565b82525050565b6000602082019050612bbf6000830184612b9b565b92915050565b600081519050919050565b600082825260208201905092915050565b60005b83811015612bff578082015181840152602081019050612be4565b83811115612c0e576000848401525b50505050565b6000601f19601f8301169050919050565b6000612c3082612bc5565b612c3a8185612bd0565b9350612c4a818560208601612be1565b612c5381612c14565b840191505092915050565b60006020820190508181036000830152612c788184612c25565b905092915050565b6000819050919050565b612c9381612c80565b8114612c9e57600080fd5b50565b600081359050612cb081612c8a565b92915050565b600060208284031215612ccc57612ccb612b00565b5b6000612cda84828501612ca1565b91505092915050565b600073ffffffffffffffffffffffffffffffffffffffff82169050919050565b6000612d0e82612ce3565b9050919050565b612d1e81612d03565b82525050565b6000602082019050612d396000830184612d15565b92915050565b612d4881612d03565b8114612d5357600080fd5b50565b600081359050612d6581612d3f565b92915050565b60008060408385031215612d8257612d81612b00565b5b6000612d9085828601612d56565b9250506020612da185828601612ca1565b9150509250929050565b612db481612c80565b82525050565b6000602082019050612dcf6000830184612dab565b92915050565b600080600060608486031215612dee57612ded612b00565b5b6000612dfc86828701612d56565b9350506020612e0d86828701612d56565b9250506040612e1e86828701612ca1565b9150509250925092565b6000819050919050565b612e3b81612e28565b8114612e4657600080fd5b50565b600081359050612e5881612e32565b92915050565b600060208284031215612e7457612e73612b00565b5b6000612e8284828501612e49565b91505092915050565b612e9481612e28565b82525050565b6000602082019050612eaf6000830184612e8b565b92915050565b60008060408385031215612ecc57612ecb612b00565b5b6000612eda85828601612e49565b9250506020612eeb85828601612d56565b9150509250929050565b600060208284031215612f0b57612f0a612b00565b5b6000612f1984828501612d56565b91505092915050565b600060ff82169050919050565b612f3881612f22565b82525050565b60e082016000820151612f546000850182612f2f565b506020820151612f676020850182612f2f565b506040820151612f7a6040850182612f2f565b506060820151612f8d6060850182612f2f565b506080820151612fa06080850182612f2f565b5060a0820151612fb360a0850182612f2f565b5060c0820151612fc660c0850182612f2f565b50505050565b600060e082019050612fe16000830184612f3e565b92915050565b612ff081612b8f565b8114612ffb57600080fd5b50565b60008135905061300d81612fe7565b92915050565b6000806040838503121561302a57613029612b00565b5b600061303885828601612d56565b925050602061304985828601612ffe565b9150509250929050565b600080fd5b600080fd5b7f4e487b7100000000000000000000000000000000000000000000000000000000600052604160045260246000fd5b61309582612c14565b810181811067ffffffffffffffff821117156130b4576130b361305d565b5b80604052505050565b60006130c7612af6565b90506130d3828261308c565b919050565b600067ffffffffffffffff8211156130f3576130f261305d565b5b6130fc82612c14565b9050602081019050919050565b82818337600083830152505050565b600061312b613126846130d8565b6130bd565b90508281526020810184848401111561314757613146613058565b5b613152848285613109565b509392505050565b600082601f83011261316f5761316e613053565b5b813561317f848260208601613118565b91505092915050565b600080600080608085870312156131a2576131a1612b00565b5b60006131b087828801612d56565b94505060206131c187828801612d56565b93505060406131d287828801612ca1565b925050606085013567ffffffffffffffff8111156131f3576131f2612b05565b5b6131ff8782880161315a565b91505092959194509250565b6000806040838503121561322257613221612b00565b5b600061323085828601612d56565b925050602061324185828601612d56565b9150509250929050565b7f4e487b7100000000000000000000000000000000000000000000000000000000600052602260045260246000fd5b6000600282049050600182168061329257607f821691505b602082108114156132a6576132a561324b565b5b50919050565b7f4552433732313a20617070726f76656420717565727920666f72206e6f6e657860008201527f697374656e7420746f6b656e0000000000000000000000000000000000000000602082015250565b6000613308602c83612bd0565b9150613313826132ac565b604082019050919050565b60006020820190508181036000830152613337816132fb565b9050919050565b7f4552433732313a20617070726f76616c20746f2063757272656e74206f776e6560008201527f7200000000000000000000000000000000000000000000000000000000000000602082015250565b600061339a602183612bd0565b91506133a58261333e565b604082019050919050565b600060208201905081810360008301526133c98161338d565b9050919050565b7f4552433732313a20617070726f76652063616c6c6572206973206e6f74206f7760008201527f6e6572206e6f7220617070726f76656420666f7220616c6c0000000000000000602082015250565b600061342c603883612bd0565b9150613437826133d0565b604082019050919050565b6000602082019050818103600083015261345b8161341f565b9050919050565b7f4552433732313a207472616e736665722063616c6c6572206973206e6f74206f60008201527f776e6572206e6f7220617070726f766564000000000000000000000000000000602082015250565b60006134be603183612bd0565b91506134c982613462565b604082019050919050565b600060208201905081810360008301526134ed816134b1565b9050919050565b7f455243373231456e756d657261626c653a206f776e657220696e646578206f7560008201527f74206f6620626f756e6473000000000000000000000000000000000000000000602082015250565b6000613550602b83612bd0565b915061355b826134f4565b604082019050919050565b6000602082019050818103600083015261357f81613543565b9050919050565b7f416363657373436f6e74726f6c3a2063616e206f6e6c792072656e6f756e636560008201527f20726f6c657320666f722073656c660000000000000000000000000000000000602082015250565b60006135e2602f83612bd0565b91506135ed82613586565b604082019050919050565b60006020820190508181036000830152613611816135d5565b9050919050565b7f455243373231456e756d657261626c653a20676c6f62616c20696e646578206f60008201527f7574206f6620626f756e64730000000000000000000000000000000000000000602082015250565b6000613674602c83612bd0565b915061367f82613618565b604082019050919050565b600060208201905081810360008301526136a381613667565b9050919050565b7f4e487b7100000000000000000000000000000000000000000000000000000000600052603260045260246000fd5b7f4552433732313a206f776e657220717565727920666f72206e6f6e657869737460008201527f656e7420746f6b656e0000000000000000000000000000000000000000000000602082015250565b6000613735602983612bd0565b9150613740826136d9565b604082019050919050565b6000602082019050818103600083015261376481613728565b9050919050565b7f706c6179657220616c7265616479206f776e732061207061776e000000000000600082015250565b60006137a1601a83612bd0565b91506137ac8261376b565b602082019050919050565b600060208201905081810360008301526137d081613794565b9050919050565b7f4e487b7100000000000000000000000000000000000000000000000000000000600052601260045260246000fd5b600061381182612f22565b915061381c83612f22565b92508261382c5761382b6137d7565b5b828206905092915050565b7f4e487b7100000000000000000000000000000000000000000000000000000000600052601160045260246000fd5b600061387182612f22565b915061387c83612f22565b92508260ff0382111561389257613891613837565b5b828201905092915050565b7f4552433732313a2062616c616e636520717565727920666f7220746865207a6560008201527f726f206164647265737300000000000000000000000000000000000000000000602082015250565b60006138f9602a83612bd0565b91506139048261389d565b604082019050919050565b60006020820190508181036000830152613928816138ec565b9050919050565b7f54686973207061776e20646f6573206e6f742065786973740000000000000000600082015250565b6000613965601883612bd0565b91506139708261392f565b602082019050919050565b6000602082019050818103600083015261399481613958565b9050919050565b600081905092915050565b60006139b182612bc5565b6139bb818561399b565b93506139cb818560208601612be1565b80840191505092915050565b60006139e382856139a6565b91506139ef82846139a6565b91508190509392505050565b7f4552433732313a206f70657261746f7220717565727920666f72206e6f6e657860008201527f697374656e7420746f6b656e0000000000000000000000000000000000000000602082015250565b6000613a57602c83612bd0565b9150613a62826139fb565b604082019050919050565b60006020820190508181036000830152613a8681613a4a565b9050919050565b7f4552433732313a207472616e73666572206f6620746f6b656e2074686174206960008201527f73206e6f74206f776e0000000000000000000000000000000000000000000000602082015250565b6000613ae9602983612bd0565b9150613af482613a8d565b604082019050919050565b60006020820190508181036000830152613b1881613adc565b9050919050565b7f4552433732313a207472616e7366657220746f20746865207a65726f2061646460008201527f7265737300000000000000000000000000000000000000000000000000000000602082015250565b6000613b7b602483612bd0565b9150613b8682613b1f565b604082019050919050565b60006020820190508181036000830152613baa81613b6e565b9050919050565b6000613bbc82612c80565b9150613bc783612c80565b925082821015613bda57613bd9613837565b5b828203905092915050565b6000613bf082612c80565b9150613bfb83612c80565b9250827fffffffffffffffffffffffffffffffffffffffffffffffffffffffffffffffff03821115613c3057613c2f613837565b5b828201905092915050565b7f416363657373436f6e74726f6c3a206163636f756e7420000000000000000000600082015250565b6000613c7160178361399b565b9150613c7c82613c3b565b601782019050919050565b7f206973206d697373696e6720726f6c6520000000000000000000000000000000600082015250565b6000613cbd60118361399b565b9150613cc882613c87565b601182019050919050565b6000613cde82613c64565b9150613cea82856139a6565b9150613cf582613cb0565b9150613d0182846139a6565b91508190509392505050565b6000819050919050565b613d28613d2382612c80565b613d0d565b82525050565b60008160601b9050919050565b6000613d4682613d2e565b9050919050565b6000613d5882613d3b565b9050919050565b613d70613d6b82612d03565b613d4d565b82525050565b6000613d828286613d17565b602082019150613d928285613d17565b602082019150613da28284613d5f565b601482019150819050949350505050565b6000613dbe82612c80565b9150613dc983612c80565b925082613dd957613dd86137d7565b5b828206905092915050565b60008160f81b9050919050565b6000613dfc82613de4565b9050919050565b613e14613e0f82612f22565b613df1565b82525050565b6000613e26828a613e03565b600182019150613e368289613e03565b600182019150613e468288613e03565b600182019150613e568287613e03565b600182019150613e668286613e03565b600182019150613e768285613e03565b600182019150613e868284613e03565b60018201915081905098975050505050505050565b7f4552433732313a20617070726f766520746f2063616c6c657200000000000000600082015250565b6000613ed1601983612bd0565b9150613edc82613e9b565b602082019050919050565b60006020820190508181036000830152613f0081613ec4565b9050919050565b7f4552433732313a207472616e7366657220746f206e6f6e20455243373231526560008201527f63656976657220696d706c656d656e7465720000000000000000000000000000602082015250565b6000613f63603283612bd0565b9150613f6e82613f07565b604082019050919050565b60006020820190508181036000830152613f9281613f56565b9050919050565b7f4552433732314d657461646174613a2055524920717565727920666f72206e6f60008201527f6e6578697374656e7420746f6b656e0000000000000000000000000000000000602082015250565b6000613ff5602f83612bd0565b915061400082613f99565b604082019050919050565b6000602082019050818103600083015261402481613fe8565b9050919050565b600061403682612c80565b915061404183612c80565b9250817fffffffffffffffffffffffffffffffffffffffffffffffffffffffffffffffff048311821515161561407a57614079613837565b5b828202905092915050565b600061409082612c80565b915060008214156140a4576140a3613837565b5b600182039050919050565b7f537472696e67733a20686578206c656e67746820696e73756666696369656e74600082015250565b60006140e5602083612bd0565b91506140f0826140af565b602082019050919050565b60006020820190508181036000830152614114816140d8565b9050919050565b600081519050919050565b600082825260208201905092915050565b60006141428261411b565b61414c8185614126565b935061415c818560208601612be1565b61416581612c14565b840191505092915050565b60006080820190506141856000830187612d15565b6141926020830186612d15565b61419f6040830185612dab565b81810360608301526141b18184614137565b905095945050505050565b6000815190506141cb81612b36565b92915050565b6000602082840312156141e7576141e6612b00565b5b60006141f5848285016141bc565b91505092915050565b600061420982612c80565b91507fffffffffffffffffffffffffffffffffffffffffffffffffffffffffffffffff82141561423c5761423b613837565b5b600182019050919050565b600061425282612c80565b915061425d83612c80565b92508261426d5761426c6137d7565b5b828204905092915050565b7f4e487b7100000000000000000000000000000000000000000000000000000000600052603160045260246000fd5b7f4552433732313a206d696e7420746f20746865207a65726f2061646472657373600082015250565b60006142dd602083612bd0565b91506142e8826142a7565b602082019050919050565b6000602082019050818103600083015261430c816142d0565b9050919050565b7f4552433732313a20746f6b656e20616c7265616479206d696e74656400000000600082015250565b6000614349601c83612bd0565b915061435482614313565b602082019050919050565b600060208201905081810360008301526143788161433c565b905091905056fea2646970667358221220b0f196e6678a6b0342b27d255e719a705fe309ce695c1a107f60bbd8f64aede464736f6c634300080a0033",
  "immutableReferences": {},
  "source": "// Pawn.sol\r\n// SPDX-License-Identifier: MIT\r\npragma solidity 0.8.10;\r\n\r\nimport \"@openzeppelin/contracts/access/AccessControl.sol\";\r\nimport \"@openzeppelin/contracts/token/ERC721/extensions/ERC721Enumerable.sol\";\r\n\r\ncontract PawnContract is ERC721Enumerable, AccessControl {\r\n\tbytes32 public constant ADMIN_ROLE = keccak256(\"ADMIN_ROLE\");\r\n\tbytes32 public constant MINTER_ROLE = keccak256(\"MINTER_ROLE\");\r\n\r\n\tstring private baseTokenURI;\r\n\r\n\tstruct PawnStruct {\r\n\t\tuint8 subject; /* car, thimble, hat, ship, shoe, wheelbarrow, dog, cat */\r\n\t\tuint8 background; /* blanc, noir, bleu, rouge, vert, jaune, bleu clair, violet, arc-en-ciel */\r\n\t\tuint8 material; /* carton, bois, plastique, cuivre, plomb, tain, argent, palladium, platine, or */\r\n\t\tuint8 halo; /* aucun, bleu lectrique, jaune solaire, pure blanc, vert plasma, psycho arc-en-ciel, fusion flou */\r\n\t\tuint8 power; /* aucun, monopole, anarchiste, politicien, avocat, juge, banquier, mdias, startuper, star, CEO */\r\n\t\tuint8 level;\r\n\t\tuint8 xp;\r\n\t}\r\n\r\n\tmapping(uint256 => PawnStruct) private pawns;\r\n\r\n\tconstructor(\r\n\t\tstring memory _name,\r\n\t\tstring memory _symbol,\r\n\t\tstring memory _baseTokenURI\r\n\t) ERC721(_name, _symbol) {\r\n\t\tbaseTokenURI = _baseTokenURI;\r\n\r\n\t\t_setupRole(ADMIN_ROLE, msg.sender);\r\n\t\t_setRoleAdmin(ADMIN_ROLE, ADMIN_ROLE);\r\n\t\t_setupRole(MINTER_ROLE, msg.sender);\r\n\t\t_setRoleAdmin(MINTER_ROLE, ADMIN_ROLE);\r\n\t}\r\n\r\n\tfunction _baseURI() internal view override returns (string memory) {\r\n\t\treturn baseTokenURI;\r\n\t}\r\n\r\n\tfunction tokenURI(uint256 _id) public view override returns (string memory) {\r\n\t\tstring memory uri = super.tokenURI(_id);\r\n\r\n\t\tstring memory ext = \".json\";\r\n\r\n\t\treturn string(abi.encodePacked(uri, ext));\r\n\t}\r\n\r\n\tfunction mint(address _to) external onlyRole(MINTER_ROLE) returns (uint256 id_) {\r\n\t\trequire(balanceOf(_to) == 0, \"player already owns a pawn\");\r\n\r\n\t\tPawnStruct memory p;\r\n\t\tuint8 r = random(_to);\r\n\t\tp.subject = 1 + (r % 8);\r\n\t\tp.background = 1 + (r % 10);\r\n\t\tp.material = 1 + (r % 10);\r\n\t\tp.halo = 1 + (r % 7);\r\n\t\tp.power = 1 + (r % 11);\r\n\t\tp.level = 0;\r\n\t\tp.xp = 0;\r\n\r\n\t\tid_ = generateID(p);\r\n\r\n\t\t_safeMint(_to, id_);\r\n\r\n\t\tpawns[id_] = p;\r\n\t}\r\n\r\n\tfunction supportsInterface(bytes4 _interfaceId)\r\n\t\tpublic\r\n\t\tview\r\n\t\toverride(ERC721Enumerable, AccessControl)\r\n\t\treturns (bool)\r\n\t{\r\n\t\treturn super.supportsInterface(_interfaceId);\r\n\t}\r\n\r\n\tfunction get(uint256 _id) public view returns (PawnStruct memory p_) {\r\n\t\trequire(_exists(_id), \"This pawn does not exist\");\r\n\r\n\t\tp_ = pawns[_id];\r\n\t}\r\n\r\n\tfunction generateID(PawnStruct memory _p) internal pure returns (uint256 id_) {\r\n\t\treturn\r\n\t\t\tuint256(\r\n\t\t\t\tkeccak256(abi.encodePacked(_p.subject, _p.background, _p.material, _p.halo, _p.power, _p.level, _p.xp))\r\n\t\t\t);\r\n\t}\r\n\r\n\t/// @dev pseudo-random function\r\n\t/// @return a random value in between [0, type(uint8).max]\r\n\tfunction random(address user) internal view returns (uint8) {\r\n\t\treturn uint8(uint256(keccak256(abi.encodePacked(block.difficulty, block.timestamp, user))) % type(uint8).max);\r\n\t}\r\n}\r\n",
  "sourcePath": "C:\\Users\\aaast\\Alyra\\mnp-trufflebox\\contracts\\Pawn.sol",
  "compiler": {
    "name": "solc",
    "version": "0.8.10+commit.fc410830.Emscripten.clang"
  },
  "schemaVersion": "3.4.3",
  "updatedAt": "2022-01-18T11:31:02.200Z",
  "networkType": "ethereum",
  "devdoc": {
    "kind": "dev",
    "methods": {
      "approve(address,uint256)": {
        "details": "See {IERC721-approve}."
      },
      "balanceOf(address)": {
        "details": "See {IERC721-balanceOf}."
      },
      "getApproved(uint256)": {
        "details": "See {IERC721-getApproved}."
      },
      "getRoleAdmin(bytes32)": {
        "details": "Returns the admin role that controls `role`. See {grantRole} and {revokeRole}. To change a role's admin, use {_setRoleAdmin}."
      },
      "grantRole(bytes32,address)": {
        "details": "Grants `role` to `account`. If `account` had not been already granted `role`, emits a {RoleGranted} event. Requirements: - the caller must have ``role``'s admin role."
      },
      "hasRole(bytes32,address)": {
        "details": "Returns `true` if `account` has been granted `role`."
      },
      "isApprovedForAll(address,address)": {
        "details": "See {IERC721-isApprovedForAll}."
      },
      "name()": {
        "details": "See {IERC721Metadata-name}."
      },
      "ownerOf(uint256)": {
        "details": "See {IERC721-ownerOf}."
      },
      "renounceRole(bytes32,address)": {
        "details": "Revokes `role` from the calling account. Roles are often managed via {grantRole} and {revokeRole}: this function's purpose is to provide a mechanism for accounts to lose their privileges if they are compromised (such as when a trusted device is misplaced). If the calling account had been revoked `role`, emits a {RoleRevoked} event. Requirements: - the caller must be `account`."
      },
      "revokeRole(bytes32,address)": {
        "details": "Revokes `role` from `account`. If `account` had been granted `role`, emits a {RoleRevoked} event. Requirements: - the caller must have ``role``'s admin role."
      },
      "safeTransferFrom(address,address,uint256)": {
        "details": "See {IERC721-safeTransferFrom}."
      },
      "safeTransferFrom(address,address,uint256,bytes)": {
        "details": "See {IERC721-safeTransferFrom}."
      },
      "setApprovalForAll(address,bool)": {
        "details": "See {IERC721-setApprovalForAll}."
      },
      "symbol()": {
        "details": "See {IERC721Metadata-symbol}."
      },
      "tokenByIndex(uint256)": {
        "details": "See {IERC721Enumerable-tokenByIndex}."
      },
      "tokenOfOwnerByIndex(address,uint256)": {
        "details": "See {IERC721Enumerable-tokenOfOwnerByIndex}."
      },
      "totalSupply()": {
        "details": "See {IERC721Enumerable-totalSupply}."
      },
      "transferFrom(address,address,uint256)": {
        "details": "See {IERC721-transferFrom}."
      }
    },
    "version": 1
  },
  "userdoc": {
    "kind": "user",
    "methods": {},
    "version": 1
  }
}