{
  "contractName": "PropContract",
  "abi": [
    {
      "inputs": [
        {
          "internalType": "address",
          "name": "BoardAddress",
          "type": "address"
        },
        {
          "internalType": "string",
          "name": "_name",
          "type": "string"
        },
        {
          "internalType": "string",
          "name": "_symbol",
          "type": "string"
        },
        {
          "internalType": "string",
          "name": "_baseTokenURI",
          "type": "string"
        }
      ],
      "stateMutability": "nonpayable",
      "type": "constructor"
    },
    {
      "anonymous": false,
      "inputs": [
        {
          "indexed": true,
          "internalType": "address",
          "name": "owner",
          "type": "address"
        },
        {
          "indexed": true,
          "internalType": "address",
          "name": "approved",
          "type": "address"
        },
        {
          "indexed": true,
          "internalType": "uint256",
          "name": "tokenId",
          "type": "uint256"
        }
      ],
      "name": "Approval",
      "type": "event"
    },
    {
      "anonymous": false,
      "inputs": [
        {
          "indexed": true,
          "internalType": "address",
          "name": "owner",
          "type": "address"
        },
        {
          "indexed": true,
          "internalType": "address",
          "name": "operator",
          "type": "address"
        },
        {
          "indexed": false,
          "internalType": "bool",
          "name": "approved",
          "type": "bool"
        }
      ],
      "name": "ApprovalForAll",
      "type": "event"
    },
    {
      "anonymous": false,
      "inputs": [
        {
          "indexed": true,
          "internalType": "address",
          "name": "previousOwner",
          "type": "address"
        },
        {
          "indexed": true,
          "internalType": "address",
          "name": "newOwner",
          "type": "address"
        }
      ],
      "name": "OwnershipTransferred",
      "type": "event"
    },
    {
      "anonymous": false,
      "inputs": [
        {
          "indexed": true,
          "internalType": "bytes32",
          "name": "role",
          "type": "bytes32"
        },
        {
          "indexed": true,
          "internalType": "bytes32",
          "name": "previousAdminRole",
          "type": "bytes32"
        },
        {
          "indexed": true,
          "internalType": "bytes32",
          "name": "newAdminRole",
          "type": "bytes32"
        }
      ],
      "name": "RoleAdminChanged",
      "type": "event"
    },
    {
      "anonymous": false,
      "inputs": [
        {
          "indexed": true,
          "internalType": "bytes32",
          "name": "role",
          "type": "bytes32"
        },
        {
          "indexed": true,
          "internalType": "address",
          "name": "account",
          "type": "address"
        },
        {
          "indexed": true,
          "internalType": "address",
          "name": "sender",
          "type": "address"
        }
      ],
      "name": "RoleGranted",
      "type": "event"
    },
    {
      "anonymous": false,
      "inputs": [
        {
          "indexed": true,
          "internalType": "bytes32",
          "name": "role",
          "type": "bytes32"
        },
        {
          "indexed": true,
          "internalType": "address",
          "name": "account",
          "type": "address"
        },
        {
          "indexed": true,
          "internalType": "address",
          "name": "sender",
          "type": "address"
        }
      ],
      "name": "RoleRevoked",
      "type": "event"
    },
    {
      "anonymous": false,
      "inputs": [
        {
          "indexed": false,
          "internalType": "uint256",
          "name": "tokenId",
          "type": "uint256"
        },
        {
          "indexed": false,
          "internalType": "uint256",
          "name": "royaltyPercentageBasisPoints",
          "type": "uint256"
        }
      ],
      "name": "RoyaltySet",
      "type": "event"
    },
    {
      "anonymous": false,
      "inputs": [
        {
          "indexed": true,
          "internalType": "address",
          "name": "from",
          "type": "address"
        },
        {
          "indexed": true,
          "internalType": "address",
          "name": "to",
          "type": "address"
        },
        {
          "indexed": true,
          "internalType": "uint256",
          "name": "tokenId",
          "type": "uint256"
        }
      ],
      "name": "Transfer",
      "type": "event"
    },
    {
      "inputs": [],
      "name": "ADMIN_ROLE",
      "outputs": [
        {
          "internalType": "bytes32",
          "name": "",
          "type": "bytes32"
        }
      ],
      "stateMutability": "view",
      "type": "function",
      "constant": true
    },
    {
      "inputs": [],
      "name": "DEFAULT_ADMIN_ROLE",
      "outputs": [
        {
          "internalType": "bytes32",
          "name": "",
          "type": "bytes32"
        }
      ],
      "stateMutability": "view",
      "type": "function",
      "constant": true
    },
    {
      "inputs": [],
      "name": "MINTER_ROLE",
      "outputs": [
        {
          "internalType": "bytes32",
          "name": "",
          "type": "bytes32"
        }
      ],
      "stateMutability": "view",
      "type": "function",
      "constant": true
    },
    {
      "inputs": [
        {
          "internalType": "address",
          "name": "to",
          "type": "address"
        },
        {
          "internalType": "uint256",
          "name": "tokenId",
          "type": "uint256"
        }
      ],
      "name": "approve",
      "outputs": [],
      "stateMutability": "nonpayable",
      "type": "function"
    },
    {
      "inputs": [
        {
          "internalType": "address",
          "name": "owner",
          "type": "address"
        }
      ],
      "name": "balanceOf",
      "outputs": [
        {
          "internalType": "uint256",
          "name": "",
          "type": "uint256"
        }
      ],
      "stateMutability": "view",
      "type": "function",
      "constant": true
    },
    {
      "inputs": [],
      "name": "defaultRoyaltyPercentageBasisPoints",
      "outputs": [
        {
          "internalType": "uint96",
          "name": "",
          "type": "uint96"
        }
      ],
      "stateMutability": "view",
      "type": "function",
      "constant": true
    },
    {
      "inputs": [
        {
          "internalType": "uint256",
          "name": "tokenId",
          "type": "uint256"
        }
      ],
      "name": "getApproved",
      "outputs": [
        {
          "internalType": "address",
          "name": "",
          "type": "address"
        }
      ],
      "stateMutability": "view",
      "type": "function",
      "constant": true
    },
    {
      "inputs": [
        {
          "internalType": "bytes32",
          "name": "role",
          "type": "bytes32"
        }
      ],
      "name": "getRoleAdmin",
      "outputs": [
        {
          "internalType": "bytes32",
          "name": "",
          "type": "bytes32"
        }
      ],
      "stateMutability": "view",
      "type": "function",
      "constant": true
    },
    {
      "inputs": [
        {
          "internalType": "bytes32",
          "name": "role",
          "type": "bytes32"
        },
        {
          "internalType": "address",
          "name": "account",
          "type": "address"
        }
      ],
      "name": "grantRole",
      "outputs": [],
      "stateMutability": "nonpayable",
      "type": "function"
    },
    {
      "inputs": [
        {
          "internalType": "bytes32",
          "name": "role",
          "type": "bytes32"
        },
        {
          "internalType": "address",
          "name": "account",
          "type": "address"
        }
      ],
      "name": "hasRole",
      "outputs": [
        {
          "internalType": "bool",
          "name": "",
          "type": "bool"
        }
      ],
      "stateMutability": "view",
      "type": "function",
      "constant": true
    },
    {
      "inputs": [
        {
          "internalType": "address",
          "name": "",
          "type": "address"
        }
      ],
      "name": "isOperatorAllowed",
      "outputs": [
        {
          "internalType": "bool",
          "name": "",
          "type": "bool"
        }
      ],
      "stateMutability": "view",
      "type": "function",
      "constant": true
    },
    {
      "inputs": [],
      "name": "name",
      "outputs": [
        {
          "internalType": "string",
          "name": "",
          "type": "string"
        }
      ],
      "stateMutability": "view",
      "type": "function",
      "constant": true
    },
    {
      "inputs": [],
      "name": "owner",
      "outputs": [
        {
          "internalType": "address",
          "name": "",
          "type": "address"
        }
      ],
      "stateMutability": "view",
      "type": "function",
      "constant": true
    },
    {
      "inputs": [
        {
          "internalType": "uint256",
          "name": "tokenId",
          "type": "uint256"
        }
      ],
      "name": "ownerOf",
      "outputs": [
        {
          "internalType": "address",
          "name": "",
          "type": "address"
        }
      ],
      "stateMutability": "view",
      "type": "function",
      "constant": true
    },
    {
      "inputs": [],
      "name": "renounceOwnership",
      "outputs": [],
      "stateMutability": "nonpayable",
      "type": "function"
    },
    {
      "inputs": [
        {
          "internalType": "bytes32",
          "name": "role",
          "type": "bytes32"
        },
        {
          "internalType": "address",
          "name": "account",
          "type": "address"
        }
      ],
      "name": "renounceRole",
      "outputs": [],
      "stateMutability": "nonpayable",
      "type": "function"
    },
    {
      "inputs": [
        {
          "internalType": "bytes32",
          "name": "role",
          "type": "bytes32"
        },
        {
          "internalType": "address",
          "name": "account",
          "type": "address"
        }
      ],
      "name": "revokeRole",
      "outputs": [],
      "stateMutability": "nonpayable",
      "type": "function"
    },
    {
      "inputs": [
        {
          "internalType": "address",
          "name": "from",
          "type": "address"
        },
        {
          "internalType": "address",
          "name": "to",
          "type": "address"
        },
        {
          "internalType": "uint256",
          "name": "tokenId",
          "type": "uint256"
        }
      ],
      "name": "safeTransferFrom",
      "outputs": [],
      "stateMutability": "nonpayable",
      "type": "function"
    },
    {
      "inputs": [
        {
          "internalType": "address",
          "name": "from",
          "type": "address"
        },
        {
          "internalType": "address",
          "name": "to",
          "type": "address"
        },
        {
          "internalType": "uint256",
          "name": "tokenId",
          "type": "uint256"
        },
        {
          "internalType": "bytes",
          "name": "_data",
          "type": "bytes"
        }
      ],
      "name": "safeTransferFrom",
      "outputs": [],
      "stateMutability": "nonpayable",
      "type": "function"
    },
    {
      "inputs": [
        {
          "internalType": "address",
          "name": "operator",
          "type": "address"
        },
        {
          "internalType": "bool",
          "name": "approved",
          "type": "bool"
        }
      ],
      "name": "setApprovalForAll",
      "outputs": [],
      "stateMutability": "nonpayable",
      "type": "function"
    },
    {
      "inputs": [],
      "name": "symbol",
      "outputs": [
        {
          "internalType": "string",
          "name": "",
          "type": "string"
        }
      ],
      "stateMutability": "view",
      "type": "function",
      "constant": true
    },
    {
      "inputs": [
        {
          "internalType": "uint256",
          "name": "index",
          "type": "uint256"
        }
      ],
      "name": "tokenByIndex",
      "outputs": [
        {
          "internalType": "uint256",
          "name": "",
          "type": "uint256"
        }
      ],
      "stateMutability": "view",
      "type": "function",
      "constant": true
    },
    {
      "inputs": [
        {
          "internalType": "address",
          "name": "owner",
          "type": "address"
        },
        {
          "internalType": "uint256",
          "name": "index",
          "type": "uint256"
        }
      ],
      "name": "tokenOfOwnerByIndex",
      "outputs": [
        {
          "internalType": "uint256",
          "name": "",
          "type": "uint256"
        }
      ],
      "stateMutability": "view",
      "type": "function",
      "constant": true
    },
    {
      "inputs": [],
      "name": "totalSupply",
      "outputs": [
        {
          "internalType": "uint256",
          "name": "",
          "type": "uint256"
        }
      ],
      "stateMutability": "view",
      "type": "function",
      "constant": true
    },
    {
      "inputs": [
        {
          "internalType": "address",
          "name": "from",
          "type": "address"
        },
        {
          "internalType": "address",
          "name": "to",
          "type": "address"
        },
        {
          "internalType": "uint256",
          "name": "tokenId",
          "type": "uint256"
        }
      ],
      "name": "transferFrom",
      "outputs": [],
      "stateMutability": "nonpayable",
      "type": "function"
    },
    {
      "inputs": [
        {
          "internalType": "address",
          "name": "newOwner",
          "type": "address"
        }
      ],
      "name": "transferOwnership",
      "outputs": [],
      "stateMutability": "nonpayable",
      "type": "function"
    },
    {
      "inputs": [
        {
          "internalType": "uint16",
          "name": "edition",
          "type": "uint16"
        },
        {
          "internalType": "uint8",
          "name": "land",
          "type": "uint8"
        },
        {
          "internalType": "uint8",
          "name": "rarity",
          "type": "uint8"
        }
      ],
      "name": "isValidProp",
      "outputs": [
        {
          "internalType": "bool",
          "name": "",
          "type": "bool"
        }
      ],
      "stateMutability": "view",
      "type": "function",
      "constant": true
    },
    {
      "inputs": [
        {
          "internalType": "uint256",
          "name": "_id",
          "type": "uint256"
        }
      ],
      "name": "tokenURI",
      "outputs": [
        {
          "internalType": "string",
          "name": "",
          "type": "string"
        }
      ],
      "stateMutability": "view",
      "type": "function",
      "constant": true
    },
    {
      "inputs": [
        {
          "internalType": "address",
          "name": "_to",
          "type": "address"
        },
        {
          "internalType": "uint16",
          "name": "_edition",
          "type": "uint16"
        },
        {
          "internalType": "uint8",
          "name": "_land",
          "type": "uint8"
        },
        {
          "internalType": "uint8",
          "name": "_rarity",
          "type": "uint8"
        }
      ],
      "name": "mint",
      "outputs": [
        {
          "internalType": "uint256",
          "name": "id_",
          "type": "uint256"
        }
      ],
      "stateMutability": "nonpayable",
      "type": "function"
    },
    {
      "inputs": [
        {
          "internalType": "uint256",
          "name": "_id",
          "type": "uint256"
        }
      ],
      "name": "get",
      "outputs": [
        {
          "components": [
            {
              "internalType": "uint16",
              "name": "edition",
              "type": "uint16"
            },
            {
              "internalType": "uint8",
              "name": "land",
              "type": "uint8"
            },
            {
              "internalType": "uint8",
              "name": "rarity",
              "type": "uint8"
            },
            {
              "internalType": "uint32",
              "name": "serial",
              "type": "uint32"
            }
          ],
          "internalType": "struct PropContract.Property",
          "name": "p_",
          "type": "tuple"
        }
      ],
      "stateMutability": "view",
      "type": "function",
      "constant": true
    },
    {
      "inputs": [
        {
          "internalType": "uint256",
          "name": "_id",
          "type": "uint256"
        }
      ],
      "name": "exists",
      "outputs": [
        {
          "internalType": "bool",
          "name": "",
          "type": "bool"
        }
      ],
      "stateMutability": "view",
      "type": "function",
      "constant": true
    },
    {
      "inputs": [
        {
          "internalType": "uint16",
          "name": "_edition",
          "type": "uint16"
        },
        {
          "internalType": "uint8",
          "name": "_land",
          "type": "uint8"
        },
        {
          "internalType": "uint8",
          "name": "_rarity",
          "type": "uint8"
        }
      ],
      "name": "getNbOfProps",
      "outputs": [
        {
          "internalType": "uint32",
          "name": "amount_",
          "type": "uint32"
        }
      ],
      "stateMutability": "view",
      "type": "function",
      "constant": true
    },
    {
      "inputs": [
        {
          "internalType": "bytes4",
          "name": "_interfaceId",
          "type": "bytes4"
        }
      ],
      "name": "supportsInterface",
      "outputs": [
        {
          "internalType": "bool",
          "name": "",
          "type": "bool"
        }
      ],
      "stateMutability": "view",
      "type": "function",
      "constant": true
    },
    {
      "inputs": [
        {
          "internalType": "uint96",
          "name": "_percentageBasisPoints",
          "type": "uint96"
        }
      ],
      "name": "setDefaultRoyaltyPercentageBasisPoints",
      "outputs": [],
      "stateMutability": "nonpayable",
      "type": "function"
    },
    {
      "inputs": [
        {
          "internalType": "uint256",
          "name": "_tokenId",
          "type": "uint256"
        },
        {
          "internalType": "uint96",
          "name": "_percentageBasisPoints",
          "type": "uint96"
        }
      ],
      "name": "setRoyalties",
      "outputs": [],
      "stateMutability": "nonpayable",
      "type": "function"
    },
    {
      "inputs": [
        {
          "internalType": "uint256",
          "name": "_tokenId",
          "type": "uint256"
        },
        {
          "internalType": "uint256",
          "name": "_salePrice",
          "type": "uint256"
        }
      ],
      "name": "royaltyInfo",
      "outputs": [
        {
          "internalType": "address",
          "name": "receiver",
          "type": "address"
        },
        {
          "internalType": "uint256",
          "name": "royaltyAmount",
          "type": "uint256"
        }
      ],
      "stateMutability": "view",
      "type": "function",
      "constant": true
    },
    {
      "inputs": [
        {
          "internalType": "address",
          "name": "_owner",
          "type": "address"
        },
        {
          "internalType": "address",
          "name": "_operator",
          "type": "address"
        }
      ],
      "name": "isApprovedForAll",
      "outputs": [
        {
          "internalType": "bool",
          "name": "",
          "type": "bool"
        }
      ],
      "stateMutability": "view",
      "type": "function",
      "constant": true
    },
    {
      "inputs": [
        {
          "internalType": "address",
          "name": "_address",
          "type": "address"
        },
        {
          "internalType": "bool",
          "name": "value",
          "type": "bool"
        }
      ],
      "name": "setIsOperatorAllowed",
      "outputs": [],
      "stateMutability": "nonpayable",
      "type": "function"
    }
  ],
  "bytecode": "0x60a06040526101f4601160006101000a8154816bffffffffffffffffffffffff02191690836bffffffffffffffffffffffff1602179055503480156200004457600080fd5b5060405162005e9d38038062005e9d83398181016040528101906200006a919062000776565b8282816000908051906020019062000084929190620004c4565b5080600190805190602001906200009d929190620004c4565b505050620000c0620000b4620001ff60201b60201c565b6200020760201b60201c565b8060109080519060200190620000d8929190620004c4565b506200010b7fa49807205ce4d355092ef5a8a18f56e8913cf4a201fbe287825b095693c2177533620002cd60201b60201c565b6200013d7fa49807205ce4d355092ef5a8a18f56e8913cf4a201fbe287825b095693c2177580620002e360201b60201c565b6200016f7f9f2df0fed2c77648de5860a4cc508cd0818c85b8b8a1ab4ceeef8d981c8956a633620002cd60201b60201c565b620001c17f9f2df0fed2c77648de5860a4cc508cd0818c85b8b8a1ab4ceeef8d981c8956a67fa49807205ce4d355092ef5a8a18f56e8913cf4a201fbe287825b095693c21775620002e360201b60201c565b8373ffffffffffffffffffffffffffffffffffffffff1660808173ffffffffffffffffffffffffffffffffffffffff168152505050505050620008aa565b600033905090565b6000600b60009054906101000a900473ffffffffffffffffffffffffffffffffffffffff16905081600b60006101000a81548173ffffffffffffffffffffffffffffffffffffffff021916908373ffffffffffffffffffffffffffffffffffffffff1602179055508173ffffffffffffffffffffffffffffffffffffffff168173ffffffffffffffffffffffffffffffffffffffff167f8be0079c531659141344cd1fd0a4f28419497f9722a3daafe3b4186f6b6457e060405160405180910390a35050565b620002df82826200034760201b60201c565b5050565b6000620002f6836200043960201b60201c565b905081600a6000858152602001908152602001600020600101819055508181847fbd79b86ffe0ab8e8776151514217cd7cacd52c909f66475c3af44e129f0b00ff60405160405180910390a4505050565b6200035982826200045960201b60201c565b62000435576001600a600084815260200190815260200160002060000160008373ffffffffffffffffffffffffffffffffffffffff1673ffffffffffffffffffffffffffffffffffffffff16815260200190815260200160002060006101000a81548160ff021916908315150217905550620003da620001ff60201b60201c565b73ffffffffffffffffffffffffffffffffffffffff168173ffffffffffffffffffffffffffffffffffffffff16837f2f8788117e7eff1d82e926ec794901d17c78024a50270940304540a733656f0d60405160405180910390a45b5050565b6000600a6000838152602001908152602001600020600101549050919050565b6000600a600084815260200190815260200160002060000160008373ffffffffffffffffffffffffffffffffffffffff1673ffffffffffffffffffffffffffffffffffffffff16815260200190815260200160002060009054906101000a900460ff16905092915050565b828054620004d29062000874565b90600052602060002090601f016020900481019282620004f6576000855562000542565b82601f106200051157805160ff191683800117855562000542565b8280016001018555821562000542579182015b828111156200054157825182559160200191906001019062000524565b5b50905062000551919062000555565b5090565b5b808211156200057057600081600090555060010162000556565b5090565b6000604051905090565b600080fd5b600080fd5b600073ffffffffffffffffffffffffffffffffffffffff82169050919050565b6000620005b58262000588565b9050919050565b620005c781620005a8565b8114620005d357600080fd5b50565b600081519050620005e781620005bc565b92915050565b600080fd5b600080fd5b6000601f19601f8301169050919050565b7f4e487b7100000000000000000000000000000000000000000000000000000000600052604160045260246000fd5b6200064282620005f7565b810181811067ffffffffffffffff8211171562000664576200066362000608565b5b80604052505050565b60006200067962000574565b905062000687828262000637565b919050565b600067ffffffffffffffff821115620006aa57620006a962000608565b5b620006b582620005f7565b9050602081019050919050565b60005b83811015620006e2578082015181840152602081019050620006c5565b83811115620006f2576000848401525b50505050565b60006200070f62000709846200068c565b6200066d565b9050828152602081018484840111156200072e576200072d620005f2565b5b6200073b848285620006c2565b509392505050565b600082601f8301126200075b576200075a620005ed565b5b81516200076d848260208601620006f8565b91505092915050565b600080600080608085870312156200079357620007926200057e565b5b6000620007a387828801620005d6565b945050602085015167ffffffffffffffff811115620007c757620007c662000583565b5b620007d58782880162000743565b935050604085015167ffffffffffffffff811115620007f957620007f862000583565b5b620008078782880162000743565b925050606085015167ffffffffffffffff8111156200082b576200082a62000583565b5b620008398782880162000743565b91505092959194509250565b7f4e487b7100000000000000000000000000000000000000000000000000000000600052602260045260246000fd5b600060028204905060018216806200088d57607f821691505b60208210811415620008a457620008a362000845565b5b50919050565b6080516155c2620008db60003960008181610ae901528181610b8a01528181610c350152610cd901526155c26000f3fe608060405234801561001057600080fd5b50600436106102325760003560e01c806370a0823111610130578063a22cb465116100b8578063d53913931161007c578063d53913931461070e578063d547741f1461072c578063ddb53ffa14610748578063e985e9c514610766578063f2fde38b1461079657610232565b8063a22cb4651461066e578063aa7a70381461068a578063b88d4fde146106a6578063c2b50d1a146106c2578063c87b56dd146106de57610232565b80638da5cb5b116100ff5780638da5cb5b146105b457806391d14854146105d25780639507d39a1461060257806395d89b4114610632578063a217fddf1461065057610232565b806370a082311461052c578063715018a61461055c57806375b238fc1461056657806375ccc1321461058457610232565b80632a55205a116101be57806342842e0e1161018257806342842e0e146104505780634f558e791461046c5780634f6ccce71461049c5780635252d9a0146104cc5780636352211e146104fc57610232565b80632a55205a146103875780632f2ff15d146103b85780632f745c59146103d457806336568abe1461040457806336775c271461042057610232565b80631729dc29116102055780631729dc29146102d157806318160ddd146102ed578063228dace51461030b57806323b872dd1461033b578063248a9ca31461035757610232565b806301ffc9a71461023757806306fdde0314610267578063081812fc14610285578063095ea7b3146102b5575b600080fd5b610251600480360381019061024c91906136a6565b6107b2565b60405161025e91906136ee565b60405180910390f35b61026f61081b565b60405161027c91906137a2565b60405180910390f35b61029f600480360381019061029a91906137fa565b6108ad565b6040516102ac9190613868565b60405180910390f35b6102cf60048036038101906102ca91906138af565b610932565b005b6102eb60048036038101906102e6919061391b565b610a4a565b005b6102f5610ad8565b604051610302919061396a565b60405180910390f35b610325600480360381019061032091906139f8565b610ae5565b60405161033291906136ee565b60405180910390f35b61035560048036038101906103509190613a4b565b610d84565b005b610371600480360381019061036c9190613ad4565b610de4565b60405161037e9190613b10565b60405180910390f35b6103a1600480360381019061039c9190613b2b565b610e04565b6040516103af929190613b6b565b60405180910390f35b6103d260048036038101906103cd9190613b94565b610efe565b005b6103ee60048036038101906103e991906138af565b610f27565b6040516103fb919061396a565b60405180910390f35b61041e60048036038101906104199190613b94565b610fcc565b005b61043a600480360381019061043591906139f8565b61104f565b6040516104479190613bf3565b60405180910390f35b61046a60048036038101906104659190613a4b565b611100565b005b610486600480360381019061048191906137fa565b611120565b60405161049391906136ee565b60405180910390f35b6104b660048036038101906104b191906137fa565b6111fe565b6040516104c3919061396a565b60405180910390f35b6104e660048036038101906104e19190613c0e565b61126f565b6040516104f3919061396a565b60405180910390f35b610516600480360381019061051191906137fa565b611316565b6040516105239190613868565b60405180910390f35b61054660048036038101906105419190613c75565b6113c8565b604051610553919061396a565b60405180910390f35b610564611480565b005b61056e611508565b60405161057b9190613b10565b60405180910390f35b61059e60048036038101906105999190613c75565b61152c565b6040516105ab91906136ee565b60405180910390f35b6105bc61154c565b6040516105c99190613868565b60405180910390f35b6105ec60048036038101906105e79190613b94565b611576565b6040516105f991906136ee565b60405180910390f35b61061c600480360381019061061791906137fa565b6115e1565b6040516106299190613d24565b60405180910390f35b61063a6116d6565b60405161064791906137a2565b60405180910390f35b610658611768565b6040516106659190613b10565b60405180910390f35b6106886004803603810190610683919061391b565b61176f565b005b6106a4600480360381019061069f9190613d83565b611785565b005b6106c060048036038101906106bb9190613ee5565b6117ec565b005b6106dc60048036038101906106d79190613f68565b61184e565b005b6106f860048036038101906106f391906137fa565b61188f565b60405161070591906137a2565b60405180910390f35b610716611903565b6040516107239190613b10565b60405180910390f35b61074660048036038101906107419190613b94565b611927565b005b610750611950565b60405161075d9190613fb7565b60405180910390f35b610780600480360381019061077b9190613fd2565b61196e565b60405161078d91906136ee565b60405180910390f35b6107b060048036038101906107ab9190613c75565b6119d6565b005b6000632a55205a60e01b7bffffffffffffffffffffffffffffffffffffffffffffffffffffffff1916827bffffffffffffffffffffffffffffffffffffffffffffffffffffffff1916141561080a5760019050610816565b61081382611ace565b90505b919050565b60606000805461082a90614041565b80601f016020809104026020016040519081016040528092919081815260200182805461085690614041565b80156108a35780601f10610878576101008083540402835291602001916108a3565b820191906000526020600020905b81548152906001019060200180831161088657829003601f168201915b5050505050905090565b60006108b882611b48565b6108f7576040517f08c379a00000000000000000000000000000000000000000000000000000000081526004016108ee906140e5565b60405180910390fd5b6004600083815260200190815260200160002060009054906101000a900473ffffffffffffffffffffffffffffffffffffffff169050919050565b600061093d82611316565b90508073ffffffffffffffffffffffffffffffffffffffff168373ffffffffffffffffffffffffffffffffffffffff1614156109ae576040517f08c379a00000000000000000000000000000000000000000000000000000000081526004016109a590614177565b60405180910390fd5b8073ffffffffffffffffffffffffffffffffffffffff166109cd611bb4565b73ffffffffffffffffffffffffffffffffffffffff1614806109fc57506109fb816109f6611bb4565b61196e565b5b610a3b576040517f08c379a0000000000000000000000000000000000000000000000000000000008152600401610a3290614209565b60405180910390fd5b610a458383611bbc565b505050565b7fa49807205ce4d355092ef5a8a18f56e8913cf4a201fbe287825b095693c21775610a7c81610a77611bb4565b611c75565b81600e60008573ffffffffffffffffffffffffffffffffffffffff1673ffffffffffffffffffffffffffffffffffffffff16815260200190815260200160002060006101000a81548160ff021916908315150217905550505050565b6000600880549050905090565b60007f000000000000000000000000000000000000000000000000000000000000000073ffffffffffffffffffffffffffffffffffffffff16631372526f6040518163ffffffff1660e01b8152600401602060405180830381865afa158015610b52573d6000803e3d6000fd5b505050506040513d601f19601f82011682018060405250810190610b76919061423e565b61ffff168461ffff1611158015610c2c57507f000000000000000000000000000000000000000000000000000000000000000073ffffffffffffffffffffffffffffffffffffffff166351cd797d856040518263ffffffff1660e01b8152600401610be1919061427a565b602060405180830381865afa158015610bfe573d6000803e3d6000fd5b505050506040513d601f19601f82011682018060405250810190610c2291906142aa565b60ff168360ff1611155b8015610cd057507f000000000000000000000000000000000000000000000000000000000000000073ffffffffffffffffffffffffffffffffffffffff16635f91c06a85856040518363ffffffff1660e01b8152600401610c8e9291906142e6565b602060405180830381865afa158015610cab573d6000803e3d6000fd5b505050506040513d601f19601f82011682018060405250810190610ccf9190614324565b5b8015610d7b57507f000000000000000000000000000000000000000000000000000000000000000073ffffffffffffffffffffffffffffffffffffffff16636f3480ac856040518263ffffffff1660e01b8152600401610d30919061427a565b602060405180830381865afa158015610d4d573d6000803e3d6000fd5b505050506040513d601f19601f82011682018060405250810190610d7191906142aa565b60ff168260ff1611155b90509392505050565b610d95610d8f611bb4565b82611d12565b610dd4576040517f08c379a0000000000000000000000000000000000000000000000000000000008152600401610dcb906143c3565b60405180910390fd5b610ddf838383611d7c565b505050565b6000600a6000838152602001908152602001600020600101549050919050565b6000806000600f600086815260200190815260200160002060009054906101000a90046bffffffffffffffffffffffff1690506000816bffffffffffffffffffffffff161115610eee573073ffffffffffffffffffffffffffffffffffffffff16638da5cb5b6040518163ffffffff1660e01b8152600401602060405180830381865afa158015610e99573d6000803e3d6000fd5b505050506040513d601f19601f82011682018060405250810190610ebd91906143f8565b612710826bffffffffffffffffffffffff1686610eda9190614454565b610ee491906144dd565b9250925050610ef7565b60008092509250505b9250929050565b610f0782610de4565b610f1881610f13611bb4565b611c75565b610f228383611fd8565b505050565b6000610f32836113c8565b8210610f73576040517f08c379a0000000000000000000000000000000000000000000000000000000008152600401610f6a90614580565b60405180910390fd5b600660008473ffffffffffffffffffffffffffffffffffffffff1673ffffffffffffffffffffffffffffffffffffffff168152602001908152602001600020600083815260200190815260200160002054905092915050565b610fd4611bb4565b73ffffffffffffffffffffffffffffffffffffffff168173ffffffffffffffffffffffffffffffffffffffff1614611041576040517f08c379a000000000000000000000000000000000000000000000000000000000815260040161103890614612565b60405180910390fd5b61104b82826120b9565b5050565b600061105c848484610ae5565b61109b576040517f08c379a00000000000000000000000000000000000000000000000000000000081526004016110929061467e565b60405180910390fd5b600d60008561ffff1661ffff16815260200190815260200160002060008460ff1660ff16815260200190815260200160002060008360ff1660ff16815260200190815260200160002060009054906101000a900461ffff1661ffff1690509392505050565b61111b838383604051806020016040528060008152506117ec565b505050565b600080600c600084815260200190815260200160002060000160029054906101000a900460ff1660ff1614801561117f57506000600c600084815260200190815260200160002060000160009054906101000a900461ffff1661ffff16145b80156111b157506000600c600084815260200190815260200160002060000160039054906101000a900460ff1660ff16145b80156111e957506000600c600084815260200190815260200160002060000160049054906101000a900463ffffffff1663ffffffff16145b6111f45760016111f7565b60005b9050919050565b6000611208610ad8565b8210611249576040517f08c379a000000000000000000000000000000000000000000000000000000000815260040161124090614710565b60405180910390fd5b6008828154811061125d5761125c614730565b5b90600052602060002001549050919050565b60007f9f2df0fed2c77648de5860a4cc508cd0818c85b8b8a1ab4ceeef8d981c8956a66112a38161129e611bb4565b611c75565b6112ae858585610ae5565b6112ed576040517f08c379a00000000000000000000000000000000000000000000000000000000081526004016112e4906147ab565b60405180910390fd5b6112f885858561219b565b915061130486836123de565b61130d826123fc565b50949350505050565b6000806002600084815260200190815260200160002060009054906101000a900473ffffffffffffffffffffffffffffffffffffffff169050600073ffffffffffffffffffffffffffffffffffffffff168173ffffffffffffffffffffffffffffffffffffffff1614156113bf576040517f08c379a00000000000000000000000000000000000000000000000000000000081526004016113b69061483d565b60405180910390fd5b80915050919050565b60008073ffffffffffffffffffffffffffffffffffffffff168273ffffffffffffffffffffffffffffffffffffffff161415611439576040517f08c379a0000000000000000000000000000000000000000000000000000000008152600401611430906148cf565b60405180910390fd5b600360008373ffffffffffffffffffffffffffffffffffffffff1673ffffffffffffffffffffffffffffffffffffffff168152602001908152602001600020549050919050565b611488611bb4565b73ffffffffffffffffffffffffffffffffffffffff166114a661154c565b73ffffffffffffffffffffffffffffffffffffffff16146114fc576040517f08c379a00000000000000000000000000000000000000000000000000000000081526004016114f39061493b565b60405180910390fd5b6115066000612423565b565b7fa49807205ce4d355092ef5a8a18f56e8913cf4a201fbe287825b095693c2177581565b600e6020528060005260406000206000915054906101000a900460ff1681565b6000600b60009054906101000a900473ffffffffffffffffffffffffffffffffffffffff16905090565b6000600a600084815260200190815260200160002060000160008373ffffffffffffffffffffffffffffffffffffffff1673ffffffffffffffffffffffffffffffffffffffff16815260200190815260200160002060009054906101000a900460ff16905092915050565b6115e9613602565b6115f282611120565b611631576040517f08c379a0000000000000000000000000000000000000000000000000000000008152600401611628906149a7565b60405180910390fd5b600c60008381526020019081526020016000206040518060800160405290816000820160009054906101000a900461ffff1661ffff1661ffff1681526020016000820160029054906101000a900460ff1660ff1660ff1681526020016000820160039054906101000a900460ff1660ff1660ff1681526020016000820160049054906101000a900463ffffffff1663ffffffff1663ffffffff16815250509050919050565b6060600180546116e590614041565b80601f016020809104026020016040519081016040528092919081815260200182805461171190614041565b801561175e5780601f106117335761010080835404028352916020019161175e565b820191906000526020600020905b81548152906001019060200180831161174157829003601f168201915b5050505050905090565b6000801b81565b61178161177a611bb4565b83836124e9565b5050565b7fa49807205ce4d355092ef5a8a18f56e8913cf4a201fbe287825b095693c217756117b7816117b2611bb4565b611c75565b81601160006101000a8154816bffffffffffffffffffffffff02191690836bffffffffffffffffffffffff1602179055505050565b6117fd6117f7611bb4565b83611d12565b61183c576040517f08c379a0000000000000000000000000000000000000000000000000000000008152600401611833906143c3565b60405180910390fd5b61184884848484612656565b50505050565b7fa49807205ce4d355092ef5a8a18f56e8913cf4a201fbe287825b095693c217756118808161187b611bb4565b611c75565b61188a83836126b2565b505050565b6060600061189c83612783565b905060006040518060400160405280600581526020017f2e6a736f6e000000000000000000000000000000000000000000000000000000815250905081816040516020016118eb929190614a03565b60405160208183030381529060405292505050919050565b7f9f2df0fed2c77648de5860a4cc508cd0818c85b8b8a1ab4ceeef8d981c8956a681565b61193082610de4565b6119418161193c611bb4565b611c75565b61194b83836120b9565b505050565b601160009054906101000a90046bffffffffffffffffffffffff1681565b6000600e60008373ffffffffffffffffffffffffffffffffffffffff1673ffffffffffffffffffffffffffffffffffffffff16815260200190815260200160002060009054906101000a900460ff16156119cb57600190506119d0565b600090505b92915050565b6119de611bb4565b73ffffffffffffffffffffffffffffffffffffffff166119fc61154c565b73ffffffffffffffffffffffffffffffffffffffff1614611a52576040517f08c379a0000000000000000000000000000000000000000000000000000000008152600401611a499061493b565b60405180910390fd5b600073ffffffffffffffffffffffffffffffffffffffff168173ffffffffffffffffffffffffffffffffffffffff161415611ac2576040517f08c379a0000000000000000000000000000000000000000000000000000000008152600401611ab990614a99565b60405180910390fd5b611acb81612423565b50565b60007f7965db0b000000000000000000000000000000000000000000000000000000007bffffffffffffffffffffffffffffffffffffffffffffffffffffffff1916827bffffffffffffffffffffffffffffffffffffffffffffffffffffffff19161480611b415750611b408261282a565b5b9050919050565b60008073ffffffffffffffffffffffffffffffffffffffff166002600084815260200190815260200160002060009054906101000a900473ffffffffffffffffffffffffffffffffffffffff1673ffffffffffffffffffffffffffffffffffffffff1614159050919050565b600033905090565b816004600083815260200190815260200160002060006101000a81548173ffffffffffffffffffffffffffffffffffffffff021916908373ffffffffffffffffffffffffffffffffffffffff160217905550808273ffffffffffffffffffffffffffffffffffffffff16611c2f83611316565b73ffffffffffffffffffffffffffffffffffffffff167f8c5be1e5ebec7d5bd14f71427d1e84f3dd0314c0f7b2291e5b200ac8c7c3b92560405160405180910390a45050565b611c7f8282611576565b611d0e57611ca48173ffffffffffffffffffffffffffffffffffffffff1660146128a4565b611cb28360001c60206128a4565b604051602001611cc3929190614b51565b6040516020818303038152906040526040517f08c379a0000000000000000000000000000000000000000000000000000000008152600401611d0591906137a2565b60405180910390fd5b5050565b6000611d1d82611b48565b611d5c576040517f08c379a0000000000000000000000000000000000000000000000000000000008152600401611d5390614bfd565b60405180910390fd5b6000611d6783611316565b9050611d73818561196e565b91505092915050565b8273ffffffffffffffffffffffffffffffffffffffff16611d9c82611316565b73ffffffffffffffffffffffffffffffffffffffff1614611df2576040517f08c379a0000000000000000000000000000000000000000000000000000000008152600401611de990614c8f565b60405180910390fd5b600073ffffffffffffffffffffffffffffffffffffffff168273ffffffffffffffffffffffffffffffffffffffff161415611e62576040517f08c379a0000000000000000000000000000000000000000000000000000000008152600401611e5990614d21565b60405180910390fd5b611e6d838383612ae0565b611e78600082611bbc565b6001600360008573ffffffffffffffffffffffffffffffffffffffff1673ffffffffffffffffffffffffffffffffffffffff1681526020019081526020016000206000828254611ec89190614d41565b925050819055506001600360008473ffffffffffffffffffffffffffffffffffffffff1673ffffffffffffffffffffffffffffffffffffffff1681526020019081526020016000206000828254611f1f9190614d75565b92505081905550816002600083815260200190815260200160002060006101000a81548173ffffffffffffffffffffffffffffffffffffffff021916908373ffffffffffffffffffffffffffffffffffffffff160217905550808273ffffffffffffffffffffffffffffffffffffffff168473ffffffffffffffffffffffffffffffffffffffff167fddf252ad1be2c89b69c2b068fc378daa952ba7f163c4a11628f55a4df523b3ef60405160405180910390a4505050565b611fe28282611576565b6120b5576001600a600084815260200190815260200160002060000160008373ffffffffffffffffffffffffffffffffffffffff1673ffffffffffffffffffffffffffffffffffffffff16815260200190815260200160002060006101000a81548160ff02191690831515021790555061205a611bb4565b73ffffffffffffffffffffffffffffffffffffffff168173ffffffffffffffffffffffffffffffffffffffff16837f2f8788117e7eff1d82e926ec794901d17c78024a50270940304540a733656f0d60405160405180910390a45b5050565b6120c38282611576565b15612197576000600a600084815260200190815260200160002060000160008373ffffffffffffffffffffffffffffffffffffffff1673ffffffffffffffffffffffffffffffffffffffff16815260200190815260200160002060006101000a81548160ff02191690831515021790555061213c611bb4565b73ffffffffffffffffffffffffffffffffffffffff168173ffffffffffffffffffffffffffffffffffffffff16837ff6391f5c32d9c69d2a47ea670b442974b53935d1edc7fd64eb21e047a839171b60405160405180910390a45b5050565b600080600d60008661ffff1661ffff16815260200190815260200160002060008560ff1660ff16815260200190815260200160002060008460ff1660ff16815260200190815260200160002060009054906101000a900461ffff1661ffff16905082600a6122099190614efe565b8163ffffffff1610612250576040517f08c379a000000000000000000000000000000000000000000000000000000000815260040161224790614f95565b60405180910390fd5b6001600d60008761ffff1661ffff16815260200190815260200160002060008660ff1660ff16815260200190815260200160002060008560ff1660ff16815260200190815260200160002060008282829054906101000a900461ffff166122b79190614fb5565b92506101000a81548161ffff021916908361ffff160217905550848484836040516020016122e89493929190614fed565b6040516020818303038152906040528051906020012060001c915060405180608001604052808661ffff1681526020018560ff1681526020018460ff1681526020018263ffffffff16815250600c600084815260200190815260200160002060008201518160000160006101000a81548161ffff021916908361ffff16021790555060208201518160000160026101000a81548160ff021916908360ff16021790555060408201518160000160036101000a81548160ff021916908360ff16021790555060608201518160000160046101000a81548163ffffffff021916908363ffffffff160217905550905050509392505050565b6123f8828260405180602001604052806000815250612bf4565b5050565b61242081601160009054906101000a90046bffffffffffffffffffffffff166126b2565b50565b6000600b60009054906101000a900473ffffffffffffffffffffffffffffffffffffffff16905081600b60006101000a81548173ffffffffffffffffffffffffffffffffffffffff021916908373ffffffffffffffffffffffffffffffffffffffff1602179055508173ffffffffffffffffffffffffffffffffffffffff168173ffffffffffffffffffffffffffffffffffffffff167f8be0079c531659141344cd1fd0a4f28419497f9722a3daafe3b4186f6b6457e060405160405180910390a35050565b8173ffffffffffffffffffffffffffffffffffffffff168373ffffffffffffffffffffffffffffffffffffffff161415612558576040517f08c379a000000000000000000000000000000000000000000000000000000000815260040161254f9061507e565b60405180910390fd5b80600560008573ffffffffffffffffffffffffffffffffffffffff1673ffffffffffffffffffffffffffffffffffffffff16815260200190815260200160002060008473ffffffffffffffffffffffffffffffffffffffff1673ffffffffffffffffffffffffffffffffffffffff16815260200190815260200160002060006101000a81548160ff0219169083151502179055508173ffffffffffffffffffffffffffffffffffffffff168373ffffffffffffffffffffffffffffffffffffffff167f17307eab39ab6107e8899845ad3d59bd9653f200f220920489ca2b5937696c318360405161264991906136ee565b60405180910390a3505050565b612661848484611d7c565b61266d84848484612c4f565b6126ac576040517f08c379a00000000000000000000000000000000000000000000000000000000081526004016126a390615110565b60405180910390fd5b50505050565b612710816bffffffffffffffffffffffff1610612704576040517f08c379a00000000000000000000000000000000000000000000000000000000081526004016126fb9061517c565b60405180910390fd5b80600f600084815260200190815260200160002060006101000a8154816bffffffffffffffffffffffff02191690836bffffffffffffffffffffffff1602179055507f2f38e4d1636e7779ad62cfa88be99a558be72503fa6916e4ea7ff7cc6a91b6e682826040516127779291906151d7565b60405180910390a15050565b606061278e82611b48565b6127cd576040517f08c379a00000000000000000000000000000000000000000000000000000000081526004016127c490615272565b60405180910390fd5b60006127d7612dd7565b905060008151116127f75760405180602001604052806000815250612822565b8061280184612e69565b604051602001612812929190614a03565b6040516020818303038152906040525b915050919050565b60007f780e9d63000000000000000000000000000000000000000000000000000000007bffffffffffffffffffffffffffffffffffffffffffffffffffffffff1916827bffffffffffffffffffffffffffffffffffffffffffffffffffffffff1916148061289d575061289c82612fca565b5b9050919050565b6060600060028360026128b79190614454565b6128c19190614d75565b67ffffffffffffffff8111156128da576128d9613dba565b5b6040519080825280601f01601f19166020018201604052801561290c5781602001600182028036833780820191505090505b5090507f30000000000000000000000000000000000000000000000000000000000000008160008151811061294457612943614730565b5b60200101907effffffffffffffffffffffffffffffffffffffffffffffffffffffffffffff1916908160001a9053507f7800000000000000000000000000000000000000000000000000000000000000816001815181106129a8576129a7614730565b5b60200101907effffffffffffffffffffffffffffffffffffffffffffffffffffffffffffff1916908160001a905350600060018460026129e89190614454565b6129f29190614d75565b90505b6001811115612a92577f3031323334353637383961626364656600000000000000000000000000000000600f861660108110612a3457612a33614730565b5b1a60f81b828281518110612a4b57612a4a614730565b5b60200101907effffffffffffffffffffffffffffffffffffffffffffffffffffffffffffff1916908160001a905350600485901c945080612a8b90615292565b90506129f5565b5060008414612ad6576040517f08c379a0000000000000000000000000000000000000000000000000000000008152600401612acd90615308565b60405180910390fd5b8091505092915050565b612aeb8383836130ac565b600073ffffffffffffffffffffffffffffffffffffffff168373ffffffffffffffffffffffffffffffffffffffff161415612b2e57612b29816130b1565b612b6d565b8173ffffffffffffffffffffffffffffffffffffffff168373ffffffffffffffffffffffffffffffffffffffff1614612b6c57612b6b83826130fa565b5b5b600073ffffffffffffffffffffffffffffffffffffffff168273ffffffffffffffffffffffffffffffffffffffff161415612bb057612bab81613267565b612bef565b8273ffffffffffffffffffffffffffffffffffffffff168273ffffffffffffffffffffffffffffffffffffffff1614612bee57612bed8282613338565b5b5b505050565b612bfe83836133b7565b612c0b6000848484612c4f565b612c4a576040517f08c379a0000000000000000000000000000000000000000000000000000000008152600401612c4190615110565b60405180910390fd5b505050565b6000612c708473ffffffffffffffffffffffffffffffffffffffff16613585565b15612dca578373ffffffffffffffffffffffffffffffffffffffff1663150b7a02612c99611bb4565b8786866040518563ffffffff1660e01b8152600401612cbb949392919061537d565b6020604051808303816000875af1925050508015612cf757506040513d601f19601f82011682018060405250810190612cf491906153de565b60015b612d7a573d8060008114612d27576040519150601f19603f3d011682016040523d82523d6000602084013e612d2c565b606091505b50600081511415612d72576040517f08c379a0000000000000000000000000000000000000000000000000000000008152600401612d6990615110565b60405180910390fd5b805181602001fd5b63150b7a0260e01b7bffffffffffffffffffffffffffffffffffffffffffffffffffffffff1916817bffffffffffffffffffffffffffffffffffffffffffffffffffffffff191614915050612dcf565b600190505b949350505050565b606060108054612de690614041565b80601f0160208091040260200160405190810160405280929190818152602001828054612e1290614041565b8015612e5f5780601f10612e3457610100808354040283529160200191612e5f565b820191906000526020600020905b815481529060010190602001808311612e4257829003601f168201915b5050505050905090565b60606000821415612eb1576040518060400160405280600181526020017f30000000000000000000000000000000000000000000000000000000000000008152509050612fc5565b600082905060005b60008214612ee3578080612ecc9061540b565b915050600a82612edc91906144dd565b9150612eb9565b60008167ffffffffffffffff811115612eff57612efe613dba565b5b6040519080825280601f01601f191660200182016040528015612f315781602001600182028036833780820191505090505b5090505b60008514612fbe57600182612f4a9190614d41565b9150600a85612f599190615454565b6030612f659190614d75565b60f81b818381518110612f7b57612f7a614730565b5b60200101907effffffffffffffffffffffffffffffffffffffffffffffffffffffffffffff1916908160001a905350600a85612fb791906144dd565b9450612f35565b8093505050505b919050565b60007f80ac58cd000000000000000000000000000000000000000000000000000000007bffffffffffffffffffffffffffffffffffffffffffffffffffffffff1916827bffffffffffffffffffffffffffffffffffffffffffffffffffffffff1916148061309557507f5b5e139f000000000000000000000000000000000000000000000000000000007bffffffffffffffffffffffffffffffffffffffffffffffffffffffff1916827bffffffffffffffffffffffffffffffffffffffffffffffffffffffff1916145b806130a557506130a482613598565b5b9050919050565b505050565b6008805490506009600083815260200190815260200160002081905550600881908060018154018082558091505060019003906000526020600020016000909190919091505550565b60006001613107846113c8565b6131119190614d41565b90506000600760008481526020019081526020016000205490508181146131f6576000600660008673ffffffffffffffffffffffffffffffffffffffff1673ffffffffffffffffffffffffffffffffffffffff168152602001908152602001600020600084815260200190815260200160002054905080600660008773ffffffffffffffffffffffffffffffffffffffff1673ffffffffffffffffffffffffffffffffffffffff168152602001908152602001600020600084815260200190815260200160002081905550816007600083815260200190815260200160002081905550505b6007600084815260200190815260200160002060009055600660008573ffffffffffffffffffffffffffffffffffffffff1673ffffffffffffffffffffffffffffffffffffffff16815260200190815260200160002060008381526020019081526020016000206000905550505050565b6000600160088054905061327b9190614d41565b90506000600960008481526020019081526020016000205490506000600883815481106132ab576132aa614730565b5b9060005260206000200154905080600883815481106132cd576132cc614730565b5b90600052602060002001819055508160096000838152602001908152602001600020819055506009600085815260200190815260200160002060009055600880548061331c5761331b615485565b5b6001900381819060005260206000200160009055905550505050565b6000613343836113c8565b905081600660008573ffffffffffffffffffffffffffffffffffffffff1673ffffffffffffffffffffffffffffffffffffffff168152602001908152602001600020600083815260200190815260200160002081905550806007600084815260200190815260200160002081905550505050565b600073ffffffffffffffffffffffffffffffffffffffff168273ffffffffffffffffffffffffffffffffffffffff161415613427576040517f08c379a000000000000000000000000000000000000000000000000000000000815260040161341e90615500565b60405180910390fd5b61343081611b48565b15613470576040517f08c379a00000000000000000000000000000000000000000000000000000000081526004016134679061556c565b60405180910390fd5b61347c60008383612ae0565b6001600360008473ffffffffffffffffffffffffffffffffffffffff1673ffffffffffffffffffffffffffffffffffffffff16815260200190815260200160002060008282546134cc9190614d75565b92505081905550816002600083815260200190815260200160002060006101000a81548173ffffffffffffffffffffffffffffffffffffffff021916908373ffffffffffffffffffffffffffffffffffffffff160217905550808273ffffffffffffffffffffffffffffffffffffffff16600073ffffffffffffffffffffffffffffffffffffffff167fddf252ad1be2c89b69c2b068fc378daa952ba7f163c4a11628f55a4df523b3ef60405160405180910390a45050565b600080823b905060008111915050919050565b60007f01ffc9a7000000000000000000000000000000000000000000000000000000007bffffffffffffffffffffffffffffffffffffffffffffffffffffffff1916827bffffffffffffffffffffffffffffffffffffffffffffffffffffffff1916149050919050565b6040518060800160405280600061ffff168152602001600060ff168152602001600060ff168152602001600063ffffffff1681525090565b6000604051905090565b600080fd5b600080fd5b60007fffffffff0000000000000000000000000000000000000000000000000000000082169050919050565b6136838161364e565b811461368e57600080fd5b50565b6000813590506136a08161367a565b92915050565b6000602082840312156136bc576136bb613644565b5b60006136ca84828501613691565b91505092915050565b60008115159050919050565b6136e8816136d3565b82525050565b600060208201905061370360008301846136df565b92915050565b600081519050919050565b600082825260208201905092915050565b60005b83811015613743578082015181840152602081019050613728565b83811115613752576000848401525b50505050565b6000601f19601f8301169050919050565b600061377482613709565b61377e8185613714565b935061378e818560208601613725565b61379781613758565b840191505092915050565b600060208201905081810360008301526137bc8184613769565b905092915050565b6000819050919050565b6137d7816137c4565b81146137e257600080fd5b50565b6000813590506137f4816137ce565b92915050565b6000602082840312156138105761380f613644565b5b600061381e848285016137e5565b91505092915050565b600073ffffffffffffffffffffffffffffffffffffffff82169050919050565b600061385282613827565b9050919050565b61386281613847565b82525050565b600060208201905061387d6000830184613859565b92915050565b61388c81613847565b811461389757600080fd5b50565b6000813590506138a981613883565b92915050565b600080604083850312156138c6576138c5613644565b5b60006138d48582860161389a565b92505060206138e5858286016137e5565b9150509250929050565b6138f8816136d3565b811461390357600080fd5b50565b600081359050613915816138ef565b92915050565b6000806040838503121561393257613931613644565b5b60006139408582860161389a565b925050602061395185828601613906565b9150509250929050565b613964816137c4565b82525050565b600060208201905061397f600083018461395b565b92915050565b600061ffff82169050919050565b61399c81613985565b81146139a757600080fd5b50565b6000813590506139b981613993565b92915050565b600060ff82169050919050565b6139d5816139bf565b81146139e057600080fd5b50565b6000813590506139f2816139cc565b92915050565b600080600060608486031215613a1157613a10613644565b5b6000613a1f868287016139aa565b9350506020613a30868287016139e3565b9250506040613a41868287016139e3565b9150509250925092565b600080600060608486031215613a6457613a63613644565b5b6000613a728682870161389a565b9350506020613a838682870161389a565b9250506040613a94868287016137e5565b9150509250925092565b6000819050919050565b613ab181613a9e565b8114613abc57600080fd5b50565b600081359050613ace81613aa8565b92915050565b600060208284031215613aea57613ae9613644565b5b6000613af884828501613abf565b91505092915050565b613b0a81613a9e565b82525050565b6000602082019050613b256000830184613b01565b92915050565b60008060408385031215613b4257613b41613644565b5b6000613b50858286016137e5565b9250506020613b61858286016137e5565b9150509250929050565b6000604082019050613b806000830185613859565b613b8d602083018461395b565b9392505050565b60008060408385031215613bab57613baa613644565b5b6000613bb985828601613abf565b9250506020613bca8582860161389a565b9150509250929050565b600063ffffffff82169050919050565b613bed81613bd4565b82525050565b6000602082019050613c086000830184613be4565b92915050565b60008060008060808587031215613c2857613c27613644565b5b6000613c368782880161389a565b9450506020613c47878288016139aa565b9350506040613c58878288016139e3565b9250506060613c69878288016139e3565b91505092959194509250565b600060208284031215613c8b57613c8a613644565b5b6000613c998482850161389a565b91505092915050565b613cab81613985565b82525050565b613cba816139bf565b82525050565b613cc981613bd4565b82525050565b608082016000820151613ce56000850182613ca2565b506020820151613cf86020850182613cb1565b506040820151613d0b6040850182613cb1565b506060820151613d1e6060850182613cc0565b50505050565b6000608082019050613d396000830184613ccf565b92915050565b60006bffffffffffffffffffffffff82169050919050565b613d6081613d3f565b8114613d6b57600080fd5b50565b600081359050613d7d81613d57565b92915050565b600060208284031215613d9957613d98613644565b5b6000613da784828501613d6e565b91505092915050565b600080fd5b600080fd5b7f4e487b7100000000000000000000000000000000000000000000000000000000600052604160045260246000fd5b613df282613758565b810181811067ffffffffffffffff82111715613e1157613e10613dba565b5b80604052505050565b6000613e2461363a565b9050613e308282613de9565b919050565b600067ffffffffffffffff821115613e5057613e4f613dba565b5b613e5982613758565b9050602081019050919050565b82818337600083830152505050565b6000613e88613e8384613e35565b613e1a565b905082815260208101848484011115613ea457613ea3613db5565b5b613eaf848285613e66565b509392505050565b600082601f830112613ecc57613ecb613db0565b5b8135613edc848260208601613e75565b91505092915050565b60008060008060808587031215613eff57613efe613644565b5b6000613f0d8782880161389a565b9450506020613f1e8782880161389a565b9350506040613f2f878288016137e5565b925050606085013567ffffffffffffffff811115613f5057613f4f613649565b5b613f5c87828801613eb7565b91505092959194509250565b60008060408385031215613f7f57613f7e613644565b5b6000613f8d858286016137e5565b9250506020613f9e85828601613d6e565b9150509250929050565b613fb181613d3f565b82525050565b6000602082019050613fcc6000830184613fa8565b92915050565b60008060408385031215613fe957613fe8613644565b5b6000613ff78582860161389a565b92505060206140088582860161389a565b9150509250929050565b7f4e487b7100000000000000000000000000000000000000000000000000000000600052602260045260246000fd5b6000600282049050600182168061405957607f821691505b6020821081141561406d5761406c614012565b5b50919050565b7f4552433732313a20617070726f76656420717565727920666f72206e6f6e657860008201527f697374656e7420746f6b656e0000000000000000000000000000000000000000602082015250565b60006140cf602c83613714565b91506140da82614073565b604082019050919050565b600060208201905081810360008301526140fe816140c2565b9050919050565b7f4552433732313a20617070726f76616c20746f2063757272656e74206f776e6560008201527f7200000000000000000000000000000000000000000000000000000000000000602082015250565b6000614161602183613714565b915061416c82614105565b604082019050919050565b6000602082019050818103600083015261419081614154565b9050919050565b7f4552433732313a20617070726f76652063616c6c6572206973206e6f74206f7760008201527f6e6572206e6f7220617070726f76656420666f7220616c6c0000000000000000602082015250565b60006141f3603883613714565b91506141fe82614197565b604082019050919050565b60006020820190508181036000830152614222816141e6565b9050919050565b60008151905061423881613993565b92915050565b60006020828403121561425457614253613644565b5b600061426284828501614229565b91505092915050565b61427481613985565b82525050565b600060208201905061428f600083018461426b565b92915050565b6000815190506142a4816139cc565b92915050565b6000602082840312156142c0576142bf613644565b5b60006142ce84828501614295565b91505092915050565b6142e0816139bf565b82525050565b60006040820190506142fb600083018561426b565b61430860208301846142d7565b9392505050565b60008151905061431e816138ef565b92915050565b60006020828403121561433a57614339613644565b5b60006143488482850161430f565b91505092915050565b7f4552433732313a207472616e736665722063616c6c6572206973206e6f74206f60008201527f776e6572206e6f7220617070726f766564000000000000000000000000000000602082015250565b60006143ad603183613714565b91506143b882614351565b604082019050919050565b600060208201905081810360008301526143dc816143a0565b9050919050565b6000815190506143f281613883565b92915050565b60006020828403121561440e5761440d613644565b5b600061441c848285016143e3565b91505092915050565b7f4e487b7100000000000000000000000000000000000000000000000000000000600052601160045260246000fd5b600061445f826137c4565b915061446a836137c4565b9250817fffffffffffffffffffffffffffffffffffffffffffffffffffffffffffffffff04831182151516156144a3576144a2614425565b5b828202905092915050565b7f4e487b7100000000000000000000000000000000000000000000000000000000600052601260045260246000fd5b60006144e8826137c4565b91506144f3836137c4565b925082614503576145026144ae565b5b828204905092915050565b7f455243373231456e756d657261626c653a206f776e657220696e646578206f7560008201527f74206f6620626f756e6473000000000000000000000000000000000000000000602082015250565b600061456a602b83613714565b91506145758261450e565b604082019050919050565b600060208201905081810360008301526145998161455d565b9050919050565b7f416363657373436f6e74726f6c3a2063616e206f6e6c792072656e6f756e636560008201527f20726f6c657320666f722073656c660000000000000000000000000000000000602082015250565b60006145fc602f83613714565b9150614607826145a0565b604082019050919050565b6000602082019050818103600083015261462b816145ef565b9050919050565b7f50524f5020646f6573206e6f7420657869737400000000000000000000000000600082015250565b6000614668601383613714565b915061467382614632565b602082019050919050565b600060208201905081810360008301526146978161465b565b9050919050565b7f455243373231456e756d657261626c653a20676c6f62616c20696e646578206f60008201527f7574206f6620626f756e64730000000000000000000000000000000000000000602082015250565b60006146fa602c83613714565b91506147058261469e565b604082019050919050565b60006020820190508181036000830152614729816146ed565b9050919050565b7f4e487b7100000000000000000000000000000000000000000000000000000000600052603260045260246000fd5b7f50524f502063616e6e6f74206265206d696e7465640000000000000000000000600082015250565b6000614795601583613714565b91506147a08261475f565b602082019050919050565b600060208201905081810360008301526147c481614788565b9050919050565b7f4552433732313a206f776e657220717565727920666f72206e6f6e657869737460008201527f656e7420746f6b656e0000000000000000000000000000000000000000000000602082015250565b6000614827602983613714565b9150614832826147cb565b604082019050919050565b600060208201905081810360008301526148568161481a565b9050919050565b7f4552433732313a2062616c616e636520717565727920666f7220746865207a6560008201527f726f206164647265737300000000000000000000000000000000000000000000602082015250565b60006148b9602a83613714565b91506148c48261485d565b604082019050919050565b600060208201905081810360008301526148e8816148ac565b9050919050565b7f4f776e61626c653a2063616c6c6572206973206e6f7420746865206f776e6572600082015250565b6000614925602083613714565b9150614930826148ef565b602082019050919050565b6000602082019050818103600083015261495481614918565b9050919050565b7f546869732070726f706572747920646f6573206e6f7420657869737400000000600082015250565b6000614991601c83613714565b915061499c8261495b565b602082019050919050565b600060208201905081810360008301526149c081614984565b9050919050565b600081905092915050565b60006149dd82613709565b6149e781856149c7565b93506149f7818560208601613725565b80840191505092915050565b6000614a0f82856149d2565b9150614a1b82846149d2565b91508190509392505050565b7f4f776e61626c653a206e6577206f776e657220697320746865207a65726f206160008201527f6464726573730000000000000000000000000000000000000000000000000000602082015250565b6000614a83602683613714565b9150614a8e82614a27565b604082019050919050565b60006020820190508181036000830152614ab281614a76565b9050919050565b7f416363657373436f6e74726f6c3a206163636f756e7420000000000000000000600082015250565b6000614aef6017836149c7565b9150614afa82614ab9565b601782019050919050565b7f206973206d697373696e6720726f6c6520000000000000000000000000000000600082015250565b6000614b3b6011836149c7565b9150614b4682614b05565b601182019050919050565b6000614b5c82614ae2565b9150614b6882856149d2565b9150614b7382614b2e565b9150614b7f82846149d2565b91508190509392505050565b7f4552433732313a206f70657261746f7220717565727920666f72206e6f6e657860008201527f697374656e7420746f6b656e0000000000000000000000000000000000000000602082015250565b6000614be7602c83613714565b9150614bf282614b8b565b604082019050919050565b60006020820190508181036000830152614c1681614bda565b9050919050565b7f4552433732313a207472616e73666572206f6620746f6b656e2074686174206960008201527f73206e6f74206f776e0000000000000000000000000000000000000000000000602082015250565b6000614c79602983613714565b9150614c8482614c1d565b604082019050919050565b60006020820190508181036000830152614ca881614c6c565b9050919050565b7f4552433732313a207472616e7366657220746f20746865207a65726f2061646460008201527f7265737300000000000000000000000000000000000000000000000000000000602082015250565b6000614d0b602483613714565b9150614d1682614caf565b604082019050919050565b60006020820190508181036000830152614d3a81614cfe565b9050919050565b6000614d4c826137c4565b9150614d57836137c4565b925082821015614d6a57614d69614425565b5b828203905092915050565b6000614d80826137c4565b9150614d8b836137c4565b9250827fffffffffffffffffffffffffffffffffffffffffffffffffffffffffffffffff03821115614dc057614dbf614425565b5b828201905092915050565b60008160011c9050919050565b6000808291508390505b6001851115614e2257808604811115614dfe57614dfd614425565b5b6001851615614e0d5780820291505b8081029050614e1b85614dcb565b9450614de2565b94509492505050565b600082614e3b5760019050614ef7565b81614e495760009050614ef7565b8160018114614e5f5760028114614e6957614e98565b6001915050614ef7565b60ff841115614e7b57614e7a614425565b5b8360020a915084821115614e9257614e91614425565b5b50614ef7565b5060208310610133831016604e8410600b8410161715614ecd5782820a905083811115614ec857614ec7614425565b5b614ef7565b614eda8484846001614dd8565b92509050818404811115614ef157614ef0614425565b5b81810290505b9392505050565b6000614f09826137c4565b9150614f14836139bf565b9250614f417fffffffffffffffffffffffffffffffffffffffffffffffffffffffffffffffff8484614e2b565b905092915050565b7f616c6c2070726f7065727469657320616c7265616479206d696e746564000000600082015250565b6000614f7f601d83613714565b9150614f8a82614f49565b602082019050919050565b60006020820190508181036000830152614fae81614f72565b9050919050565b6000614fc082613985565b9150614fcb83613985565b92508261ffff03821115614fe257614fe1614425565b5b828201905092915050565b6000608082019050615002600083018761426b565b61500f60208301866142d7565b61501c60408301856142d7565b6150296060830184613be4565b95945050505050565b7f4552433732313a20617070726f766520746f2063616c6c657200000000000000600082015250565b6000615068601983613714565b915061507382615032565b602082019050919050565b600060208201905081810360008301526150978161505b565b9050919050565b7f4552433732313a207472616e7366657220746f206e6f6e20455243373231526560008201527f63656976657220696d706c656d656e7465720000000000000000000000000000602082015250565b60006150fa603283613714565b91506151058261509e565b604082019050919050565b60006020820190508181036000830152615129816150ed565b9050919050565b7f526f79616c74792076616c75652073686f756c64206265203c20313030303000600082015250565b6000615166601f83613714565b915061517182615130565b602082019050919050565b6000602082019050818103600083015261519581615159565b9050919050565b6000819050919050565b60006151c16151bc6151b784613d3f565b61519c565b6137c4565b9050919050565b6151d1816151a6565b82525050565b60006040820190506151ec600083018561395b565b6151f960208301846151c8565b9392505050565b7f4552433732314d657461646174613a2055524920717565727920666f72206e6f60008201527f6e6578697374656e7420746f6b656e0000000000000000000000000000000000602082015250565b600061525c602f83613714565b915061526782615200565b604082019050919050565b6000602082019050818103600083015261528b8161524f565b9050919050565b600061529d826137c4565b915060008214156152b1576152b0614425565b5b600182039050919050565b7f537472696e67733a20686578206c656e67746820696e73756666696369656e74600082015250565b60006152f2602083613714565b91506152fd826152bc565b602082019050919050565b60006020820190508181036000830152615321816152e5565b9050919050565b600081519050919050565b600082825260208201905092915050565b600061534f82615328565b6153598185615333565b9350615369818560208601613725565b61537281613758565b840191505092915050565b60006080820190506153926000830187613859565b61539f6020830186613859565b6153ac604083018561395b565b81810360608301526153be8184615344565b905095945050505050565b6000815190506153d88161367a565b92915050565b6000602082840312156153f4576153f3613644565b5b6000615402848285016153c9565b91505092915050565b6000615416826137c4565b91507fffffffffffffffffffffffffffffffffffffffffffffffffffffffffffffffff82141561544957615448614425565b5b600182019050919050565b600061545f826137c4565b915061546a836137c4565b92508261547a576154796144ae565b5b828206905092915050565b7f4e487b7100000000000000000000000000000000000000000000000000000000600052603160045260246000fd5b7f4552433732313a206d696e7420746f20746865207a65726f2061646472657373600082015250565b60006154ea602083613714565b91506154f5826154b4565b602082019050919050565b60006020820190508181036000830152615519816154dd565b9050919050565b7f4552433732313a20746f6b656e20616c7265616479206d696e74656400000000600082015250565b6000615556601c83613714565b915061556182615520565b602082019050919050565b6000602082019050818103600083015261558581615549565b905091905056fea26469706673582212203de0779e55620bea611eb41dc62d0deec2dea6a5708f797b77047e0c36068e3064736f6c634300080a0033",
  "immutableReferences": {
    "7010": [
      {
        "length": 32,
        "start": 2793
      },
      {
        "length": 32,
        "start": 2954
      },
      {
        "length": 32,
        "start": 3125
      },
      {
        "length": 32,
        "start": 3289
      }
    ]
  },
  "source": "// Prop.sol\r\n// SPDX-License-Identifier: MIT\r\npragma solidity 0.8.10;\r\n\r\nimport \"@openzeppelin/contracts/access/AccessControl.sol\";\r\nimport \"@openzeppelin/contracts/token/ERC721/extensions/ERC721Enumerable.sol\";\r\nimport \"@openzeppelin/contracts/access/Ownable.sol\";\r\nimport \"@openzeppelin/contracts/interfaces/IERC2981.sol\";\r\n\r\nimport \"./Board.sol\";\r\n\r\n/**\r\n * @notice\r\n * @dev\r\n * Royalties: Only some addresses are allowed to transfer these tokens (see isApprovedForAll() method and map isContractAllowed).\r\n * Token owner can't resell is token outside an authorized Marketplace or directly to another address.\r\n * support royalties implementation with method royaltyInfo() from ERC2981 (see interface declaration at supportsInterface function),\r\n * inherit from Ownable to support Opensea Marketplace\r\n * and add getRaribleV2Royalties method to support Rarible Marketplace.\r\n *\r\n *\r\n *\r\n */\r\ncontract PropContract is ERC721Enumerable, AccessControl, Ownable, IERC2981 {\r\n\tstruct Property {\r\n\t\t// edition number\r\n\t\tuint16 edition;\r\n\t\t// id of the cell of board\r\n\t\tuint8 land;\r\n\t\t// rarity level (as a power of 10, i.e rarity = 1 means 10^1 = 10 versions)\r\n\t\tuint8 rarity;\r\n\t\t// serial number\r\n\t\tuint32 serial;\r\n\t}\r\n\r\n\tbytes32 public constant ADMIN_ROLE = keccak256(\"ADMIN_ROLE\");\r\n\tbytes32 public constant MINTER_ROLE = keccak256(\"MINTER_ROLE\");\r\n\r\n\tbytes4 private constant _INTERFACE_ID_ERC2981 = 0x2a55205a;\r\n\r\n\tBoardContract private immutable Board;\r\n\r\n\tmapping(uint256 => Property) private props;\r\n\t// Number of minted properties for each (edition, land, rarity) tuple\r\n\tmapping(uint16 => mapping(uint8 => mapping(uint8 => uint16))) numOfProps;\r\n\r\n\t// Bank contract allowance must be set in migration\r\n\t// and 0x58807baD0B376efc12F5AD86aAc70E78ed67deaE OpenSea's ERC721 Proxy Address\r\n\tmapping(address => bool) public isOperatorAllowed;\r\n\r\n\tmapping(uint256 => uint96) private royaltiesValuesByTokenId;\r\n\r\n\tstring private baseTokenURI;\r\n\r\n\tuint96 public defaultRoyaltyPercentageBasisPoints = 500; // 5%\r\n\r\n\tevent RoyaltySet(uint256 tokenId, uint256 royaltyPercentageBasisPoints);\r\n\r\n\tconstructor(\r\n\t\taddress BoardAddress,\r\n\t\tstring memory _name,\r\n\t\tstring memory _symbol,\r\n\t\tstring memory _baseTokenURI\r\n\t) ERC721(_name, _symbol) {\r\n\t\tbaseTokenURI = _baseTokenURI;\r\n\r\n\t\t_setupRole(ADMIN_ROLE, msg.sender);\r\n\t\t_setRoleAdmin(ADMIN_ROLE, ADMIN_ROLE);\r\n\t\t_setupRole(MINTER_ROLE, msg.sender);\r\n\t\t_setRoleAdmin(MINTER_ROLE, ADMIN_ROLE);\r\n\r\n\t\tBoard = BoardContract(BoardAddress);\r\n\t}\r\n\r\n\tfunction isValidProp(\r\n\t\tuint16 edition,\r\n\t\tuint8 land,\r\n\t\tuint8 rarity\r\n\t) public view returns (bool) {\r\n\t\treturn\r\n\t\t\t(edition <= Board.getMaxEdition()) &&\r\n\t\t\t(land <= Board.getNbLands(edition)) &&\r\n\t\t\t(Board.isPurchasable(edition, land)) &&\r\n\t\t\t(rarity <= Board.getRarityLevel(edition));\r\n\t}\r\n\r\n\tfunction _baseURI() internal view override returns (string memory) {\r\n\t\treturn baseTokenURI;\r\n\t}\r\n\r\n\tfunction tokenURI(uint256 _id) public view override returns (string memory) {\r\n\t\tstring memory uri = super.tokenURI(_id);\r\n\r\n\t\tstring memory ext = \".json\";\r\n\r\n\t\treturn string(abi.encodePacked(uri, ext));\r\n\t}\r\n\r\n\t/** Mint NFT token and set royalties default value\r\n\t * Requirements :\r\n\t * \t- Property must be valid\r\n\t * @param _to buyer address\r\n\t * @param _edition board edition\r\n\t * @param _land land id\r\n\t * @param _rarity rarity\r\n\t */\r\n\tfunction mint(\r\n\t\taddress _to,\r\n\t\tuint16 _edition,\r\n\t\tuint8 _land,\r\n\t\tuint8 _rarity\r\n\t) external onlyRole(MINTER_ROLE) returns (uint256 id_) {\r\n\t\trequire(isValidProp(_edition, _land, _rarity), \"PROP cannot be minted\");\r\n\t\tid_ = generateID(_edition, _land, _rarity);\r\n\r\n\t\t_safeMint(_to, id_);\r\n\t\t_setRoyalties(id_);\r\n\t}\r\n\r\n\tfunction get(uint256 _id) public view returns (Property memory p_) {\r\n\t\trequire(exists(_id), \"This property does not exist\");\r\n\r\n\t\tp_ = props[_id];\r\n\t}\r\n\r\n\tfunction exists(uint256 _id) public view returns (bool) {\r\n\t\treturn (\r\n\t\t\t(props[_id].land == 0) && (props[_id].edition == 0) && (props[_id].rarity == 0) && (props[_id].serial == 0)\r\n\t\t\t\t? false\r\n\t\t\t\t: true\r\n\t\t);\r\n\t}\r\n\r\n\tfunction getNbOfProps(\r\n\t\tuint16 _edition,\r\n\t\tuint8 _land,\r\n\t\tuint8 _rarity\r\n\t) public view returns (uint32 amount_) {\r\n\t\trequire(isValidProp(_edition, _land, _rarity), \"PROP does not exist\");\r\n\t\treturn numOfProps[_edition][_land][_rarity];\r\n\t}\r\n\r\n\tfunction supportsInterface(bytes4 _interfaceId)\r\n\t\tpublic\r\n\t\tview\r\n\t\toverride(ERC721Enumerable, AccessControl, IERC165)\r\n\t\treturns (bool)\r\n\t{\r\n\t\tif (_interfaceId == _INTERFACE_ID_ERC2981) {\r\n\t\t\treturn true;\r\n\t\t}\r\n\r\n\t\treturn super.supportsInterface(_interfaceId);\r\n\t}\r\n\r\n\tfunction generateID(\r\n\t\tuint16 _edition,\r\n\t\tuint8 _land,\r\n\t\tuint8 _rarity\r\n\t) internal returns (uint256 id_) {\r\n\t\tuint32 serial = numOfProps[_edition][_land][_rarity];\r\n\t\trequire(serial < 10**_rarity, \"all properties already minted\");\r\n\r\n\t\tnumOfProps[_edition][_land][_rarity] += 1;\r\n\r\n\t\tid_ = uint256(keccak256(abi.encode(_edition, _land, _rarity, serial)));\r\n\r\n\t\tprops[id_] = Property(_edition, _land, _rarity, serial);\r\n\t}\r\n\r\n\t/** Set default royalties percentage basis point. Can be only made by admin role.\r\n\t * @param _percentageBasisPoints royalties percentage basis point i.e. 500 = 5%\r\n\t */\r\n\tfunction setDefaultRoyaltyPercentageBasisPoints(uint96 _percentageBasisPoints) public onlyRole(ADMIN_ROLE) {\r\n\t\tdefaultRoyaltyPercentageBasisPoints = _percentageBasisPoints;\r\n\t}\r\n\r\n\t/** Set royalties for a NFT token id at percentage basis point. Can be only made by admin role.\r\n\t * @param _tokenId NFT token id\r\n\t * @param _percentageBasisPoints royalties percentage basis point i.e. 500 = 5%\r\n\t */\r\n\tfunction setRoyalties(uint256 _tokenId, uint96 _percentageBasisPoints) public onlyRole(ADMIN_ROLE) {\r\n\t\t_setRoyalties(_tokenId, _percentageBasisPoints);\r\n\t}\r\n\r\n\t/** @dev Set royalties for a NFT token id at default percentage basis point.\r\n\t * default value should be set with this.setDefaultRoyaltyPercentageBasisPoints\r\n\t * @param _tokenId NFT token id\r\n\t * @dev See this._setRoyalties(uint256 _tokenId, uint96 _percentageBasisPoints)\r\n\t */\r\n\tfunction _setRoyalties(uint256 _tokenId) internal {\r\n\t\t_setRoyalties(_tokenId, defaultRoyaltyPercentageBasisPoints);\r\n\t}\r\n\r\n\t/** Set royalties for a NFT token id at a percentage basis point. Assuming that royalties receiver is contract's owner\r\n\t * @param _tokenId NFT token id\r\n\t * @param _percentageBasisPoints royalties percentage basis point i.e. 500 = 5%\r\n\t */\r\n\tfunction _setRoyalties(uint256 _tokenId, uint96 _percentageBasisPoints) internal {\r\n\t\trequire(_percentageBasisPoints < 10000, \"Royalty value should be < 10000\");\r\n\r\n\t\troyaltiesValuesByTokenId[_tokenId] = _percentageBasisPoints;\r\n\r\n\t\temit RoyaltySet(_tokenId, _percentageBasisPoints);\r\n\t}\r\n\r\n\t/** Return royalties information as describe at EIP-2981: NFT Royalty Standard\r\n\t * return nul address and value if there is no royalty to pay.\r\n\t * @param _tokenId NFT token id\r\n\t * @param _salePrice sale price\r\n\t * @return receiver royalty receiver address\r\n\t * @return royaltyAmount royalty amount to pay to receiver\r\n\t * @dev Override isApprovedForAll to auto-approve confident operator contracts\r\n\t *      See {ERC721-isApprovedForAll}\r\n\t * \t\tSee https://docs.opensea.io/docs/polygon-basic-integration#overriding-isapprovedforall-to-reduce-trading-friction\r\n\t * @inheritdoc IERC2981\r\n\t */\r\n\tfunction royaltyInfo(uint256 _tokenId, uint256 _salePrice)\r\n\t\texternal\r\n\t\tview\r\n\t\treturns (address receiver, uint256 royaltyAmount)\r\n\t{\r\n\t\tuint96 royaltyValue = royaltiesValuesByTokenId[_tokenId];\r\n\t\tif (royaltyValue > 0) {\r\n\t\t\treturn (this.owner(), (_salePrice * royaltyValue) / 10000);\r\n\t\t}\r\n\r\n\t\treturn (address(0), 0);\r\n\t}\r\n\r\n\tfunction isApprovedForAll(address _owner, address _operator) public view override returns (bool) {\r\n\t\tif (isOperatorAllowed[_operator]) {\r\n\t\t\treturn true;\r\n\t\t}\r\n\r\n\t\t// silent warning\r\n\t\t_owner;\r\n\r\n\t\treturn false;\r\n\t}\r\n\r\n\t/** Admin role can allowed un operator\r\n\t * @param _address operator address\r\n\t * @param value true / false\r\n\t */\r\n\tfunction setIsOperatorAllowed(address _address, bool value) external onlyRole(ADMIN_ROLE) {\r\n\t\tisOperatorAllowed[_address] = value;\r\n\t}\r\n\r\n\t/**\r\n\t * @dev Override _isApprovedOrOwner to limit approval to confident operators only.\r\n\t *      See {IERC721-_isApprovedOrOwner}.\r\n\t */\r\n\tfunction _isApprovedOrOwner(address spender, uint256 tokenId) internal view override returns (bool) {\r\n\t\trequire(_exists(tokenId), \"ERC721: operator query for nonexistent token\");\r\n\t\taddress owner = ERC721.ownerOf(tokenId);\r\n\r\n\t\treturn isApprovedForAll(owner, spender); // limit allowed operator as spender\r\n\t}\r\n}\r\n",
  "sourcePath": "C:\\Users\\aaast\\Alyra\\mnp-trufflebox\\contracts\\Prop.sol",
  "compiler": {
    "name": "solc",
    "version": "0.8.10+commit.fc410830.Emscripten.clang"
  },
  "schemaVersion": "3.4.3",
  "updatedAt": "2022-01-18T11:31:02.220Z",
  "networkType": "ethereum",
  "devdoc": {
    "kind": "dev",
    "methods": {
      "approve(address,uint256)": {
        "details": "See {IERC721-approve}."
      },
      "balanceOf(address)": {
        "details": "See {IERC721-balanceOf}."
      },
      "getApproved(uint256)": {
        "details": "See {IERC721-getApproved}."
      },
      "getRoleAdmin(bytes32)": {
        "details": "Returns the admin role that controls `role`. See {grantRole} and {revokeRole}. To change a role's admin, use {_setRoleAdmin}."
      },
      "grantRole(bytes32,address)": {
        "details": "Grants `role` to `account`. If `account` had not been already granted `role`, emits a {RoleGranted} event. Requirements: - the caller must have ``role``'s admin role."
      },
      "hasRole(bytes32,address)": {
        "details": "Returns `true` if `account` has been granted `role`."
      },
      "mint(address,uint16,uint8,uint8)": {
        "params": {
          "_edition": "board edition",
          "_land": "land id",
          "_rarity": "rarity",
          "_to": "buyer address"
        }
      },
      "name()": {
        "details": "See {IERC721Metadata-name}."
      },
      "owner()": {
        "details": "Returns the address of the current owner."
      },
      "ownerOf(uint256)": {
        "details": "See {IERC721-ownerOf}."
      },
      "renounceOwnership()": {
        "details": "Leaves the contract without owner. It will not be possible to call `onlyOwner` functions anymore. Can only be called by the current owner. NOTE: Renouncing ownership will leave the contract without an owner, thereby removing any functionality that is only available to the owner."
      },
      "renounceRole(bytes32,address)": {
        "details": "Revokes `role` from the calling account. Roles are often managed via {grantRole} and {revokeRole}: this function's purpose is to provide a mechanism for accounts to lose their privileges if they are compromised (such as when a trusted device is misplaced). If the calling account had been revoked `role`, emits a {RoleRevoked} event. Requirements: - the caller must be `account`."
      },
      "revokeRole(bytes32,address)": {
        "details": "Revokes `role` from `account`. If `account` had been granted `role`, emits a {RoleRevoked} event. Requirements: - the caller must have ``role``'s admin role."
      },
      "royaltyInfo(uint256,uint256)": {
        "details": "Override isApprovedForAll to auto-approve confident operator contracts      See {ERC721-isApprovedForAll} \t\tSee https://docs.opensea.io/docs/polygon-basic-integration#overriding-isapprovedforall-to-reduce-trading-friction",
        "params": {
          "_salePrice": "sale price",
          "_tokenId": "NFT token id"
        },
        "returns": {
          "receiver": "royalty receiver address",
          "royaltyAmount": "royalty amount to pay to receiver"
        }
      },
      "safeTransferFrom(address,address,uint256)": {
        "details": "See {IERC721-safeTransferFrom}."
      },
      "safeTransferFrom(address,address,uint256,bytes)": {
        "details": "See {IERC721-safeTransferFrom}."
      },
      "setApprovalForAll(address,bool)": {
        "details": "See {IERC721-setApprovalForAll}."
      },
      "setDefaultRoyaltyPercentageBasisPoints(uint96)": {
        "params": {
          "_percentageBasisPoints": "royalties percentage basis point i.e. 500 = 5%"
        }
      },
      "setIsOperatorAllowed(address,bool)": {
        "params": {
          "_address": "operator address",
          "value": "true / false"
        }
      },
      "setRoyalties(uint256,uint96)": {
        "params": {
          "_percentageBasisPoints": "royalties percentage basis point i.e. 500 = 5%",
          "_tokenId": "NFT token id"
        }
      },
      "symbol()": {
        "details": "See {IERC721Metadata-symbol}."
      },
      "tokenByIndex(uint256)": {
        "details": "See {IERC721Enumerable-tokenByIndex}."
      },
      "tokenOfOwnerByIndex(address,uint256)": {
        "details": "See {IERC721Enumerable-tokenOfOwnerByIndex}."
      },
      "totalSupply()": {
        "details": "See {IERC721Enumerable-totalSupply}."
      },
      "transferFrom(address,address,uint256)": {
        "details": "See {IERC721-transferFrom}."
      },
      "transferOwnership(address)": {
        "details": "Transfers ownership of the contract to a new account (`newOwner`). Can only be called by the current owner."
      }
    },
    "version": 1
  },
  "userdoc": {
    "kind": "user",
    "methods": {
      "mint(address,uint16,uint8,uint8)": {
        "notice": "Mint NFT token and set royalties default value Requirements : \t- Property must be valid"
      },
      "royaltyInfo(uint256,uint256)": {
        "notice": "Return royalties information as describe at EIP-2981: NFT Royalty Standard return nul address and value if there is no royalty to pay."
      },
      "setDefaultRoyaltyPercentageBasisPoints(uint96)": {
        "notice": "Set default royalties percentage basis point. Can be only made by admin role."
      },
      "setIsOperatorAllowed(address,bool)": {
        "notice": "Admin role can allowed un operator"
      },
      "setRoyalties(uint256,uint96)": {
        "notice": "Set royalties for a NFT token id at percentage basis point. Can be only made by admin role."
      }
    },
    "notice": "@dev Royalties: Only some addresses are allowed to transfer these tokens (see isApprovedForAll() method and map isContractAllowed). Token owner can't resell is token outside an authorized Marketplace or directly to another address. support royalties implementation with method royaltyInfo() from ERC2981 (see interface declaration at supportsInterface function), inherit from Ownable to support Opensea Marketplace and add getRaribleV2Royalties method to support Rarible Marketplace.",
    "version": 1
  }
}