{
  "contractName": "StakingContract",
  "abi": [
    {
      "inputs": [
        {
          "internalType": "address",
          "name": "_rewardToken",
          "type": "address"
        },
        {
          "internalType": "address",
          "name": "_rewardTokenFeed",
          "type": "address"
        },
        {
          "internalType": "uint256",
          "name": "_yield",
          "type": "uint256"
        },
        {
          "internalType": "string",
          "name": "_networkTokenSymbol",
          "type": "string"
        }
      ],
      "stateMutability": "nonpayable",
      "type": "constructor"
    },
    {
      "anonymous": false,
      "inputs": [
        {
          "indexed": true,
          "internalType": "address",
          "name": "previousOwner",
          "type": "address"
        },
        {
          "indexed": true,
          "internalType": "address",
          "name": "newOwner",
          "type": "address"
        }
      ],
      "name": "OwnershipTransferred",
      "type": "event"
    },
    {
      "anonymous": false,
      "inputs": [
        {
          "indexed": false,
          "internalType": "address",
          "name": "tokenPoolAddress",
          "type": "address"
        },
        {
          "indexed": false,
          "internalType": "address",
          "name": "priceFeed",
          "type": "address"
        }
      ],
      "name": "PoolAdded",
      "type": "event"
    },
    {
      "anonymous": false,
      "inputs": [
        {
          "indexed": false,
          "internalType": "address",
          "name": "user",
          "type": "address"
        },
        {
          "indexed": false,
          "internalType": "address",
          "name": "tokenPoolAddress",
          "type": "address"
        },
        {
          "indexed": false,
          "internalType": "uint256",
          "name": "amount",
          "type": "uint256"
        }
      ],
      "name": "Staked",
      "type": "event"
    },
    {
      "anonymous": false,
      "inputs": [
        {
          "indexed": false,
          "internalType": "address",
          "name": "user",
          "type": "address"
        },
        {
          "indexed": false,
          "internalType": "address",
          "name": "tokenPoolAddress",
          "type": "address"
        },
        {
          "indexed": false,
          "internalType": "uint256",
          "name": "amount",
          "type": "uint256"
        }
      ],
      "name": "Unstaked",
      "type": "event"
    },
    {
      "inputs": [],
      "name": "NETWORK_TOKEN_VIRTUAL_ADDRESS",
      "outputs": [
        {
          "internalType": "address",
          "name": "",
          "type": "address"
        }
      ],
      "stateMutability": "view",
      "type": "function",
      "constant": true
    },
    {
      "inputs": [],
      "name": "networkTokenPoolBalance",
      "outputs": [
        {
          "internalType": "uint256",
          "name": "",
          "type": "uint256"
        }
      ],
      "stateMutability": "view",
      "type": "function",
      "constant": true
    },
    {
      "inputs": [],
      "name": "networkTokenSymbol",
      "outputs": [
        {
          "internalType": "string",
          "name": "",
          "type": "string"
        }
      ],
      "stateMutability": "view",
      "type": "function",
      "constant": true
    },
    {
      "inputs": [],
      "name": "owner",
      "outputs": [
        {
          "internalType": "address",
          "name": "",
          "type": "address"
        }
      ],
      "stateMutability": "view",
      "type": "function",
      "constant": true
    },
    {
      "inputs": [
        {
          "internalType": "string",
          "name": "",
          "type": "string"
        }
      ],
      "name": "poolAddressBySymbol",
      "outputs": [
        {
          "internalType": "address",
          "name": "",
          "type": "address"
        }
      ],
      "stateMutability": "view",
      "type": "function",
      "constant": true
    },
    {
      "inputs": [
        {
          "internalType": "address",
          "name": "",
          "type": "address"
        }
      ],
      "name": "pools",
      "outputs": [
        {
          "components": [
            {
              "internalType": "contract ERC20",
              "name": "token",
              "type": "address"
            },
            {
              "internalType": "bool",
              "name": "isTokenNetwork",
              "type": "bool"
            },
            {
              "internalType": "uint256",
              "name": "yield",
              "type": "uint256"
            },
            {
              "internalType": "string",
              "name": "symbol",
              "type": "string"
            },
            {
              "internalType": "string",
              "name": "name",
              "type": "string"
            },
            {
              "internalType": "contract AggregatorV3Interface",
              "name": "priceFeed",
              "type": "address"
            }
          ],
          "internalType": "struct StakingContract.PoolInfo",
          "name": "info",
          "type": "tuple"
        },
        {
          "internalType": "bool",
          "name": "isActive",
          "type": "bool"
        }
      ],
      "stateMutability": "view",
      "type": "function",
      "constant": true
    },
    {
      "inputs": [],
      "name": "renounceOwnership",
      "outputs": [],
      "stateMutability": "nonpayable",
      "type": "function"
    },
    {
      "inputs": [],
      "name": "rewardToken",
      "outputs": [
        {
          "internalType": "contract IERC20",
          "name": "",
          "type": "address"
        }
      ],
      "stateMutability": "view",
      "type": "function",
      "constant": true
    },
    {
      "inputs": [
        {
          "internalType": "address",
          "name": "newOwner",
          "type": "address"
        }
      ],
      "name": "transferOwnership",
      "outputs": [],
      "stateMutability": "nonpayable",
      "type": "function"
    },
    {
      "inputs": [],
      "name": "getPools",
      "outputs": [
        {
          "internalType": "address[]",
          "name": "",
          "type": "address[]"
        }
      ],
      "stateMutability": "view",
      "type": "function",
      "constant": true
    },
    {
      "inputs": [
        {
          "internalType": "address",
          "name": "_token",
          "type": "address"
        },
        {
          "internalType": "address",
          "name": "_user",
          "type": "address"
        }
      ],
      "name": "getUserBalanceInPool",
      "outputs": [
        {
          "internalType": "uint256",
          "name": "",
          "type": "uint256"
        }
      ],
      "stateMutability": "view",
      "type": "function",
      "constant": true
    },
    {
      "inputs": [
        {
          "internalType": "address",
          "name": "_token",
          "type": "address"
        }
      ],
      "name": "getPoolBalance",
      "outputs": [
        {
          "internalType": "uint256",
          "name": "",
          "type": "uint256"
        }
      ],
      "stateMutability": "view",
      "type": "function",
      "constant": true
    },
    {
      "inputs": [],
      "name": "getActivePools",
      "outputs": [
        {
          "internalType": "address[]",
          "name": "",
          "type": "address[]"
        }
      ],
      "stateMutability": "view",
      "type": "function",
      "constant": true
    },
    {
      "inputs": [
        {
          "internalType": "address",
          "name": "_token",
          "type": "address"
        },
        {
          "internalType": "address",
          "name": "_priceFeed",
          "type": "address"
        },
        {
          "internalType": "uint256",
          "name": "_yield",
          "type": "uint256"
        },
        {
          "internalType": "string",
          "name": "_symbol",
          "type": "string"
        },
        {
          "internalType": "string",
          "name": "_name",
          "type": "string"
        },
        {
          "internalType": "bool",
          "name": "_isActive",
          "type": "bool"
        }
      ],
      "name": "addPool",
      "outputs": [],
      "stateMutability": "nonpayable",
      "type": "function"
    },
    {
      "inputs": [
        {
          "internalType": "address",
          "name": "_token",
          "type": "address"
        },
        {
          "internalType": "uint256",
          "name": "_amount",
          "type": "uint256"
        }
      ],
      "name": "stake",
      "outputs": [],
      "stateMutability": "payable",
      "type": "function",
      "payable": true
    },
    {
      "inputs": [
        {
          "internalType": "address",
          "name": "_token",
          "type": "address"
        }
      ],
      "name": "unstake",
      "outputs": [],
      "stateMutability": "nonpayable",
      "type": "function"
    },
    {
      "inputs": [
        {
          "internalType": "address",
          "name": "_token",
          "type": "address"
        }
      ],
      "name": "pendingReward",
      "outputs": [
        {
          "internalType": "uint256",
          "name": "",
          "type": "uint256"
        }
      ],
      "stateMutability": "view",
      "type": "function",
      "constant": true
    },
    {
      "inputs": [
        {
          "internalType": "address",
          "name": "_token",
          "type": "address"
        }
      ],
      "name": "getLastPrice",
      "outputs": [
        {
          "internalType": "int256",
          "name": "",
          "type": "int256"
        }
      ],
      "stateMutability": "view",
      "type": "function",
      "constant": true
    }
  ],
  "bytecode": "0x60806040523480156200001157600080fd5b506040516200376138038062003761833981810160405281019062000037919062000822565b620000576200004b6200013c60201b60201c565b6200014460201b60201c565b80600190805190602001906200006f92919062000535565b5083600260006101000a81548173ffffffffffffffffffffffffffffffffffffffff021916908373ffffffffffffffffffffffffffffffffffffffff160217905550620001328484846040518060400160405280600481526020017f4d4f4e4f000000000000000000000000000000000000000000000000000000008152506040518060400160405280600681526020017f4d574d4f4e4f000000000000000000000000000000000000000000000000000081525060006200020860201b60201c565b50505050620009dc565b600033905090565b60008060009054906101000a900473ffffffffffffffffffffffffffffffffffffffff169050816000806101000a81548173ffffffffffffffffffffffffffffffffffffffff021916908373ffffffffffffffffffffffffffffffffffffffff1602179055508173ffffffffffffffffffffffffffffffffffffffff168173ffffffffffffffffffffffffffffffffffffffff167f8be0079c531659141344cd1fd0a4f28419497f9722a3daafe3b4186f6b6457e060405160405180910390a35050565b6000600360008873ffffffffffffffffffffffffffffffffffffffff1673ffffffffffffffffffffffffffffffffffffffff1681526020019081526020016000209050868160000160000160006101000a81548173ffffffffffffffffffffffffffffffffffffffff021916908373ffffffffffffffffffffffffffffffffffffffff16021790555084816000016001018190555083816000016002019080519060200190620002ba92919062000535565b5082816000016003019080519060200190620002d892919062000535565b50858160000160040160006101000a81548173ffffffffffffffffffffffffffffffffffffffff021916908373ffffffffffffffffffffffffffffffffffffffff160217905550818160060160006101000a81548160ff0219169083151502179055506004879080600181540180825580915050600190039060005260206000200160009091909190916101000a81548173ffffffffffffffffffffffffffffffffffffffff021916908373ffffffffffffffffffffffffffffffffffffffff160217905550811562000409576005879080600181540180825580915050600190039060005260206000200160009091909190916101000a81548173ffffffffffffffffffffffffffffffffffffffff021916908373ffffffffffffffffffffffffffffffffffffffff1602179055505b600173ffffffffffffffffffffffffffffffffffffffff168773ffffffffffffffffffffffffffffffffffffffff161415620004c65760018160000160000160146101000a81548160ff0219169083151502179055508660066001604051620004739190620009c3565b908152602001604051809103902060006101000a81548173ffffffffffffffffffffffffffffffffffffffff021916908373ffffffffffffffffffffffffffffffffffffffff160217905550506200052d565b86600682600001600201604051620004df9190620009c3565b908152602001604051809103902060006101000a81548173ffffffffffffffffffffffffffffffffffffffff021916908373ffffffffffffffffffffffffffffffffffffffff160217905550505b505050505050565b8280546200054390620008e2565b90600052602060002090601f016020900481019282620005675760008555620005b3565b82601f106200058257805160ff1916838001178555620005b3565b82800160010185558215620005b3579182015b82811115620005b257825182559160200191906001019062000595565b5b509050620005c29190620005c6565b5090565b5b80821115620005e1576000816000905550600101620005c7565b5090565b6000604051905090565b600080fd5b600080fd5b600073ffffffffffffffffffffffffffffffffffffffff82169050919050565b60006200062682620005f9565b9050919050565b620006388162000619565b81146200064457600080fd5b50565b60008151905062000658816200062d565b92915050565b6000819050919050565b62000673816200065e565b81146200067f57600080fd5b50565b600081519050620006938162000668565b92915050565b600080fd5b600080fd5b6000601f19601f8301169050919050565b7f4e487b7100000000000000000000000000000000000000000000000000000000600052604160045260246000fd5b620006ee82620006a3565b810181811067ffffffffffffffff8211171562000710576200070f620006b4565b5b80604052505050565b600062000725620005e5565b9050620007338282620006e3565b919050565b600067ffffffffffffffff821115620007565762000755620006b4565b5b6200076182620006a3565b9050602081019050919050565b60005b838110156200078e57808201518184015260208101905062000771565b838111156200079e576000848401525b50505050565b6000620007bb620007b58462000738565b62000719565b905082815260208101848484011115620007da57620007d96200069e565b5b620007e78482856200076e565b509392505050565b600082601f83011262000807576200080662000699565b5b815162000819848260208601620007a4565b91505092915050565b600080600080608085870312156200083f576200083e620005ef565b5b60006200084f8782880162000647565b9450506020620008628782880162000647565b9350506040620008758782880162000682565b925050606085015167ffffffffffffffff811115620008995762000898620005f4565b5b620008a787828801620007ef565b91505092959194509250565b7f4e487b7100000000000000000000000000000000000000000000000000000000600052602260045260246000fd5b60006002820490506001821680620008fb57607f821691505b60208210811415620009125762000911620008b3565b5b50919050565b600081905092915050565b60008190508160005260206000209050919050565b600081546200094781620008e2565b62000953818662000918565b945060018216600081146200097157600181146200098357620009ba565b60ff19831686528186019350620009ba565b6200098e8562000923565b60005b83811015620009b25781548189015260018201915060208101905062000991565b838801955050505b50505092915050565b6000620009d1828462000938565b915081905092915050565b612d7580620009ec6000396000f3fe6080604052600436106101095760003560e01c8063a4063dbc11610095578063da71664311610064578063da71664314610373578063f2888dbb1461039e578063f2fde38b146103c7578063f40f0f52146103f0578063f7c618c11461042d57610109565b8063a4063dbc1461029f578063adc9772e146102dd578063c692fc74146102f9578063d28682ea1461033657610109565b80636da0f078116100dc5780636da0f078146101ca578063715018a6146102075780638aa26d271461021e5780638da5cb5b146102495780638ec083541461027457610109565b8063021ba5471461010e57806321ac23a31461013957806330de5fdc14610176578063673a2a1f1461019f575b600080fd5b34801561011a57600080fd5b50610123610458565b6040516101309190611d3a565b60405180910390f35b34801561014557600080fd5b50610160600480360381019061015b9190611ea5565b6104e6565b60405161016d9190611f2f565b60405180910390f35b34801561018257600080fd5b5061019d60048036038101906101989190611fe4565b61052f565b005b3480156101ab57600080fd5b506101b46106ce565b6040516101c19190612167565b60405180910390f35b3480156101d657600080fd5b506101f160048036038101906101ec9190612189565b61075c565b6040516101fe91906121d8565b60405180910390f35b34801561021357600080fd5b5061021c6107e9565b005b34801561022a57600080fd5b50610233610871565b6040516102409190611f2f565b60405180910390f35b34801561025557600080fd5b5061025e610876565b60405161026b9190611f2f565b60405180910390f35b34801561028057600080fd5b5061028961089f565b6040516102969190612167565b60405180910390f35b3480156102ab57600080fd5b506102c660048036038101906102c191906121f3565b61092d565b6040516102d49291906123a7565b60405180910390f35b6102f760048036038101906102f291906123d7565b610b5d565b005b34801561030557600080fd5b50610320600480360381019061031b91906121f3565b610f36565b60405161032d9190612430565b60405180910390f35b34801561034257600080fd5b5061035d600480360381019061035891906121f3565b611022565b60405161036a91906121d8565b60405180910390f35b34801561037f57600080fd5b5061038861114a565b60405161039591906121d8565b60405180910390f35b3480156103aa57600080fd5b506103c560048036038101906103c091906121f3565b611150565b005b3480156103d357600080fd5b506103ee60048036038101906103e991906121f3565b611510565b005b3480156103fc57600080fd5b50610417600480360381019061041291906121f3565b611608565b60405161042491906121d8565b60405180910390f35b34801561043957600080fd5b506104426116e6565b60405161044f919061246c565b60405180910390f35b60018054610465906124b6565b80601f0160208091040260200160405190810160405280929190818152602001828054610491906124b6565b80156104de5780601f106104b3576101008083540402835291602001916104de565b820191906000526020600020905b8154815290600101906020018083116104c157829003601f168201915b505050505081565b6006818051602081018201805184825260208301602085012081835280955050505050506000915054906101000a900473ffffffffffffffffffffffffffffffffffffffff1681565b61053761170c565b73ffffffffffffffffffffffffffffffffffffffff16610555610876565b73ffffffffffffffffffffffffffffffffffffffff16146105ab576040517f08c379a00000000000000000000000000000000000000000000000000000000081526004016105a290612534565b60405180910390fd5b8573ffffffffffffffffffffffffffffffffffffffff16600360008873ffffffffffffffffffffffffffffffffffffffff1673ffffffffffffffffffffffffffffffffffffffff16815260200190815260200160002060000160000160009054906101000a900473ffffffffffffffffffffffffffffffffffffffff1673ffffffffffffffffffffffffffffffffffffffff16141561067f576040517f08c379a0000000000000000000000000000000000000000000000000000000008152600401610676906125a0565b60405180910390fd5b61068d868686868686611714565b7f95f865c2808f8b2a85eea2611db7843150ee7835ef1403f9755918a97d76933c86866040516106be9291906125c0565b60405180910390a1505050505050565b6060600480548060200260200160405190810160405280929190818152602001828054801561075257602002820191906000526020600020905b8160009054906101000a900473ffffffffffffffffffffffffffffffffffffffff1673ffffffffffffffffffffffffffffffffffffffff1681526020019060010190808311610708575b5050505050905090565b6000600360008473ffffffffffffffffffffffffffffffffffffffff1673ffffffffffffffffffffffffffffffffffffffff16815260200190815260200160002060050160008373ffffffffffffffffffffffffffffffffffffffff1673ffffffffffffffffffffffffffffffffffffffff16815260200190815260200160002060000154905092915050565b6107f161170c565b73ffffffffffffffffffffffffffffffffffffffff1661080f610876565b73ffffffffffffffffffffffffffffffffffffffff1614610865576040517f08c379a000000000000000000000000000000000000000000000000000000000815260040161085c90612534565b60405180910390fd5b61086f6000611a36565b565b600181565b60008060009054906101000a900473ffffffffffffffffffffffffffffffffffffffff16905090565b6060600580548060200260200160405190810160405280929190818152602001828054801561092357602002820191906000526020600020905b8160009054906101000a900473ffffffffffffffffffffffffffffffffffffffff1673ffffffffffffffffffffffffffffffffffffffff16815260200190600101908083116108d9575b5050505050905090565b6003602052806000526040600020600091509050806000016040518060c00160405290816000820160009054906101000a900473ffffffffffffffffffffffffffffffffffffffff1673ffffffffffffffffffffffffffffffffffffffff1673ffffffffffffffffffffffffffffffffffffffff1681526020016000820160149054906101000a900460ff16151515158152602001600182015481526020016002820180546109db906124b6565b80601f0160208091040260200160405190810160405280929190818152602001828054610a07906124b6565b8015610a545780601f10610a2957610100808354040283529160200191610a54565b820191906000526020600020905b815481529060010190602001808311610a3757829003601f168201915b50505050508152602001600382018054610a6d906124b6565b80601f0160208091040260200160405190810160405280929190818152602001828054610a99906124b6565b8015610ae65780601f10610abb57610100808354040283529160200191610ae6565b820191906000526020600020905b815481529060010190602001808311610ac957829003601f168201915b505050505081526020016004820160009054906101000a900473ffffffffffffffffffffffffffffffffffffffff1673ffffffffffffffffffffffffffffffffffffffff1673ffffffffffffffffffffffffffffffffffffffff1681525050908060060160009054906101000a900460ff16905082565b60008111610ba0576040517f08c379a0000000000000000000000000000000000000000000000000000000008152600401610b9790612635565b60405180910390fd5b6000600360008473ffffffffffffffffffffffffffffffffffffffff1673ffffffffffffffffffffffffffffffffffffffff168152602001908152602001600020905060008160050160003373ffffffffffffffffffffffffffffffffffffffff1673ffffffffffffffffffffffffffffffffffffffff16815260200190815260200160002090506000816000015414610c6f576040517f08c379a0000000000000000000000000000000000000000000000000000000008152600401610c66906126a1565b60405180910390fd5b600173ffffffffffffffffffffffffffffffffffffffff168473ffffffffffffffffffffffffffffffffffffffff161415610d0357823373ffffffffffffffffffffffffffffffffffffffff16311015610cfe576040517f08c379a0000000000000000000000000000000000000000000000000000000008152600401610cf59061270d565b60405180910390fd5b610de7565b828260000160000160009054906101000a900473ffffffffffffffffffffffffffffffffffffffff1673ffffffffffffffffffffffffffffffffffffffff166370a08231336040518263ffffffff1660e01b8152600401610d649190611f2f565b602060405180830381865afa158015610d81573d6000803e3d6000fd5b505050506040513d601f19601f82011682018060405250810190610da59190612742565b1015610de6576040517f08c379a0000000000000000000000000000000000000000000000000000000008152600401610ddd9061270d565b60405180910390fd5b5b828160000181905550428160010181905550600173ffffffffffffffffffffffffffffffffffffffff168473ffffffffffffffffffffffffffffffffffffffff161415610e4c578260076000828254610e40919061279e565b92505081905550610ef5565b8160000160000160009054906101000a900473ffffffffffffffffffffffffffffffffffffffff1673ffffffffffffffffffffffffffffffffffffffff166323b872dd3330866040518463ffffffff1660e01b8152600401610eb0939291906127f4565b6020604051808303816000875af1158015610ecf573d6000803e3d6000fd5b505050506040513d601f19601f82011682018060405250810190610ef39190612840565b505b7f5dac0c1b1112564a045ba943c9d50270893e8e826c49be8e7073adc713ab7bd7338585604051610f28939291906127f4565b60405180910390a150505050565b600080600360008473ffffffffffffffffffffffffffffffffffffffff1673ffffffffffffffffffffffffffffffffffffffff168152602001908152602001600020905060008160000160040160009054906101000a900473ffffffffffffffffffffffffffffffffffffffff1673ffffffffffffffffffffffffffffffffffffffff1663feaf968c6040518163ffffffff1660e01b815260040160a060405180830381865afa158015610fee573d6000803e3d6000fd5b505050506040513d601f19601f8201168201806040525081019061101291906128db565b5050509150508092505050919050565b6000600173ffffffffffffffffffffffffffffffffffffffff168273ffffffffffffffffffffffffffffffffffffffff161415611063576007549050611145565b600360008373ffffffffffffffffffffffffffffffffffffffff1673ffffffffffffffffffffffffffffffffffffffff16815260200190815260200160002060000160000160009054906101000a900473ffffffffffffffffffffffffffffffffffffffff1673ffffffffffffffffffffffffffffffffffffffff166370a08231306040518263ffffffff1660e01b81526004016111019190611f2f565b602060405180830381865afa15801561111e573d6000803e3d6000fd5b505050506040513d601f19601f820116820180604052508101906111429190612742565b90505b919050565b60075481565b6000600360008373ffffffffffffffffffffffffffffffffffffffff1673ffffffffffffffffffffffffffffffffffffffff16815260200190815260200160002090506000600360008473ffffffffffffffffffffffffffffffffffffffff1673ffffffffffffffffffffffffffffffffffffffff16815260200190815260200160002060050160003373ffffffffffffffffffffffffffffffffffffffff1673ffffffffffffffffffffffffffffffffffffffff1681526020019081526020016000209050600081600001541161125d576040517f08c379a0000000000000000000000000000000000000000000000000000000008152600401611254906129a2565b60405180910390fd5b600061126d848460000184611afa565b905060008260000154905060008360000181905550600173ffffffffffffffffffffffffffffffffffffffff168573ffffffffffffffffffffffffffffffffffffffff161415611386578260000154600760008282546112cd91906129c2565b9250508190555060003373ffffffffffffffffffffffffffffffffffffffff16826040516112fa90612a27565b60006040518083038185875af1925050503d8060008114611337576040519150601f19603f3d011682016040523d82523d6000602084013e61133c565b606091505b5050905080611380576040517f08c379a000000000000000000000000000000000000000000000000000000000815260040161137790612a88565b60405180910390fd5b5061142d565b8360000160000160009054906101000a900473ffffffffffffffffffffffffffffffffffffffff1673ffffffffffffffffffffffffffffffffffffffff1663a9059cbb33836040518363ffffffff1660e01b81526004016113e8929190612aa8565b6020604051808303816000875af1158015611407573d6000803e3d6000fd5b505050506040513d601f19601f8201168201806040525081019061142b9190612840565b505b600260009054906101000a900473ffffffffffffffffffffffffffffffffffffffff1673ffffffffffffffffffffffffffffffffffffffff1663a9059cbb33846040518363ffffffff1660e01b815260040161148a929190612aa8565b6020604051808303816000875af11580156114a9573d6000803e3d6000fd5b505050506040513d601f19601f820116820180604052508101906114cd9190612840565b507fd8654fcc8cf5b36d30b3f5e4688fc78118e6d68de60b9994e09902268b57c3e3338683604051611501939291906127f4565b60405180910390a15050505050565b61151861170c565b73ffffffffffffffffffffffffffffffffffffffff16611536610876565b73ffffffffffffffffffffffffffffffffffffffff161461158c576040517f08c379a000000000000000000000000000000000000000000000000000000000815260040161158390612534565b60405180910390fd5b600073ffffffffffffffffffffffffffffffffffffffff168173ffffffffffffffffffffffffffffffffffffffff1614156115fc576040517f08c379a00000000000000000000000000000000000000000000000000000000081526004016115f390612b43565b60405180910390fd5b61160581611a36565b50565b600080600360008473ffffffffffffffffffffffffffffffffffffffff1673ffffffffffffffffffffffffffffffffffffffff16815260200190815260200160002090506000600360008573ffffffffffffffffffffffffffffffffffffffff1673ffffffffffffffffffffffffffffffffffffffff16815260200190815260200160002060050160003373ffffffffffffffffffffffffffffffffffffffff1673ffffffffffffffffffffffffffffffffffffffff16815260200190815260200160002090506116dd848360000183611afa565b92505050919050565b600260009054906101000a900473ffffffffffffffffffffffffffffffffffffffff1681565b600033905090565b6000600360008873ffffffffffffffffffffffffffffffffffffffff1673ffffffffffffffffffffffffffffffffffffffff1681526020019081526020016000209050868160000160000160006101000a81548173ffffffffffffffffffffffffffffffffffffffff021916908373ffffffffffffffffffffffffffffffffffffffff160217905550848160000160010181905550838160000160020190805190602001906117c4929190611bfe565b50828160000160030190805190602001906117e0929190611bfe565b50858160000160040160006101000a81548173ffffffffffffffffffffffffffffffffffffffff021916908373ffffffffffffffffffffffffffffffffffffffff160217905550818160060160006101000a81548160ff0219169083151502179055506004879080600181540180825580915050600190039060005260206000200160009091909190916101000a81548173ffffffffffffffffffffffffffffffffffffffff021916908373ffffffffffffffffffffffffffffffffffffffff1602179055508115611910576005879080600181540180825580915050600190039060005260206000200160009091909190916101000a81548173ffffffffffffffffffffffffffffffffffffffff021916908373ffffffffffffffffffffffffffffffffffffffff1602179055505b600173ffffffffffffffffffffffffffffffffffffffff168773ffffffffffffffffffffffffffffffffffffffff1614156119c95760018160000160000160146101000a81548160ff02191690831515021790555086600660016040516119779190612c02565b908152602001604051809103902060006101000a81548173ffffffffffffffffffffffffffffffffffffffff021916908373ffffffffffffffffffffffffffffffffffffffff16021790555050611a2e565b866006826000016002016040516119e09190612c02565b908152602001604051809103902060006101000a81548173ffffffffffffffffffffffffffffffffffffffff021916908373ffffffffffffffffffffffffffffffffffffffff160217905550505b505050505050565b60008060009054906101000a900473ffffffffffffffffffffffffffffffffffffffff169050816000806101000a81548173ffffffffffffffffffffffffffffffffffffffff021916908373ffffffffffffffffffffffffffffffffffffffff1602179055508173ffffffffffffffffffffffffffffffffffffffff168173ffffffffffffffffffffffffffffffffffffffff167f8be0079c531659141344cd1fd0a4f28419497f9722a3daafe3b4186f6b6457e060405160405180910390a35050565b60008160010154421015611b43576040517f08c379a0000000000000000000000000000000000000000000000000000000008152600401611b3a90612c65565b60405180910390fd5b611b4c84610f36565b611b77600260009054906101000a900473ffffffffffffffffffffffffffffffffffffffff16610f36565b603c80601861016d60648960010154896001015442611b9691906129c2565b8a60000154611ba59190612c85565b611baf9190612c85565b611bb99190612d0e565b611bc39190612d0e565b611bcd9190612d0e565b611bd79190612d0e565b611be19190612d0e565b611beb9190612c85565b611bf59190612d0e565b90509392505050565b828054611c0a906124b6565b90600052602060002090601f016020900481019282611c2c5760008555611c73565b82601f10611c4557805160ff1916838001178555611c73565b82800160010185558215611c73579182015b82811115611c72578251825591602001919060010190611c57565b5b509050611c809190611c84565b5090565b5b80821115611c9d576000816000905550600101611c85565b5090565b600081519050919050565b600082825260208201905092915050565b60005b83811015611cdb578082015181840152602081019050611cc0565b83811115611cea576000848401525b50505050565b6000601f19601f8301169050919050565b6000611d0c82611ca1565b611d168185611cac565b9350611d26818560208601611cbd565b611d2f81611cf0565b840191505092915050565b60006020820190508181036000830152611d548184611d01565b905092915050565b6000604051905090565b600080fd5b600080fd5b600080fd5b600080fd5b7f4e487b7100000000000000000000000000000000000000000000000000000000600052604160045260246000fd5b611db282611cf0565b810181811067ffffffffffffffff82111715611dd157611dd0611d7a565b5b80604052505050565b6000611de4611d5c565b9050611df08282611da9565b919050565b600067ffffffffffffffff821115611e1057611e0f611d7a565b5b611e1982611cf0565b9050602081019050919050565b82818337600083830152505050565b6000611e48611e4384611df5565b611dda565b905082815260208101848484011115611e6457611e63611d75565b5b611e6f848285611e26565b509392505050565b600082601f830112611e8c57611e8b611d70565b5b8135611e9c848260208601611e35565b91505092915050565b600060208284031215611ebb57611eba611d66565b5b600082013567ffffffffffffffff811115611ed957611ed8611d6b565b5b611ee584828501611e77565b91505092915050565b600073ffffffffffffffffffffffffffffffffffffffff82169050919050565b6000611f1982611eee565b9050919050565b611f2981611f0e565b82525050565b6000602082019050611f446000830184611f20565b92915050565b611f5381611f0e565b8114611f5e57600080fd5b50565b600081359050611f7081611f4a565b92915050565b6000819050919050565b611f8981611f76565b8114611f9457600080fd5b50565b600081359050611fa681611f80565b92915050565b60008115159050919050565b611fc181611fac565b8114611fcc57600080fd5b50565b600081359050611fde81611fb8565b92915050565b60008060008060008060c0878903121561200157612000611d66565b5b600061200f89828a01611f61565b965050602061202089828a01611f61565b955050604061203189828a01611f97565b945050606087013567ffffffffffffffff81111561205257612051611d6b565b5b61205e89828a01611e77565b935050608087013567ffffffffffffffff81111561207f5761207e611d6b565b5b61208b89828a01611e77565b92505060a061209c89828a01611fcf565b9150509295509295509295565b600081519050919050565b600082825260208201905092915050565b6000819050602082019050919050565b6120de81611f0e565b82525050565b60006120f083836120d5565b60208301905092915050565b6000602082019050919050565b6000612114826120a9565b61211e81856120b4565b9350612129836120c5565b8060005b8381101561215a57815161214188826120e4565b975061214c836120fc565b92505060018101905061212d565b5085935050505092915050565b600060208201905081810360008301526121818184612109565b905092915050565b600080604083850312156121a05761219f611d66565b5b60006121ae85828601611f61565b92505060206121bf85828601611f61565b9150509250929050565b6121d281611f76565b82525050565b60006020820190506121ed60008301846121c9565b92915050565b60006020828403121561220957612208611d66565b5b600061221784828501611f61565b91505092915050565b6000819050919050565b600061224561224061223b84611eee565b612220565b611eee565b9050919050565b60006122578261222a565b9050919050565b60006122698261224c565b9050919050565b6122798161225e565b82525050565b61228881611fac565b82525050565b61229781611f76565b82525050565b600082825260208201905092915050565b60006122b982611ca1565b6122c3818561229d565b93506122d3818560208601611cbd565b6122dc81611cf0565b840191505092915050565b60006122f28261224c565b9050919050565b612302816122e7565b82525050565b600060c0830160008301516123206000860182612270565b506020830151612333602086018261227f565b506040830151612346604086018261228e565b506060830151848203606086015261235e82826122ae565b9150506080830151848203608086015261237882826122ae565b91505060a083015161238d60a08601826122f9565b508091505092915050565b6123a181611fac565b82525050565b600060408201905081810360008301526123c18185612308565b90506123d06020830184612398565b9392505050565b600080604083850312156123ee576123ed611d66565b5b60006123fc85828601611f61565b925050602061240d85828601611f97565b9150509250929050565b6000819050919050565b61242a81612417565b82525050565b60006020820190506124456000830184612421565b92915050565b60006124568261224c565b9050919050565b6124668161244b565b82525050565b6000602082019050612481600083018461245d565b92915050565b7f4e487b7100000000000000000000000000000000000000000000000000000000600052602260045260246000fd5b600060028204905060018216806124ce57607f821691505b602082108114156124e2576124e1612487565b5b50919050565b7f4f776e61626c653a2063616c6c6572206973206e6f7420746865206f776e6572600082015250565b600061251e602083611cac565b9150612529826124e8565b602082019050919050565b6000602082019050818103600083015261254d81612511565b9050919050565b7f506f6f6c20616c7265616479206578697374732e000000000000000000000000600082015250565b600061258a601483611cac565b915061259582612554565b602082019050919050565b600060208201905081810360008301526125b98161257d565b9050919050565b60006040820190506125d56000830185611f20565b6125e26020830184611f20565b9392505050565b7f4e6f6e2076616c696420616d6f756e7400000000000000000000000000000000600082015250565b600061261f601083611cac565b915061262a826125e9565b602082019050919050565b6000602082019050818103600083015261264e81612612565b9050919050565b7f556e737461636b20666972737400000000000000000000000000000000000000600082015250565b600061268b600d83611cac565b915061269682612655565b602082019050919050565b600060208201905081810360008301526126ba8161267e565b9050919050565b7f496e73756666696369656e742062616c616e6365000000000000000000000000600082015250565b60006126f7601483611cac565b9150612702826126c1565b602082019050919050565b60006020820190508181036000830152612726816126ea565b9050919050565b60008151905061273c81611f80565b92915050565b60006020828403121561275857612757611d66565b5b60006127668482850161272d565b91505092915050565b7f4e487b7100000000000000000000000000000000000000000000000000000000600052601160045260246000fd5b60006127a982611f76565b91506127b483611f76565b9250827fffffffffffffffffffffffffffffffffffffffffffffffffffffffffffffffff038211156127e9576127e861276f565b5b828201905092915050565b60006060820190506128096000830186611f20565b6128166020830185611f20565b61282360408301846121c9565b949350505050565b60008151905061283a81611fb8565b92915050565b60006020828403121561285657612855611d66565b5b60006128648482850161282b565b91505092915050565b600069ffffffffffffffffffff82169050919050565b61288c8161286d565b811461289757600080fd5b50565b6000815190506128a981612883565b92915050565b6128b881612417565b81146128c357600080fd5b50565b6000815190506128d5816128af565b92915050565b600080600080600060a086880312156128f7576128f6611d66565b5b60006129058882890161289a565b9550506020612916888289016128c6565b94505060406129278882890161272d565b93505060606129388882890161272d565b92505060806129498882890161289a565b9150509295509295909350565b7f4e6f7468696e6720746f20756e7374616b650000000000000000000000000000600082015250565b600061298c601283611cac565b915061299782612956565b602082019050919050565b600060208201905081810360008301526129bb8161297f565b9050919050565b60006129cd82611f76565b91506129d883611f76565b9250828210156129eb576129ea61276f565b5b828203905092915050565b600081905092915050565b50565b6000612a116000836129f6565b9150612a1c82612a01565b600082019050919050565b6000612a3282612a04565b9150819050919050565b7f4661696c656420746f2073656e64204574686572000000000000000000000000600082015250565b6000612a72601483611cac565b9150612a7d82612a3c565b602082019050919050565b60006020820190508181036000830152612aa181612a65565b9050919050565b6000604082019050612abd6000830185611f20565b612aca60208301846121c9565b9392505050565b7f4f776e61626c653a206e6577206f776e657220697320746865207a65726f206160008201527f6464726573730000000000000000000000000000000000000000000000000000602082015250565b6000612b2d602683611cac565b9150612b3882612ad1565b604082019050919050565b60006020820190508181036000830152612b5c81612b20565b9050919050565b600081905092915050565b60008190508160005260206000209050919050565b60008154612b90816124b6565b612b9a8186612b63565b94506001821660008114612bb55760018114612bc657612bf9565b60ff19831686528186019350612bf9565b612bcf85612b6e565b60005b83811015612bf157815481890152600182019150602081019050612bd2565b838801955050505b50505092915050565b6000612c0e8284612b83565b915081905092915050565b7f4465706f73697420646174652070726f626c656d000000000000000000000000600082015250565b6000612c4f601483611cac565b9150612c5a82612c19565b602082019050919050565b60006020820190508181036000830152612c7e81612c42565b9050919050565b6000612c9082611f76565b9150612c9b83611f76565b9250817fffffffffffffffffffffffffffffffffffffffffffffffffffffffffffffffff0483118215151615612cd457612cd361276f565b5b828202905092915050565b7f4e487b7100000000000000000000000000000000000000000000000000000000600052601260045260246000fd5b6000612d1982611f76565b9150612d2483611f76565b925082612d3457612d33612cdf565b5b82820490509291505056fea26469706673582212201452c406fb0d3bc007d3bace125dcad4bec8630671f9b003f83701982f9f3d7564736f6c634300080a0033",
  "immutableReferences": {},
  "source": "// StakingContract.sol\r\n// SPDX-License-Identifier: MIT\r\n\r\npragma solidity 0.8.10;\r\nimport '@openzeppelin/contracts/token/ERC20/IERC20.sol';\r\nimport '@openzeppelin/contracts/access/Ownable.sol';\r\nimport '@openzeppelin/contracts/token/ERC20/ERC20.sol';\r\nimport '@chainlink/contracts/src/v0.8/interfaces/AggregatorV3Interface.sol';\r\n\r\n/**\r\n * @title Staking contract\r\n * @notice This contract is made for staking ERC20 tokens to earn an ERC20 token.\r\n * @author Jerome Caporossi, Stphane Chaunard, Alexandre Gautier\r\n */\r\ncontract StakingContract is Ownable {\r\n\r\n    // User information for each pool.\r\n    struct UserInfo {\r\n        uint256 amount;         // Amount of staked token provided\r\n        uint256 depositDate;    // Deposit date for interest calculation\r\n    }\r\n\r\n    // Pool information\r\n    struct PoolInfo {\r\n        ERC20 token; // Address of the staked token\r\n        bool isTokenNetwork; // ex. MATIC for Polygon networks\r\n        uint256 yield;          // Percentage yield for the pool.\r\n        string symbol;           // if not original token symbol\r\n        string name;   // if not original token name\r\n        AggregatorV3Interface priceFeed;    // ChainLink oracle feed for this token\r\n    }\r\n\r\n    struct Pool {\r\n        PoolInfo info;\r\n        mapping(address => UserInfo) users;\r\n        bool isActive;\r\n    }\r\n\r\n    address constant public NETWORK_TOKEN_VIRTUAL_ADDRESS = address(0x1);\r\n    string public networkTokenSymbol;\r\n\r\n    // reward token\r\n    IERC20 public rewardToken;\r\n\r\n    mapping(address => Pool) public pools;\r\n    address[] private registeredPools;\r\n    address[] private activePools;\r\n    mapping(string => address) public poolAddressBySymbol;\r\n    uint256 public networkTokenPoolBalance;\r\n\r\n    /**\r\n     * @notice Event emitted when a pool is added\r\n\t * @param tokenPoolAddress address\r\n\t * @param priceFeed address*/\r\n    event PoolAdded(address tokenPoolAddress, address priceFeed);\r\n    /**\r\n     * @notice Event emitted when token is staked\r\n\t * @param user address\r\n\t * @param tokenPoolAddress address\r\n\t * @param amount amount*/\r\n    event Staked(address user, address tokenPoolAddress, uint256 amount);\r\n    /**\r\n     * @notice Event emitted when token is unstaked\r\n\t * @param user address\r\n\t * @param tokenPoolAddress address\r\n\t * @param amount amount*/\r\n    event Unstaked(address user, address tokenPoolAddress, uint256 amount);\r\n\r\n    /**\r\n     * @dev initiate reward token and build the first pool with it.\r\n     * @param _rewardToken reward token address\r\n     * @param _rewardTokenFeed reward token feed\r\n     * @param _yield Percentage reward token yield. This token can be stake too.\r\n     * @param _networkTokenSymbol Network token symbol\r\n     */\r\n    constructor(address _rewardToken, address _rewardTokenFeed, uint256 _yield, string memory _networkTokenSymbol) {\r\n        networkTokenSymbol = _networkTokenSymbol;\r\n        rewardToken = IERC20(_rewardToken);\r\n        _addPool(_rewardToken, _rewardTokenFeed, _yield, \"MONO\", \"MWMONO\", false);\r\n    }\r\n\r\n    /**\r\n     * @notice get all pools addresses added in contract.\r\n     * @return array of addresses\r\n     * @dev\r\n     */\r\n    function getPools() external view returns (address[] memory) {\r\n        return registeredPools;\r\n    }\r\n\r\n    /**\r\n     * @notice This contract is made for staking ERC20 tokens to earn an ERC20 token.\r\n     * @param _token : pool token address\r\n     * @param _user : user address\r\n     * @dev\r\n     */\r\n    function getUserBalanceInPool(address _token, address _user) external view returns (uint256) {\r\n        return pools[_token].users[_user].amount;\r\n    }\r\n\r\n    /**\r\n     * @notice get pool balance for contract\r\n     * @param _token : pool token address\r\n     * @return balance\r\n     */\r\n    function getPoolBalance(address _token) external view returns (uint256) {\r\n        if (_token == NETWORK_TOKEN_VIRTUAL_ADDRESS) {\r\n            return networkTokenPoolBalance;\r\n        }\r\n\r\n        return pools[_token].info.token.balanceOf(address(this));\r\n    }\r\n\r\n    /**\r\n     * @notice get active pools\r\n     * @return array of addresses\r\n     */\r\n    function getActivePools() external view returns (address[] memory) {\r\n        return activePools;\r\n    }\r\n\r\n    /**\r\n     * @dev internal method to add a pool\r\n     * @param _token pool token address\r\n     * @param _priceFeed pool token feed\r\n     * @param _yield Percentage token yield.\r\n     * @param _symbol pool token symbol, put \"\" if you want keep original token symbol.\r\n     * @param _name pool token symbol, put \"\" if you want keep original token name.\r\n     * @param _isActive pool activated\r\n     */\r\n    function _addPool(address _token, address _priceFeed, uint256 _yield, string memory _symbol, string memory _name, bool _isActive) internal {\r\n        Pool storage p = pools[_token];\r\n        p.info.token = ERC20(_token);\r\n        p.info.yield = _yield;\r\n        p.info.symbol = _symbol;\r\n        p.info.name = _name;\r\n        p.info.priceFeed = AggregatorV3Interface(_priceFeed);\r\n        p.isActive = _isActive;\r\n\r\n        registeredPools.push(_token);\r\n\r\n        if (_isActive) {\r\n            activePools.push(_token);\r\n        }\r\n\r\n        if (_token == NETWORK_TOKEN_VIRTUAL_ADDRESS) {\r\n            p.info.isTokenNetwork = true;\r\n            poolAddressBySymbol[networkTokenSymbol] = _token;\r\n\r\n            return;\r\n        }\r\n\r\n        poolAddressBySymbol[p.info.symbol] = _token;\r\n    }\r\n\r\n    /**\r\n     * @notice method to add a pool. Can only performed by contract's owner\r\n     * @notice #### requirements :<br />\r\n     * @notice - pool not exists yet\r\n     * @param _token: pool token address\r\n     * @param _priceFeed: pool token feed\r\n     * @param _yield: Percentage token yield.\r\n     * @param _symbol poll token symbol, put \"\" if you want keep original token symbol.\r\n     * @param _name pool token symbol, put \"\" if you want keep original token name.\r\n     * @param _isActive pool activated\r\n     */\r\n    function addPool(address _token, address _priceFeed, uint256 _yield, string memory _symbol, string memory _name, bool _isActive) external onlyOwner {\r\n        require(pools[_token].info.token != ERC20(_token), \"Pool already exists.\");\r\n\r\n        _addPool(_token, _priceFeed, _yield, _symbol, _name, _isActive);\r\n\r\n        emit PoolAdded(_token, _priceFeed);\r\n    }\r\n\r\n    /**\r\n     * @notice Stake your token in this pool\r\n     * @notice #### requirements :<br />\r\n     * @notice - amount must be > 0\r\n\t * @notice - user must have nothing staked\r\n\t * @notice - user must have sufficient balance\r\n     * @param _token: pool token address\r\n     * @param _amount: staked amount\r\n     * @dev Approval is needed before calling this method.\r\n     */\r\n    function stake(address _token, uint256 _amount) public payable {\r\n        require(_amount > 0, \"Non valid amount\");\r\n        Pool storage pool = pools[_token];\r\n        UserInfo storage user = pool.users[msg.sender];\r\n        require(user.amount == 0, \"Unstack first\");\r\n\r\n        if (_token == NETWORK_TOKEN_VIRTUAL_ADDRESS) {\r\n            require(msg.sender.balance >= _amount, \"Insufficient balance\");\r\n        } else {\r\n            require(pool.info.token.balanceOf(msg.sender) >= _amount, \"Insufficient balance\");\r\n        }\r\n\r\n        user.amount = _amount;\r\n        user.depositDate = block.timestamp;\r\n\r\n        if (_token == NETWORK_TOKEN_VIRTUAL_ADDRESS) {\r\n            networkTokenPoolBalance += _amount;\r\n        } else {\r\n            pool.info.token.transferFrom(msg.sender, address(this), _amount);\r\n        }\r\n\r\n        emit Staked(msg.sender, _token, _amount);\r\n    }\r\n\r\n    /**\r\n     * @param _token: pool token address\r\n     * @param _pool: pool informations\r\n     * @param _user: user informations\r\n     * @dev calculate rewards by staked time in seconds\r\n     * @dev #### requirements :<br />\r\n\t * @dev - block timestamp >= deposit date\r\n     */\r\n    function _calculateReward(\r\n        address _token,\r\n        PoolInfo storage _pool,\r\n        UserInfo storage _user\r\n    ) internal view returns (uint256) {\r\n        require(block.timestamp >= _user.depositDate, \"Deposit date problem\");\r\n\r\n        return _user.amount\r\n            * (block.timestamp - _user.depositDate)\r\n            * _pool.yield / 100 / 365 / 24 / 60 / 60  // yield(%) by second\r\n            * uint256(getLastPrice(address(rewardToken))) / uint256(getLastPrice(_token)) // must be return in reward token\r\n        ;\r\n    }\r\n\r\n    /**\r\n     * @notice Unstake all in this pool\r\n     * @notice #### requirements :<br />\r\n\t * @notice - user amount staked is positive\r\n\t * @notice - transfer ok\r\n     * @param _token: pool token address\r\n     */\r\n    function unstake(address _token) external {\r\n        Pool storage pool = pools[_token];\r\n        UserInfo storage user = pools[_token].users[msg.sender];\r\n        require(user.amount > 0, \"Nothing to unstake\");\r\n\r\n        uint256 rewards = _calculateReward(\r\n            _token,\r\n            pool.info,\r\n            user\r\n        );\r\n\r\n        uint256 stakedAmount = user.amount;\r\n        user.amount = 0;\r\n\r\n        if (_token == NETWORK_TOKEN_VIRTUAL_ADDRESS) {\r\n            networkTokenPoolBalance -= user.amount;\r\n            (bool sent,) = payable(msg.sender).call{value: stakedAmount}(\"\");\r\n            require(sent, \"Failed to send Ether\");\r\n        } else {\r\n            pool.info.token.transfer(msg.sender, stakedAmount);\r\n        }\r\n\r\n        rewardToken.transfer(msg.sender, rewards);\r\n\r\n        emit Unstaked(msg.sender, _token, stakedAmount);\r\n    }\r\n\r\n    /**\r\n     * @notice get pending rewards for amount staked\r\n     * @param _token: pool token address\r\n     * @return current rewards for amount staked\r\n     */\r\n    function pendingReward(address _token) external view returns (uint256) {\r\n        Pool storage pool = pools[_token];\r\n        UserInfo storage user = pools[_token].users[msg.sender];\r\n\r\n        return _calculateReward(\r\n            _token,\r\n            pool.info,\r\n            user\r\n        );\r\n    }\r\n\r\n    /**\r\n     * @notice to retrieve the token's last price\r\n     * @param _token: pool token address\r\n     * @return the last price of this token *\r\n     * @dev /!\\ return a signed integer /!\\\r\n     */\r\n    function getLastPrice(address _token) public view returns (int) {\r\n        Pool storage pool = pools[_token];\r\n        (,int lastPrice,,,) = pool.info.priceFeed.latestRoundData();\r\n\r\n        return lastPrice;\r\n    }\r\n}",
  "sourcePath": "C:\\Users\\aaast\\Alyra\\mnp-trufflebox\\contracts\\Staking.sol",
  "compiler": {
    "name": "solc",
    "version": "0.8.10+commit.fc410830.Emscripten.clang"
  },
  "schemaVersion": "3.4.3",
  "updatedAt": "2022-01-26T13:19:14.834Z",
  "networkType": "ethereum",
  "devdoc": {
    "author": "Jerome Caporossi, Stphane Chaunard, Alexandre Gautier",
    "events": {
      "PoolAdded(address,address)": {
        "params": {
          "priceFeed": "address",
          "tokenPoolAddress": "address"
        }
      },
      "Staked(address,address,uint256)": {
        "params": {
          "amount": "amount",
          "tokenPoolAddress": "address",
          "user": "address"
        }
      },
      "Unstaked(address,address,uint256)": {
        "params": {
          "amount": "amount",
          "tokenPoolAddress": "address",
          "user": "address"
        }
      }
    },
    "kind": "dev",
    "methods": {
      "addPool(address,address,uint256,string,string,bool)": {
        "params": {
          "_isActive": "pool activated",
          "_name": "pool token symbol, put \"\" if you want keep original token name.",
          "_priceFeed": ": pool token feed",
          "_symbol": "poll token symbol, put \"\" if you want keep original token symbol.",
          "_token": ": pool token address",
          "_yield": ": Percentage token yield."
        }
      },
      "constructor": {
        "details": "initiate reward token and build the first pool with it.",
        "params": {
          "_networkTokenSymbol": "Network token symbol",
          "_rewardToken": "reward token address",
          "_rewardTokenFeed": "reward token feed",
          "_yield": "Percentage reward token yield. This token can be stake too."
        }
      },
      "getActivePools()": {
        "returns": {
          "_0": "array of addresses"
        }
      },
      "getLastPrice(address)": {
        "details": "/!\\ return a signed integer /!\\",
        "params": {
          "_token": ": pool token address"
        },
        "returns": {
          "_0": "the last price of this token *"
        }
      },
      "getPoolBalance(address)": {
        "params": {
          "_token": ": pool token address"
        },
        "returns": {
          "_0": "balance"
        }
      },
      "getPools()": {
        "returns": {
          "_0": "array of addresses"
        }
      },
      "getUserBalanceInPool(address,address)": {
        "params": {
          "_token": ": pool token address",
          "_user": ": user address"
        }
      },
      "owner()": {
        "details": "Returns the address of the current owner."
      },
      "pendingReward(address)": {
        "params": {
          "_token": ": pool token address"
        },
        "returns": {
          "_0": "current rewards for amount staked"
        }
      },
      "renounceOwnership()": {
        "details": "Leaves the contract without owner. It will not be possible to call `onlyOwner` functions anymore. Can only be called by the current owner. NOTE: Renouncing ownership will leave the contract without an owner, thereby removing any functionality that is only available to the owner."
      },
      "stake(address,uint256)": {
        "details": "Approval is needed before calling this method.",
        "params": {
          "_amount": ": staked amount",
          "_token": ": pool token address"
        }
      },
      "transferOwnership(address)": {
        "details": "Transfers ownership of the contract to a new account (`newOwner`). Can only be called by the current owner."
      },
      "unstake(address)": {
        "params": {
          "_token": ": pool token address"
        }
      }
    },
    "title": "Staking contract",
    "version": 1
  },
  "userdoc": {
    "events": {
      "PoolAdded(address,address)": {
        "notice": "Event emitted when a pool is added"
      },
      "Staked(address,address,uint256)": {
        "notice": "Event emitted when token is staked"
      },
      "Unstaked(address,address,uint256)": {
        "notice": "Event emitted when token is unstaked"
      }
    },
    "kind": "user",
    "methods": {
      "addPool(address,address,uint256,string,string,bool)": {
        "notice": "method to add a pool. Can only performed by contract's owner#### requirements :<br />- pool not exists yet"
      },
      "getActivePools()": {
        "notice": "get active pools"
      },
      "getLastPrice(address)": {
        "notice": "to retrieve the token's last price"
      },
      "getPoolBalance(address)": {
        "notice": "get pool balance for contract"
      },
      "getPools()": {
        "notice": "get all pools addresses added in contract."
      },
      "getUserBalanceInPool(address,address)": {
        "notice": "This contract is made for staking ERC20 tokens to earn an ERC20 token."
      },
      "pendingReward(address)": {
        "notice": "get pending rewards for amount staked"
      },
      "stake(address,uint256)": {
        "notice": "Stake your token in this pool#### requirements :<br />- amount must be > 0- user must have nothing staked- user must have sufficient balance"
      },
      "unstake(address)": {
        "notice": "Unstake all in this pool#### requirements :<br />- user amount staked is positive- transfer ok"
      }
    },
    "notice": "This contract is made for staking ERC20 tokens to earn an ERC20 token.",
    "version": 1
  }
}