{
  "contractName": "StakingContract",
  "abi": [
    {
      "inputs": [
        {
          "internalType": "address",
          "name": "_rewardToken",
          "type": "address"
        },
        {
          "internalType": "address",
          "name": "_rewardTokenFeed",
          "type": "address"
        },
        {
          "internalType": "uint256",
          "name": "_yield",
          "type": "uint256"
        },
        {
          "internalType": "string",
          "name": "_networkTokenSymbol",
          "type": "string"
        }
      ],
      "stateMutability": "nonpayable",
      "type": "constructor"
    },
    {
      "anonymous": false,
      "inputs": [
        {
          "indexed": true,
          "internalType": "address",
          "name": "previousOwner",
          "type": "address"
        },
        {
          "indexed": true,
          "internalType": "address",
          "name": "newOwner",
          "type": "address"
        }
      ],
      "name": "OwnershipTransferred",
      "type": "event"
    },
    {
      "anonymous": false,
      "inputs": [
        {
          "indexed": false,
          "internalType": "address",
          "name": "tokenPoolAddress",
          "type": "address"
        },
        {
          "indexed": false,
          "internalType": "address",
          "name": "priceFeed",
          "type": "address"
        }
      ],
      "name": "PoolAdded",
      "type": "event"
    },
    {
      "anonymous": false,
      "inputs": [
        {
          "indexed": false,
          "internalType": "address",
          "name": "user",
          "type": "address"
        },
        {
          "indexed": false,
          "internalType": "address",
          "name": "tokenPoolAddress",
          "type": "address"
        },
        {
          "indexed": false,
          "internalType": "uint256",
          "name": "amount",
          "type": "uint256"
        }
      ],
      "name": "Staked",
      "type": "event"
    },
    {
      "anonymous": false,
      "inputs": [
        {
          "indexed": false,
          "internalType": "address",
          "name": "user",
          "type": "address"
        },
        {
          "indexed": false,
          "internalType": "address",
          "name": "tokenPoolAddress",
          "type": "address"
        },
        {
          "indexed": false,
          "internalType": "uint256",
          "name": "amount",
          "type": "uint256"
        }
      ],
      "name": "Unstaked",
      "type": "event"
    },
    {
      "inputs": [],
      "name": "NETWORK_TOKEN_VIRTUAL_ADDRESS",
      "outputs": [
        {
          "internalType": "address",
          "name": "",
          "type": "address"
        }
      ],
      "stateMutability": "view",
      "type": "function",
      "constant": true
    },
    {
      "inputs": [],
      "name": "networkTokenPoolBalance",
      "outputs": [
        {
          "internalType": "uint256",
          "name": "",
          "type": "uint256"
        }
      ],
      "stateMutability": "view",
      "type": "function",
      "constant": true
    },
    {
      "inputs": [],
      "name": "networkTokenSymbol",
      "outputs": [
        {
          "internalType": "string",
          "name": "",
          "type": "string"
        }
      ],
      "stateMutability": "view",
      "type": "function",
      "constant": true
    },
    {
      "inputs": [],
      "name": "owner",
      "outputs": [
        {
          "internalType": "address",
          "name": "",
          "type": "address"
        }
      ],
      "stateMutability": "view",
      "type": "function",
      "constant": true
    },
    {
      "inputs": [
        {
          "internalType": "string",
          "name": "",
          "type": "string"
        }
      ],
      "name": "poolAddressBySymbol",
      "outputs": [
        {
          "internalType": "address",
          "name": "",
          "type": "address"
        }
      ],
      "stateMutability": "view",
      "type": "function",
      "constant": true
    },
    {
      "inputs": [
        {
          "internalType": "address",
          "name": "",
          "type": "address"
        }
      ],
      "name": "pools",
      "outputs": [
        {
          "components": [
            {
              "internalType": "contract ERC20",
              "name": "token",
              "type": "address"
            },
            {
              "internalType": "bool",
              "name": "isTokenNetwork",
              "type": "bool"
            },
            {
              "internalType": "uint256",
              "name": "yield",
              "type": "uint256"
            },
            {
              "internalType": "contract AggregatorV3Interface",
              "name": "priceFeed",
              "type": "address"
            }
          ],
          "internalType": "struct StakingContract.PoolInfo",
          "name": "info",
          "type": "tuple"
        }
      ],
      "stateMutability": "view",
      "type": "function",
      "constant": true
    },
    {
      "inputs": [],
      "name": "renounceOwnership",
      "outputs": [],
      "stateMutability": "nonpayable",
      "type": "function"
    },
    {
      "inputs": [],
      "name": "rewardToken",
      "outputs": [
        {
          "internalType": "contract IERC20",
          "name": "",
          "type": "address"
        }
      ],
      "stateMutability": "view",
      "type": "function",
      "constant": true
    },
    {
      "inputs": [
        {
          "internalType": "address",
          "name": "newOwner",
          "type": "address"
        }
      ],
      "name": "transferOwnership",
      "outputs": [],
      "stateMutability": "nonpayable",
      "type": "function"
    },
    {
      "inputs": [],
      "name": "getPools",
      "outputs": [
        {
          "internalType": "address[]",
          "name": "",
          "type": "address[]"
        }
      ],
      "stateMutability": "view",
      "type": "function",
      "constant": true
    },
    {
      "inputs": [
        {
          "internalType": "address",
          "name": "_token",
          "type": "address"
        },
        {
          "internalType": "address",
          "name": "_user",
          "type": "address"
        }
      ],
      "name": "getUserBalanceInPool",
      "outputs": [
        {
          "internalType": "uint256",
          "name": "",
          "type": "uint256"
        }
      ],
      "stateMutability": "view",
      "type": "function",
      "constant": true
    },
    {
      "inputs": [
        {
          "internalType": "address",
          "name": "_token",
          "type": "address"
        }
      ],
      "name": "getPoolBalance",
      "outputs": [
        {
          "internalType": "uint256",
          "name": "",
          "type": "uint256"
        }
      ],
      "stateMutability": "view",
      "type": "function",
      "constant": true
    },
    {
      "inputs": [
        {
          "internalType": "address",
          "name": "_token",
          "type": "address"
        },
        {
          "internalType": "address",
          "name": "_priceFeed",
          "type": "address"
        },
        {
          "internalType": "uint256",
          "name": "_yield",
          "type": "uint256"
        }
      ],
      "name": "addPool",
      "outputs": [],
      "stateMutability": "nonpayable",
      "type": "function"
    },
    {
      "inputs": [
        {
          "internalType": "address",
          "name": "_token",
          "type": "address"
        },
        {
          "internalType": "uint256",
          "name": "_amount",
          "type": "uint256"
        }
      ],
      "name": "stake",
      "outputs": [],
      "stateMutability": "payable",
      "type": "function",
      "payable": true
    },
    {
      "inputs": [
        {
          "internalType": "address",
          "name": "_token",
          "type": "address"
        }
      ],
      "name": "unstake",
      "outputs": [],
      "stateMutability": "nonpayable",
      "type": "function"
    },
    {
      "inputs": [
        {
          "internalType": "address",
          "name": "_token",
          "type": "address"
        }
      ],
      "name": "pendingReward",
      "outputs": [
        {
          "internalType": "uint256",
          "name": "",
          "type": "uint256"
        }
      ],
      "stateMutability": "view",
      "type": "function",
      "constant": true
    },
    {
      "inputs": [
        {
          "internalType": "address",
          "name": "_token",
          "type": "address"
        }
      ],
      "name": "getLastPrice",
      "outputs": [
        {
          "internalType": "int256",
          "name": "",
          "type": "int256"
        }
      ],
      "stateMutability": "view",
      "type": "function",
      "constant": true
    }
  ],
  "bytecode": "0x60806040523480156200001157600080fd5b506040516200365d3803806200365d83398181016040528101906200003791906200087c565b620000576200004b620000ce60201b60201c565b620000d660201b60201c565b80600190805190602001906200006f9291906200058f565b5083600260006101000a81548173ffffffffffffffffffffffffffffffffffffffff021916908373ffffffffffffffffffffffffffffffffffffffff160217905550620000c48484846200019a60201b60201c565b5050505062000ae2565b600033905090565b60008060009054906101000a900473ffffffffffffffffffffffffffffffffffffffff169050816000806101000a81548173ffffffffffffffffffffffffffffffffffffffff021916908373ffffffffffffffffffffffffffffffffffffffff1602179055508173ffffffffffffffffffffffffffffffffffffffff168173ffffffffffffffffffffffffffffffffffffffff167f8be0079c531659141344cd1fd0a4f28419497f9722a3daafe3b4186f6b6457e060405160405180910390a35050565b82600360008573ffffffffffffffffffffffffffffffffffffffff1673ffffffffffffffffffffffffffffffffffffffff16815260200190815260200160002060000160000160006101000a81548173ffffffffffffffffffffffffffffffffffffffff021916908373ffffffffffffffffffffffffffffffffffffffff16021790555080600360008573ffffffffffffffffffffffffffffffffffffffff1673ffffffffffffffffffffffffffffffffffffffff1681526020019081526020016000206000016001018190555081600360008573ffffffffffffffffffffffffffffffffffffffff1673ffffffffffffffffffffffffffffffffffffffff16815260200190815260200160002060000160020160006101000a81548173ffffffffffffffffffffffffffffffffffffffff021916908373ffffffffffffffffffffffffffffffffffffffff1602179055506004839080600181540180825580915050600190039060005260206000200160009091909190916101000a81548173ffffffffffffffffffffffffffffffffffffffff021916908373ffffffffffffffffffffffffffffffffffffffff160217905550600173ffffffffffffffffffffffffffffffffffffffff168373ffffffffffffffffffffffffffffffffffffffff16141562000449576001600360008573ffffffffffffffffffffffffffffffffffffffff1673ffffffffffffffffffffffffffffffffffffffff16815260200190815260200160002060000160000160146101000a81548160ff0219169083151502179055508260056001604051620003f7919062000a1d565b908152602001604051809103902060006101000a81548173ffffffffffffffffffffffffffffffffffffffff021916908373ffffffffffffffffffffffffffffffffffffffff1602179055506200058a565b6000600360008573ffffffffffffffffffffffffffffffffffffffff1673ffffffffffffffffffffffffffffffffffffffff16815260200190815260200160002060000160000160009054906101000a900473ffffffffffffffffffffffffffffffffffffffff1673ffffffffffffffffffffffffffffffffffffffff166395d89b416040518163ffffffff1660e01b8152600401600060405180830381865afa158015620004fc573d6000803e3d6000fd5b505050506040513d6000823e3d601f19601f8201168201806040525081019062000527919062000a36565b9050836005826040516200053c919062000ac9565b908152602001604051809103902060006101000a81548173ffffffffffffffffffffffffffffffffffffffff021916908373ffffffffffffffffffffffffffffffffffffffff160217905550505b505050565b8280546200059d906200093c565b90600052602060002090601f016020900481019282620005c157600085556200060d565b82601f10620005dc57805160ff19168380011785556200060d565b828001600101855582156200060d579182015b828111156200060c578251825591602001919060010190620005ef565b5b5090506200061c919062000620565b5090565b5b808211156200063b57600081600090555060010162000621565b5090565b6000604051905090565b600080fd5b600080fd5b600073ffffffffffffffffffffffffffffffffffffffff82169050919050565b6000620006808262000653565b9050919050565b620006928162000673565b81146200069e57600080fd5b50565b600081519050620006b28162000687565b92915050565b6000819050919050565b620006cd81620006b8565b8114620006d957600080fd5b50565b600081519050620006ed81620006c2565b92915050565b600080fd5b600080fd5b6000601f19601f8301169050919050565b7f4e487b7100000000000000000000000000000000000000000000000000000000600052604160045260246000fd5b6200074882620006fd565b810181811067ffffffffffffffff821117156200076a57620007696200070e565b5b80604052505050565b60006200077f6200063f565b90506200078d82826200073d565b919050565b600067ffffffffffffffff821115620007b057620007af6200070e565b5b620007bb82620006fd565b9050602081019050919050565b60005b83811015620007e8578082015181840152602081019050620007cb565b83811115620007f8576000848401525b50505050565b6000620008156200080f8462000792565b62000773565b905082815260208101848484011115620008345762000833620006f8565b5b62000841848285620007c8565b509392505050565b600082601f830112620008615762000860620006f3565b5b815162000873848260208601620007fe565b91505092915050565b6000806000806080858703121562000899576200089862000649565b5b6000620008a987828801620006a1565b9450506020620008bc87828801620006a1565b9350506040620008cf87828801620006dc565b925050606085015167ffffffffffffffff811115620008f357620008f26200064e565b5b620009018782880162000849565b91505092959194509250565b7f4e487b7100000000000000000000000000000000000000000000000000000000600052602260045260246000fd5b600060028204905060018216806200095557607f821691505b602082108114156200096c576200096b6200090d565b5b50919050565b600081905092915050565b60008190508160005260206000209050919050565b60008154620009a1816200093c565b620009ad818662000972565b94506001821660008114620009cb5760018114620009dd5762000a14565b60ff1983168652818601935062000a14565b620009e8856200097d565b60005b8381101562000a0c57815481890152600182019150602081019050620009eb565b838801955050505b50505092915050565b600062000a2b828462000992565b915081905092915050565b60006020828403121562000a4f5762000a4e62000649565b5b600082015167ffffffffffffffff81111562000a705762000a6f6200064e565b5b62000a7e8482850162000849565b91505092915050565b600081519050919050565b600062000a9f8262000a87565b62000aab818562000972565b935062000abd818560208601620007c8565b80840191505092915050565b600062000ad7828462000a92565b915081905092915050565b612b6b8062000af26000396000f3fe6080604052600436106100fe5760003560e01c8063a4063dbc11610095578063da71664311610064578063da7166431461033c578063f2888dbb14610367578063f2fde38b14610390578063f40f0f52146103b9578063f7c618c1146103f6576100fe565b8063a4063dbc14610269578063adc9772e146102a6578063c692fc74146102c2578063d28682ea146102ff576100fe565b8063715018a6116100d1578063715018a6146101d35780637e29d6c2146101ea5780638aa26d27146102135780638da5cb5b1461023e576100fe565b8063021ba5471461010357806321ac23a31461012e578063673a2a1f1461016b5780636da0f07814610196575b600080fd5b34801561010f57600080fd5b50610118610421565b6040516101259190611b5f565b60405180910390f35b34801561013a57600080fd5b5061015560048036038101906101509190611cca565b6104af565b6040516101629190611d54565b60405180910390f35b34801561017757600080fd5b506101806104f8565b60405161018d9190611e2d565b60405180910390f35b3480156101a257600080fd5b506101bd60048036038101906101b89190611e7b565b610586565b6040516101ca9190611ed4565b60405180910390f35b3480156101df57600080fd5b506101e8610613565b005b3480156101f657600080fd5b50610211600480360381019061020c9190611f1b565b61069b565b005b34801561021f57600080fd5b50610228610834565b6040516102359190611d54565b60405180910390f35b34801561024a57600080fd5b50610253610839565b6040516102609190611d54565b60405180910390f35b34801561027557600080fd5b50610290600480360381019061028b9190611f6e565b610862565b60405161029d919061209a565b60405180910390f35b6102c060048036038101906102bb91906120b5565b61095b565b005b3480156102ce57600080fd5b506102e960048036038101906102e49190611f6e565b610d34565b6040516102f6919061210e565b60405180910390f35b34801561030b57600080fd5b5061032660048036038101906103219190611f6e565b610e20565b6040516103339190611ed4565b60405180910390f35b34801561034857600080fd5b50610351610f48565b60405161035e9190611ed4565b60405180910390f35b34801561037357600080fd5b5061038e60048036038101906103899190611f6e565b610f4e565b005b34801561039c57600080fd5b506103b760048036038101906103b29190611f6e565b61130e565b005b3480156103c557600080fd5b506103e060048036038101906103db9190611f6e565b611406565b6040516103ed9190611ed4565b60405180910390f35b34801561040257600080fd5b5061040b6114e4565b604051610418919061214a565b60405180910390f35b6001805461042e90612194565b80601f016020809104026020016040519081016040528092919081815260200182805461045a90612194565b80156104a75780601f1061047c576101008083540402835291602001916104a7565b820191906000526020600020905b81548152906001019060200180831161048a57829003601f168201915b505050505081565b6005818051602081018201805184825260208301602085012081835280955050505050506000915054906101000a900473ffffffffffffffffffffffffffffffffffffffff1681565b6060600480548060200260200160405190810160405280929190818152602001828054801561057c57602002820191906000526020600020905b8160009054906101000a900473ffffffffffffffffffffffffffffffffffffffff1673ffffffffffffffffffffffffffffffffffffffff1681526020019060010190808311610532575b5050505050905090565b6000600360008473ffffffffffffffffffffffffffffffffffffffff1673ffffffffffffffffffffffffffffffffffffffff16815260200190815260200160002060030160008373ffffffffffffffffffffffffffffffffffffffff1673ffffffffffffffffffffffffffffffffffffffff16815260200190815260200160002060000154905092915050565b61061b61150a565b73ffffffffffffffffffffffffffffffffffffffff16610639610839565b73ffffffffffffffffffffffffffffffffffffffff161461068f576040517f08c379a000000000000000000000000000000000000000000000000000000000815260040161068690612212565b60405180910390fd5b6106996000611512565b565b6106a361150a565b73ffffffffffffffffffffffffffffffffffffffff166106c1610839565b73ffffffffffffffffffffffffffffffffffffffff1614610717576040517f08c379a000000000000000000000000000000000000000000000000000000000815260040161070e90612212565b60405180910390fd5b8273ffffffffffffffffffffffffffffffffffffffff16600360008573ffffffffffffffffffffffffffffffffffffffff1673ffffffffffffffffffffffffffffffffffffffff16815260200190815260200160002060000160000160009054906101000a900473ffffffffffffffffffffffffffffffffffffffff1673ffffffffffffffffffffffffffffffffffffffff1614156107eb576040517f08c379a00000000000000000000000000000000000000000000000000000000081526004016107e29061227e565b60405180910390fd5b6107f68383836115d6565b7f95f865c2808f8b2a85eea2611db7843150ee7835ef1403f9755918a97d76933c838360405161082792919061229e565b60405180910390a1505050565b600181565b60008060009054906101000a900473ffffffffffffffffffffffffffffffffffffffff16905090565b6003602052806000526040600020600091509050806000016040518060800160405290816000820160009054906101000a900473ffffffffffffffffffffffffffffffffffffffff1673ffffffffffffffffffffffffffffffffffffffff1673ffffffffffffffffffffffffffffffffffffffff1681526020016000820160149054906101000a900460ff16151515158152602001600182015481526020016002820160009054906101000a900473ffffffffffffffffffffffffffffffffffffffff1673ffffffffffffffffffffffffffffffffffffffff1673ffffffffffffffffffffffffffffffffffffffff1681525050905081565b6000811161099e576040517f08c379a000000000000000000000000000000000000000000000000000000000815260040161099590612313565b60405180910390fd5b6000600360008473ffffffffffffffffffffffffffffffffffffffff1673ffffffffffffffffffffffffffffffffffffffff168152602001908152602001600020905060008160030160003373ffffffffffffffffffffffffffffffffffffffff1673ffffffffffffffffffffffffffffffffffffffff16815260200190815260200160002090506000816000015414610a6d576040517f08c379a0000000000000000000000000000000000000000000000000000000008152600401610a649061237f565b60405180910390fd5b600173ffffffffffffffffffffffffffffffffffffffff168473ffffffffffffffffffffffffffffffffffffffff161415610b0157823373ffffffffffffffffffffffffffffffffffffffff16311015610afc576040517f08c379a0000000000000000000000000000000000000000000000000000000008152600401610af3906123eb565b60405180910390fd5b610be5565b828260000160000160009054906101000a900473ffffffffffffffffffffffffffffffffffffffff1673ffffffffffffffffffffffffffffffffffffffff166370a08231336040518263ffffffff1660e01b8152600401610b629190611d54565b602060405180830381865afa158015610b7f573d6000803e3d6000fd5b505050506040513d601f19601f82011682018060405250810190610ba39190612420565b1015610be4576040517f08c379a0000000000000000000000000000000000000000000000000000000008152600401610bdb906123eb565b60405180910390fd5b5b828160000181905550428160010181905550600173ffffffffffffffffffffffffffffffffffffffff168473ffffffffffffffffffffffffffffffffffffffff161415610c4a578260066000828254610c3e919061247c565b92505081905550610cf3565b8160000160000160009054906101000a900473ffffffffffffffffffffffffffffffffffffffff1673ffffffffffffffffffffffffffffffffffffffff166323b872dd3330866040518463ffffffff1660e01b8152600401610cae939291906124d2565b6020604051808303816000875af1158015610ccd573d6000803e3d6000fd5b505050506040513d601f19601f82011682018060405250810190610cf19190612535565b505b7f5dac0c1b1112564a045ba943c9d50270893e8e826c49be8e7073adc713ab7bd7338585604051610d26939291906124d2565b60405180910390a150505050565b600080600360008473ffffffffffffffffffffffffffffffffffffffff1673ffffffffffffffffffffffffffffffffffffffff168152602001908152602001600020905060008160000160020160009054906101000a900473ffffffffffffffffffffffffffffffffffffffff1673ffffffffffffffffffffffffffffffffffffffff1663feaf968c6040518163ffffffff1660e01b815260040160a060405180830381865afa158015610dec573d6000803e3d6000fd5b505050506040513d601f19601f82011682018060405250810190610e1091906125d0565b5050509150508092505050919050565b6000600173ffffffffffffffffffffffffffffffffffffffff168273ffffffffffffffffffffffffffffffffffffffff161415610e61576006549050610f43565b600360008373ffffffffffffffffffffffffffffffffffffffff1673ffffffffffffffffffffffffffffffffffffffff16815260200190815260200160002060000160000160009054906101000a900473ffffffffffffffffffffffffffffffffffffffff1673ffffffffffffffffffffffffffffffffffffffff166370a08231306040518263ffffffff1660e01b8152600401610eff9190611d54565b602060405180830381865afa158015610f1c573d6000803e3d6000fd5b505050506040513d601f19601f82011682018060405250810190610f409190612420565b90505b919050565b60065481565b6000600360008373ffffffffffffffffffffffffffffffffffffffff1673ffffffffffffffffffffffffffffffffffffffff16815260200190815260200160002090506000600360008473ffffffffffffffffffffffffffffffffffffffff1673ffffffffffffffffffffffffffffffffffffffff16815260200190815260200160002060030160003373ffffffffffffffffffffffffffffffffffffffff1673ffffffffffffffffffffffffffffffffffffffff1681526020019081526020016000209050600081600001541161105b576040517f08c379a000000000000000000000000000000000000000000000000000000000815260040161105290612697565b60405180910390fd5b600061106b8484600001846119c2565b905060008260000154905060008360000181905550600173ffffffffffffffffffffffffffffffffffffffff168573ffffffffffffffffffffffffffffffffffffffff161415611184578260000154600660008282546110cb91906126b7565b9250508190555060003373ffffffffffffffffffffffffffffffffffffffff16826040516110f89061271c565b60006040518083038185875af1925050503d8060008114611135576040519150601f19603f3d011682016040523d82523d6000602084013e61113a565b606091505b505090508061117e576040517f08c379a00000000000000000000000000000000000000000000000000000000081526004016111759061277d565b60405180910390fd5b5061122b565b8360000160000160009054906101000a900473ffffffffffffffffffffffffffffffffffffffff1673ffffffffffffffffffffffffffffffffffffffff1663a9059cbb33836040518363ffffffff1660e01b81526004016111e692919061279d565b6020604051808303816000875af1158015611205573d6000803e3d6000fd5b505050506040513d601f19601f820116820180604052508101906112299190612535565b505b600260009054906101000a900473ffffffffffffffffffffffffffffffffffffffff1673ffffffffffffffffffffffffffffffffffffffff1663a9059cbb33846040518363ffffffff1660e01b815260040161128892919061279d565b6020604051808303816000875af11580156112a7573d6000803e3d6000fd5b505050506040513d601f19601f820116820180604052508101906112cb9190612535565b507fd8654fcc8cf5b36d30b3f5e4688fc78118e6d68de60b9994e09902268b57c3e33386836040516112ff939291906124d2565b60405180910390a15050505050565b61131661150a565b73ffffffffffffffffffffffffffffffffffffffff16611334610839565b73ffffffffffffffffffffffffffffffffffffffff161461138a576040517f08c379a000000000000000000000000000000000000000000000000000000000815260040161138190612212565b60405180910390fd5b600073ffffffffffffffffffffffffffffffffffffffff168173ffffffffffffffffffffffffffffffffffffffff1614156113fa576040517f08c379a00000000000000000000000000000000000000000000000000000000081526004016113f190612838565b60405180910390fd5b61140381611512565b50565b600080600360008473ffffffffffffffffffffffffffffffffffffffff1673ffffffffffffffffffffffffffffffffffffffff16815260200190815260200160002090506000600360008573ffffffffffffffffffffffffffffffffffffffff1673ffffffffffffffffffffffffffffffffffffffff16815260200190815260200160002060030160003373ffffffffffffffffffffffffffffffffffffffff1673ffffffffffffffffffffffffffffffffffffffff16815260200190815260200160002090506114db8483600001836119c2565b92505050919050565b600260009054906101000a900473ffffffffffffffffffffffffffffffffffffffff1681565b600033905090565b60008060009054906101000a900473ffffffffffffffffffffffffffffffffffffffff169050816000806101000a81548173ffffffffffffffffffffffffffffffffffffffff021916908373ffffffffffffffffffffffffffffffffffffffff1602179055508173ffffffffffffffffffffffffffffffffffffffff168173ffffffffffffffffffffffffffffffffffffffff167f8be0079c531659141344cd1fd0a4f28419497f9722a3daafe3b4186f6b6457e060405160405180910390a35050565b82600360008573ffffffffffffffffffffffffffffffffffffffff1673ffffffffffffffffffffffffffffffffffffffff16815260200190815260200160002060000160000160006101000a81548173ffffffffffffffffffffffffffffffffffffffff021916908373ffffffffffffffffffffffffffffffffffffffff16021790555080600360008573ffffffffffffffffffffffffffffffffffffffff1673ffffffffffffffffffffffffffffffffffffffff1681526020019081526020016000206000016001018190555081600360008573ffffffffffffffffffffffffffffffffffffffff1673ffffffffffffffffffffffffffffffffffffffff16815260200190815260200160002060000160020160006101000a81548173ffffffffffffffffffffffffffffffffffffffff021916908373ffffffffffffffffffffffffffffffffffffffff1602179055506004839080600181540180825580915050600190039060005260206000200160009091909190916101000a81548173ffffffffffffffffffffffffffffffffffffffff021916908373ffffffffffffffffffffffffffffffffffffffff160217905550600173ffffffffffffffffffffffffffffffffffffffff168373ffffffffffffffffffffffffffffffffffffffff161415611881576001600360008573ffffffffffffffffffffffffffffffffffffffff1673ffffffffffffffffffffffffffffffffffffffff16815260200190815260200160002060000160000160146101000a81548160ff021916908315150217905550826005600160405161183091906128f7565b908152602001604051809103902060006101000a81548173ffffffffffffffffffffffffffffffffffffffff021916908373ffffffffffffffffffffffffffffffffffffffff1602179055506119bd565b6000600360008573ffffffffffffffffffffffffffffffffffffffff1673ffffffffffffffffffffffffffffffffffffffff16815260200190815260200160002060000160000160009054906101000a900473ffffffffffffffffffffffffffffffffffffffff1673ffffffffffffffffffffffffffffffffffffffff166395d89b416040518163ffffffff1660e01b8152600401600060405180830381865afa158015611933573d6000803e3d6000fd5b505050506040513d6000823e3d601f19601f8201168201806040525081019061195c919061297e565b90508360058260405161196f91906129f8565b908152602001604051809103902060006101000a81548173ffffffffffffffffffffffffffffffffffffffff021916908373ffffffffffffffffffffffffffffffffffffffff160217905550505b505050565b60008160010154421015611a0b576040517f08c379a0000000000000000000000000000000000000000000000000000000008152600401611a0290612a5b565b60405180910390fd5b611a1484610d34565b611a3f600260009054906101000a900473ffffffffffffffffffffffffffffffffffffffff16610d34565b603c80601861016d60648960010154896001015442611a5e91906126b7565b8a60000154611a6d9190612a7b565b611a779190612a7b565b611a819190612b04565b611a8b9190612b04565b611a959190612b04565b611a9f9190612b04565b611aa99190612b04565b611ab39190612a7b565b611abd9190612b04565b90509392505050565b600081519050919050565b600082825260208201905092915050565b60005b83811015611b00578082015181840152602081019050611ae5565b83811115611b0f576000848401525b50505050565b6000601f19601f8301169050919050565b6000611b3182611ac6565b611b3b8185611ad1565b9350611b4b818560208601611ae2565b611b5481611b15565b840191505092915050565b60006020820190508181036000830152611b798184611b26565b905092915050565b6000604051905090565b600080fd5b600080fd5b600080fd5b600080fd5b7f4e487b7100000000000000000000000000000000000000000000000000000000600052604160045260246000fd5b611bd782611b15565b810181811067ffffffffffffffff82111715611bf657611bf5611b9f565b5b80604052505050565b6000611c09611b81565b9050611c158282611bce565b919050565b600067ffffffffffffffff821115611c3557611c34611b9f565b5b611c3e82611b15565b9050602081019050919050565b82818337600083830152505050565b6000611c6d611c6884611c1a565b611bff565b905082815260208101848484011115611c8957611c88611b9a565b5b611c94848285611c4b565b509392505050565b600082601f830112611cb157611cb0611b95565b5b8135611cc1848260208601611c5a565b91505092915050565b600060208284031215611ce057611cdf611b8b565b5b600082013567ffffffffffffffff811115611cfe57611cfd611b90565b5b611d0a84828501611c9c565b91505092915050565b600073ffffffffffffffffffffffffffffffffffffffff82169050919050565b6000611d3e82611d13565b9050919050565b611d4e81611d33565b82525050565b6000602082019050611d696000830184611d45565b92915050565b600081519050919050565b600082825260208201905092915050565b6000819050602082019050919050565b611da481611d33565b82525050565b6000611db68383611d9b565b60208301905092915050565b6000602082019050919050565b6000611dda82611d6f565b611de48185611d7a565b9350611def83611d8b565b8060005b83811015611e20578151611e078882611daa565b9750611e1283611dc2565b925050600181019050611df3565b5085935050505092915050565b60006020820190508181036000830152611e478184611dcf565b905092915050565b611e5881611d33565b8114611e6357600080fd5b50565b600081359050611e7581611e4f565b92915050565b60008060408385031215611e9257611e91611b8b565b5b6000611ea085828601611e66565b9250506020611eb185828601611e66565b9150509250929050565b6000819050919050565b611ece81611ebb565b82525050565b6000602082019050611ee96000830184611ec5565b92915050565b611ef881611ebb565b8114611f0357600080fd5b50565b600081359050611f1581611eef565b92915050565b600080600060608486031215611f3457611f33611b8b565b5b6000611f4286828701611e66565b9350506020611f5386828701611e66565b9250506040611f6486828701611f06565b9150509250925092565b600060208284031215611f8457611f83611b8b565b5b6000611f9284828501611e66565b91505092915050565b6000819050919050565b6000611fc0611fbb611fb684611d13565b611f9b565b611d13565b9050919050565b6000611fd282611fa5565b9050919050565b6000611fe482611fc7565b9050919050565b611ff481611fd9565b82525050565b60008115159050919050565b61200f81611ffa565b82525050565b61201e81611ebb565b82525050565b600061202f82611fc7565b9050919050565b61203f81612024565b82525050565b60808201600082015161205b6000850182611feb565b50602082015161206e6020850182612006565b5060408201516120816040850182612015565b5060608201516120946060850182612036565b50505050565b60006080820190506120af6000830184612045565b92915050565b600080604083850312156120cc576120cb611b8b565b5b60006120da85828601611e66565b92505060206120eb85828601611f06565b9150509250929050565b6000819050919050565b612108816120f5565b82525050565b600060208201905061212360008301846120ff565b92915050565b600061213482611fc7565b9050919050565b61214481612129565b82525050565b600060208201905061215f600083018461213b565b92915050565b7f4e487b7100000000000000000000000000000000000000000000000000000000600052602260045260246000fd5b600060028204905060018216806121ac57607f821691505b602082108114156121c0576121bf612165565b5b50919050565b7f4f776e61626c653a2063616c6c6572206973206e6f7420746865206f776e6572600082015250565b60006121fc602083611ad1565b9150612207826121c6565b602082019050919050565b6000602082019050818103600083015261222b816121ef565b9050919050565b7f506f6f6c20616c7265616479206578697374732e000000000000000000000000600082015250565b6000612268601483611ad1565b915061227382612232565b602082019050919050565b600060208201905081810360008301526122978161225b565b9050919050565b60006040820190506122b36000830185611d45565b6122c06020830184611d45565b9392505050565b7f4e6f6e2076616c696420616d6f756e7400000000000000000000000000000000600082015250565b60006122fd601083611ad1565b9150612308826122c7565b602082019050919050565b6000602082019050818103600083015261232c816122f0565b9050919050565b7f556e737461636b20666972737400000000000000000000000000000000000000600082015250565b6000612369600d83611ad1565b915061237482612333565b602082019050919050565b600060208201905081810360008301526123988161235c565b9050919050565b7f496e73756666696369656e742062616c616e6365000000000000000000000000600082015250565b60006123d5601483611ad1565b91506123e08261239f565b602082019050919050565b60006020820190508181036000830152612404816123c8565b9050919050565b60008151905061241a81611eef565b92915050565b60006020828403121561243657612435611b8b565b5b60006124448482850161240b565b91505092915050565b7f4e487b7100000000000000000000000000000000000000000000000000000000600052601160045260246000fd5b600061248782611ebb565b915061249283611ebb565b9250827fffffffffffffffffffffffffffffffffffffffffffffffffffffffffffffffff038211156124c7576124c661244d565b5b828201905092915050565b60006060820190506124e76000830186611d45565b6124f46020830185611d45565b6125016040830184611ec5565b949350505050565b61251281611ffa565b811461251d57600080fd5b50565b60008151905061252f81612509565b92915050565b60006020828403121561254b5761254a611b8b565b5b600061255984828501612520565b91505092915050565b600069ffffffffffffffffffff82169050919050565b61258181612562565b811461258c57600080fd5b50565b60008151905061259e81612578565b92915050565b6125ad816120f5565b81146125b857600080fd5b50565b6000815190506125ca816125a4565b92915050565b600080600080600060a086880312156125ec576125eb611b8b565b5b60006125fa8882890161258f565b955050602061260b888289016125bb565b945050604061261c8882890161240b565b935050606061262d8882890161240b565b925050608061263e8882890161258f565b9150509295509295909350565b7f4e6f7468696e6720746f20756e7374616b650000000000000000000000000000600082015250565b6000612681601283611ad1565b915061268c8261264b565b602082019050919050565b600060208201905081810360008301526126b081612674565b9050919050565b60006126c282611ebb565b91506126cd83611ebb565b9250828210156126e0576126df61244d565b5b828203905092915050565b600081905092915050565b50565b60006127066000836126eb565b9150612711826126f6565b600082019050919050565b6000612727826126f9565b9150819050919050565b7f4661696c656420746f2073656e64204574686572000000000000000000000000600082015250565b6000612767601483611ad1565b915061277282612731565b602082019050919050565b600060208201905081810360008301526127968161275a565b9050919050565b60006040820190506127b26000830185611d45565b6127bf6020830184611ec5565b9392505050565b7f4f776e61626c653a206e6577206f776e657220697320746865207a65726f206160008201527f6464726573730000000000000000000000000000000000000000000000000000602082015250565b6000612822602683611ad1565b915061282d826127c6565b604082019050919050565b6000602082019050818103600083015261285181612815565b9050919050565b600081905092915050565b60008190508160005260206000209050919050565b6000815461288581612194565b61288f8186612858565b945060018216600081146128aa57600181146128bb576128ee565b60ff198316865281860193506128ee565b6128c485612863565b60005b838110156128e6578154818901526001820191506020810190506128c7565b838801955050505b50505092915050565b60006129038284612878565b915081905092915050565b600061292161291c84611c1a565b611bff565b90508281526020810184848401111561293d5761293c611b9a565b5b612948848285611ae2565b509392505050565b600082601f83011261296557612964611b95565b5b815161297584826020860161290e565b91505092915050565b60006020828403121561299457612993611b8b565b5b600082015167ffffffffffffffff8111156129b2576129b1611b90565b5b6129be84828501612950565b91505092915050565b60006129d282611ac6565b6129dc8185612858565b93506129ec818560208601611ae2565b80840191505092915050565b6000612a0482846129c7565b915081905092915050565b7f4465706f73697420646174652070726f626c656d000000000000000000000000600082015250565b6000612a45601483611ad1565b9150612a5082612a0f565b602082019050919050565b60006020820190508181036000830152612a7481612a38565b9050919050565b6000612a8682611ebb565b9150612a9183611ebb565b9250817fffffffffffffffffffffffffffffffffffffffffffffffffffffffffffffffff0483118215151615612aca57612ac961244d565b5b828202905092915050565b7f4e487b7100000000000000000000000000000000000000000000000000000000600052601260045260246000fd5b6000612b0f82611ebb565b9150612b1a83611ebb565b925082612b2a57612b29612ad5565b5b82820490509291505056fea2646970667358221220ea453d942fa20dad0ccae8ac57bc31e9bbbddcb2db8dbfa4ee191a0d7af810b764736f6c634300080a0033",
  "immutableReferences": {},
  "source": "// StakingContract.sol\r\n// SPDX-License-Identifier: MIT\r\n\r\npragma solidity 0.8.10;\r\nimport '@openzeppelin/contracts/token/ERC20/IERC20.sol';\r\nimport '@openzeppelin/contracts/access/Ownable.sol';\r\nimport '@openzeppelin/contracts/token/ERC20/ERC20.sol';\r\nimport '@chainlink/contracts/src/v0.8/interfaces/AggregatorV3Interface.sol';\r\n\r\n/**\r\n * @notice This contract is made for staking ERC20 tokens to earn an ERC20 token.\r\n */\r\ncontract StakingContract is Ownable {\r\n\r\n    // User informations for each pool.\r\n    struct UserInfo {\r\n        uint256 amount;         // Amount of staked token provided\r\n        uint256 depositDate;    // Deposit date for interest calculation\r\n    }\r\n\r\n    // Pool informations.\r\n    struct PoolInfo {\r\n        ERC20 token; // Address of the staked token\r\n        bool isTokenNetwork; // ex. MATIC for Polygon networks\r\n        uint256 yield;          // Percentage yield for the pool.\r\n        AggregatorV3Interface priceFeed;    // ChainLink oracle feed for this token\r\n    }\r\n\r\n    struct Pool {\r\n        PoolInfo info;\r\n        mapping(address => UserInfo) users;\r\n    }\r\n\r\n    address constant public NETWORK_TOKEN_VIRTUAL_ADDRESS = address(0x1);\r\n    string public networkTokenSymbol;\r\n\r\n    // reward token\r\n    IERC20 public rewardToken;\r\n\r\n    mapping(address => Pool) public pools;\r\n    address[] private registeredPools;\r\n    mapping(string => address) public poolAddressBySymbol;\r\n    uint256 public networkTokenPoolBalance;\r\n\r\n    event PoolAdded(address tokenPoolAddress, address priceFeed);\r\n    event Staked(address user, address tokenPoolAddress, uint256 amount);\r\n    event Unstaked(address user, address tokenPoolAddress, uint256 amount);\r\n\r\n    /**\r\n     * @dev initiate reward token and build the first pool with it.\r\n     * @param _rewardToken reward token address\r\n     * @param _rewardTokenFeed reward token feed\r\n     * @param _yield Percentage reward token yield. This token can be stake too.\r\n     * @param _networkTokenSymbol Network token symbol\r\n     */\r\n    constructor(address _rewardToken, address _rewardTokenFeed, uint256 _yield, string memory _networkTokenSymbol) {\r\n        networkTokenSymbol = _networkTokenSymbol;\r\n        rewardToken = IERC20(_rewardToken);\r\n        _addPool(_rewardToken, _rewardTokenFeed, _yield);\r\n    }\r\n\r\n    /**\r\n     * @notice get all pools addresses added in contract.\r\n     * @return array of addresses\r\n     * @dev\r\n     */\r\n    function getPools() external view returns (address[] memory) {\r\n        return registeredPools;\r\n    }\r\n\r\n    /**\r\n     * @notice This contract is made for staking ERC20 tokens to earn an ERC20 token.\r\n     * @param _token : pool token address\r\n     * @param _user : user address\r\n     * @dev\r\n     */\r\n    function getUserBalanceInPool(address _token, address _user) external view returns (uint256) {\r\n        return pools[_token].users[_user].amount;\r\n    }\r\n\r\n    /**\r\n     * @notice get pool balance for contract\r\n     * @param _token : pool token address\r\n     * @return balance\r\n     */\r\n    function getPoolBalance(address _token) external view returns (uint256) {\r\n        if (_token == NETWORK_TOKEN_VIRTUAL_ADDRESS) {\r\n            return networkTokenPoolBalance;\r\n        }\r\n\r\n        return pools[_token].info.token.balanceOf(address(this));\r\n    }\r\n\r\n    /**\r\n     * @dev internal method to add a pool\r\n     * @param _token: pool token address\r\n     * @param _priceFeed: pool token feed\r\n     * @param _yield: Percentage token yield.\r\n     */\r\n    function _addPool(address _token, address _priceFeed, uint256 _yield) internal {\r\n        pools[_token].info.token = ERC20(_token);\r\n        pools[_token].info.yield = _yield;\r\n        pools[_token].info.priceFeed = AggregatorV3Interface(_priceFeed);\r\n\r\n        registeredPools.push(_token);\r\n\r\n        if (_token == NETWORK_TOKEN_VIRTUAL_ADDRESS) {\r\n            pools[_token].info.isTokenNetwork = true;\r\n            poolAddressBySymbol[networkTokenSymbol] = _token;\r\n\r\n            return;\r\n        }\r\n\r\n        string memory symbol = pools[_token].info.token.symbol();\r\n        poolAddressBySymbol[symbol] = _token;\r\n    }\r\n\r\n    /**\r\n     * @notice method to add a pool. Can only performed by contract's owner\r\n     * @param _token: pool token address\r\n     * @param _priceFeed: pool token feed\r\n     * @param _yield: Percentage token yield.\r\n     */\r\n    function addPool(address _token, address _priceFeed, uint256 _yield) external onlyOwner {\r\n        require(pools[_token].info.token != ERC20(_token), \"Pool already exists.\");\r\n\r\n        _addPool(_token, _priceFeed, _yield);\r\n\r\n        emit PoolAdded(_token, _priceFeed);\r\n    }\r\n\r\n    /**\r\n     * @notice Stake your token in this pool\r\n     * @param _token: pool token address\r\n     * @param _amount: staked amount\r\n     * @dev Approval is needed before calling this method.\r\n     */\r\n    function stake(address _token, uint256 _amount) public payable {\r\n        require(_amount > 0, \"Non valid amount\");\r\n        Pool storage pool = pools[_token];\r\n        UserInfo storage user = pool.users[msg.sender];\r\n        require(user.amount == 0, \"Unstack first\");\r\n\r\n        if (_token == NETWORK_TOKEN_VIRTUAL_ADDRESS) {\r\n            require(msg.sender.balance >= _amount, \"Insufficient balance\");\r\n        } else {\r\n            require(pool.info.token.balanceOf(msg.sender) >= _amount, \"Insufficient balance\");\r\n        }\r\n\r\n        user.amount = _amount;\r\n        user.depositDate = block.timestamp;\r\n\r\n        if (_token == NETWORK_TOKEN_VIRTUAL_ADDRESS) {\r\n            networkTokenPoolBalance += _amount;\r\n        } else {\r\n            pool.info.token.transferFrom(msg.sender, address(this), _amount);\r\n        }\r\n\r\n        emit Staked(msg.sender, _token, _amount);\r\n    }\r\n\r\n    /**\r\n     * @param _token: pool token address\r\n     * @param _pool: pool informations\r\n     * @param _user: user informations\r\n     * @dev calculate rewards by staked time in seconds\r\n     */\r\n    function _calculateReward(\r\n        address _token,\r\n        PoolInfo storage _pool,\r\n        UserInfo storage _user\r\n    ) internal view returns (uint256) {\r\n        require(block.timestamp >= _user.depositDate, \"Deposit date problem\");\r\n\r\n        return _user.amount\r\n            * (block.timestamp - _user.depositDate)\r\n            * _pool.yield / 100 / 365 / 24 / 60 / 60  // yield(%) by second\r\n            * uint256(getLastPrice(address(rewardToken))) / uint256(getLastPrice(_token)) // must be return in reward token\r\n        ;\r\n    }\r\n\r\n    /**\r\n     * @notice Unstake all in this pool\r\n     * @param _token: pool token address\r\n     */\r\n    function unstake(address _token) external {\r\n        Pool storage pool = pools[_token];\r\n        UserInfo storage user = pools[_token].users[msg.sender];\r\n        require(user.amount > 0, \"Nothing to unstake\");\r\n\r\n        uint256 rewards = _calculateReward(\r\n            _token,\r\n            pool.info,\r\n            user\r\n        );\r\n\r\n        uint256 stakedAmount = user.amount;\r\n        user.amount = 0;\r\n\r\n        if (_token == NETWORK_TOKEN_VIRTUAL_ADDRESS) {\r\n            networkTokenPoolBalance -= user.amount;\r\n            (bool sent,) = payable(msg.sender).call{value: stakedAmount}(\"\");\r\n            require(sent, \"Failed to send Ether\");\r\n        } else {\r\n            pool.info.token.transfer(msg.sender, stakedAmount);\r\n        }\r\n\r\n        rewardToken.transfer(msg.sender, rewards);\r\n\r\n        emit Unstaked(msg.sender, _token, stakedAmount);\r\n    }\r\n\r\n    /**\r\n     * @notice get pending rewards for amount staked\r\n     * @param _token: pool token address\r\n     * @return current rewards for amount staked\r\n     */\r\n    function pendingReward(address _token) external view returns (uint256) {\r\n        Pool storage pool = pools[_token];\r\n        UserInfo storage user = pools[_token].users[msg.sender];\r\n\r\n        return _calculateReward(\r\n            _token,\r\n            pool.info,\r\n            user\r\n        );\r\n    }\r\n\r\n    /**\r\n     * @notice to retrieve the token's last price\r\n     * @param _token: pool token address\r\n     * @return the last price of this token *\r\n     * @dev /!\\ return a signed integer /!\\\r\n     */\r\n    function getLastPrice(address _token) public view returns (int) {\r\n        Pool storage pool = pools[_token];\r\n        (,int lastPrice,,,) = pool.info.priceFeed.latestRoundData();\r\n\r\n        return lastPrice;\r\n    }\r\n}",
  "sourcePath": "C:\\Users\\aaast\\Alyra\\mnp-trufflebox\\contracts\\Staking.sol",
  "compiler": {
    "name": "solc",
    "version": "0.8.10+commit.fc410830.Emscripten.clang"
  },
  "schemaVersion": "3.4.3",
  "updatedAt": "2022-01-18T11:31:02.257Z",
  "networkType": "ethereum",
  "devdoc": {
    "kind": "dev",
    "methods": {
      "addPool(address,address,uint256)": {
        "params": {
          "_priceFeed": ": pool token feed",
          "_token": ": pool token address",
          "_yield": ": Percentage token yield."
        }
      },
      "constructor": {
        "details": "initiate reward token and build the first pool with it.",
        "params": {
          "_networkTokenSymbol": "Network token symbol",
          "_rewardToken": "reward token address",
          "_rewardTokenFeed": "reward token feed",
          "_yield": "Percentage reward token yield. This token can be stake too."
        }
      },
      "getLastPrice(address)": {
        "details": "/!\\ return a signed integer /!\\",
        "params": {
          "_token": ": pool token address"
        },
        "returns": {
          "_0": "the last price of this token *"
        }
      },
      "getPoolBalance(address)": {
        "params": {
          "_token": ": pool token address"
        },
        "returns": {
          "_0": "balance"
        }
      },
      "getPools()": {
        "returns": {
          "_0": "array of addresses"
        }
      },
      "getUserBalanceInPool(address,address)": {
        "params": {
          "_token": ": pool token address",
          "_user": ": user address"
        }
      },
      "owner()": {
        "details": "Returns the address of the current owner."
      },
      "pendingReward(address)": {
        "params": {
          "_token": ": pool token address"
        },
        "returns": {
          "_0": "current rewards for amount staked"
        }
      },
      "renounceOwnership()": {
        "details": "Leaves the contract without owner. It will not be possible to call `onlyOwner` functions anymore. Can only be called by the current owner. NOTE: Renouncing ownership will leave the contract without an owner, thereby removing any functionality that is only available to the owner."
      },
      "stake(address,uint256)": {
        "details": "Approval is needed before calling this method.",
        "params": {
          "_amount": ": staked amount",
          "_token": ": pool token address"
        }
      },
      "transferOwnership(address)": {
        "details": "Transfers ownership of the contract to a new account (`newOwner`). Can only be called by the current owner."
      },
      "unstake(address)": {
        "params": {
          "_token": ": pool token address"
        }
      }
    },
    "version": 1
  },
  "userdoc": {
    "kind": "user",
    "methods": {
      "addPool(address,address,uint256)": {
        "notice": "method to add a pool. Can only performed by contract's owner"
      },
      "getLastPrice(address)": {
        "notice": "to retrieve the token's last price"
      },
      "getPoolBalance(address)": {
        "notice": "get pool balance for contract"
      },
      "getPools()": {
        "notice": "get all pools addresses added in contract."
      },
      "getUserBalanceInPool(address,address)": {
        "notice": "This contract is made for staking ERC20 tokens to earn an ERC20 token."
      },
      "pendingReward(address)": {
        "notice": "get pending rewards for amount staked"
      },
      "stake(address,uint256)": {
        "notice": "Stake your token in this pool"
      },
      "unstake(address)": {
        "notice": "Unstake all in this pool"
      }
    },
    "notice": "This contract is made for staking ERC20 tokens to earn an ERC20 token.",
    "version": 1
  }
}