{
  "contractName": "VRFCoordinatorContract",
  "abi": [
    {
      "inputs": [],
      "stateMutability": "nonpayable",
      "type": "constructor"
    },
    {
      "inputs": [
        {
          "internalType": "bytes32",
          "name": "requestId",
          "type": "bytes32"
        },
        {
          "internalType": "uint256",
          "name": "randomness",
          "type": "uint256"
        },
        {
          "internalType": "address",
          "name": "BoardAddress",
          "type": "address"
        }
      ],
      "name": "saveData",
      "outputs": [],
      "stateMutability": "nonpayable",
      "type": "function"
    },
    {
      "inputs": [
        {
          "internalType": "bytes32",
          "name": "requestId",
          "type": "bytes32"
        }
      ],
      "name": "sendRandomness",
      "outputs": [],
      "stateMutability": "nonpayable",
      "type": "function"
    },
    {
      "inputs": [],
      "name": "getLastRequestID",
      "outputs": [
        {
          "internalType": "bytes32",
          "name": "",
          "type": "bytes32"
        }
      ],
      "stateMutability": "view",
      "type": "function"
    },
    {
      "inputs": [],
      "name": "getLastRandomness",
      "outputs": [
        {
          "internalType": "uint256",
          "name": "",
          "type": "uint256"
        }
      ],
      "stateMutability": "view",
      "type": "function"
    }
  ],
  "bytecode": "0x608060405234801561001057600080fd5b506103f5806100206000396000f3fe608060405234801561001057600080fd5b506004361061004c5760003560e01c80631d7c1fcc146100515780638e4c2b291461006d5780638f8e8b1c1461008b578063a4c343f2146100a7575b600080fd5b61006b6004803603810190610066919061022e565b6100c5565b005b610075610168565b604051610082919061026a565b60405180910390f35b6100a560048036038101906100a09190610319565b610172565b005b6100af6101d6565b6040516100bc919061037b565b60405180910390f35b60008054906101000a900473ffffffffffffffffffffffffffffffffffffffff1673ffffffffffffffffffffffffffffffffffffffff166394985ddd8260016000858152602001908152602001600020546040518363ffffffff1660e01b8152600401610133929190610396565b600060405180830381600087803b15801561014d57600080fd5b505af1158015610161573d6000803e3d6000fd5b5050505050565b6000600254905090565b81600160008581526020019081526020016000208190555082600281905550806000806101000a81548173ffffffffffffffffffffffffffffffffffffffff021916908373ffffffffffffffffffffffffffffffffffffffff160217905550505050565b600060016000600254815260200190815260200160002054905090565b600080fd5b6000819050919050565b61020b816101f8565b811461021657600080fd5b50565b60008135905061022881610202565b92915050565b600060208284031215610244576102436101f3565b5b600061025284828501610219565b91505092915050565b610264816101f8565b82525050565b600060208201905061027f600083018461025b565b92915050565b6000819050919050565b61029881610285565b81146102a357600080fd5b50565b6000813590506102b58161028f565b92915050565b600073ffffffffffffffffffffffffffffffffffffffff82169050919050565b60006102e6826102bb565b9050919050565b6102f6816102db565b811461030157600080fd5b50565b600081359050610313816102ed565b92915050565b600080600060608486031215610332576103316101f3565b5b600061034086828701610219565b9350506020610351868287016102a6565b925050604061036286828701610304565b9150509250925092565b61037581610285565b82525050565b6000602082019050610390600083018461036c565b92915050565b60006040820190506103ab600083018561025b565b6103b8602083018461036c565b939250505056fea26469706673582212209b5819585d6fbdd8167ee6130ddaa7893c421af92a0b965245d9942b80809af064736f6c634300080a0033",
  "immutableReferences": {},
  "source": "// VRFCoordinator.sol\r\n// SPDX-License-Identifier: MIT\r\n\r\npragma solidity 0.8.10;\r\n\r\nimport \"../Board.sol\";\r\n\r\n// @dev only used for local development with Ganache\r\ncontract VRFCoordinatorContract {\r\n    BoardContract Board;\r\n    mapping(bytes32 => uint256) randomnessByRequestID;\r\n    bytes32 lastRequestID;\r\n\r\n    constructor() {}\r\n\r\n    function saveData(bytes32 requestId, uint256 randomness, address BoardAddress) external {\r\n        randomnessByRequestID[requestId] = randomness;\r\n        lastRequestID = requestId;\r\n        Board = BoardContract(BoardAddress);\r\n    }\r\n\r\n    function sendRandomness(bytes32 requestId) external {\r\n        Board.rawFulfillRandomness(requestId, randomnessByRequestID[requestId]);\r\n    }\r\n\r\n    function getLastRequestID() public view returns (bytes32) {\r\n        return lastRequestID;\r\n    }\r\n\r\n    function getLastRandomness() public view returns (uint256) {\r\n        return randomnessByRequestID[lastRequestID];\r\n    }\r\n}",
  "sourcePath": "C:\\Users\\aaast\\Alyra\\mnp-trufflebox\\contracts\\notUsedInProduction\\VRFCoordinator.sol",
  "compiler": {
    "name": "solc",
    "version": "0.8.10+commit.fc410830.Emscripten.clang"
  },
  "schemaVersion": "3.4.3",
  "updatedAt": "2022-01-26T13:19:14.650Z",
  "networkType": "ethereum",
  "devdoc": {
    "kind": "dev",
    "methods": {},
    "version": 1
  },
  "userdoc": {
    "kind": "user",
    "methods": {},
    "version": 1
  }
}